:020000040800F2
:1000000080050020AD0100089719000813190008A9
:10001000951900089B080008851D000800000000D5
:100020000000000000000000000000009B19000814
:100030002509000800000000991900089D19000812
:10004000C7010008C7010008C7010008C701000870
:10005000C7010008C7010008C7010008C701000860
:10006000C7010008C7010008C7010008C701000850
:10007000C7010008C7010008C7010008C701000840
:100080009D080008C7010008C70100080000000023
:10009000000000000000000000000000C701000890
:1000A000C7010008C7010008C7010008C701000810
:1000B000C7010008C7010008C7010008C701000800
:1000C000C7010008C7010008C7010008C7010008F0
:1000D000C7010008C7010008C701000800000000B0
:1000E000C7010008C7010008C701000800000000A0
:1000F000000000000000000000000000C701000830
:1001000000000000C7010008C7010008C70100087F
:1001100000000000000000000000000000000000DF
:10012000C7010008C7010008C7010008C70100088F
:10013000C7010008000000000000000000000000EF
:10014000000000000000000000000000C7010008DF
:10015000C7010008C7010008C7010008C70100085F
:10016000C7010008C70100080000000000000000EF
:10017000000000000000000000000000000000007F
:1001800000000000C701000800000000000000009F
:10019000C7010008C7010008DFF80CD000F0EEFA34
:1001A00000480047E52800088005002006488047F1
:1001B00006480047FEE7FEE7FEE7FEE7FEE7FEE74C
:1001C000FEE7FEE7FEE7FEE7211A000899010008B6
:1001D0002DE9F05F0546002092469B46884606467C
:1001E000814640241BE0284641464746224600F00F
:1001F000A8F853465A46C01A914110D311461846E2
:10020000224600F08FF82D1A67EB01084F46224670
:100210000120002100F086F817EB00094E41201E56
:10022000A4F10104DFDC484631462A464346BDE8D6
:10023000F09F40EA01039B0703D009E008C9121FA1
:1002400008C0042AFAD203E011F8013B00F8013B90
:10025000521EF9D27047D2B201E000F8012B491EBC
:10026000FBD270470022F6E710B513460A46044653
:100270001946FFF7F0FF204610BD421C10F8011B85
:100280000029FBD1801A70472DE9F04791460F46AF
:1002900080460446002614F8015B2DB100F062F898
:1002A0000068405DC007F6D12B2D02D02D2D18D04F
:1002B000641E4A463946204600F058F827B139688E
:1002C000A14201D1C7F8008071054FF002040BD59F
:1002D0004042002803DD01F08DFD0460A007BDE869
:1002E000F08746F48066E4E70028F8DA01F082FD42
:1002F00004606FF00040F2E730B50B460146002085
:100300002022012409E021FA02F59D4205D303FAD7
:1003100002F5491B04FA02F52844151EA2F1010258
:10032000F1DC30BD202A04DB203A00FA02F1002083
:1003300070479140C2F1200320FA03F31943904023
:100340007047202A04DB203A21FA02F0002170478E
:1003500021FA02F3D040C2F120029140084319462D
:100360007047000000487047F82B00082DE9F05F47
:1003700082460078002715468B460AF10104B946EB
:10038000302801D09DB113E014F8010B0127782823
:1003900003D0582801D045B10AE00DB1102D07D186
:1003A0000027102514F8010B02E0082500E00A25BB
:1003B0000026B0460EE005FB080005FB06F101270C
:1003C00001EB10461FFA80F8B6F5803F00D3B9461E
:1003D00014F8010B294600F0F5F90028EBDABBF11F
:1003E000000F05D00FB1641E00E05446CBF800406A
:1003F000B9F1000F06D001F0FDFC02210160C81E1A
:10040000BDE8F09F48EA0640FAE72DE9FE4F804636
:1004100081EA0300C00F0C46009021F0004123F058
:100420000045B8EB0200A94105D24046214690465E
:100430001C460B46024623F00040104347D0270DD0
:10044000C7F30A00C3F30A510290401A01904028F2
:100450006BDAC3F3130040F4801B0098924620B17E
:100460000023D2EB030A63EB0B0B01985946C0F152
:1004700040025046FFF756FF06460D465046594685
:10048000019A00F08DF910EB08006141002487EA21
:10049000115284EAE7731A4340D0009A62B3019A7A
:1004A000012A4FEA075215DC001B61EB02014FF0F5
:1004B000004202EA0752CDE90042001C41F58011DA
:1004C00032462B4600F09BF903B0BDE8F08F404662
:1004D0002146F9E7001B61EB0201001C41F5801386
:1004E00000185B412018A2F5001747EB030140EA12
:1004F000D570B6196D4111E06D084FEA360645EA30
:10050000C0754FEA0752001B61EB0201001C41F568
:10051000801149084FEA30000019514132462B46FC
:1005200003B0BDE8F04F00F05BB900980122400035
:100530000023D0EB020263EBE073009821464FEA00
:10054000E074B8EB000061EB0401E9E783F00043DD
:100550005BE781F0004158E72DE9FE4F81EA030493
:1005600004F0004421F0004100944FF0000B23F010
:10057000004350EA01045ED052EA03045BD0C3F3A7
:100580000A54C1F30A552C44A4F2F3340194A0FB9D
:100590000254C1F3130141F48011C3F3130343F474
:1005A000801301FB024400FB034E840A970A44EACD
:1005B000815447EA8357A4FB076802958D0A05FB1F
:1005C00007854FEA932C04FB0C542705029D4FEA44
:1005D000065847EA1637B5EB08056EEB070C870E91
:1005E000920E47EA811742EA8312A7FB0201B6EB9B
:1005F0000B0164EB00042B0D43EA0C335E1844EB53
:100600001C50DA465146E7FB0201C5F313044FEADA
:100610000B3343EA14534FEA0432019C43EA0603C6
:10062000A4F10C040294009CCDE900B400F0E7F8BA
:1006300003B0BDE8F08F00200146F9E72DE9F04D49
:1006400081EA030404F0004B21F0004514464FF00A
:10065000000A23F0004150EA050220D054EA0102CA
:100660001DD0C5F30A570246C5F31303C1F31300A7
:10067000C1F30A5640F4801543F48013A7EB060833
:10068000101BD64608F2FD3873EB050002D308F1C3
:10069000010801E092185B41B8F1000F03DA002075
:1006A0000146BDE8F08D00204FF4801106468446D7
:1006B0000EE0171B73EB050705D3121B63EB050355
:1006C00006434CEA010C49084FEA300092185B419E
:1006D00050EA0107EDD152EA030012D082EA040089
:1006E00083EA0501084305D0101BAB4106D2012265
:1006F000002306E000224FF0004302E06FF0010209
:1007000053101AEB06004CEB085110EB0A0041EBBA
:100710000B01BDE8F04D00F063B8C1F30A52C1F31C
:10072000130140F2FF3341F480119A4202DA0020B3
:100730000146704740F233439A42A2F2334202DC50
:100740005242FFF7FEBDFFF7EDBD000030B5041EBD
:1007500071F1000404DB4FF00044404264EB0101FE
:10076000141E73F1000405DB1C464FF00043524297
:1007700063EB0403994208BF904230BD064C074D1D
:1007800006E0E06840F0010394E807009847103461
:10079000AC42F6D3FFF704FDFC2B00081C2C00082C
:1007A000202A06DBCB17203A41FA02F043EAE07335
:1007B00006E041FA02F3D040C2F120029140084322
:1007C000194670473A2800D2303820F02002412ADA
:1007D00001D3A2F13700884201D34FF0FF307047B8
:1007E00010B5141E73F1000408DA401C41F1000139
:1007F00092185B411A4301D120F0010010BD2DE990
:10080000F04D92469B4611B1B1FA81F202E0B0FA86
:1008100080F220329046FFF785FD04460F4640EAFD
:100820000A0041EA0B0153465A46084313D01146C9
:1008300053EA010019D0C8F140025046FFF781FD8C
:1008400005460E46504659464246FFF76BFD0843A3
:1008500005D0012004E020463946BDE8F08D002097
:10086000054346EAE0762C4337430A986305E40AD9
:10087000A0EB08000022FD0A44EA47540A3002D5E2
:1008800000200146E9E7010510196941DDE9084545
:1008900000196941BDE8F04DA2E7FEE7014800F00C
:1008A00041B900000001002001681823CAB2103AC3
:1008B000B2FBF3F2054B6FF30901032A9B5CC3659E
:1008C00000D9091D8165084670470000542B0008B7
:1008D00010B5014600208B698A6A4FF0C07453B18D
:1008E000B3F5005F15D072B1012A0CD0022A0AD0EC
:1008F000032A09D104E01AB1012A06D0022A03D141
:10090000C96AC90100D5012010BDC96AA142FAD047
:1009100010BD002AF7D0012AF2D0022AF3D0032A10
:10092000F3D010BD70477047002229B101291AD0B9
:1009300002291BD04FF440720E490B6823F4407318
:100940000B600B6813430B600A6822F0F8020A6020
:100950000A68022303EBC00002430A60086840F4FF
:100960008030086070474FF48072E5E74FF4007202
:10097000E2E70000103C0240064A136823F440738B
:10098000136013681360136843F001031360017070
:1009900070470000103C0240084910B50C6824F470
:1009A00040740C600C6844F440740C600C6844F0B3
:1009B00001040C600260436010BD0000103C024066
:1009C000074A136823F440731360136843F4807379
:1009D0001360136843F00103136001807047000047
:1009E000103C0240074A136823F4407313601368F5
:1009F00043F400731360136843F001031360016054
:100A000070470000103C02401C490868C2061C48A0
:100A100005D5C26942F01002C26110220A600A685C
:100A2000920605D5C26942F00802C26120220A601E
:100A30000A68520605D5C26942F00402C26140222A
:100A40000A600A68120605D5C26942F00202C26154
:100A500080220A600A68D20506D5C26942F0010206
:100A6000C2614FF480720A600A68920705D5C269B4
:100A700042F02002C2610220086070470C3C024034
:100A80006001002070B5114904460020C86100F0E3
:100A9000B7FA06460E4D09E0601C07D024B100F0FD
:100AA000AFFA801BA04201D9032070BD2868C003A3
:100AB000F2D42868C00701D001202860286810F40B
:100AC000F970F2D0FFF7A0FF012070BD6001002097
:100AD0000C3C024010B5040002D0607910B106E071
:100AE000012010BD00202071204600F007F80220F0
:100AF000607101206071002010BD000008B5006821
:100B00000649884208D10648016841F480510160D5
:100B1000006800F48050009008BD000000300240E2
:100B2000303802402DE9F84304464FF00009CDF873
:100B3000009063484FF41651A56D0068B0FBF1F7C3
:100B40002E6894F85C10082000FA01F131420FD0B1
:100B500021680A6852070BD50A6822F004020A606D
:100B600094F85C108840A860606D40F001006065FA
:100B700094F85C104FF0010808FA01F0304208D0F8
:100B800021684969090604D5A860606D40F002003B
:100B9000606594F85C1004208840304208D02168D9
:100BA0000968890704D5A860606D40F0040060659D
:100BB00094F85C1010208840304218D021680968F1
:100BC000090714D5A86020680168490304D50068A6
:100BD000000308D5A16C07E00168C90503D40168CA
:100BE00021F008010160216C09B12046884794F882
:100BF0005C1020208840304231D021680968C90645
:100C00002DD5A86094F8350005282068016806D025
:100C1000490347D5006800031DD4616C1CE021F036
:100C2000160101602068416921F080014161206C5A
:100C300008B9A06C20B12068016821F008010160AA
:100C400094F85C103F208840A86084F8349084F8C1
:100C50003580216D1FE0E16B09B120468847606D4A
:100C600000282BD0606DC00714D0052084F8350013
:100C70002068016821F0010101600098401C00908B
:100C8000B84203D820680068C007F6D184F83490D1
:100C900084F83580E16C002910D001B02046BDE811
:100CA000F04308470168C905D5D4016821F0100157
:100CB000016084F8349084F83580CCE7BDE8F8838F
:100CC000240000202DE9F041044600F099F9064681
:100CD0005CB1002584F83450022084F83500206887
:100CE000016821F0010101600DE00120BDE8F08103
:100CF00000F086F9801B052805D9202060650320B7
:100D000084F83500F2E720680068C007F0D1226857
:100D1000116820480140D4E901031843D4E903369F
:100D20003343184363691843A3691843E3691843BD
:100D3000236A18430843616A042903D1D4E90B13D9
:100D400019430843106020684069666A20F0070173
:100D500030460E43012704280CD1A06A0643E06AFE
:100D600040B12046FFF7B4FD20B14020606584F813
:100D70003570BAE7206846612046FFF795FD94F884
:100D80005C203F2191408160656584F835700020CA
:100D9000ACE700003F8010F00348016841F00041DB
:100DA0000160002070470000103C02402DE9F04730
:100DB0001B4E05461446307E1F468946012808D042
:100DC000012030764CF250384046FFF75BFE18B1F8
:100DD00014E00220BDE8F0879DB1012D16D0022D50
:100DE00019D022463B464846FFF7D6FD4046FFF75E
:100DF00049FE0C490A6822F001020A60002131769E
:100E0000E8E7E1B24846FFF7B7FDEFE7A1B2484691
:100E1000FFF7D6FDEAE721464846FFF7E3FDE5E7A1
:100E200060010020103C0240074900200A68002AA7
:100E300009DA054A054B0C3A1360054B1360096843
:100E4000002900DA01207047103C02402301674569
:100E5000AB89EFCD2DE9F84FDFF860B100224FF0FC
:100E600001084FF0030A4FF00F090BF1040E00BF09
:100E70000B6808FA02F42340A3426ED14D68022D9C
:100E800001D0122D0ED1D50800EB850CDCF82050D6
:100E90005607F70E09FA07F6B5430E69BE402E4312
:100EA000CCF82060066855000F790AFA05FC07F0B7
:100EB000030726EA0C06AF40374307604E68012E51
:100EC00005D0022E03D0112E01D0122E0ED186682D
:100ED000CF6826EA0C06AF40374387604668A643D2
:100EE0000C79C4F30014944034434460C6688C68A1
:100EF00026EA0C06AC403443C4604C68E40056D586
:100F00002F4C256845F480452560246822F00305B0
:100F100004F4804400942B4C2E19D6F80848950709
:100F20002F0F09FA07F5AC43274DA84201D1002540
:100F300015E0264DA84201D1012510E0244DA8421C
:100F400001D102250BE0234DA84201D1032506E083
:100F5000214DA84202D1042501E028E00725BD402B
:100F60002543C6F80858DBF800405D464E689C43B0
:100F7000F60300D51C432C60DEF8004075464E6831
:100F80009C43B60300D51C432C600C4D08352C68DF
:100F90004E689C43F60200D51C432C60074D0C356F
:100FA0002C684E689C43B60200D51C432C60521C32
:100FB000102AFFF45DAFBDE8F88F0000003C01404F
:100FC000443802400030014000000240000402406A
:100FD00000080240000C0240001002400069084076
:100FE00000D001207047426931EA020200D10904B1
:100FF000816170470AB1816170470904FBE7000015
:10100000014880687047000018000020024881688D
:101010000278114481607047180000200B4810B519
:10102000016841F400710160016841F48061016070
:10103000016841F480710160032000F06FF8002026
:1010400000F006F800F024F8002010BD003C02403B
:1010500070B50D4D04464FF47A712878B1FBF0F06D
:101060000A490968B1FBF0F000F0E2FA48B9102C27
:1010700007D200222146501E00F030F800206C609C
:1010800070BD012070BD0000180000202400002069
:101090000A4808B5016841F480410160006800F425
:1010A000804000900548001F016841F080510160B8
:1010B000006800F08050009008BD000044380240F5
:1010C000002809DB00F01F02012191404009800047
:1010D00000F1E020C0F8001170470000F0B40E4BA2
:1010E0001B680C46C3F30223C3F10705042D00D986
:1010F0000425191D072901D2002300E0DB1E01266B
:1011000006FA05F1491E214099409E40761E164080
:101110003143F0BC00F05EBE0CED00E0064900F08B
:10112000070208684FF6FF03184040EA0220034A0E
:1011300010430860704700000CED00E00000FA0565
:101140002DE9F0470E46050065D0DFF81481D8F888
:101150000000F7B200F00F00B04207D288F800702C
:10116000D8F8000000F00F00B04254D128683D4C80
:10117000810712D5400703D5206840F4E050206075
:101180002878000703D5206840F46040206020687C
:10119000A96820F0F000084320602878C0072DD00F
:1011A000304968680839012812D0022813D0032872
:1011B00011D00968890700292DDA216821F003017F
:1011C00001432160FFF71CFF814641F2883A0EE09F
:1011D00009688903EFE709688901ECE7FFF710FF69
:1011E000A0EB0901514502D90320BDE8F087206832
:1011F000696800F00C00B0EB810FEFD1D8F8001057
:10120000404601F00F01B14207D90770006800F0B5
:101210000F00B04201D00120E7E72878400705D54C
:101220002068E96820F4E05008432060287800072F
:1012300006D52068296920F4604040EAC10020609A
:1012400000F036F82168084AC1F30311515CC84028
:10125000064908600020FFF7FBFE0020C5E70000FC
:10126000003C0240083802405C2B000824000020AB
:101270000448054900680968044AC1F38221515CA9
:10128000C840704724000020083802406C2B00083A
:101290000448054900680968044AC1F34231515CB9
:1012A000C840704724000020083802406C2B00081A
:1012B000154810B5006810F00C02144813D01449FA
:1012C000042A0FD0082A0ED10F4C241F226823684D
:1012D00002F03F025B0207D52068C0F38810A0FB34
:1012E000010106E0084610BD2168C1F38811A1FB89
:1012F00000010023FEF76CFF2168C1F30141491C86
:101300004900B0FBF1F010BD083802400024F400A1
:1013100040787D012DE9F84F050076D02878DFF878
:10132000F8B2BE4CC00749D0DBF800105846C1F3F4
:101330008101012908D00068C0F3810002280AD188
:10134000201D0068400206D52068800336D56868F5
:101350000028E2D032E06868B0F5803F10D0B0F5E8
:10136000A02F206810D020F480302060206820F466
:10137000802020606868A0B1FFF742FE06460CE0BE
:10138000206840F48030F4E740F480202060F7E7E4
:10139000FFF736FE801B642873D820688003F7D5DA
:1013A0000CE0FFF72DFE064605E000BFFFF728FE24
:1013B000801B6428F0D820688003F7D42878DFF8F1
:1013C000608280074FF000093ED5DBF800105846D8
:1013D00011F00C0F09D00068C0F3810002280BD176
:1013E0008D48001F0068400206D42068800715D58C
:1013F000E868012809D111E0E868B8B10120C8F80F
:101400000000FFF7FDFD064605E002E1FFF7F8FDED
:10141000801B0228C0D820688007F7D5206829697A
:1014200020F0F80040EAC10020600DE0C8F800900C
:10143000FFF7E6FD064604E0FFF7E2FD801B022809
:101440001FD820688007F7D42878000722D5724E6D
:10145000744869696C3671B101210160FFF7D0FDF4
:10146000074604E0FFF7CCFDC01B022809D830680E
:101470008007F7D50EE0C0F80090FFF7C1FD0746E2
:1014800005E083E0FFF7BCFDC01B02287ED8306872
:101490008007F7D42878400768D5DFF87CA10027BB
:1014A0000AF1380ADAF80000C0000BD4DAF80010AC
:1014B00041F08051CAF80010DAF80000012700F06E
:1014C00080500090584E3068C00510D4306840F409
:1014D00080703060FFF794FD009005E0FFF790FD0D
:1014E0000099401A022851D83068C005F6D54A4EF6
:1014F000A868683601280FD00528306810D020F081
:1015000001003060306820F004003060A868B8B195
:10151000FFF776FD00900FE0306840F00100F4E73F
:1015200040F004003060F7E7FFF76AFD0099411AC8
:1015300041F28830814264D830688007F4D50EE0EB
:10154000FFF75EFD009007E0FFF75AFD0099411A92
:1015500041F28830814254D830688007F4D42FB1EA
:10156000DAF8001021F08051CAF80010A869C0B361
:10157000DBF80010C1F3810102294AD00228484655
:1015800007D0C8F86000FFF73BFD00E039E00546F2
:101590003AE04746C8F86000FFF732FD064604E02F
:1015A000FFF72EFD801B02282BD820688001F7D47E
:1015B000D5E907010843A96A1C4A490802EB014121
:1015C0006A6A41EA8211084395F82C1040EA0161E9
:1015D0001148001F016001203866FFF711FD054624
:1015E00005E014E0FFF70CFD401B022809D8206835
:1015F0008001F7D50BE000BFFFF702FD401B02287A
:1016000002D90320BDE8F88F20688001F4D40020BF
:10161000F8E70120F6E700000838024000380240F1
:1016200000004742800E4742007000400000FFFF6C
:1016300010B5401EB0F1807F01D3012010BD4FF0E6
:10164000E02460610F21601700F0C4FB0020A0615E
:1016500007202061002010BD70B5040004D094F86C
:101660003900002510B106E0012070BD84F8385023
:10167000204600F023F8242084F839002068C1684F
:1016800021F40051C160204600F0F4F9206801699E
:1016900021F4904101612068416921F02A014161F2
:1016A0002068C16841F40051C160E563202084F8DE
:1016B000390084F83A00002070BD0000F0B587B012
:1016C000064614216846FEF7CDFD2E4F30680025F2
:1016D0002D49022201230324B84234D12A48103074
:1016E000076847F400370760006800F40030059091
:1016F000086840F0010008600868694600F00100D1
:1017000005900C208DE81D00072004901F48FFF76E
:10171000A1FB204C1E4820604FF00060C4E9010589
:101720004014C4E9035080106561C4E90650256285
:1017300020466562FFF7C6FA08B1FFF7F4F8746354
:10174000A66307B0F0BD144DA842FAD10E4814307C
:10175000056845F020050560006800F02000059050
:10176000086840F0040008600868694600F004005A
:101770000590C0208DE81D00082004900748FFF761
:1017800069FBDEE7004400403038024000000240C0
:10179000886002400001002000140140000802405F
:1017A0002DE9F843044690F83A00994616460D464E
:1017B00020284FD195B18EB194F83800012849D036
:1017C000012084F838000027E763222084F83A00DB
:1017D000FFF716FCA6858046E68531E00120BDE8CE
:1017E000F883E08D401EE085A0684346B0F5805F39
:1017F0004FF000024FF020012046CDF8009004D0B9
:1018000000F08EFA98B10320E9E700F089FA002889
:10181000F9D1206900282068406803D0C1B225F8BA
:10182000011B0DE0C0F3080125F8021B08E0206948
:1018300000282068406801D000F07F0005F8010B07
:10184000E08D0028CDD1202084F83A0084F838704B
:101850000020C4E70220C2E72DE9F843044690F8CF
:1018600039001F4616460D46202850D1A5B19EB11D
:1018700094F8380001284AD0012084F838004FF04D
:101880000008C4F83C80212084F83900FFF7B8FB39
:10189000A6848146E68426E00120BDE8F883E08C3A
:1018A000401EE084A0684B46B0F5805F4FF0000218
:1018B0004FF080012046009703D000F031FAE8B9DC
:1018C0000DE000F02DFAC8B928882168C0F308009F
:1018D0004860206908B16D1C05E0AD1C03E021687B
:1018E00015F8010B4860E08C0028D8D14B46002247
:1018F00040212046009700F013FA08B10320CCE7FE
:10190000202084F8390084F838800020C5E70220C0
:10191000C3E7FEE7F0B587B014216846FEF7A2FCE6
:1019200019480024016841F001010160016801F0DB
:1019300001010591016841F008010160016801F0B1
:1019400008010591016841F00401016000680F4F32
:1019500000F004004FF470460590002231463846EE
:10196000FFF748FB0125CDE9005469460848029479
:10197000FFF770FA0096CDE90154694638460394A2
:10198000FFF768FA07B0F0BD30380240000C0240A3
:1019900000000240FEE7704770477047FFF736BB14
:1019A00030B593B030216846FEF75CFC14210CA8DA
:1019B000FEF758FC18480025016841F0805101608D
:1019C000006800F0805011901448016841F44041D3
:1019D00001600068022400F440401190012003904F
:1019E00010200490009406940820CDE9075054205C
:1019F000CDE9090404200B906846FFF78BFC0CA985
:101A00000F2081E83100E002CDE90F0502210CA88A
:101A1000FFF796FB13B030BD403802400070004025
:101A20001048016841F4700101600F48016841F0FD
:101A3000010101600C4A00210832116002680B4B61
:101A40001A400260031D0A4A1A60026822F48022CA
:101A5000026005480C300160024958068039086070
:101A60007047000088ED00E000380240FFFFF6FEFE
:101A7000103000242DE9F041044600680169E26855
:101A800021F44051114301612169A068E2690843D2
:101A90006169114322680843D16849F20C63994394
:101AA0000143D16020684169A26921F4407111436A
:101AB0004161E2696425B2F5004F97489749226871
:101AC0004FF032083FD08A4201D082427CD1FFF7EA
:101AD000DFFB00EBC00101EB001061688900B0FB87
:101AE000F1F6FFF7D5FB00EBC00101EB00106168D8
:101AF0008900B0FBF1F0B0FBF5F06FF0180148433E
:101B000006EB800108EB0110B0FBF5F000F0F006E9
:101B1000FFF7BEFB00EBC00101EB0010616889001C
:101B2000B0FBF1F0B0FBF5F006EB0016FFF7B0FBF1
:101B300000EBC00101EB001061688900B0FBF1F718
:101B4000FFF7A6FBD2E08A4201D082423DD1FFF7E7
:101B50009FFB00EBC00101EB001061684900B0FB86
:101B6000F1F0B0FBF5F00601FFF792FB00EBC001CE
:101B700001EB001061684900B0FBF1F7FFF788FB4B
:101B800000EBC00101EB001061684900B0FBF1F00F
:101B9000B0FBF5F06FF01801484307EB800108EB4C
:101BA000C100B0FBF5F000F0F80006EB4006FFF7CF
:101BB0006FFB00EBC00101EB001061684900B0FB56
:101BC000F1F7FFF765FB3CE055E0FFF751FB00EB59
:101BD000C00101EB001061684900B0FBF1F0B0FBFF
:101BE000F5F00601FFF744FB00EBC00101EB00102C
:101BF00061684900B0FBF1F7FFF73AFB00EBC00169
:101C000001EB001061684900B0FBF1F0B0FBF5F0AA
:101C10006FF01801484307EB800108EBC100B0FBEF
:101C2000F5F000F0F80006EB4006FFF721FB00EBB3
:101C3000C00101EB001061684900B0FBF1F7FFF74C
:101C400017FB00EBC00101EB001061684900B0FB1D
:101C5000F1F0B0FBF5F06FF01801484307EB80019D
:101C600008EBC100B0FBF5F000F00700216830443C
:101C70008860BDE8F081FFF7FBFA00EBC00101EBE3
:101C8000001061688900B0FBF1F6FFF7F1FA00EB94
:101C9000C00101EB001061688900B0FBF1F0B0FBFE
:101CA000F5F06FF01801484306EB800108EB0110D6
:101CB000B0FBF5F000F0F006FFF7DAFA00EBC00138
:101CC00001EB001061688900B0FBF1F0B0FBF5F0AA
:101CD00006EB0016FFF7CCFA00EBC00101EB001099
:101CE00061688900B0FBF1F7FFF7C2FA00EBC001B1
:101CF00001EB001061688900B0FBF1F0B0FBF5F07A
:101D00006FF01801484307EB800108EB0110B0FBAE
:101D1000F5F000F00F00A9E70014014000100140A9
:101D20002DE9F041984617460E460446069D1DE0F3
:101D3000681C1BD02DB1FFF763F9A0EB0800A84287
:101D400014D92068C16821F4D071C160206841694C
:101D500021F001014161202084F8390084F83A0023
:101D6000002084F838000320BDE8F0812068006876
:101D700036EA000004D00020B842D9D00020F3E7B2
:101D80000120F9E7FEE700000FB4084B10B504A9E5
:101D900002AA039800F004F9044602A9002000F00A
:101DA00096FC204610BC5DF814FB0000CF2600080E
:101DB00037B514460846064B6A46214600F0F0F84F
:101DC00004466946002000F082FC20463EBD00002B
:101DD000CF2600080907090E002804DB00F1E020E7
:101DE00080F80014704700F00F0000F1E02080F848
:101DF000141D7047004870472800002002E008C802
:101E0000121F08C1002AFAD170477047002001E074
:101E100001C1121F002AFBD1704700002DE9FF5FAE
:101E200082B00021DDE90430020DDDF840B003434B
:101E300018D044F61050A2F2FF3242431514119804
:101E400001281FD0A5EB0B00401C5FEA000A4FF0F1
:101E500000064E4FDFF83891B046504615D5CAF10E
:101E6000000413E0119801244AA3012801D16FEA6C
:101E70000B010298119AC0E90031C0E9024206B094
:101E8000BDE8F09FCBF10000DFE704460021404AA7
:101E9000491842EB0450CDE9001012E0E00707D0EA
:101EA00032463B4640464946FEF756FB8046894649
:101EB00032463B4610461946FEF74EFB06460F4695
:101EC0006410002CEAD1DDE90401DDE90023BAF158
:101ED000000F06DAFEF740FB42464B46FEF73CFB9E
:101EE00005E0FEF7ABFB42464B46FEF7A7FB044678
:101EF0000E460022284BFEF729FC03D84FF0FF3096
:101F0000014607E00022254B20463146FEF77DFAC8
:101F1000FEF703FC102409E0002C0ADB0A22002350
:101F2000FEF756F9039B30321A55641E50EA01023F
:101F3000F2D1641C039AC4F111031444119A012ACA
:101F400003D0012208430DD10AE0084304D0002049
:101F50004FF0110B119072E7A3EB0B056D1E0DE016
:101F60005B4504DD4FF0000205F1010504E003DAF2
:101F70004FF00002A5F10105002AECD0029811995A
:101F8000C0E90231C0E9004579E7000000001440D3
:101F90000000F03F300000000000F0430000E03F90
:101FA0002DE9FF4F95B09B468946064600250FE276
:101FB000252877D100242746F84A0121059400E01E
:101FC000044316F8013F203B01FA03F01042F7D119
:101FD00030782A2811D06FF02F033078A0F130022A
:101FE000092A16D8059A44F0020402EB820203EB98
:101FF00042021044761C0590EFE759F8042B059235
:10200000002A03DA504244F40054059044F00204DC
:10201000761C30782E2816D116F8010F44F00404EF
:102020002A280DD06FF02F023078A0F13003092B51
:1020300009D807EB870302EB4303C718761CF3E7C5
:1020400059F8047B761C30786C280FD006DC4C28BD
:1020500017D068280DD06A2814D104E0742810D055
:102060007A280FD10DE044F400140AE044F48014FF
:1020700001E044F440147278824202D104F58014E5
:10208000761C761C307866280BD013DC582877D065
:1020900009DC002875D04528F6D04628F4D047281A
:1020A0001AD19DE118E0632835D0642879D06528DD
:1020B00012D195E1702873D008DC6728F1D0692827
:1020C0006FD06E280DD06F2806D1B5E073282CD0C4
:1020D000752875D0782874D05A46179990476D1C8A
:1020E00075E1C4F30250022809D003280DD0D9F8B5
:1020F000001004280DD00D6009F1040967E1D9F83A
:102100000010EA17C1E90052F6E7D9F800100D8077
:10211000F2E70D70F0E719F8041B8DF800100020AD
:102120008DF80100EA46012003E059F804AB4FF0B6
:10213000FF3061074FF0000102D40DE008F101010A
:102140008846B9420FDA8045F8DB1AF808100029F2
:10215000F4D108E008F1010188468142FADB1AF85F
:1021600008100029F6D105985B46A0EB0807214628
:102170003846179A00F094FA284400EB080507E067
:102180004DE029E10DE01AF8010B5A4617999047E6
:10219000B8F10108F7D25B4621463846179A13E199
:1021A00042E00A220092C4F302524FF0000A022ACF
:1021B00008D059F804CB032A4FEAEC710AD00DE09D
:1021C00029E02AE009F1070121F00702F2E802C143
:1021D000914609E00FFA8CFC4FEAEC71042A03D116
:1021E0004FFA8CFC4FEAEC71002907DA0A4600210D
:1021F000DCF1000C61EB02012D2202E0220504D586
:102200002B228DF80420012203E0E20701D02022D6
:10221000F7E7904659E00A2102E010220DE0102174
:102220004FF0000A00910BE010224FF0000A44F03A
:1022300004040827009203E008224FF0000A0092ED
:10224000C4F30252022A05D059F804CB0021032A14
:1022500008D009E009F1070121F00702F2E802C104
:10226000914605E01FFA8CFC042A01D10CF0FF0C0A
:102270004FF00008220728D5702806D0009B83F075
:10228000100353EA0A0305D00EE040228DF8042023
:10229000012208E05CEA010206D030228DF8042019
:1022A0008DF8050002229046009B83F0080353EA54
:1022B0000A030AD15CEA010201D1620705D5302286
:1022C0008DF804204FF001087F1E582804D034A058
:1022D00003900EA802900DE036A0F9E75346604641
:1022E000009AFDF775FF84460398825C0298401EB1
:1022F000029002705CEA0100F0D1029806A9081A67
:1023000000F1200A600702D524F4803400E00127A0
:10231000574502DDA7EB0A0000E0002000EB0A01B0
:10232000009005984144401A0590E00306D45B46AE
:102330002146179A059800F0B3F90544002706E0F6
:1023400001A85A46C05D179990476D1C7F1C4745F0
:10235000F6DBE0030CD55B462146179A059800F0A2
:102360009FF9054404E030205A46179990476D1CA8
:102370000099481E00900029F5DC08E002980299B7
:102380005A460078491C0291179990476D1CBAF182
:102390000001AAF1010AF1DC65E100000928010051
:1023A00030313233343536373839616263646566CB
:1023B000000000003031323334353637383941428D
:1023C000434445460000000000F058F90544761CDF
:1023D000307800287FF4ECAD19B02846BDE8F08FC6
:1023E000620700D4062709F1070222F0070CFCE877
:1023F0000223E14603F000485FEA080C02D00FF226
:10240000702C0DE05FEA045C02D50FF2682C07E047
:102410005FEAC47C02D00FF2602C01E0AFF2700CD6
:102420004FF0FF3823F00043CDF850C065280CD0A2
:1024300006DC452809D046281DD047283DD13DE07F
:10244000662818D067287ED138E00021112F01DBE3
:10245000112000E0781CCDE9000106A90EA8FFF7C5
:10246000DDFCDDE90F010E9A03910021009207F1D6
:10247000010A04914DE04FF000400097CDE90110B2
:1024800006A90EA8FFF7CAFCDDE90F0203920E9B16
:1024900011990022DDF80CA00093049211B9791C67
:1024A00000EB010AB7EB0A0004D4C0F1FF3007F1DA
:1024B000010A0490AAEB0700019044E0012F00DA22
:1024C00001270021112F01DD112000E03846CDE960
:1024D000000106A90EA8FFF7A1FCDDE90F010E9A85
:1024E0000391002104910092BA4621070CD403996C
:1024F000514500DA8A46BAF1010F05DD009AAAF1CA
:102500000101515C302908D0B84202DA10F1040F01
:1025100006DA0121CDE9011015E0AAF10101E9E790
:10252000002805DC049901440491AAEB000102E0B3
:10253000411C514500DD8A460499401A401C019017
:102540004FF000400290200704D40198504501DB71
:10255000CDF8048000208DF84F0002980DF14F0750
:10256000B0F1004F25D02B200E9002984FF00208BA
:1025700000280CDA404202902D200E9007E00A213C
:102580000298FDF7B9FE3031029007F8011DB8F14D
:102590000001A8F10108F2DC02980028EFD1791EB1
:1025A0000E980870307800F0200040F0450007F8E1
:1025B000020D12A8C01B00F107081498007800B1A2
:1025C000012000EB0A01019801EBE07105984144FC
:1025D000401A401E0590E00306D45B462146179A38
:1025E000059800F05DF805441498007818B15A4633
:1025F000179990476D1CE00324D55B462146179A36
:10260000059800F04DF805441CE00498002807DB0D
:10261000DDE90301884203DD0098405C179901E081
:10262000179930205A469047049805F10105401C3F
:1026300004900198401E019004D12E205A4617990B
:1026400090476D1CBAF10001AAF1010ADDDC05E03A
:1026500017F8010B5A46179990476D1CB8F1000105
:10266000A8F10108F4DC5B462146179A0598ABE611
:102670002D0000002B000000200000002DE9F0419B
:10268000044600251E461746880404D405E0394652
:102690002020B0476D1C641EF9D52846BDE8F081A6
:1026A0002DE9F041044600251E469046C80301D599
:1026B000302700E02027880404D505E0414638464D
:1026C000B0476D1C641EF9D52846BDE8F0810A6844
:1026D000531C0B60107070478EB04EA14F4ED1E965
:1026E0000001CDE900014FF4A047012239463046F0
:1026F000FEF780FC7C00002221463046FEF77AFC83
:10270000474DA86800F09AF86846FDF7B6FD82B21A
:102710004FF0FF3A53466946A5F18000FFF79CF859
:10272000A346404C4FF00009574600BF4FF4A0416C
:102730003046FEF758FC59463046FEF754FC384800
:102740004021C038FDF78EFD35493B46C039402257
:1027500001F14000FFF724F8314903A8C03900F027
:102760003DF938B19DF8140090B1012833D0042808
:1027700019D102E04FF0010818E09DF816009DF80D
:1027800015104FF0000800EB0120000460603EE0EF
:10279000E06818B1C4F80C900498A06003A86168C0
:1027A00000F098F98046B8F1000F30D09DF8350060
:1027B000C043C2B28DF835201BA102A8FFF7E4FA8E
:1027C00020788DF80A0016483B46032202A980387B
:1027D000FFF742F8AAE7142215491148FDF729FD31
:1027E000D4E901010844C5E9000905220C4900208B
:1027F00000F090F9BFF34F8F0E4801680E4A01F4C4
:10280000E06111430160BFF34F8F00BFFDE79DF80A
:102810003520D1E77265616479000000000C024048
:10282000EC0000200000002025303258000000009D
:10283000000006080CED00E00400FA0510B504469F
:10284000FEF7F2FA02212046FEF76EF8BDE81040CE
:10285000FEF7A2BA70B50BA000F024F90F4D28685E
:1028600004680FA0214600F01DF984F30888286849
:10287000446812A0214600F015F9A446BDE8704056
:1028800060470000424C3A204A756D7020746F20FA
:1028900055534552204150500D0A0000EC000020D5
:1028A000424C3A20415050204D53502041646472B4
:1028B0006573733A2025237800000000424C3A20CB
:1028C0004150502052657365742048616E646C6598
:1028D0007220416464726573733A252378200D0A6F
:1028E0000000000008B5FEF799FBFFF759F8FFF765
:1028F00011F827480024016841F4001101600068C4
:10290000224600F40010009021461020FEF7E6FB5E
:102910001020FEF7D5FB20491E4808600846FEF748
:10292000D9F81F481D494FF4E1350160C0E9015451
:102930000C26C460C0E904468461C461FEF78CFEC5
:102940001748184940300160C0E90154C460C0E92B
:1029500004468461C461FEF77FFE114814221249C7
:102960008030FDF766FC01211048FEF737FB18B9EF
:102970000B488030406820B10DA000F093F8FFF7BD
:10298000ABFE10A000F08EF8FFF764FFFEE700003A
:102990003038024000300240100000200044004067
:1029A0006C000020001401400000060800000240F6
:1029B000426F6F746C6F61646572204D6F64650D5A
:1029C0000A000000457865637574696E6720757349
:1029D0006572206170700D0A000000002DE9F84357
:1029E0004FF000080446CDF80080B1F801000E4613
:1029F000ADF800004546102241466846FDF744FC0C
:102A00002070D6F803000090102200216846FDF7E0
:102A10003BFC60600095B6F80700ADF8000010229E
:102A200000216846FDF730FC09252072002706E0EA
:102A3000FDF72AFCE119AD1C4872EDB27F1C20782D
:102A4000CDF80080B84206EB05004FF01002008878
:102A5000ADF800004FF000016846E9DCFDF714FC1A
:102A6000C3B284F829302278606802EB1021C9B221
:102A700051FA80F0217A51FA80F0C1B2002004E0CE
:102A80002518401C6D7A2944C9B28242F8DCC8433B
:102A9000401CC0B2834202D10120BDE8F88300206F
:102AA000FBE700000FB400B595B017AA6846169969
:102AB000FFF77EF96846FDF7E0FB82B24FF0FF3387
:102AC00069460348FEF7C8FE15B05DF814FB000028
:102AD000AC0000202DE9F0410C460546FEF7A4F9B4
:102AE0006868071900240EE028190023427A391972
:102AF0001846FEF75BF9060004D0FEF74DF90120F9
:102B0000BDE8F081641C2878A042EDD8FEF744F9B6
:102B10003046F5E72DE9F0410F460D4916464518B8
:102B20000720FFF78BFEFEF77FF9002409E000BFC6
:102B300057F82420002329460220FEF737F9641CA9
:102B40002D1DB442F4D3BDE8F041FEF725B90000D5
:102B5000000006080006101600061016000000000F
:102B6000000000000102030406070809000000003D
:102B70000102030400404040404040404040414189
:102B80004141414040404040404040404040404042
:102B900040404040400502020202020202020202DC
:102BA00002020202022020202020202020202002D9
:102BB0000202020202029090909090901010101069
:102BC0001010101010101010101010101010101005
:102BD0000202020202028888888888880808080899
:102BE0000808080808080808080808080808080865
:102BF0000202020240000000752B00081C2C000895
:102C0000000000202C000000FC1D0008482C0008DB
:102C10002C000020540500000C1E000824000000B9
:102C200000000000000000000100000000000000A3
:102C30000000000001000000100000000000000083
:082C40000024F4000000000074
:040000050800019955
:00000001FF
