:020000040800F2
:10000000184E00205D020008F712000835120008A3
:10001000F51200088D0300083118000800000000E8
:100020000000000000000000000000009D0100082A
:100030004104000800000000F901000885130008D1
:1000400077020008770200087702000877020008AC
:1000500077020008770200084304000849040008FA
:10006000770200087702000877020008770200088C
:10007000770200087702000877020008770200087C
:100080009103000877020008770200087702000851
:10009000770200087702000877020008770200085C
:1000A000770200087702000877020008770200084C
:1000B000770200087702000877020008770200083C
:1000C000770200087702000877020008770200082C
:1000D000770200087702000877020008770200081C
:1000E000770200087702000877020008770200080C
:1000F00077020008770200087702000877020008FC
:1001000077020008770200087702000877020008EB
:1001100077020008770200087702000877020008DB
:1001200077020008770200087702000877020008CB
:1001300077020008770200087702000877020008BB
:1001400077020008770200087702000877020008AB
:10015000770200087702000877020008770200089B
:10016000770200087702000877020008770200088B
:1001700077020008770200087702000800000000FC
:100180007702000877020008DFF80CD000F0ECF8E6
:1001900000480047A5180008184E00202C4B19688D
:1001A0000868B0E8F04F80F30988BFF36F8F4FF015
:1001B000000080F3118870470000000008480068C4
:1001C000006880F308884FF0000080F3148862B65E
:1001D00061B6BFF34F8FBFF36F8F00DF00BF00BF6B
:1001E00008ED00E0DFF80C00016841F470010160E7
:1001F000704700BF88ED00E0EFF30980BFF36F8F19
:10020000134B1A681EF0100F08BF20ED108A20E96A
:10021000F04F106009B44FF0500080F31188BFF325
:100220004F8FBFF36F8F02F08BFB4FF0000080F316
:10023000118809BC19680868B0E8F04F1EF0100F6B
:1002400008BFB0EC108A80F30988BFF36F8F704746
:1002500020000020EFF3058070470000064880472B
:1002600006480047FEE7FEE7FEE7FEE7FEE7FEE79B
:10027000FEE7FEE7FEE7FEE70D140008890100082F
:100280002DE9F05F0546002092469B4688460646CB
:10029000814640241BE0284641464746224600F05E
:1002A00053F853465A46C01A914110D31146184686
:1002B000224600F03AF82D1A67EB01084F46224615
:1002C0000120002100F031F817EB00094E41201EFB
:1002D000A4F10104DFDC484631462A464346BDE826
:1002E000F09F40EA01039B0703D009E008C9121FF1
:1002F00008C0042AFAD203E011F8013B00F8013BE0
:10030000521EF9D27047D2B201E000F8012B491E0B
:10031000FBD270470022F6E710B513460A460446A2
:100320001946FFF7F0FF204610BD202A04DB203AD3
:1003300000FA02F1002070479140C2F1200320FA38
:1003400003F3194390407047202A04DB203A21FA36
:1003500002F00021704721FA02F3D040C2F12002DE
:100360009140084319467047064C074D06E0E06887
:1003700040F0010394E8070098471034AC42F6D3EC
:10038000FFF706FF98360008B8360008FEE70000C1
:10039000014800F05DB80000E40000200168182367
:1003A000CAB2103AB2FBF3F2054B6FF30901032A0C
:1003B0009B5CC36500D9091D816508467047000034
:1003C0006036000810B5014600208B698A6A4FF03C
:1003D000C07453B1B3F5005F15D072B1012A0CD0CF
:1003E000022A0AD0032A09D104E01AB1012A06D050
:1003F000022A03D1C96AC90100D5012010BDC96A0A
:10040000A142FAD010BD002AF7D0012AF2D0022A68
:10041000F3D0032AF3D010BD30B50468256825F465
:1004200080252560046863608368402B036803D0DF
:1004300099600068C26030BD9A600068C16030BDDC
:100440007047012000F08EB9022000F08BB9704790
:100450002DE9F84304464FF00009CDF800906348B9
:100460004FF41651A56D0068B0FBF1F72E6894F8B3
:100470005C10082000FA01F131420FD021680A68AF
:1004800052070BD50A6822F004020A6094F85C1047
:100490008840A860606D40F00100606594F85C10D1
:1004A0004FF0010808FA01F0304208D0216849698C
:1004B000090604D5A860606D40F00200606594F8FC
:1004C0005C1004208840304208D021680968890700
:1004D00004D5A860606D40F00400606594F85C107D
:1004E00010208840304218D021680968090714D5C7
:1004F000A86020680168490304D50068000308D596
:10050000A16C07E00168C90503D4016821F0080166
:100510000160216C09B12046884794F85C102020C6
:100520008840304231D021680968C9062DD5A860BD
:1005300094F8350005282068016806D0490347D59E
:10054000006800031DD4616C1CE021F016010160FD
:100550002068416921F080014161206C08B9A06CDC
:1005600020B12068016821F00801016094F85C1056
:100570003F208840A86084F8349084F83580216D4D
:100580001FE0E16B09B120468847606D00282BD041
:10059000606DC00714D0052084F83500206801681C
:1005A00021F0010101600098401C0090B84203D87E
:1005B00020680068C007F6D184F8349084F835804C
:1005C000E16C002910D001B02046BDE8F043084797
:1005D0000168C905D5D4016821F01001016084F8D3
:1005E000349084F83580CCE7BDE8F8831C00002007
:1005F0002DE9F041044600F0ABF906465CB1002558
:1006000084F83450022084F835002068016821F015
:10061000010101600DE00120BDE8F08100F098F9D2
:10062000801B052805D920206065032084F835004B
:10063000F2E720680068C007F0D1226811682048FE
:100640000140D4E901031843D4E903363343184386
:1006500063691843A3691843E3691843236A18437D
:100660000843616A042903D1D4E90B1319430843F1
:10067000106020684069666A20F0070130460E432A
:10068000012704280CD1A06A0643E06A40B1204645
:10069000FFF798FE20B14020606584F83570BAE716
:1006A000206846612046FFF779FE94F85C203F21E0
:1006B00091408160656584F835700020ACE70000EA
:1006C0003F8010F02DE9F0410446866D90F834002B
:1006D000002501280DD0012084F8340094F83570ED
:1006E0000020012F07D084F8340002252846BDE8F9
:1006F000F0810220FBE7022784F835706065204610
:10070000FFF78AFE94F85C103F208840B0602068B4
:10071000016841F0160101602068416941F08001E3
:100720004161206C20B12068016841F0080101603E
:100730002068016841F001010160D7E770B5044607
:1007400000F006F90546601C02D004480078044415
:1007500000F0FEF8401BA042FAD370BD100000204C
:1007600070470000044910B50A68024202D00860D0
:10077000FFF7F6FF10BD0000143C01402DE9F84FD3
:10078000DFF87CB100224FF001084FF0030A4FF070
:100790000F090BF1040E00BF0B6808FA02F42340A6
:1007A000A3426ED14D68022D01D0122D0ED1D50875
:1007B00000EB850CDCF820505607F70E09FA07F617
:1007C000B5430E69BE402E43CCF820600668550044
:1007D0000F790AFA05FC07F0030726EA0C06AF407A
:1007E000374307604E68012E05D0022E03D0112E2C
:1007F00001D0122E0ED18668CF6826EA0C06AF40D3
:10080000374387604668A6430C79C4F300149440CC
:1008100034434460C6688C6826EA0C06AC40344316
:10082000C4604C68E40065D5364C256845F48045C5
:100830002560246822F0030504F480440094324CBF
:100840002E19D6F8084895072F0F09FA07F5AC437B
:100850002E4DA84201D1002524E02D4DA84201D102
:1008600001251FE02B4DA84201D102251AE02A4D97
:10087000A84201D1032515E0284DA84202D1042544
:1008800010E037E0264DA84201D105250AE0254DAC
:10089000A84201D1062505E0234DA84201D1072534
:1008A00000E00825BD402543C6F80858DBF80040A5
:1008B0005D464E689C43F60300D51C432C60DEF871
:1008C000004075464E689C43B60300D51C432C601F
:1008D0000B4D08352C684E689C43F60200D51C432E
:1008E0002C60074D0C352C684E689C43B60200D531
:1008F0001C432C60521C102AFFF44EAFBDE8F88F49
:10090000003C0140443802400030014000000240F9
:100910000004024000080240000C024000100240A7
:100920000014024000180240001C02400069084008
:1009300000D001207047426931EA020200D1090467
:10094000816170470AB1816170470904FBE70000CB
:10095000014880687047000010000020024881684C
:100960000278114481607047100000200B4810B5D8
:10097000016841F400710160016841F48061016027
:10098000016841F480710160032000F073F80F20CA
:1009900000F006F800F024F8002010BD003C0240F2
:1009A00070B50D4D04464FF47A712878B1FBF0F024
:1009B0000A490968B1FBF0F000F0E6FA48B9102CDA
:1009C00007D200222146501E00F034F800206C604F
:1009D00070BD012070BD0000100000201C00002030
:1009E0000C4882B0016841F480410160006800F465
:1009F000804000900748001F016841F0805101606D
:100A00000068002200F0805000900F21901E02B07C
:100A100000F010B844380240002809DB00F01F0243
:100A2000012191404009800000F1E020C0F8001150
:100A300070470000F0B40E4B1B680C46C3F3022352
:100A4000C3F10705042D00D90425191D072901D27A
:100A5000002300E0DB1E012606FA05F1491E2140B5
:100A600099409E40761E16403143F0BC00F0E1BE36
:100A70000CED00E0064900F0070208684FF6FF039E
:100A8000184040EA0220034A104308607047000003
:100A90000CED00E00000FA052DE9F0470E460500D8
:100AA00065D0DFF81481D8F80000F7B200F00F002D
:100AB000B04207D288F80070D8F8000000F00F00AC
:100AC000B04254D128683D4C810712D5400703D568
:100AD000206840F4E05020602878000703D52068A3
:100AE00040F4604020602068A96820F0F0000843CE
:100AF00020602878C0072DD030496868083901285F
:100B000012D0022813D0032811D0096889070029C0
:100B10002DDA216821F0030101432160FFF718FF5E
:100B2000814641F2883A0EE009688903EFE70968D7
:100B30008901ECE7FFF70CFFA0EB0901514502D951
:100B40000320BDE8F0872068696800F00C00B0EB76
:100B5000810FEFD1D8F80010404601F00F01B142EB
:100B600007D90770006800F00F00B04201D00120E3
:100B7000E7E72878400705D52068E96820F4E050C9
:100B8000084320602878000706D52068296920F4EA
:100B9000604040EAC100206000F036F82168084A51
:100BA000C1F30311515CC840064908600F20FFF7EC
:100BB000F7FE0020C5E70000003C02400838024074
:100BC000683600081C0000200448054900680968D0
:100BD000044AC1F38221515CC84070471C000020C8
:100BE000083802407836000804480549006809685A
:100BF000044AC1F34231515CC84070471C000020D8
:100C00000838024078360008154810B5006810F022
:100C10000C02144813D01449042A0FD0082A0ED10C
:100C20000F4C241F2268236802F03F025B0207D5A5
:100C30002068C0F38810A0FB010106E0084610BD43
:100C40002168C1F38811A1FB00010023FFF718FB05
:100C50002168C1F30141491C4900B0FBF1F010BD0E
:100C6000083802400024F40040787D012DE9F84F57
:100C7000050076D02878DFF8F8B2BE4CC00749D01E
:100C8000DBF800105846C1F38101012908D0006843
:100C9000C0F3810002280AD1201D0068400206D559
:100CA0002068800336D568680028E2D032E06868A2
:100CB000B0F5803F10D0B0F5A02F206810D020F400
:100CC00080302060206820F4802020606868A0B117
:100CD000FFF73EFE06460CE0206840F48030F4E763
:100CE00040F480202060F7E7FFF732FE801B642885
:100CF00073D820688003F7D50CE0FFF729FE06467D
:100D000005E000BFFFF724FE801B6428F0D82068B0
:100D10008003F7D42878DFF8608280074FF000095D
:100D20003ED5DBF80010584611F00C0F09D00068D2
:100D3000C0F3810002280BD18D48001F00684002DB
:100D400006D42068800715D5E868012809D111E08C
:100D5000E868B8B10120C8F80000FFF7F9FD0646C1
:100D600005E002E1FFF7F4FD801B0228C0D82068EF
:100D70008007F7D52068296920F0F80040EAC10013
:100D800020600DE0C8F80090FFF7E2FD064604E0A1
:100D9000FFF7DEFD801B02281FD820688007F7D4EC
:100DA0002878000722D5724E744869696C3671B193
:100DB00001210160FFF7CCFD074604E0FFF7C8FD05
:100DC000C01B022809D830688007F7D50EE0C0F8AC
:100DD0000090FFF7BDFD074605E083E0FFF7B8FD93
:100DE000C01B02287ED830688007F7D428784007D7
:100DF00068D5DFF87CA100270AF1380ADAF800008C
:100E0000C0000BD4DAF8001041F08051CAF800108D
:100E1000DAF80000012700F080500090584E30684A
:100E2000C00510D4306840F480703060FFF790FD4A
:100E3000009005E0FFF78CFD0099401A022851D878
:100E40003068C005F6D54A4EA868683601280FD02C
:100E50000528306810D020F001003060306820F0A4
:100E600004003060A868B8B1FFF772FD00900FE091
:100E7000306840F00100F4E740F004003060F7E72C
:100E8000FFF766FD0099411A41F28830814264D82B
:100E900030688007F4D50EE0FFF75AFD009007E0B8
:100EA000FFF756FD0099411A41F28830814254D82B
:100EB00030688007F4D42FB1DAF8001021F08051A7
:100EC000CAF80010A869C0B3DBF80010C1F38101B3
:100ED00002294AD00228484607D0C8F86000FFF728
:100EE00037FD00E039E005463AE04746C8F86000C3
:100EF000FFF72EFD064604E0FFF72AFD801B0228BF
:100F00002BD820688001F7D4D5E907010843A96AE6
:100F10001C4A490802EB01416A6A41EA821108430E
:100F200095F82C1040EA01611148001F0160012072
:100F30003866FFF70DFD054605E014E0FFF708FDF4
:100F4000401B022809D820688001F7D50BE000BFBC
:100F5000FFF7FEFC401B022802D90320BDE8F88FF2
:100F600020688001F4D40020F8E70120F6E70000B3
:100F7000083802400038024000004742800E4742D5
:100F8000007000400000FFFF10B5401EB0F1807FF0
:100F900001D3012010BD4FF0E02460610F216017E4
:100FA00000F047FC0020A06107202061002010BD58
:100FB000704770B5040004D094F83900002510B1D2
:100FC00006E0012070BD84F83850204600F022F879
:100FD000242084F839002068C16821F40051C160E0
:100FE000204600F09DFA2068016921F490410161DA
:100FF0002068416921F02A0141612068C16841F4FB
:101000000051C160E563202084F8390084F83A007B
:10101000002070BD70B586B0064614216846FFF703
:1010200079F920493068884239D11F480025016884
:1010300041F400310160006800F4003005901A4866
:101040001038016841F0010101600068694600F054
:10105000010005900C2000900220019001200290D8
:1010600003200390072004901048FFF787FB114CE2
:101070000F4820604FF00060C4E901054014C4E946
:10108000035080106561C4E9065025622046656200
:10109000FFF7AEFA08B1FFF7DAF97463A66306B09A
:1010A00070BD000000440040403802400000024093
:1010B00088600240E4000020F8B5044690F83A0049
:1010C00020283CD1C1B3BAB394F83800012836D0F7
:1010D000012084F83800A162A2850025E563222062
:1010E00084F83A00636B1748D863636B164818643A
:1010F000636B1648D864606B134605650846666BDB
:10110000216802463046091DFFF7DCFA20680168B5
:101110004168009184F83850C16841F48071C16021
:101120002068416941F0010141612068416941F055
:10113000400141610020F8BDFFE70120FBE70220EC
:10114000F9E70000AB140008E71400086114000878
:10115000074910B50A230122A1F1400000F00DF863
:10116000044802218068BDE8104000F065BC000022
:10117000D80000200000002070472DE9F843044605
:1011800090F839001F4616460D46202850D1A5B1CB
:101190009EB194F8380001284AD0012084F8380024
:1011A0004FF00008C4F83C80212084F83900FFF794
:1011B000CFFBA6848146E68426E00120BDE8F883C3
:1011C000E08C401EE084A0684B46B0F5805F4FF095
:1011D00000024FF080012046009703D000F0F6FA9D
:1011E000E8B90DE000F0F2FAC8B928882168C0F328
:1011F00008004860206908B16D1C05E0AD1C03E0E3
:10120000216815F8010B4860E08C0028D8D14B46C6
:10121000002240212046009700F0D8FA08B10320B0
:10122000CCE7202084F8390084F838800020C5E716
:101230000220C3E7FEE70000F0B587B0142168463E
:10124000FFF768F826480024016841F001010160B9
:10125000016801F001010591016841F0020101609E
:10126000016801F002010591016841F00801016087
:1012700000681C4F00F008004FF4704605900022F3
:1012800031463846FFF75EFB0125CDE9005469463B
:1012900015480294FFF772FA022014490290CDE932
:1012A000000169461248FFF769FA0096CDE901543A
:1012B000694638460394FFF761FA002205210620AB
:1012C000FFF7B8FB0620FFF7A7FB00221146072017
:1012D000FFF7B0FB0720FFF79FFB07B0F0BD000052
:1012E00030380240000C02400000024000001110A3
:1012F00000040240FEE770470A4C4FF480550A4E46
:101300004FF47A7700F0B4FA012803D10121A068E4
:1013100000F092FB29463046FFF70DFB384600F0FF
:1013200023FBEFE700000020000C0240DFF84C80B8
:10133000134C4FF0FF364FF400574FF4804900250F
:101340004FF47A7AE560334600220321A06800F06A
:10135000A9FBE060C11CF5D0011DF3D0C10701D08D
:10136000394602E0800703D549464046FFF7E3FAD5
:10137000504600F0F9FAE560E4E70000000C024096
:101380000000002010B5FFF7E9FA01F07BFF01280B
:1013900003D0BDE8104001F0ABBC10BD10B592B059
:1013A00030216846FEF7B6FF14210CA8FEF7B2FF05
:1013B00014480024016841F080510160006800F089
:1013C000805011901048016841F48041016000682C
:1013D000069400F4804011900220009001200390B8
:1013E000102004906846FFF741FC0F20CDE90C0463
:1013F0000E940F9400210CA81094FFF74DFB12B02F
:1014000010BD0000403802400070004010480168E4
:1014100041F4700101600F48016841F00101016071
:101420000C4A00210832116002680B4B1A4002601E
:10143000031D0A4A1A60026822F4802202600548ED
:101440000C3001600249580680390860704700007E
:1014500088ED00E000380240FFFFF6FE1030002467
:1014600070B5846B2068406994F83910C0F3C010DF
:101470000025212904D118B1E584204600F046F862
:101480002068406994F83A10C0F38010222904D1F2
:1014900018B1E585204600F02BF8E06B40F0100015
:1014A000E0632046FFF784FD70BD10B50146806BF8
:1014B00009680968C90513D40021C1850168CA6893
:1014C00022F48072CA6001684A6922F001024A610E
:1014D00001684A6922F040024A61202180F83A10EE
:1014E000FFF736FE10BD10B5806BFFF745FE10BD4F
:1014F0000168CA6822F49072CA6001684A6922F0E1
:1015000001024A61202180F83A1070470168CA68D8
:1015100022F0C002CA60202180F839107047000014
:101520002DE9F041044600680169E26821F4405168
:10153000114301612169A068E269084361691143AF
:1015400022680843D16849F20C6399430143D16092
:1015500020684169A26921F4407111434161E26947
:101560006425B2F5004F9748974922684FF032083A
:101570003FD08A4201D082427CD1FFF735FB00EB9D
:10158000C00101EB001061688900B0FBF1F6FFF7C4
:101590002BFB00EBC00101EB001061688900B0FB80
:1015A000F1F0B0FBF5F06FF01801484306EB800155
:1015B00008EB0110B0FBF5F000F0F006FFF714FBAC
:1015C00000EBC00101EB001061688900B0FBF1F095
:1015D000B0FBF5F006EB0016FFF706FB00EBC001D1
:1015E00001EB001061688900B0FBF1F7FFF7FCFA2E
:1015F000D2E08A4201D082423DD1FFF7F5FA00EBFA
:10160000C00101EB001061684900B0FBF1F0B0FBD4
:10161000F5F00601FFF7E8FA00EBC00101EB00105E
:1016200061684900B0FBF1F7FFF7DEFA00EBC0019B
:1016300001EB001061684900B0FBF1F0B0FBF5F080
:101640006FF01801484307EB800108EBC100B0FBC5
:10165000F5F000F0F80006EB4006FFF7C5FA00EBE6
:10166000C00101EB001061684900B0FBF1F7FFF722
:10167000BBFA3CE055E0FFF7A7FA00EBC00101EB35
:10168000001061684900B0FBF1F0B0FBF5F0060115
:10169000FFF79AFA00EBC00101EB00106168490006
:1016A000B0FBF1F7FFF790FA00EBC00101EB00107F
:1016B00061684900B0FBF1F0B0FBF5F06FF0180184
:1016C000484307EB800108EBC100B0FBF5F000F0E8
:1016D000F80006EB4006FFF777FA00EBC00101EBDC
:1016E000001061684900B0FBF1F7FFF76DFA00EBFD
:1016F000C00101EB001061684900B0FBF1F0B0FBE4
:10170000F5F06FF01801484307EB800108EBC100CA
:10171000B0FBF5F000F00700216830448860BDE8B8
:10172000F081FFF751FA00EBC00101EB0010616896
:101730008900B0FBF1F6FFF747FA00EBC00101EBBF
:10174000001061688900B0FBF1F0B0FBF5F06FF0BC
:101750001801484306EB800108EB0110B0FBF5F0DF
:1017600000F0F006FFF730FA00EBC00101EB0010CB
:1017700061688900B0FBF1F0B0FBF5F006EB0016F4
:10178000FFF722FA00EBC00101EB0010616889004D
:10179000B0FBF1F7FFF718FA00EBC00101EB001006
:1017A00061688900B0FBF1F0B0FBF5F06FF0180153
:1017B000484307EB800108EB0110B0FBF5F000F0A7
:1017C0000F00A9E700140140001001402DE9F0418D
:1017D000984617460E460446069D1DE0681C1BD021
:1017E0002DB1FFF7B5F8A0EB0800A84214D9206886
:1017F000C16821F4D071C1602068416921F0010104
:101800004161202084F8390084F83A00002084F8EF
:1018100038000320BDE8F0812068006836EA000047
:1018200004D00020B842D9D00020F3E70120F9E726
:10183000FEE70907090E002804DB00F1E02080F82C
:101840000014704700F00F0000F1E02080F8141D34
:10185000704702E008C8121F08C1002AFAD1704779
:101860007047002001E001C1121F002AFBD1704720
:1018700070B50B4D01212846FFF758F804460121A9
:101880002846FFF753F8A04201D1204670BD05203D
:10189000FEF754FF2846BDE870400121FFF746B827
:1018A0000000024094B0FFF761F8FFF777FDFFF703
:1018B000C3FC26480024016841F40011016000685F
:1018C000224600F40010129005211020FFF7B2F814
:1018D0001020FFF7A1F81F481D4901604FF4E131C6
:1018E000C0E901140C21C460C0E904418461C461F1
:1018F000FFF75FFB1749012240311648FFF7DCFB79
:1019000000F00EF9242214496846FEF7EAFC6A4604
:101910000021124800F040F9114C0F4924222060A8
:10192000243109A8FEF7DDFC09AA00210D4800F0CA
:1019300033F96060002000F05DF8A06028B1032159
:1019400000F02CF800F008F9FEE7FEE7303802401E
:10195000004400409800002018360008F9120008E2
:10196000000000202D13000810B5EFF3058149B9E0
:10197000EFF3108131B908490968022905D1EFF365
:10198000118111B16FF0050403E0002408B100F0EB
:10199000C3FE204610BD00007000002070B50E464A
:1019A000050002D0300E002802D06FF003041CE0C6
:1019B000EFF3058048B9EFF3108030B90C480068A8
:1019C00002280ED1EFF3118058B1284601F036F805
:1019D00004463146284601F005F830B96FF002049C
:1019E00003E0284600F0DEFF0446204670BD0000FC
:1019F0007000002010B54FF00001EFF30582BAB976
:101A0000EFF31082A2B90B4A1268022A02D1EFF357
:101A100011826AB948B1D0E902202AB1202807D33F
:101A2000104600F0F5FF02E010B900F0E3FF0146B8
:101A3000084610BD7000002038B50C4610B1210ECC
:101A4000002902D06FF0030038BDEFF3058149B9DA
:101A5000EFF3108131B911490968022919D1EFF367
:101A60001181B1B1002100916A46214601F03AF896
:101A700010B16FF0020038BD009920460029FAD05D
:101A8000074A4FF080511160BFF34F8FBFF36F8F44
:101A900038BD214600F0DFFF38BD00007000002097
:101AA00004ED00E0F8B51D4616460C4610B1210EB7
:101AB000002902D06FF00300F8BDEFF3058149B9AA
:101AC000EFF3108131B915490968022905D1EFF307
:101AD000118111B16FF00500F8BDF10701D00123AC
:101AE00000E00023B10701D5002200E001222146D9
:101AF000009500F0FFFFF3076FF001016FF00202A5
:101B000006D0844206D1F8BD0846F8BD1046F8BD9F
:101B10000442FCD1002DF9D0F6E70000700000204F
:101B2000EFF3058058B9EFF3108040B90949086810
:101B3000022801D030B109E0EFF3118030B16FF02D
:101B40000500704701200860002070474FF0FF300B
:101B5000704700007000002010B5EFF3058060B9F9
:101B6000EFF3108048B90B490868022802D0012819
:101B700006D00BE0EFF3118040B16FF0050010BD0F
:101B80000220086000F090FE002010BD4FF0FF30F2
:101B900010BD000070000020F0B585B04FEA0103D1
:101BA0004FF00004EFF305810394A1BBEFF3108124
:101BB00089BB21490968022902D1EFF3118151BB88
:101BC00048B3802618218DF8104004AD42B3176841
:101BD00007B13D4697691FB139467F1E382F02D2A3
:101BE0001779FF0702D0002005B0F0BD576907B193
:101BF000BE08D2F808C0BCF1000F0DD0D4685C2C30
:101C000018D312693AB137B18DE806103246294629
:101C100001F00DFB03900DE0D7685FB912694AB976
:101C200003AACDE90012B2B2294601F0D3FA012885
:101C300000D003940398D7E7700000202DE9F0410D
:101C4000134C0F46054666692068001D00F024FC11
:101C5000681C07D137B12168BDE8F0410D48091D66
:101C600000F07ABC20683544B5424560216805D251
:101C7000A068BDE8F041091D00F056BC6068091D70
:101C800000F052FC206B854200D22563BDE8F08154
:101C900020000020340600202DE9F041054600F028
:101CA00067FC2D4C2069401C206120682B4F10B12F
:101CB000E06930B32BE025602069012827D1002698
:101CC00006EB860007EB800000F020FC761C382E27
:101CD000F6D3234800F01AFC2148143000F016FC1B
:101CE0001F48283000F012FC1D483C3000F00EFC6C
:101CF0001B48503000F00AFC194860601430A060A6
:101D000005E02068E96AC06A884200D82560E06A78
:101D1000401CE0626864E86AA169884200D9A06159
:101D200000EB800007EB8000291D00F015FC00F09F
:101D30003FFCE06900280CD02068E96AC06A88424C
:101D400007D208494FF080500860BFF34F8FBFF3B0
:101D50006F8FBDE8F081000020000020840100208A
:101D6000E405002004ED00E038B500F001FC104C63
:101D7000A068C8B90F4800F0C9FB0E48143000F045
:101D8000C5FB0C482060143060600A4B00202833EB
:101D9000009003F1500210210A2000F0BFFFA06064
:101DA00010B105A100F082FCBDE8384000F000BC95
:101DB0005C00002048060020546D725100000000B5
:101DC00030B4026C0B46002A0BD0C1681144C160CC
:101DD0004468A14201D30168C16030BC1846FEF7D7
:101DE00080BA30BC70472DE9F041856B1746044638
:101DF0000026026C82B1C7B1E068FEF772FAE168B2
:101E0000206C091AE1602268914202D26168081AC6
:101E1000E060022F16D017E02068A8B9606801F0D2
:101E2000A9FA0646002060600EE0A068FEF759FAA5
:101E3000216CA0680844A0606168884204D32068CF
:101E4000A06001E005B16D1E6D1CA5633046BDE8C4
:101E5000F08110B5044690F8590058B101280CD013
:101E600002280FD0502080F31188BFF34F8FBFF3AB
:101E70006F8FFEE7206B00F0AFFB2046BDE81040FF
:101E800000F0AABB10BD000010484FF4705142078B
:101E900006D0C01D0D4920F00700411AC1F5705150
:101EA0000B4A00230144C2E900030839103A21F02B
:101EB000070111604B600B600B1AC0E900139360BF
:101EC0004FF000405360D06070470000180E0020B3
:101ED00084000020144E154CA6F29C474FF0805809
:101EE000DFF84C9012E000BF00F042FBF068C568DC
:101EF000281D00F0D1FA2069401E2061E068401ED4
:101F0000E06000F055FB2846FFF7A3FFE0680028DB
:101F1000EAD138680128F9D9C9F80080BFF34F8F9A
:101F2000BFF36F8FF2E700002006002020000020A2
:101F300004ED00E070B51D46049C51B1C4F80020CA
:101F4000C4E90F010121204600F01CFF84F84C5029
:101F500070BD2460F4E72DE9F0470E46DDE9098401
:101F60001746824691009946089DA522206BFEF7F0
:101F7000CAF96FF00301206B01EB8701084420F0E0
:101F80000707780707D0502080F31188BFF34F8FE1
:101F9000BFF36F8FFEE72218315C82F83410315C9A
:101FA00011B1401C1028F6D3002684F84360382D68
:101FB00000D33725E562C4E91356201D00F0B1FABD
:101FC00004F1180000F0ADFA2461C5F13800646234
:101FD000A061666584F858604A465146384600F06C
:101FE00045FA2060B8F1000F01D0C8F80040BDE804
:101FF000F087000030B5114900E011460A688242BE
:10200000FBD34B685C18844203D140681844486095
:10201000084643681C18944209D1084C103C2468B7
:10202000A24209D052681A4442600A6812680260EB
:10203000814200D0086030BD0460F9E784000020D0
:1020400070B5002441600B4D0061914206D8D11A51
:102050008269914206D2011D686807E09A4203D264
:10206000994201D3012403E0011D286800F05CFAC5
:10207000204670BD5C00002010B5044600F078FAE0
:10208000A06B28B15FF0000400F092FA204610BD6A
:102090000124F9E730B589B0304D55E004980028A7
:1020A00006DADDE90601059A9047049800284BDB23
:1020B000069C606910B1201D00F0EEF902A800F046
:1020C000B9F8024604980A283ED2DFE800F0050578
:1020D000053D263705053D260598A16903460144BF
:1020E0002046FFF7ADFF00B3616A20468847E069EC
:1020F000012829D1002000900598A16900234218E9
:102100001946204601F040FA78B9502080F3118832
:10211000BFF34F8FBFF36F8FFEE70598A06128B123
:10212000811813462046FFF78BFF0DE0502080F307
:102130001188BFF34F8FBFF36F8FFEE794F82C0029
:1021400010B9204600F048FA002204A9A86800F05F
:102150006BFF0028A2D109B030BD00005C00002058
:102160002DE9FC410F46054600F0E2FB01A800F016
:1021700061F80446019818B101F074F9BDE8FC81DA
:10218000224EAFB170680068A8B30027291B3A46F9
:10219000B06800F09FFA01F065F90028EED11C4903
:1021A0004FF080500860BFF34F8FBFF36F8FE5E7AC
:1021B000A542EBD801F056F930682746C068C468DC
:1021C000201D00F069F9E069012810D1A0692B46B3
:1021D00041193A462046FFF733FF40B1002003463D
:1021E000014600902A46204601F0CEF920B1616AEE
:1021F00020468847C2E707E0502080F31188BFF3EC
:102200004F8FBFF36F8FFEE70127BFE75C00002011
:1022100004ED00E006484168096829B14168C968D1
:10222000C9684968016370474FF0FF31FAE7000061
:102230002000002070B5054601F032F8064E044635
:102240003069844203D200F009F8012000E0002048
:1022500028602046346170BD5C000020F8B5194D3F
:102260001FE0C068C4680668201D00F015F9616AA7
:1022700020468847E069012813D1A0693044B04264
:1022800006D924616060211D286800F04DF908E03E
:1022900000200346014600903246204601F074F9C2
:1022A00038B1286801680029DBD16968C5E90010E8
:1022B000F8BD502080F31188BFF34F8FBFF36F8FAD
:1022C000FEE700005C00002008484068401C4FF01A
:1022D000500080F3118804D0BFF34F8FBFF36F8F8E
:1022E000FEE7BFF34F8FBFF36F8FFEE78C00002038
:1022F0000346002012B1994302D070470B42FCD034
:1023000001207047074C2068016841B1C068002176
:10231000D0F80000FFF724FFFFF7BCFEF3E7012130
:102320000020F7E75C0000202DE9F041044600F0B2
:102330001FF994F9455004F1240609E0606A48B198
:10234000304601F057F808B100F014FA6D1E6DB276
:10235000002DF3DC4FF0FF3684F8456000F028F9DB
:1023600000F006F994F9445004F1100709E02069DF
:1023700048B1384601F03EF808B100F0FBF96D1E97
:102380006DB2002DF3DC84F84460BDE8F04100F04C
:102390000FB900002DE9F0410546002700F0C8FA0A
:1023A000314E306808B9FFF76FFDF06805424BD138
:1023B000C5B3083568070ED005F00700C0F1080066
:1023C0000544680707D0502080F31188BFF34F8F72
:1023D000BFF36F8FFEE72DB37068854234D8224873
:1023E000103001460C6801E020460C466168A942A5
:1023F00002D221680029F7D131688C4224D00768C5
:102400002168016060680837411B10290FD96019E5
:10241000420708D0502080F31188BFF34F8FBFF3DD
:102420006F8FFEE710E041606560FFF7E3FD6168D4
:102430007068401A7060B268904200D2B060F06874
:1024400001430020C4E9000101F00CF8780707D02F
:10245000502080F31188BFF34F8FBFF36F8FFEE7DB
:102460003846BDE8F08100007400002010B5031F5D
:102470004FF080741C601B1F21F001011960191FAF
:10248000044B0B6014390A60091F6FF002024438D4
:102490000A6010BDC9220008D0E9013201699A60C2
:1024A000D0E901235A604A68824201D182684A60B9
:1024B000002202610868401E08600868704700003A
:1024C000044908680A688069D26A0968C2F138025A
:1024D0008A61704720000020034B036003F15C0019
:1024E000086080201060704760070020044B036084
:1024F00003F15C0008604FF48070106070470000CA
:10250000BC09002000F04EBA00F0A5BA00F10801A5
:102510004FF0FF32C0E90112C1600161002101608A
:10252000704700210161704730B50B685A1C02D01A
:1025300000F1080202E0026904E0224654682568BE
:102540009D42FAD953684B6099608A605160086176
:102550000168491C016030BD42684A6093688B6025
:1025600093685960916008610168491C0160704777
:10257000502080F31188BFF34F8FBFF36F8F0A494C
:102580004868401C486001280CD10848006810F0D9
:10259000FF0F07D0502080F31188BFF34F8FBFF398
:1025A0006F8FFEE7704700008C00002004ED00E014
:1025B0000849486828B1401E486001D180F311885D
:1025C0007047502080F31188BFF34F8FBFF36F8F98
:1025D000FEE700008C00002070B5002827D0144DC5
:1025E000A0F108046168E868014207D1502080F337
:1025F0001188BFF34F8FBFF36F8FFEE722683AB1A8
:10260000502080F31188BFF34F8FBFF36F8FFEE729
:102610008143616000F08CF9606869680844686013
:102620002046FFF7E7FCBDE8704000F01BBF70BD1F
:10263000740000204FF0E020002101618161054914
:102640004FF47A720968B1FBF2F1491E416107212A
:10265000016170471C00002010B5FDF7FBFD11491A
:1026600010280ED300F1E02090F8F0030A78904291
:1026700007D2502080F31188BFF34F8FBFF36F8FC5
:10268000FEE709480068896800F4E060884207D9DD
:10269000502080F31188BFF34F8FBFF36F8FFEE799
:1026A00010BD00008C0000200CED00E010B5084BC0
:1026B000002200BF53F832401CB1521C082AF9D343
:1026C00010BD43F8321003EBC201486010BD00009A
:1026D0004401002070B515460E460446FFF748FF3A
:1026E00094F944100020491C01D184F8440094F965
:1026F0004510491C01D184F84500FFF759FFA06B34
:1027000028B92A46314604F1240000F051F8204649
:10271000BDE87040FFF708BE10B5020014D00F48A6
:10272000806B38B1502080F31188BFF34F8FBFF317
:102730006F8FFEE700F0FCF800211046FFF77EFAED
:1027400000F090FE002807D105494FF08050086046
:10275000BFF34F8FBFF36F8F10BD0000200000202C
:1027600004ED00E002498A6A0260496941607047ED
:10277000200000200149012048627047200000200D
:1027800010B50C4650B1094909681831FFF7CCFE65
:102790002046BDE810400121FFF750BA502080F3D9
:1027A0001188BFF34F8FBFF36F8FFEE7200000202B
:1027B00070B514460D4668B10A4909681831FFF72B
:1027C000CBFE0CB14FF0FF3521462846BDE87040E6
:1027D000FFF734BA502080F31188BFF34F8FBFF357
:1027E0006F8FFEE72000002010B51446030011D0C3
:1027F0001048826BB2B1026841F0004191610168FA
:1028000018461831FFF7A8FE2046BDE81040012108
:10281000FFF714BA502080F31188BFF34F8FBFF336
:102820006F8FFEE7502080F31188BFF34F8FBFF307
:102830006F8FFEE72000002070B5194DAA6BF2B132
:1028400041F000410160C4680CB3FFF725FE201D74
:10285000FFF722FEE06AA969884200D9A861114900
:1028600000EB800001EB8000211DFFF775FEE06AA0
:102870002968C96A884201D90120686270BD502068
:1028800080F31188BFF34F8FBFF36F8FFEE75020A7
:1028900080F31188BFF34F8FBFF36F8FFEE7000007
:1028A000200000208401002030B587B0002403946C
:1028B00005AA04A903A80494FFF70EFEDDE90301AD
:1028C0000094CDE90110002315A11748059A00F0E6
:1028D000AEFC164D002868631FD000F025FE0128CD
:1028E00009D0401C19D1502080F31188BFF34F8FBD
:1028F000BFF36F8FFEE7502080F31188BFF34F8F37
:10290000BFF36F8F4FF0FF3028630120E8616C61E7
:1029100007B0BDE8304000F071B907B030BD00002D
:1029200049444C4500000000D51E0008200000204E
:102930000248816B491C8163704700002000002021
:10294000164810B5816B11B10121416210BD002103
:1029500041628169124A01E0B9B1491E01EB81036C
:1029600052F82330002BF7D001EB810302EB8302F6
:1029700002F1080453685B685360A34201D15B68AD
:102980005360DA680260816110BD502080F31188C5
:10299000BFF34F8FBFF36F8FFEE7000020000020D2
:1029A0008401002070B50E46040009D0300E0FD00F
:1029B000502080F31188BFF34F8FBFF36F8FFEE776
:1029C000502080F31188BFF34F8FBFF36F8FFEE766
:1029D000FFF7CEFD256825EA06002060FFF7E8FD39
:1029E000284670BD0A4601460023014800F000BE9B
:1029F0000525000870B52020FFF7CCFC040005D0A9
:102A00000025201D2560FFF781FD2577204670BD3C
:102A100038B558B120210446002000912060201DC7
:102A2000FFF774FD01202077204638BD502080F349
:102A30001188BFF34F8FBFF36F8FFEE75022EFF384
:102A4000118182F31188BFF34F8FBFF36F8F00683E
:102A500081F3118870472DE9F04100278846040072
:102A60000AD05FEA18600FD0502080F31188BFF3BE
:102A70004F8FBFF36F8FFEE7502080F31188BFF3B5
:102A80004F8FBFF36F8FFEE7261D04F10C05FFF794
:102A90004FFF2168F06841EA0801216017E0D0E9A2
:102AA000001601F07F425301236821F07F4102D4D8
:102AB0000B4203D10AE031EA030307D1D20100D56A
:102AC0000F43216841F00071FFF7B6FE3046A8427F
:102AD000E5D12068B843206000F0C4FC2068BDE860
:102AE000F081000013460A460146014800F080BD0F
:102AF000092500082DE9F0479A46DDF82090904618
:102B00000D4604004FF0000709D0280E0FD05020CA
:102B100080F31188BFF34F8FBFF36F8FFEE7502014
:102B200080F31188BFF34F8FBFF36F8FFEE71DB1A6
:102B300000F0A8FB40B112E0502080F31188BFF3F1
:102B40004F8FBFF36F8FFEE7B9F1000F07D0502012
:102B500080F31188BFF34F8FBFF36F8FFEE7FFF74E
:102B6000E7FE2668524629463046FFF7C1FB30B1E2
:102B7000B8F1000F1AD02068A843206016E0B9F120
:102B8000000F13D0B8F1000F01D04FF08077BAF1E9
:102B9000000F01D047F0806745EA07014A46201D33
:102BA000FFF722FE00F05EFC18B10AE000F05AFCCC
:102BB0001FE011494FF080500860BFF34F8FBFF303
:102BC0006F8FFFF77DFC0646800110D4FFF7D0FC25
:102BD0002668524629463046FFF78AFB28B1B8F1ED
:102BE000000F02D02068A8432060FFF7E1FC26F028
:102BF0007F463046BDE8F08704ED00E01CB537485D
:102C00000168374A914207D1502080F31188BFF301
:102C10004F8FBFF36F8FFEE700683149491E88422E
:102C200007D1502080F31188BFF34F8FBFF36F8F10
:102C3000FEE72C4908780190FF20087008788DF88D
:102C400000009DF800009DF8002000F0F000904288
:102C500007D0502080F31188BFF34F8FBFF36F8FE1
:102C6000FEE79DF80000204B00F050001870072090
:102C7000986005E09DF8002052008DF80020401E6D
:102C80009DF800201206F5D49860032807D0502044
:102C900080F31188BFF34F8FBFF36F8FFEE74FF4C0
:102CA00040709860019808700C482030016841F429
:102CB00070010160016841F070410160FFF7BAFCEA
:102CC00000205860FDF78EFA0848016841F0404145
:102CD0000160FDF773FA00201CBD000000ED00E06C
:102CE00071C20F4100E400E08C00002034EF00E0EE
:102CF00010B5502080F31188BFF34F8FBFF36F8F53
:102D000000F0D4FA18B104494FF080500860002058
:102D100080F3118810BD000004ED00E038B5049D7B
:102D200018B153B1CAB181B120E0502080F31188AD
:102D3000BFF34F8FBFF36F8FFEE7502080F31188F2
:102D4000BFF34F8FBFF36F8FFEE7502080F31188E2
:102D5000BFF34F8FBFF36F8FFEE739B1502080F381
:102D60001188BFF34F8FBFF36F8FFEE750241C46CF
:102D7000012384F846302B460094FFF7DBF8204609
:102D800038BD000070B50D46040025D0FFF7F0FBFC
:102D9000D4E90F20216802FB001161600021A163CA
:102DA0002168A1600A46D4E90F01401E00FB012101
:102DB000E16021464FF0FF3001F8440F487004F104
:102DC00010008DB1FFF7A2FB04F12400FFF79EFB7A
:102DD000FFF7EEFB012070BD502080F31188BFF398
:102DE0004F8FBFF36F8FFEE721690029F0D000F00D
:102DF00001FB0028ECD004494FF080500860BFF37D
:102E00004F8FBFF36F8FE3E704ED00E02DE9FF473D
:102E100082B01D468A464FF00008040003D0BAF184
:102E2000000F08D011E0502080F31188BFF34F8FBE
:102E3000BFF36F8FFEE7206C38B1502080F311880C
:102E4000BFF34F8FBFF36F8FFEE7022D0AD1E06B08
:102E5000012807D0502080F31188BFF34F8FBFF3B4
:102E60006F8FFEE700F00EFA3F4F4FF000094FF072
:102E7000805648B9049838B1502080F31188BFF3C8
:102E80004F8FBFF36F8FFEE7FFF772FBA06BE16B15
:102E9000884207D3022D05D00498D0B1B8F1000FB5
:102EA0001AD01EE02A4651462046FEF79CFF616A72
:102EB00019B104F1240000F09DFA20B13E60BFF387
:102EC0004F8FBFF36F8FFFF773FB012006B0BDE894
:102ED000F087FFF76DFB22E06846FFF743FC4FF0F9
:102EE0000108FFF765FBFFF723FDFFF741FB94F9AE
:102EF0004400401C01D184F8449094F94500401CE2
:102F000001D184F84590FFF753FB04A9684600F00F
:102F100027F930B12046FFF707FA00F0A3FA0020A6
:102F2000D4E7FFF725FBA06BE16B884213D1FFF7D5
:102F30003FFB04F110000499FFF722FC2046FFF745
:102F4000F3F900F08FFA00289ED13E60BFF34F8F57
:102F5000BFF36F8F98E7FFF72BFB2046FFF7E4F9ED
:102F600000F080FA90E7000004ED00E02DE9F04762
:102F70001F4690468946040003D0B9F1000F08D0DF
:102F800011E0502080F31188BFF34F8FBFF36F8F94
:102F9000FEE7206C38B1502080F31188BFF34F8FCB
:102FA000BFF36F8FFEE7022F0AD1E06B012807D035
:102FB000502080F31188BFF34F8FBFF36F8FFEE770
:102FC000FFF74AFB5020EFF3118680F31188BFF31F
:102FD0004F8FBFF36F8FA06BE16B884206D3022F38
:102FE00004D0002086F31188BDE8F08794F945509D
:102FF0003A4649462046FEF7F6FE681C04D06D1C92
:1030000084F845500120EDE7606A0028FAD004F109
:10301000240000F0EFF90028F4D0B8F1000FF1D04F
:103020000121C8F80010EDE72DE9F747002683B02D
:103030008A46040003D0BAF1000F08D011E05020F6
:1030400080F31188BFF34F8FBFF36F8FFEE7206CC3
:1030500038B1502080F31188BFF34F8FBFF36F8FCB
:10306000FEE700F00FF9DFF8F4804FF000094FF0B1
:10307000805748B9059838B1502080F31188BFF3C4
:103080004F8FBFF36F8FFEE7FFF772FAA56BC5B1E5
:1030900051462046FEF794FE6D1EA563206950B18F
:1030A00004F1100000F0A6F928B1C8F80070BFF3D1
:1030B0004F8FBFF36F8FFFF77BFA012006B0BDE89B
:1030C000F087059808B11EB106E0FFF771FA27E016
:1030D0006846FFF747FB0126FFF76AFAFFF728FC6F
:1030E000FFF746FA94F94400401C01D184F844905B
:1030F00094F94500401C01D184F84590FFF758FA37
:1031000005A9684600F02CF8002820460AD0FFF7F1
:103110000BF900F0A7F92046FEF7AEFF0028B3D068
:103120000020CBE7FEF7A8FF90B104F12400059939
:10313000FFF726FB2046FFF7F7F800F093F9002889
:10314000A2D1C8F80070BFF34F8FBFF36F8F9BE71A
:103150002046FFF7E9F800F085F995E704ED00E077
:103160002DE9F0410C46050011D0C4B1FFF700FA7B
:10317000174B5A696E682068911B471C17D02F683F
:103180009B6A9F4219D0964217D8012410E0502024
:1031900080F31188BFF34F8FBFF36F8FFEE750208E
:1031A00080F31188BFF34F8FBFF36F8FFEE70024CA
:1031B000FFF7FEF92046BDE8F081884205D9401AA4
:1031C00020602846FFF7CEFAF1E700202060DCE718
:1031D000200000202DE9FF5F8346DDE90E87994638
:1031E00016468A469000FFF7D5F805001CD05C20F3
:1031F000FFF7D0F8040014D00020256384F85900AC
:10320000CDE90240CDE900874B463246514658464B
:10321000FEF7A1FE2046FEF73FFD012004B0BDE809
:10322000F09F2846FFF7D8F94FF0FF30F6E7F0B5EA
:1032300085B0DDE90B640A9DA6B1DCB15C2700977F
:103240002663022684F85960002604AFCDE90246C1
:10325000CDE90057FEF77FFE2046FEF71DFD0498DE
:1032600005B0F0BD502080F31188BFF34F8FBFF33E
:103270006F8FFEE7502080F31188BFF34F8FBFF3AD
:103280006F8FFEE70548C16919B1806B18B1002046
:103290007047012070470220704700002000002086
:1032A0000148406970470000200000202DE9F041EE
:1032B0002E4C0027A06B40B1206A401C2062606A3F
:1032C00000B101273846BDE8F0816669761C666169
:1032D00013D16068006838B1502080F31188BFF3C3
:1032E0004F8FBFF36F8FFEE76068A1686160A060D9
:1032F000A06A401CA062FEF78DFF206BDFF8708093
:10330000864209D36068006880B16068C068C5689B
:10331000686886420DD220632068C06A00EB800195
:1033200058F821000128CAD90127C8E74FF0FF301B
:10333000F1E7281DFFF7B0F8A86A18B105F11800E9
:10334000FFF7AAF8E86AA169884200D9A06100EBFA
:10335000800108EB8100291DFFF7FEF8E86A21686B
:10336000C96A8842CED30127CCE7000020000020A4
:103370008401002070B504004FF0000133D01B4DD4
:103380002868844207D0502080F31188BFF34F8F04
:10339000BFF36F8FFEE7206D38B1401E2065E36CF0
:1033A000E26A9A421FD040B11DE0502080F311889C
:1033B000BFF34F8FBFF36F8FFEE7201DFFF76CF851
:1033C000E06CE062C0F13800A061E06AA96988425F
:1033D00000D9A861064900EB800001EB8000211DA7
:1033E000FFF7BAF80121084670BD00002000002058
:1033F0008401002070B5C068C46854B104F118009D
:103400000646FFF749F8144DA86B50B131461348F2
:1034100015E0502080F31188BFF34F8FBFF36F8FFB
:10342000FEE7201DFFF738F8E06AA969884200D955
:10343000A8610B4900EB800001EB8000211DFFF724
:103440008BF8E06A2968C96A884202D9012068625B
:1034500070BD002070BD0000200000200C06002080
:10346000840100202DE9F0472C4D00242746A86B4D
:1034700038B1FFF77DF8A86B401EA863A86B40B178
:1034800046E0502080F31188BFF34F8FBFF36F8F5A
:10349000FEE72969224E0120D1B3A6F59169804645
:1034A0003068E0B1F068C46804F11800FEF7F4FF7A
:1034B000201DFEF7F1FFE06AA969884200D9A861E2
:1034C00000EB800109EB8100211DFFF745F8E06A60
:1034D0002968C96A8842E3D3C5F82480E0E70CB1C3
:1034E000FEF798FE2C6A4CB14FEA0806FFF7DEFEA5
:1034F00000B16E62641EF9D100202862686A38B19A
:103500000849012738070860BFF34F8FBFF36F8F5B
:10351000FFF74EF83846BDE8F08700002000002095
:103520000C06002004ED00E010B586B0FEF71CFC90
:10353000114CA068B8B100200390049005AA04A91A
:1035400003A8FEF7D3FFDDE9032102208DE8070081
:1035500000230AA10B48059AFFF769FEE06010B14D
:1035600006B0012010BD502080F31188BFF34F8FAB
:10357000BFF36F8FFEE700005C000020546D7220E7
:1035800053766300052300082DE9FF411E461346CC
:1035900002000A9D4FF0000016D0144CA768002FBF
:1035A0000FD0CDE900130292062917DAFFF76AFE61
:1035B00002284FF000030FD000226946A068FFF7F1
:1035C00025FC04B0BDE8F081502080F31188BFF3E2
:1035D0004F8FBFF36F8FFEE72A46EEE70023324698
:1035E00069463846FFF7C2FCEBE700005C000020AC
:1035F0001FB51C466FF00103CDE90030CDE9021282
:1036000004480023224669468068FFF7AFFC04B0F7
:1036100010BD00005C0000208C3600080000000097
:10362000000000000000000000000000800000001A
:1036300018000000000000000000000080360008B4
:10364000000000000000000000000000000000007A
:1036500080000000080000000000000000000000E2
:103660000006101600061016000000000000000002
:103670000102030406070809000000000102030418
:103680006D795461736B30320000000064656661CF
:10369000756C745461736B00B8360008000000202C
:1036A00098000000521800085037000898000020C9
:1036B000804D0000621800080000000000000000BB
:1036C00000000000000000000100000010000000E9
:1036D000000000000024F4000000000000000000D2
:1036E00000000000000000000000000000000000DA
:1036F00000000000000000000000000000000000CA
:1037000000000000000000000000000000000000B9
:1037100000000000000000000000000000000000A9
:103720000000000000000000000000000000000099
:103730000000000000000000000000000000000089
:103740000000000000000000AAAAAAAA00000000D1
:040000050800018965
:00000001FF
