:020000040800F2
:1080000068510020A583000817B300080BB20008D0
:1080100015B30008C5A100084DBA00080000000013
:10802000000000000000000000000000E5820008E1
:10803000C7A10008000000004183000819B3000830
:10804000BF830008BF830008BF830008BF83000808
:10805000BF830008BF830008C9A10008BF830008D0
:10806000BF830008BF830008BF830008BF830008E8
:10807000BF830008BF830008BF830008BF830008D8
:10808000BF830008BF830008BF8300080000000012
:10809000000000000000000000000000BF83000896
:1080A000BF830008BF830008BF830008BF830008A8
:1080B000BF830008BF830008BF830008BF83000898
:1080C000BF830008BF830008BF830008BF83000888
:1080D000BF830008BF830008BF83000800000000C2
:1080E000BF830008BF830008BF83000800000000B2
:1080F000000000000000000000000000BF83000836
:1081000000000000BF83000825B40008BF830008FA
:10811000000000000000000000000000000000005F
:10812000BF830008BF830008BF830008BF83000827
:10813000BF830008000000000000000000000000F5
:10814000000000000000000000000000BF830008E5
:10815000BF830008BF830008BF830008BF830008F7
:10816000BF830008BF83000800000000000000007B
:1081700000000000000000000000000000000000FF
:1081800000000000BF8300080000000000000000A5
:10819000BF830008BF83000800F002F800F092F8E7
:1081A0000AA090E8000C82448344AAF10107DA4552
:1081B00001D100F087F8AFF2090EBAE80F0013F012
:1081C000010F18BFFB1A43F001031847B06000000D
:1081D000D0600000103A24BF78C878C1FAD852079E
:1081E00024BF30C830C144BF04680C607047000031
:1081F0000023002400250026103A28BF78C1FBD8B0
:10820000520728BF30C148BF0B6070476E2900F08D
:108210009F83702900F0E184662905F0368765297F
:1082200005F03387672905F03087612905F02F872E
:1082300003681B0A28BF41F08001692900F04C83C4
:10824000642900F04983752900F046836F2900F006
:108250006E84782900F0AD84E92900F00984E429CE
:1082600000F00684F52900F00384EF2900F06B8408
:10827000F82900F0AC840368DB0928BF41F08001D5
:10828000632901F04B82732901F05082E32901F048
:108290005B82F32901F06082002070471FB505F072
:1082A000EFFE00F001FE04000020002105F0BCFEFE
:1082B000401C60600020002105F0CCFEE0601FBD86
:1082C00010B510BD01F098FA1146FFF7E7FF03F073
:1082D000EDFB01F069FB03B4FFF7F2FF03BC01F013
:1082E0006DFB00002C4B19680868B0E8F04F80F374
:1082F0000988BFF36F8F4FF0000080F3118870473B
:108300000000000008480068006880F308884FF00B
:10831000000080F3148862B661B6BFF34F8FBFF3DD
:108320006F8F00DF00BF00BF08ED00E0DFF80C003A
:10833000016841F470010160704700BF88ED00E002
:10834000EFF30980BFF36F8F134B1A681EF0100F05
:1083500008BF20ED108A20E9F04F106009B44FF0FB
:10836000500080F31188BFF34F8FBFF36F8F04F07D
:108370000FFE4FF0000080F3118809BC19680868EF
:10838000B0E8F04F1EF0100F08BFB0EC108A80F379
:108390000988BFF36F8F70472C000020EFF3058032
:1083A000704700000948804709480047FEE7FEE79C
:1083B000FEE7FEE7FEE7FEE7FEE7FEE7FEE7FEE795
:1083C00004480549054A064B70470000CDB3000834
:1083D00099810008684B002068510020684D0020FA
:1083E000684D002053EA020C00F069802DE9F04B43
:1083F0004FF00006002B1FBFB3FA83F503FA05F414
:1084000024FA05F65E4012BF1643B2FA82F502FA6C
:1084100005F4C5F120051EBF22FA05FC44EA0C0450
:10842000203556EA044C4FEA144418BF641C4FF040
:1084300000084FF00009904271EB030C39D300297A
:1084400019BFB1FA81F701FA07F6B0FA80F700FA1E
:1084500007F6C7F120071EBF20FA07FC46EA0C0604
:108460002037B6FBF4FCA7EB0507103F07F01F0B06
:10847000CBF120060CFA0BFB2CFA06F644BFB346F0
:108480000026202FA4BF5E464FF0000B5BEA060CCF
:1084900008BF4FF0010B19EB0B09ABFB027C48EB5B
:1084A0000608C01B06FB02CC0BFB03CC71EB0C01D6
:1084B000C1E70B46024641464846BDE8F08B13B57E
:1084C0004FF000004FF00001AFF30080BDE81C400A
:1084D000704700001CB50C46064B7B446946009073
:1084E000204600F04EFA04460020694600F05CFA8F
:1084F00020461CBDCB0400000FB41CB5084B06AAD7
:108500007B4469460090059800F03BFA0446002041
:10851000694600F049FA20461CBC5DF814FB0000D7
:10852000A50400002DE9F04791460F468046044619
:10853000002614F8015B2DB100F060F90068405D81
:10854000C007F6D12B2D02D02D2D18D0641E4A461F
:108550003946204600F010FC27B13968A14201D10C
:10856000C7F800804FF0020471050BD54042002887
:1085700003DD00F04BF90460A007BDE8F08746F486
:108580008066E4E70028F8DA00F040F904606FF054
:108590000040F2E7014A00F03FBC0000A4000020C8
:1085A00040EA0103024630B59B0710D14FF0013479
:1085B00000E008C208C91D1B9D4315EAC41FF8D07E
:1085C00013F0FF0102F8011B0DD01B0AF8E711F8A8
:1085D000013B002B02F8013B05D011F8013B002BB9
:1085E00002F8013BF3D130BD10B5431C02E010F896
:1085F000011B71B18107FAD14FF0013202C88C1A08
:108600008C4314EAC211F9D0C01A0A0603D0C01E66
:1086100010BDC01A10BD0A0401D0801E10BD090291
:10862000FCD0401E10BD032A40F2308010F0030C35
:1086300000F0158011F8013BBCF1020F624498BFB5
:1086400011F801CB00F8013B38BF11F8013BA2F152
:10865000040298BF00F801CB38BF00F8013B11F0CD
:10866000030300F02580083AC0F0088051F8043B6D
:10867000083A51F804CBA0E80810F5E7121D5CBFDA
:1086800051F8043B40F8043BAFF30080D20724BF0D
:1086900011F8013B11F801CB48BF11F8012B24BFA1
:1086A00000F8013B00F801CB48BF00F8012B7047F0
:1086B00010B5203AC0F00B80B1E81850203AA0E87D
:1086C0001850B1E81850A0E81850BFF4F5AF5FEAB1
:1086D000027C24BFB1E81850A0E8185044BF18C964
:1086E00018C0BDE810405FEA827C24BF51F8043B0B
:1086F00040F8043B08BF7047D20728BF31F8023B5F
:1087000048BF11F8012B28BF20F8023B48BF00F8F2
:10871000012B704702F0FF0343EA032242EA0242C0
:1087200000F09EBB4FF0000200B5134694469646FB
:10873000203922BFA0E80C50A0E80C50B1F1200174
:10874000BFF4F7AF090728BFA0E80C5048BF0CC022
:108750005DF804EB890028BF40F8042B08BF704780
:1087600048BF20F8022B11F0804F18BF00F8012BF2
:10877000704700004FF0013C50F8042B51F8043BC7
:108780009A4221D1A2EB0C03934313EACC1317D1E5
:1087900050F8042B51F8043B9A4215D1A2EB0C037C
:1087A000934313EACC130BD150F8042B51F8043B3C
:1087B0009A4209D1A2EB0C03934313EACC13DBD00A
:1087C0004FF00000704700BFD01A01BAB1FA81F132
:1087D00001F0180122FA01F0CB40C1F12001DBB217
:1087E000C0B2C01A2CFA01F3D11A914311EAC31195
:1087F000E6D17047704770477047000010B500F031
:1088000053FB001D10BD00BF2158000000487047F9
:10881000084B002070B5044685690068C10601D583
:10882000302600E02026C00707D070BDD4E9012122
:1088300030469047206A401C20626D1EF6D570BD00
:1088400070B5044685690078C00707D170BDD4E9CA
:10885000012120209047206A401C20626D1EF6D521
:1088600070BD09684A0501D540B27047C905FCD5FD
:1088700000B2704709684A0501D5C0B27047C90502
:10888000FCD580B2704770B50C460546012A05D06C
:108890002878800600D5EA69002302E0012305E07C
:1088A0005B1C934202D2E05C0028F9D1A869E6186B
:1088B000C01AA861286A184428622846FFF7AAFF50
:1088C00004E0D5E9012114F8010B9047B442F8D334
:1088D0002846FFF7B5FF70BD2DE9F041064600249C
:1088E00010687529314616A510D0FFF7BAFF002889
:1088F00002DA404213A507E031688A0701D512A5C4
:1089000002E0490704D511A5012401E0FFF7B2FFF9
:1089100000210A2206F1240709E0B0FBF2FCB0FBBB
:10892000F2F302FB1C00303078541846491C002832
:10893000F3D123462A463046BDE8F04100F0FDBAA7
:10894000000000002D0000002B00000020000000AF
:1089500011680268006A530501D508700AE0D30562
:1089600001D5088006E0130603D5C217C1E900024D
:1089700000E008600120704701694A1C0261087824
:10898000704700B58FB0CDE901310021059105494F
:108990007944CDE903101146684600F029F90FB07B
:1089A00000BD0000E5FFFFFF0A6802F8010B0A6046
:1089B000704700002DE9FF5F15468A460446DFF840
:1089C000AC80F8440027D8E900103E46CDE90010FD
:1089D00010E03AF816106A4602A800F0CFFE411CDB
:1089E00007D02178890603D5E269391891420DD85C
:1089F0000744761C2078800602D5E069B84205DD80
:108A0000AE42E6DB3AF816000028E2D1A069C01BAE
:108A1000A0612046FFF7FEFED8E90010CDE9001066
:108A2000002017E03AF818106A4602A800F0A6FEE7
:108A3000B0F1FF3F81460BD000250DF1080B05E09A
:108A4000D4E901211BF8050090476D1C4D45F7D373
:108A500008F10100B0428046E4DB206A384420621D
:108A60002046FFF7EDFEBDE8FF9F00007A570000AB
:108A70002DE9F0418046D21D22F007020025D2E9FF
:108A80000002F52915A614D0011E72F1000106DAC4
:108A90000023D0EB030063EB020211A608E0D8F834
:108AA00000108B0701D50FA602E0490701D50EA6DD
:108AB00001251146002408F1240704E000F0F8F92C
:108AC00030323A55641C50EA0102F7D12B46324647
:108AD00021464046BDE8F04100F02FBA00000000FA
:108AE0002D0000002B0000002000000030B4002109
:108AF00000F1240408E002F00705D208303542EA0C
:108B00004372DB086554491C52EA0305F3D104683B
:108B1000002310A2250707D5A40600D421B1C469FB
:108B200001230DA2641EC46130BC00F006BA10B56A
:108B3000044621461068FFF79DFE02462046BDE828
:108B400010400023D2E7D21D22F00701D1E9002313
:108B5000CCE700000000000030000000F0B40D463B
:108B60000188090502D5214C7C4402E01F4C7C445D
:108B70000E34002100F1240608E002F00F0712096C
:108B8000E75D42EA03721B097754491C52EA030766
:108B9000F3D102780023120704D5702D06D009B155
:108BA000022311342246F0BC00F0C7B9012310346F
:108BB000F8E770B504460D4621461068FFF75AFEE7
:108BC000024629462046BDE870400023C6E7D21D74
:108BD00022F00703D3E90023C0E70368126843F0DB
:108BE000200303600823C3610023B7E7DC550000BE
:108BF0002DE9F05F894604464FF0000ADFF874B1B2
:108C0000FB44C0F820A02046E1688847002874D0C3
:108C1000252806D0D4E901219047206A401C206213
:108C2000F1E700265F462046E16888472028054690
:108C300007DB312D05D2781910F8200C08B1064356
:108C4000F1E7B00701D526F00406C4F81CA0002700
:108C5000C4F818A02A2D09D0284602F020FF38B306
:108C600004EB8708303DC8F8185019E059F8041B88
:108C7000204604EB87029161E1688847012F054691
:108C800018D1E069002820DA26F020061DE0D8F887
:108C9000180000EB800005EB40003038C8F81800E1
:108CA0002046E1688847054602F0F9FE0028EED12B
:108CB000012F0AD02E2D08D12046E16888477F1C5D
:108CC0000546022F46F02006C4DBA069002803DA1F
:108CD000404246F00106A061F00701D026F01006E0
:108CE0006C2D0BD0682D09D04C2D39D06A2D35D084
:108CF000742D35D07A2D33D016E038E0E1682F4658
:108D000020468847B842054609D16C2F26D04FF43B
:108D10008060E168064320468847054604E06C2FE2
:108D20001AD04FF4807006430DB3A5F14100192805
:108D300002D8203546F400664A4629462046266079
:108D40004E46FFF763FA80B101280BD0F61D26F0DE
:108D5000070000F1080956E74020E4E78020D8E743
:108D60000020D6E706F104094DE7284652E7206ABD
:108D7000BDE8F09F6C5500002DE9F05F8246154676
:108D80008B4600270AF10104B9460078302801D04B
:108D90009DB113E014F8010B0127782803D058285F
:108DA00001D045B10AE00DB1102D07D1002714F80C
:108DB000010B102502E0082500E00A250026B04638
:108DC0000EE005FB080005FB06F101271FFA80F8FD
:108DD00001EB1046B6F5803F00D3B94614F8010BFD
:108DE000294600F0BDFC0028EBDABBF1000F05D0EE
:108DF0000FB1641E00E05446CBF80040B9F1000FFB
:108E000006D0FFF703FD02210160C81EBDE8F09FF8
:108E100048EA0640FAE700002DE9F04115460E4603
:108E2000040002D12C6804B90BA4204600F0D6FC43
:108E30000444207870B127463146384600F0BEFC25
:108E40000444207810B1002004F8010B38462C604F
:108E5000BDE8F0810027F9E7000000004FF00002B4
:108E60000429C0F0128010F0030C3FF45DACCCF18B
:108E7000040CBCF1020F18BF00F8012BA8BF20F8AA
:108E8000022BA1EB0C01FFF74FBC5FEAC17C24BFB2
:108E900000F8012B00F8012B48BF00F8012B7047A8
:108EA00000487047084B002000487047284B0020BE
:108EB00030B5B0F10A024FEA900E71F100034EEAAC
:108EC000817EB0EB0E0061EB91014FEA101E4EEA7D
:108ED000017E10EB0E0041EB11114FEA102E4EEA0D
:108EE000016E10EB0E0041EB11214FEA104E4EEADD
:108EF000014E10EB0E0041EB1141401841F1000111
:108F00004FEAD00040EA41704FEAD10110EB8005F2
:108F10004FEA810444EA907444EB01046D1944EB78
:108F20000404521BA3414FF0000348BF0A3200D58E
:108F300030BD401C41F1000130BD2DE9F0470D4628
:108F400099469246044600F124080168880604D533
:108F5000E06921F01001216000E00120A84201DD5C
:108F6000471B00E00027A1697A1902EB0900081AE3
:108F7000A0612078C00602D42046FFF74BFC0026F3
:108F800008E0D4E901211AF806009047206A401C45
:108F9000761C20624E45F4DB2078C0060AD52046B8
:108FA000FFF738FC06E0D4E9012130209047206A21
:108FB000401C2062381EA7F10107F4DC07E0D4E969
:108FC000012118F805009047206A401C2062281EE5
:108FD000A5F10105F3DC2046FFF732FC20780006FE
:108FE00002D50220BDE8F0870120FBE770472DE99C
:108FF000FF4F0C461E464FF0FF378BB0D2E9000101
:10900000DDF860800A908A46C1F30A5505B93D46ED
:10901000002108464FF00000BAF1000F00F44000B4
:1090200005DA00EB80004FF4400101EA50004FEAFE
:109030009059B9F1010F00DDB9460A9850EA4A008B
:109040000ED044F61050A5F2FF3545432F14B8F169
:10905000000F1ED07542291E1EDDC9F100021CE062
:10906000B8F1010F4FF0000001D0302103E0F243CE
:1090700005E02154401CB042FBDB304600220021B9
:1090800021540B99C1F80880C1E900200FB0BDE858
:10909000F08FBD1B6D1CDEE74A4600DA694206A868
:1090A00000F010FC06AB93E8070003AB83E8070071
:1090B00050460A9900F089FC8DE80700A0F50050A1
:1090C0001F3800900398002D0ADD42F21F014A4626
:1090D0000844002303A90390684600F0F2FE09E06B
:1090E000A0F500504A461F38002303A903906846A4
:1090F00000F0FCFE8DE807000004000C03D04FF0E8
:10910000FF30410800E01046B8F1000F03D0002204
:10911000009215461EE0751E05D4FFF7C9FE3032D9
:1091200062556D1EF9D5B3460122084302D00022D4
:109130007F1C04E02078302801D100227F1E002A05
:10914000099784D01DE0112D07DAFFF7B1FE303208
:1091500062556D1C50EA0102F5D1084302D0009817
:10916000C8B10EE00021681E05E0235C625C635418
:109170002254401E491C8142F7DBAB46A81B401E0F
:109180000990002004F80B000B98099AC0F8088099
:10919000C0E9002B7AE711264FF0000857E72DE9C8
:1091A000F04F88460446D21D22F0070191B0D1E964
:1091B0000001CDE90A0102F04AFC02460B98C00FFB
:1091C00001D02D2007E02068810701D52B2002E087
:1091D000202101EAC000032A099001D0072A05DBFB
:1091E00003464146204600F02DFB0BE12078800627
:1091F00001D5E06900E00620B8F1650F814606D090
:10920000B8F1660F18D0B8F1670F70D131E00020C7
:10921000B9F1110F009001DB112301E009F1010305
:109220000AAA01A90CA8FFF7E2FEDDE90C700026EE
:1092300009F10105834647E001204B4600904FF0BD
:1092400000470AAA01A90CA8FFF7D1FEDDE90DB07D
:109250000C995D46002610B909F101000D18B9EB13
:10926000050003D4C0F1FF3609F10105A5EB0900A3
:109270002BE0B9F1010F01DA4FF001090020B9F13B
:10928000110F0090484601DD112300E003460AAAB1
:1092900001A90CA8FFF7ABFEDDE90C704D460026D6
:1092A0008346207800070AD4AB4500DA5D4601A862
:1092B000012D04DD411911F8011C302907D04F455B
:1092C00002DA17F1040F04DA012082460FE06D1E66
:1092D000EEE7002F02DCED1B3E4403E0781CA842C1
:1092E00000DD7D1CB81B00F1010A4FF0004720781B
:1092F000000703D4AA4501DB4FF0FF3A0021B7F184
:10930000004F0DF143088DF8431024D002202B2389
:10931000002F01DA7F422D230A21021EA0F1010055
:1093200000DC5FB197FBF1FC97FBF1F201FB1C7CC9
:1093300017460CF1300C08F801CDEEE7A8F101005A
:1093400003702188090501D5452100E06521A0F1C0
:10935000010800F8011C09980FA9A1EB0807FF1DDF
:1093600000B10120411901EBEA70A1693844081AE3
:10937000401EA0612078C00602D42046FFF74AFABA
:10938000099828B1D4E901219047206A401C206245
:109390002078C00622D52046FFF73CFA1EE0002EBA
:1093A00004DBB34502DD01A8805D00E03020D4E994
:1093B00001219047206A401C2062761CAAF101001E
:1093C0005FEA000A0AD1FFF76FFDC0680168405CE0
:1093D000D4E901219047206A401C2062281EA5F193
:1093E0000105DCDC07E0D4E9012118F8010B904706
:1093F000206A401C2062381EA7F10107F3DC2046DA
:10940000FFF71EFA032011B041E600002DE9F04FEE
:1094100004460D46D21D22F0070089B0D0E900971E
:109420004846394602F013FB0246F80F01D02D23BF
:1094300007E02068810701D52B2302E0202101EA03
:10944000C0038DF820300BB1012000E00020032A7A
:10945000824601D0072A04DB2946204600F0F2F9B3
:109460003FE12078800601D40D2500E0E569C7F3CF
:109470000A560D2D49DA00214FEA175B08464FF0D6
:109480000000002F00F4400007DA00EB80004FF4EA
:10949000400100EBD07001EA60008115012901DD77
:1094A0004FF0FF3100224FEA850CBCF1180F06D3B4
:1094B0001346ACF118004FF08052C24003E04FF465
:1094C000801323FA0CF30CF10C0CBCF1200F04D325
:1094D000ACF1200C09FA0CF001E007FA0CF00029BD
:1094E0004FF0004801DD18B90FE00ED140450CD314
:1094F00019EB02095F4121B9404502D19F4329EA96
:109500000209BBEB175F00D0761C2088000502D54E
:109510007B48784402E07A487844193808AA302316
:1095200002F80A30037C0AF10101002E0AF1020A56
:1095300053546A4602DC4FF0300101E04FF0310134
:109540004FF001088DF8001002D0A6F2FF3603E0BC
:1095500059EA470100D06B4E002D02DC2178090743
:1095600004D54FF002082E218DF80110C4460021C9
:109570000BE0C7F303433F01C35C491C6D1E02F8B7
:109580000830052908F1010801DA002DF1DC00217D
:109590000CE000EB1973491C1B786D1E082902F8BA
:1095A00008304FEA091908F1010801DA002DF0DC52
:1095B00021688B0602D516E0A8F10108E04505DD1B
:1095C00002EB080313F8013C302BF5D0B8F1000F83
:1095D00009DD02EB080313F8013C2E2B03D1090728
:1095E00001D4A8F10108002D05DD3E2102F8081084
:1095F0006D1E08F10108407C002E02F8080008F1F9
:10960000010804DA2D20764202F8080002E02B203F
:1096100002F808000A214FF47A70864208F1010826
:109620000BDB96FBF0F3303302F8083096FBF0F3D7
:1096300008F1010800FB136601E0642E0CDB6420D6
:1096400096FBF0F3303302F8083096FBF0F308F1A4
:10965000010800FB136601E00A2E06DB96FBF1F021
:10966000303002F8080008F1010896FBF1F001FB28
:109670001060303002F80800A16908F1010808EB19
:10968000050202EB0A00081AA0612078C00602D485
:109690002046FFF7BFF8216A08AE01EB0A002062FE
:1096A00004E0D4E9012116F8010B9047BAF1010A50
:1096B000F7D22078C00602D52046FFF7ABF86E46F9
:1096C00009E016F8010B3E280FD0D4E9012190479C
:1096D000206A401C2062B8F10108F2D22046FFF750
:1096E000AFF809B00320BDE8F08F206A284420625B
:1096F00003E0D4E90121302090476D1EEBD3F8E759
:109700007E4C000002FCFFFF10B5436913B1AFF3BC
:10971000008001E0FFF7B7F8012010BD127800F1DA
:1097200024010A7000224A700122EDE711684FF00F
:10973000FF32E9E710B5436913B1AFF3008001E0F0
:10974000FFF738F9012010BD128800F1240182844E
:109750000022C2840122EDE711684FF0FF32E9E7F1
:109760003A2800D2303820F02002412A01D3A2F159
:109770003700884201D34FF0FF30704770B516466E
:109780000C460546FFF73AF8036893F801010128F3
:1097900006D0FF2C0FD8185D68B101202C7070BD69
:1097A000D3F807013246214603F207130344284643
:1097B000BDE8704018474FF0FF3070BD30B503462C
:1097C0001D781DB10A4603E0AC4201D1181A30BD24
:1097D00012F8014B002CF7D15B1CF1E730B50346C2
:1097E0001D783DB10A4612F8014B1CB1AC42FAD1CA
:1097F0005B1CF5E7181A30BD7546FFF751FBAE4606
:1098000005006946534620F00700854618B020B58C
:10981000FEF7D6FDBDE820404FF000064FF00007F0
:109820004FF000084FF0000B21F00701AC46ACE808
:10983000C009ACE8C009ACE8C009ACE8C0098D4675
:10984000704700002DE9F0411F46044603260168D9
:10985000072A01F4006004DB08B116A505E016A58F
:1098600003E008B115A500E015A521F01000206067
:10987000A069C01EA0610FB1401EA0612046FEF786
:10988000C9FF4FB1D4E9012138469047206A401CF6
:109890002062C01C206206E0206AFAE7D4E90121B8
:1098A00015F8010B9047761EF8D22046FEF7C8FF48
:1098B000BDE8F0814E414E006E616E00494E46009B
:1098C000696E66002DE9F047814616468AB0354834
:1098D00078440DC88DE80D0032487844801C03ACF4
:1098E0000DC884E80D0041F69B300844372190FBF9
:1098F000F1F290FBF1F5A5F1800501FB12041B3C90
:1099000002D56442012000E00020DFF898A08046E4
:109910000027FA44AAF1BE0A0EE0E0070AD0324658
:10992000684607EB470101230AEB810100F0DEFAEC
:109930008DE8070064107F1C002CEED1194F7F4486
:10994000AE3F19E0E80715D007EB04100DF1180A37
:1099500090E80E008AE80E00C068F04201D1981924
:1099600008903246012306A903A800F0BFFA03AB12
:1099700083E807006D10641C002DE3D14FF0010354
:1099800032466946B8F1000F03A802D000F099FAF8
:1099900001E000F0ABFAC9E90001C9F808200AB0FB
:1099A000BDE8F0875049000010B50446AFF30080D1
:1099B0002046BDE81040FEF78EBC0000014918208B
:1099C000ABBEFEE72600020070475FEA400C08BF0E
:1099D00091F0000F4FEA8C234FEAC12243EA515124
:1099E0004FEA1C5018BF00F5F0404FEA300018BF96
:1099F00041F000415FEA6C5C00F02980BCF1FF3F60
:109A000008BF40F080407047130C06BF12044FF0AF
:109A1000100C4FF0000C130E04BF12020CF1080CD6
:109A2000130F04BF12010CF1040C930F04BF92003A
:109A30000CF1020CD30F04BF52000CF1010C1146C3
:109A40004FF00002A0F11F00A0EB0C00704711F0D6
:109A5000004F08BF704731F000413FF4D5AF0B0C09
:109A600006BF09044FF0100C4FF0000C0B0E04BFA2
:109A700009020CF1080C0B0F04BF09010CF1040CD6
:109A80008B0F04BF89000CF1020CCB0F04BF4900FF
:109A90000CF1010CCCF12003A0EB0C0022FA03F333
:109AA00002FA0CF241EA030100F10100704720F0D4
:109AB0007F4C80EA030023F07F47ACEB070303F5FC
:109AC0007C5300F0004003F1FF032DE980494FEA89
:109AD000154B09B44FEA144325EA0B4E24EA034818
:109AE0000FF2042606EB132749083E785FEA32029C
:109AF00003FB0667C7F5000707FB06F64FEA543776
:109B00004FEAD64606F1020607FB066CCCF1005C74
:109B10004FEA1C472CEA074C07FB06F40CFB06F542
:109B200004EB15464FEA961634BF00204FF0004074
:109B30004FEAD13706FB07FC4FEA1C4C0CFB0BF736
:109B4000D21B03FB0CF761EB07010CFB0EF7B0EB2C
:109B5000074072EB17420CFB08F734BFA2EB074239
:109B6000B2EB074261EB17414FEA0C444FEA910711
:109B700006FB07FC4FEA1C4C0CFB0BF7B0EBC74095
:109B800072EB573203FB0CF734BFA2EBC742B2EBC8
:109B9000C74261EB57310CFB0EF7B0EBC70072EB1D
:109BA00057720CFB08F734BFA2EBC702B2EBC70237
:109BB00061EB5771039F4FEA816141EA921104EB17
:109BC000CC044FEAD1374FEA826206FB07FC42EA37
:109BD00090124FEA80604FEA1C4C0CFB0BF7D21B33
:109BE00003FB0CF761EB07010CFB0EF7B0EB074032
:109BF00072EB17420CFB08F734BFA2EB0742B2EB43
:109C0000074261EB17414FEA8C554FEA910704EB8D
:109C10009C2406FB07FC4FEA1C4C0CFB0BF7B0EB3B
:109C2000C74072EB573203FB0CF734BFA2EBC742BD
:109C3000B2EBC74261EB57310CFB0EF7B0EBC7003C
:109C400072EB57720CFB08F734BFA2EBC702B2EB02
:109C5000C70261EB577115EB4C254FEA816141EA70
:109C600092114FEA82624FEAD13742EA901206FB24
:109C700007FC44F100044FEA80604FEA1C4C0CFBE7
:109C80000BF7D21B03FB0CF761EB07010CFB0EF784
:109C9000B0EB074072EB17420CFB08F734BFA2EBA6
:109CA0000742B2EB074261EB174115EB1C154FEA77
:109CB000813141EA92414FEA823242EA90424FEAD0
:109CC00080304FEA0C7644F1000448EA03434EEA40
:109CD0000B484FF0000EB2EB080C71EB030724BFEA
:109CE000624639464EEB0E0E4FF0000B0018524103
:109CF00049414BEB0B0BB2EB080C71EB03077BF10B
:109D0000000B24BF624639464EEB0E0E4FF0000B9F
:109D10000018524149414BEB0B0BB2EB080C71EBB5
:109D200003077BF1000B24BF624639464EEB0E0E53
:109D300051EA020718BF46F0010616EB0E7655F100
:109D4000000254F1000103D5BDE88901BDE8008897
:109D5000BDE88901BDE80048B619524141EB010157
:109D6000A3F10103704780807F7E7D7C7B7A7978C8
:109D7000777676757473727171706F6E6E6D6C6CD0
:109D80006B6A6A6968686766666564646363626172
:109D90006160605F5F5E5E5D5D5C5C5B5B5A5A59F3
:109DA000595858575756565555555454535352525F
:109DB0005251515050504F4F4F4E4E4D4D4D4C4CB7
:109DC0004C4B4B4B4A4A4A49494948484847474700
:109DD000474646464545454444444443434343423D
:109DE000424242414141002B9C4630D477002BD067
:109DF0001CB54FEA370703B44FF010004FF01001C5
:109E0000BAF1000F06D0BCF1000FDCBF40F0080033
:109E100040F008014FF000000FBCBDE810400BF10E
:109E2000010BBBF1010F08BF5FEA170722BF12F158
:109E3000010211F101014FF0004143F1000300F074
:109E4000004043EA00007047F9D35708D0E746EADC
:109E5000064613F1400F4FEA16461FDD13F1200F9F
:109E6000DFBF16430A46002120335B42BED0C3F158
:109E7000200746EA064602FA07F74FEA164646EA80
:109E80000706C3F1200722FA03F201FA07F721FAC5
:109E900003F14FF0000342EA0702A7E746EA020691
:109EA00046EA06464FEA164646EA0106BCBF46EABF
:109EB0000646360C4FF000034FF000024FF0000151
:109EC00094E72DE9804C9A46934670B491E83800A7
:109ED00007C831EA400C48BF34EA430C03D5FFF70A
:109EE000E6FDFFF780FFF0BCBDE8008C2DE9804C5B
:109EF0009A46934670B491E8380007C810F0804F36
:109F000008BF13F0804F03D100F005F8FFF76BFF97
:109F1000F0BCBDE8008C20F07F4780EA030023F00E
:109F20007F4C07EB0C03A3F57C5300F00040A3F13A
:109F3000FE0392F0000F00F0B38095F0000F00F0E8
:109F400077802DE901494FEA11404FEA144621EA92
:109F5000004800FB06FC24EA064708FB06F607FB60
:109F600008F800FB07F718EB06484CEB164C4FEAD5
:109F7000124B18EB07484FEA15464CEB174022EA04
:109F80000B4E0BFB06FC25EA06470EFB06F607FB0D
:109F90000EFE0BFB07F71EEB064E4CEB164C4FF07C
:109FA00000061EEB074E4CEB174B18EB0B0840F16D
:109FB000000018EB0E0B58EB000840F100008F1A60
:109FC0004FF000013CBFC943661B14BFB5EB040C46
:109FD00000213CBFC943F61B4FEA17444EEA8E0EE0
:109FE00027EA04454FEA1C4704FB07622CEA074CAA
:109FF00005FB07F70CFB05F604FB0CFC16EB07460C
:10A0000042EB174216EB0C4642EB1C421BEB0606DA
:10A0100058EB0202414146EA9E0601D5BDE801899E
:10A02000B619524141EB0101A3F10103BDE80189D9
:10A030004FEA14454FEA114724EA054621EA074C46
:10A0400005FB07F406FB07F70CFB06F105FB0CFC10
:10A0500011EB074144EB17444FEA124711EB0C4157
:10A0600044EB1C4422EA074C05FB07F206FB07F70A
:10A070000CFB06F605FB0CFC16EB074642EB174201
:10A0800016EB0C4642EB1C456A1854F1000148BF20
:10A090007047B619524141EB0101A3F1010370472A
:10A0A00095F0000F37D04FEA11424FEA144721EAEA
:10A0B000024624EA074C02FB07F106FB07F70CFBFC
:10A0C00006F402FB0CFC14EB074441EB17414FEA8A
:10A0D000154714EB0C4441EB1C4125EA074C02FBED
:10A0E00007F506FB07F70CFB06F602FB0CFC16EB6C
:10A0F000074645EB174516EB0C4645EB1C4212197B
:10A1000051F1000148BF7047B619524141EB0101BE
:10A11000A3F1010370474FEA14454FEA114724EABF
:10A12000054621EA074C05FB07F106FB07F70CFB88
:10A1300006F24FF0000605FB0CFC12EB074241EB68
:10A14000174112EB0C4251EB1C4148BF704792186B
:10A1500041EB0101A3F101037047000090B0202101
:10A160006846FEF7DFFA0F4C0F4E4FF480454FF470
:10A17000FA770EA16846FEF7BFF9694608A8FEF710
:10A180000FFA00231A4608A9206901F09FFE20B1AA
:10A1900001222946304600F039FA384601F006FD22
:10A1A000E7E7000000000020000C024048656C6CEE
:10A1B0006F2046726F6D2053544D33324634313127
:10A1C0000A0D0000FEE77047012000F04FB90000C3
:10A1D000002229B101291AD002291BD04FF4407264
:10A1E0000E490B6823F440730B600B6813430B603C
:10A1F0000A6822F0F8020A600A68022303EBC00032
:10A2000002430A60086840F48030086070474FF4E9
:10A210008072E5E74FF40072E2E70000103C024074
:10A22000064A136823F440731360136813601368BD
:10A2300043F001031360017070470000103C0240BE
:10A24000084910B50C6824F440740C600C6844F4A0
:10A2500040740C600C6844F001040C6002604360C0
:10A2600010BD0000103C0240074A136823F44073FD
:10A270001360136843F480731360136843F00103A1
:10A280001360018070470000103C0240074A1368C9
:10A2900023F440731360136843F40073136013686E
:10A2A00043F001031360016070470000103C02405E
:10A2B0001C490868C2061C4805D5C26942F0100254
:10A2C000C26110220A600A68920605D5C26942F08E
:10A2D0000802C26120220A600A68520605D5C269D6
:10A2E00042F00402C26140220A600A68120605D5E3
:10A2F000C26942F00202C26180220A600A68D20585
:10A3000006D5C26942F00102C2614FF480720A6050
:10A310000A68920705D5C26942F02002C261022094
:10A32000086070470C3C02401402002070B51149CF
:10A3300004460020C86100F06FF906460E4D09E0A2
:10A34000601C07D024B100F067F9801BA04201D93E
:10A35000032070BD2868C003F2D42868C00701D06C
:10A3600001202860286810F4F970F2D0FFF7A0FFF0
:10A37000012070BD140200200C3C0240034801681B
:10A3800041F000410160002070470000103C024095
:10A390002DE9F0471B4E05461446307E1F46894680
:10A3A000012808D0012030764CF250384046FFF7A3
:10A3B000BDFF18B114E00220BDE8F0879DB1012D6A
:10A3C00016D0022D19D022463B464846FFF738FFEB
:10A3D0004046FFF7ABFF0C490A6822F001020A6011
:10A3E00000213176E8E7E1B24846FFF719FFEFE7D1
:10A3F000A1B24846FFF738FFEAE721464846FFF793
:10A4000045FFE5E714020020103C02400749002008
:10A410000A68002A09DA054A054B0C3A1360054B15
:10A4200013600968002900DA01207047103C0240DF
:10A4300023016745AB89EFCD10B5142208490948BF
:10A44000FEF736F90748416807480129806904D0BA
:10A450000121BDE8104001F011BC0221F9E7000024
:10A4600000000608C001002000000020044910B5CB
:10A470000A68024202D00860FFF7DEFF10BD00004C
:10A48000143C01402DE9F84FDFF860B100224FF095
:10A4900001084FF0030A4FF00F090BF1040E00BF43
:10A4A0000B6808FA02F42340A3426ED14D68022DD6
:10A4B00001D0122D0ED1D50800EB850CDCF8205010
:10A4C0005607F70E09FA07F6B5430E69BE402E434C
:10A4D000CCF82060066855000F790AFA05FC07F0F1
:10A4E000030726EA0C06AF40374307604E68012E8B
:10A4F00005D0022E03D0112E01D0122E0ED1866867
:10A50000CF6826EA0C06AF40374387604668A6430B
:10A510000C79C4F30014944034434460C6688C68DA
:10A5200026EA0C06AC403443C4604C68E40056D5BF
:10A530002F4C256845F480452560246822F00305EA
:10A5400004F4804400942B4C2E19D6F80848950743
:10A550002F0F09FA07F5AC43274DA84201D100257A
:10A5600015E0264DA84201D1012510E0244DA84256
:10A5700001D102250BE0234DA84201D1032506E0BD
:10A58000214DA84202D1042501E028E00725BD4065
:10A590002543C6F80858DBF800405D464E689C43EA
:10A5A000F60300D51C432C60DEF8004075464E686B
:10A5B0009C43B60300D51C432C600C4D08352C6819
:10A5C0004E689C43F60200D51C432C60074D0C35A9
:10A5D0002C684E689C43B60200D51C432C60521C6C
:10A5E000102AFFF45DAFBDE8F88F0000003C014089
:10A5F00044380240003001400000024000040240A4
:10A6000000080240000C0240001002400AB18161C3
:10A6100070470904FBE700000148806870470000AC
:10A620001C00002002488168027811448160704754
:10A630001C0000200B4810B5016841F40071016056
:10A64000016841F480610160016841F4807101603A
:10A65000032000F08DF8002000F006F800F03EF82E
:10A66000002010BD003C024010B5014688B0002219
:10A67000322000F05DF8322000F04CF8134800243E
:10A68000016841F008010160006805A900F00800B8
:10A690000690684600F016F900F034F90C494000C5
:10A6A000B0FBF1F10C480B4A491E026040F2E73260
:10A6B000C0E90324C0E9011400F07AFB10B10120C5
:10A6C00008B010BD044800F08FFBF9E740380240A5
:10A6D00040420F00000C0040D40100200C4882B022
:10A6E000016841F480410160006800F480400090FE
:10A6F0000748001F016841F0805101600068002296
:10A7000000F0805000900F21901E02B000F010B8B1
:10A7100044380240002809DB00F01F02012191406B
:10A720004009800000F1E020C0F8001170470000EF
:10A73000F0B40E4B1B680C46C3F30223C3F10705AC
:10A74000042D00D90425191D072901D2002300E09A
:10A75000DB1E012606FA05F1491E214099409E4064
:10A76000761E16403143F0BC01F089B90CED00E0D3
:10A77000064900F0070208684FF6FF03184040EA58
:10A780000220034A10430860704700000CED00E00F
:10A790000000FA052DE9F0470E46050065D0DFF808
:10A7A0001481D8F80000F7B200F00F00B04207D2D1
:10A7B00088F80070D8F8000000F00F00B04254D1C3
:10A7C00028683D4C810712D5400703D5206840F426
:10A7D000E05020602878000703D5206840F46040EE
:10A7E00020602068A96820F0F000084320602878E5
:10A7F000C0072DD0304968680839012812D00228D6
:10A8000013D0032811D00968890700292DDA21689F
:10A8100021F0030101432160FFF7FEFE814641F272
:10A82000883A0EE009688903EFE709688901ECE7D7
:10A83000FFF7F2FEA0EB0901514502D90320BDE864
:10A84000F0872068696800F00C00B0EB810FEFD151
:10A85000D8F80010404601F00F01B14207D9077047
:10A86000006800F00F00B04201D00120E7E728782F
:10A87000400705D52068E96820F4E05008432060CF
:10A880002878000706D52068296920F4604040EA4E
:10A89000C100206000F056F82168084AC1F3031196
:10A8A000515CC840064908600020FFF7DDFE00202B
:10A8B000C5E70000003C02400838024028E10008DB
:10A8C000280000200F2202600C4A136803F00303E3
:10A8D0004360136803F0F0038360136803F4E053EC
:10A8E000C36012684FF4E05303EAD20202610448E5
:10A8F000006800F00F000860704700000838024050
:10A90000003C02400448054900680968044AC1F354
:10A910008221515CC840704728000020083802405E
:10A9200038E100080448054900680968044AC1F391
:10A930004231515CC840704728000020083802406E
:10A9400038E10008154810B5006810F00C021448F2
:10A9500013D01449042A0FD0082A0ED10F4C241FFB
:10A960002268236802F03F025B0207D52068C0F32B
:10A970008810A0FB010106E0084610BD2168C1F364
:10A980008811A1FB00010023FDF72CFD2168C1F314
:10A990000141491C4900B0FBF1F010BD08380240EC
:10A9A0000024F40040787D012DE9F84F050076D0B1
:10A9B0002878DFF8F8B2BE4CC00749D0DBF80010A9
:10A9C0005846C1F38101012908D00068C0F3810015
:10A9D00002280AD1201D0068400206D520688003A5
:10A9E00036D568680028E2D032E06868B0F5803F6C
:10A9F00010D0B0F5A02F206810D020F48030206057
:10AA0000206820F4802020606868A0B1FFF704FE71
:10AA100006460CE0206840F48030F4E740F48020E3
:10AA20002060F7E7FFF7F8FD801B642873D82068E3
:10AA30008003F7D50CE0FFF7EFFD064605E000BF09
:10AA4000FFF7EAFD801B6428F0D820688003F7D464
:10AA50002878DFF8608280074FF000093ED5DBF8E8
:10AA60000010584611F00C0F09D00068C0F38100A7
:10AA700002280BD18D48001F0068400206D42068D0
:10AA8000800715D5E868012809D111E0E868B8B158
:10AA90000120C8F80000FFF7BFFD064605E002E10F
:10AAA000FFF7BAFD801B0228C0D820688007F7D5C1
:10AAB0002068296920F0F80040EAC10020600DE01C
:10AAC000C8F80090FFF7A8FD064604E0FFF7A4FDD4
:10AAD000801B02281FD820688007F7D42878000739
:10AAE00022D5724E744869696C3671B101210160DA
:10AAF000FFF792FD074604E0FFF78EFDC01B02281A
:10AB000009D830688007F7D50EE0C0F80090FFF74D
:10AB100083FD074605E083E0FFF77EFDC01B0228AA
:10AB20007ED830688007F7D42878400768D5DFF8EA
:10AB30007CA100270AF1380ADAF80000C0000BD423
:10AB4000DAF8001041F08051CAF80010DAF800007D
:10AB5000012700F080500090584E3068C00510D496
:10AB6000306840F480703060FFF756FD009005E0DB
:10AB7000FFF752FD0099401A022851D83068C005ED
:10AB8000F6D54A4EA868683601280FD005283068E7
:10AB900010D020F001003060306820F004003060F8
:10ABA000A868B8B1FFF738FD00900FE0306840F0BA
:10ABB0000100F4E740F004003060F7E7FFF72CFDF8
:10ABC0000099411A41F28830814264D83068800788
:10ABD000F4D50EE0FFF720FD009007E0FFF71CFD25
:10ABE0000099411A41F28830814254D83068800778
:10ABF000F4D42FB1DAF8001021F08051CAF8001017
:10AC0000A869C0B3DBF80010C1F3810102294AD062
:10AC10000228484607D0C8F86000FFF7FDFC00E0B6
:10AC200039E005463AE04746C8F86000FFF7F4FC13
:10AC3000064604E0FFF7F0FC801B02282BD82068B2
:10AC40008001F7D4D5E907010843A96A1C4A4908DD
:10AC500002EB01416A6A41EA8211084395F82C101F
:10AC600040EA01611148001F016001203866FFF7CA
:10AC7000D3FC054605E014E0FFF7CEFC401B02289C
:10AC800009D820688001F7D50BE000BFFFF7C4FCAE
:10AC9000401B022802D90320BDE8F88F20688001FC
:10ACA000F4D40020F8E70120F6E70000083802405D
:10ACB0000038024000004742800E474200700040CA
:10ACC0000000FFFF70B5040005D00025A56294F8D0
:10ACD000510010B106E0012070BD84F850502046AC
:10ACE00000F030F8022084F851002068016821F05B
:10ACF00040010160D4E901010843D4E90312114382
:10AD0000084361690843218B01F400710843E1693C
:10AD10000843216A0843A16A084321680860A069C2
:10AD2000042101EA1040616A0843216848602068F4
:10AD3000C16921F40061C1616565012084F8510099
:10AD4000002070BD10B586B0044614216846FDF79A
:10AD5000E9FC13492068884220D11248002102688A
:10AD600042F480520260006800F4805005900D4863
:10AD70001438026842F001020260006800F001002D
:10AD80000590E02000900220CDE90101032003900E
:10AD90000520049069460448FFF774FB06B010BD17
:10ADA00000300140443802400000024070477047C4
:10ADB00010B5040003D094F83D0010B107E0012065
:10ADC00010BD002084F83C00204600F00CF8022062
:10ADD00084F83D00211D206800F02AFB012084F842
:10ADE0003D00002010BD70470168CA6842F00102B2
:10ADF000CA600068816801F00701062903D0016874
:10AE000041F00101016000207047704770B50446B1
:10AE1000006801694FF00005C943890715D4C1686E
:10AE2000C943890711D4E91E0161012020772068F8
:10AE300080698007204602D0FFF7E7FF04E000F0BA
:10AE400098F8204600F096F8257720680169C943F4
:10AE5000490717D4C168C943490713D46FF00401E7
:10AE60000161022020772068806910F4407F20462D
:10AE700002D0FFF7CAFF04E000F07BF8204600F0A4
:10AE800079F8257720680169C943090716D4C16894
:10AE9000C943090712D46FF008010161042020772B
:10AEA0002068C0698007204602D0FFF7AEFF04E0AB
:10AEB00000F05FF8204600F05DF825772068016912
:10AEC000C943C90617D4C168C943C90613D46FF072
:10AED00010010161082020772068C06910F4407FCC
:10AEE000204602D0FFF791FF04E000F042F8204630
:10AEF00000F040F8257720680169C943C90708D1E7
:10AF0000C168C943C90704D1891E0161204600F008
:10AF100033F820680169C943090609D4C168C943E7
:10AF2000090605D46FF0800101612046FFF73EFF5E
:10AF300020680169C943490609D4C168C943490663
:10AF400005D46FF040010161204600F01FF8206831
:10AF50000169C94389060BD4C168C943890607D46E
:10AF60006FF0200101612046BDE87040FFF71FBF70
:10AF700070BD70477047000000680349884201D1E6
:10AF8000FFF750BB70470000000C0040704770B5E1
:10AF9000040004D094F83900002510B106E0012027
:10AFA00070BD84F83850204600F022F8242084F840
:10AFB00039002068C16821F40051C160204600F0CA
:10AFC000C3FA2068016921F4904101612068416958
:10AFD00021F02A0141612068C16841F40051C1603B
:10AFE000E563202084F8390084F83A00002070BD21
:10AFF00030B587B0044614216846FDF793FB214D18
:10B0000021682148022201230324A94219D11E49A3
:10B0100010310D6845F400350D60096801F4003108
:10B020000591016841F0010101600068694600F086
:10B03000010005900C208DE81D00072004901348A6
:10B040001BE0134DA9421AD10F4914310D6845F088
:10B0500020050D60096801F020010591016841F0AB
:10B06000040101600068694600F004000590C020FA
:10B070008DE81D00082004900648FFF703FA07B08A
:10B0800030BD000000440040303802400000024063
:10B0900000140140000802402DE9F843044690F8EE
:10B0A0003A00994616460D4620284FD195B18EB1EB
:10B0B00094F83800012849D0012084F8380000278E
:10B0C000E763222084F83A00FFF7A6FAA6858046B7
:10B0D000E68531E00120BDE8F883E08D401EE08583
:10B0E000A0684346B0F5805F4FF000024FF02001AA
:10B0F0002046CDF8009004D000F07CFB98B10320EE
:10B10000E9E700F077FB0028F9D1206900282068E2
:10B11000406803D0C1B225F8011B0DE0C0F308015F
:10B1200025F8021B08E0206900282068406801D04B
:10B1300000F07F0005F8010BE08D0028CDD1202024
:10B1400084F83A0084F838700020C4E70220C2E78F
:10B150002DE9F843044690F839001F4616460D467F
:10B16000202850D1A5B19EB194F8380001284AD0CA
:10B17000012084F838004FF00008C4F83C802120FA
:10B1800084F83900FFF748FAA6848146E68426E071
:10B190000120BDE8F883E08C401EE084A0684B46A7
:10B1A000B0F5805F4FF000024FF08001204600971D
:10B1B00003D000F01FFBE8B90DE000F01BFBC8B99D
:10B1C00028882168C0F308004860206908B16D1C18
:10B1D00005E0AD1C03E0216815F8010B4860E08C28
:10B1E0000028D8D14B46002240212046009700F08D
:10B1F00001FB08B10320CCE7202084F8390084F853
:10B2000038800020C5E70220C3E7FEE72DE9F041C2
:10B2100086B014216846FDF785FA2B4800240168A2
:10B2200041F010010160016801F010010591016811
:10B2300041F001010160016801F00101059101681F
:10B2400041F008010160016801F008010591016801
:10B2500041F00401016000681C4F00F004000590FB
:10B26000002208213846FFF7D1F9DFF864804FF457
:10B270007046002231464046FFF7C8F9082000908A
:10B280000125CDE90154694638460394FFF7FAF8E1
:10B2900010480095CDE9010469460F48FFF7F2F820
:10B2A0000096CDE90154694640460394FFF7EAF859
:10B2B000002205210620FFF73BFA0620FFF72AFAB5
:10B2C00006B0BDE8F08100003038024000100240B6
:10B2D000000C024000001110000002400C480B4915
:10B2E0004FF4007201604FF482714160002181606F
:10B2F000C1600161C0E905121022C0E90721416265
:10B3000081620A21C162FFF7DDBC0000003001400C
:10B31000E8000020FEE7704710B5502080F3118848
:10B32000BFF34F8FBFF36F8F02F08CFC18B104494D
:10B330004FF080500860002080F3118810BD00009D
:10B3400004ED00E030B593B030216846FDF7EAF92E
:10B3500014210CA8FDF7E6F91A480025016841F010
:10B3600080510160006800F080501190164801681B
:10B3700041F4404101600068022400F44040119013
:10B380000120039010200490009406940820CDE939
:10B3900007503220099004200A900B906846FFF76E
:10B3A00003FB0CA90F2081E831004FF4C0500F902F
:10B3B0004FF4A050109000210CA8FFF7EBF913B048
:10B3C00030BD000040380240007000401048016865
:10B3D00041F4700101600F48016841F00101016012
:10B3E0000C4A00210832116002680B4B1A400260BF
:10B3F000031D0A4A1A60026822F48022026005488E
:10B400000C3001600249064880390860704700002E
:10B4100088ED00E000380240FFFFF6FE1030002407
:10B42000008000080148FFF7F1BC0000D4010020B3
:10B43000F0B502681D4B1E4C9F031E4D1E4E9842D8
:10B4400007D0B84205D0A04203D0A84201D0B042F4
:10B4500004D122F0700C4A6842EA0C02984210D0E3
:10B46000B8420ED0A0420CD0A8420AD0B04208D0B8
:10B47000124CA04205D0124CA04202D0114CA04266
:10B4800003D122F44074CA6822434C6922F080023E
:10B49000224302608A68C2620A688262984201D1CD
:10B4A0000969016301214161F0BD00000000014014
:10B4B0000004004000080040000C00400040014033
:10B4C00000440140004801401C4C1D4F88B04FF023
:10B4D000FF354FF480462B4600226946206900F074
:10B4E0007DFC40B1012231463846FFF78FF801203C
:10B4F00000F05CFBEFE76069D8B1294600F026FD5B
:10B5000028B1012231463846FFF780F808E0684646
:10B51000FDF76AF882B22B4669460A48FFF718FE23
:10B52000606900F089FD20B1012231463846FFF7FD
:10B530006DF820216846FDF7F5F8D8E700000020F7
:10B54000000C0240400100202DE9F0410446006853
:10B550000169E26821F44051114301612169A06849
:10B56000E26908436169114322680843D16849F2DE
:10B570000C6399430143D16020684169A26921F4B9
:10B58000407111434161E2696425B2F5004F97486B
:10B59000974922684FF032083FD08A4201D0824258
:10B5A0007CD1FFF7BFF900EBC00101EB001061682F
:10B5B0008900B0FBF1F6FFF7B5F900EBC00101EB34
:10B5C000001061688900B0FBF1F0B0FBF5F06FF09E
:10B5D0001801484306EB800108EB0110B0FBF5F0C1
:10B5E00000F0F006FFF79EF900EBC00101EB001040
:10B5F00061688900B0FBF1F0B0FBF5F006EB0016D6
:10B60000FFF790F900EBC00101EB001061688900C1
:10B61000B0FBF1F7FFF786F9D2E08A4201D082420F
:10B620003DD1FFF77FF900EBC00101EB001061682D
:10B630004900B0FBF1F0B0FBF5F00601FFF772F93D
:10B6400000EBC00101EB001061684900B0FBF1F7AD
:10B65000FFF768F900EBC00101EB001061684900D9
:10B66000B0FBF1F0B0FBF5F06FF01801484307EBC9
:10B67000800108EBC100B0FBF5F000F0F80006EB2C
:10B680004006FFF74FF900EBC00101EB00106168C5
:10B690004900B0FBF1F7FFF745F93CE055E0FFF753
:10B6A00031F900EBC00101EB001061684900B0FB0B
:10B6B000F1F0B0FBF5F00601FFF724F900EBC00153
:10B6C00001EB001061684900B0FBF1F7FFF71AF9D0
:10B6D00000EBC00101EB001061684900B0FBF1F024
:10B6E000B0FBF5F06FF01801484307EB800108EB61
:10B6F000C100B0FBF5F000F0F80006EB4006FFF7E4
:10B7000001F900EBC00101EB001061684900B0FBDA
:10B71000F1F7FFF7F7F800EBC00101EB00106168EB
:10B720004900B0FBF1F0B0FBF5F06FF018014843B1
:10B7300007EB800108EBC100B0FBF5F000F007005B
:10B74000216830448860BDE8F081FFF7DBF800EB4A
:10B75000C00101EB001061688900B0FBF1F6FFF752
:10B76000D1F800EBC00101EB001061688900B0FB6B
:10B77000F1F0B0FBF5F06FF01801484306EB8001E3
:10B7800008EB0110B0FBF5F000F0F006FFF7BAF897
:10B7900000EBC00101EB001061688900B0FBF1F023
:10B7A000B0FBF5F006EB0016FFF7ACF800EBC001BC
:10B7B00001EB001061688900B0FBF1F7FFF7A2F818
:10B7C00000EBC00101EB001061688900B0FBF1F0F3
:10B7D000B0FBF5F06FF01801484307EB800108EB70
:10B7E0000110B0FBF5F000F00F00A9E700140140D4
:10B7F000001001402DE9F041984617460E460446D8
:10B80000069D1DE0681C1BD02DB1FEF705FFA0EBC7
:10B810000800A84214D92068C16821F4D071C16021
:10B820002068416921F001014161202084F839003C
:10B8300084F83A00002084F838000320BDE8F08145
:10B840002068006836EA000004D00020B842D9D051
:10B850000020F3E70120F9E7A4B0674CDFF89C81F2
:10B860004FF0FF354FF480471DAE2B4600220321D9
:10B87000A06900F039FAC11C7BD0011DFCD0C107C2
:10B8800078D06069F8B1294600F060FB28B1012248
:10B8900039464046FEF7BAFE0CE02B460C2258A172
:10B8A0005B48FFF755FC5A492B46402298395848C7
:10B8B000FFF7F2FB606900F0BFFB20B101223946BF
:10B8C0004046FEF7A3FE524914A8983900F034FC14
:10B8D00014A950A0FCF74EFF20B9314651A0FCF747
:10B8E00049FF60B16069002843D0294600F02EFB73
:10B8F000F0B3012239464046FEF788FE4AE044484C
:10B9000020998030052281602199C1601C990161D4
:10B91000012141600146002001F06CFB304601F03E
:10B9200085F8606908B3294600F010FB28B10122B0
:10B9300039464046FEF76AFE0EE03046FCF754FEFC
:10B9400082B22B4631463248FFF702FC2B460122D9
:10B9500029492F48FFF7FCFB606900F06DFB20B11F
:10B96000012239464046FEF751FE0122110317E03D
:10B9700001E03DE018E03046FCF736FE82B22B468F
:10B9800031462348FFF7E4FB2B4601221A492048A1
:10B99000FFF7DEFB606900F04FFB48B30122394638
:10B9A0004046FEF733FE23E0800721D50122D10374
:10B9B0004046FEF72BFE1EA123AA68462291FCF703
:10B9C00089FD6846FCF710FE82B211482B46694695
:10B9D0004030FFF7BDFBBFF34F8F1A4801681A4A8A
:10B9E00001F4E06111430160BFF34F8F00BFFDE739
:10B9F000012000F0DBF838E700000020000C0240D6
:10BA0000636865636B5F7570646174650000000056
:10BA10004001002053544D3332463430375647549A
:10BA2000360000004131423243334434000000000C
:10BA3000426F6F746C6F61646572204A554D500D92
:10BA40000A0000000CED00E00400FA05FEE703B474
:10BA500001984100009850EAC12018BF04204A0D07
:10BA600018BF40F0010040F2FF72B2EB515F08BF17
:10BA700040F00200012808BF052002B07047090706
:10BA8000090E002804DB00F1E02080F80014704764
:10BA900000F00F0000F1E02080F8141D70473038EE
:10BAA0000A2801D20120704700207047A6B0FEF797
:10BAB000C1FDFFF747FCFFF7A9FBFFF70FFC344878
:10BAC00032494FF4E13500240160C0E901540C26ED
:10BAD000C460C0E904468461C461FFF758FA2C4889
:10BAE0002C4940300160C0E90154C460C0E90446FB
:10BAF0008461C461FFF74BFA00F034F9264B0DF175
:10BB0000840C0FCB8CE80F0021A800F055FA234CD1
:10BB100021491822606110311BA8FCF7C9FD1BAA3E
:10BB20002021042000F098F91B49206124222831AB
:10BB30006846FCF7BDFD6A460021194800F0AAFAE4
:10BB40001549606024224C3109A8FCF7B1FD09AA0F
:10BB50000021144800F09EFA0F49A06024227031A1
:10BB600012A8FCF7A5FD12AA00210F4800F092FAD6
:10BB7000E060002000F060F8A06128B1032100F02F
:10BB80002FF800F00BF9FEE7FEE70000004400404C
:10BB9000400100200014014094E000080000002053
:10BBA0005DA10008C9B4000859B8000810B5EFF34A
:10BBB000058149B9EFF3108131B9084909680229B3
:10BBC00005D1EFF3118111B16FF0050403E00024FA
:10BBD00008B101F081F8204610BD00007C00002073
:10BBE00070B50E46050002D0300E002802D06FF06E
:10BBF00003041CE0EFF3058048B9EFF3108030B97F
:10BC00000C48006802280ED1EFF3118058B1284685
:10BC100001F06AFA04463146284601F039FA30B993
:10BC20006FF0020403E0284601F012FA04462046B1
:10BC300070BD00007C00002010B54FF00001EFF354
:10BC40000582BAB9EFF31082A2B90B4A1268022A30
:10BC500002D1EFF311826AB948B1D0E902202AB1CA
:10BC6000202807D3104601F029FA02E010B901F0AC
:10BC700017FA0146084610BD7C00002038B50C4676
:10BC800010B1210E002902D06FF0030038BDEFF390
:10BC9000058149B9EFF3108131B9114909680229C9
:10BCA00019D1EFF31181B1B1002100916A4621460B
:10BCB00001F06EFA10B16FF0020038BD0099204615
:10BCC0000029FAD0074A4FF080511160BFF34F8F1F
:10BCD000BFF36F8F38BD214601F013FA38BD000065
:10BCE0007C00002004ED00E0F8B51D4616460C4629
:10BCF00010B1210E002902D06FF00300F8BDEFF360
:10BD0000058149B9EFF3108131B915490968022954
:10BD100005D1EFF3118111B16FF00500F8BDF10706
:10BD200001D0012300E00023B10701D5002200E08B
:10BD300001222146009501F033FAF3076FF001016B
:10BD40006FF0020206D0844206D1F8BD0846F8BD65
:10BD50001046F8BD0442FCD1002DF9D0F6E70000F2
:10BD60007C000020EFF3058058B9EFF3108040B954
:10BD700009490868022801D030B109E0EFF31180C9
:10BD800030B16FF005007047012008600020704757
:10BD90004FF0FF30704700007C00002010B5EFF33B
:10BDA000058060B9EFF3108048B90B490868022894
:10BDB00002D0012806D00BE0EFF3118040B16FF004
:10BDC000050010BD0220086001F096F8002010BDAB
:10BDD0004FF0FF3010BD00007C000020F8B51D467C
:10BDE0006FF003026FF002064FF00004EFF30583DB
:10BDF0004BB9EFF3108333B9154B1B68022B17D1E6
:10BE0000EFF31183A3B1F0B1E9B1E5B900220092DB
:10BE10006A4601F041FD012817D10098B0B10D49E3
:10BE20004FF080500860BFF34F8FBFF36F8F0DE06E
:10BE300048B141B12A4601F093FC012806D025B152
:10BE40006FF0010402E0144600E034462046F8BDDD
:10BE50007C00002004ED00E0F8B514464FF000052A
:10BE6000EFF305826ABBEFF3108252BB164A1268E9
:10BE7000022A02D1EFF311821ABB10B309B3ACB19D
:10BE8000D4E902326BB1502A1BD32269CAB1676967
:10BE900000FB01F6B74214D30025009501F0BAFA71
:10BEA00007E072B9226962B9626952B9002201F0F1
:10BEB0008DFA050005D00CB1216800E0002100F0EA
:10BEC000D5FE2846F8BD00007C000020F8B51D46D0
:10BED0006FF003026FF002064FF00004EFF30583EA
:10BEE0004BB9EFF3108333B9164B1B68022B18D1F3
:10BEF000EFF31183ABB100B3F9B1F5B900221346EA
:10BF000000926A4601F0AEFB012818D10098B8B142
:10BF10000D494FF080500860BFF34F8FBFF36F8F14
:10BF20000EE050B149B100232A4601F0EBFA012896
:10BF300006D025B16FF0010402E0144600E034465B
:10BF40002046F8BD7C00002004ED00E02DE9F04122
:10BF50000D46014621F0010001F001014FF00004FF
:10BF6000EFF305824AB9EFF3108232B9114A126831
:10BF7000022A05D1EFF3118212B16FF0050416E029
:10BF800048B100296FF001066FF00207294608D07A
:10BF900001F08CFD07E06FF0030408E035B1344692
:10BFA00005E001F0C7FC0128F8D100E03C4620463E
:10BFB000BDE8F0817C00002070B505464FF000041C
:10BFC000EFF30580A0BBEFF3108088BB1948006831
:10BFD000022802D1EFF3118050BB0DB1686800E078
:10BFE0000020C10701D0012600E0002600071FD471
:10BFF0006DB1D5E9021021B1502819D31EB104202A
:10C0000002E020B114E0012001F0D3F905E00EB107
:10C01000042000E0012001F0C1F9040008D00DB1B6
:10C02000296800E0002100F021FE0EB144F0010477
:10C03000204670BD7C00002070B5014621F0010053
:10C0400001F001014FF00004EFF305824AB9EFF36C
:10C05000108232B90E4A1268022A05D1EFF311821A
:10C0600012B16FF0050411E028B16FF0020529B19B
:10C0700001F056FB07E06FF0030407E000231A46C7
:10C08000194601F03FFA012800D02C46204670BD29
:10C090007C000020F0B585B04FEA01034FF00004AA
:10C0A000EFF305810394A1BBEFF3108189BB214914
:10C0B0000968022902D1EFF3118151BB48B38026F0
:10C0C00018218DF8104004AD42B3176807B13D4602
:10C0D00097691FB139467F1E382F02D21779FF07A3
:10C0E00002D0002005B0F0BD576907B1BE08D2F8F4
:10C0F00008C0BCF1000F0DD0D4685C2C18D31269B5
:10C100003AB137B18DE806103246294601F055FDA7
:10C1100003900DE0D7685FB912694AB903AACDE967
:10C120000012B2B2294601F01BFD012800D0039491
:10C130000398D7E77C00002010B50A46044617A1F3
:10C140001046FCF727FA01462046FCF729FA13A10E
:10C150000020FCF71FFA0A220021FCF7E3F9206215
:10C160000EA10020FCF716FA014604F12400FCF7AA
:10C1700017FA0AA10020FCF70DFA0A220021FCF7A9
:10C18000D1F9206305A10020FCF704FA1022002158
:10C19000FCF7C8F96063204610BD000024000000D1
:10C1A0002DE9F041134C0F46054666692068001DD5
:10C1B00000F052FC681C07D137B12168BDE8F0419E
:10C1C0000D48091D00F0A8BC20683544B542456003
:10C1D000216805D2A068BDE8F041091D00F084BCCB
:10C1E0006068091D00F080FC206B854200D2256349
:10C1F000BDE8F0812C000020240700202DE9F0414B
:10C20000054600F095FC2D4C2069401C20612068FB
:10C210002B4F10B1E06930B32BE025602069012875
:10C2200027D1002606EB860007EB800000F04EFCCD
:10C23000761C382EF6D3234800F048FC21481430F1
:10C2400000F044FC1F48283000F040FC1D483C3002
:10C2500000F03CFC1B48503000F038FC194860608E
:10C260001430A06005E02068E96AC06A884200D8FE
:10C270002560E06A401CE0626864E86AA16988425F
:10C2800000D9A06100EB800007EB8000291D00F0C1
:10C2900043FC00F06DFCE06900280CD02068E96ADE
:10C2A000C06A884207D208494FF080500860BFF347
:10C2B0004F8FBFF36F8FBDE8F08100002C0000208E
:10C2C00074020020D406002004ED00E038B500F030
:10C2D0002FFC104CA068C8B90F4800F0F7FB0E48BF
:10C2E000143000F0F3FB0C482060143060600A4BFF
:10C2F00000202833009003F1500210210A2001F0A1
:10C3000089F8A06010B105A100F0B0FCBDE838408C
:10C3100000F02EBC6800002038070020546D7251D8
:10C320000000000030B4026C0B46002A0BD0C1683C
:10C330001144C1604468A14201D30168C16030BCAE
:10C340001846FCF770B930BC70472DE9F041856B99
:10C35000174604460026026C82B1C7B1E068FCF7BC
:10C3600062F9E168206C091AE1602268914202D208
:10C370006168081AE060022F16D017E02068A8B99B
:10C38000606801F0C3FC0646002060600EE0A06813
:10C39000FCF749F9216CA0680844A06061688842F4
:10C3A00004D32068A06001E005B16D1E6D1CA5637B
:10C3B0003046BDE8F08110B5044690F8590058B1F8
:10C3C00001280CD002280FD0502080F31188BFF331
:10C3D0004F8FBFF36F8FFEE7206B00F0DDFB204631
:10C3E000BDE8104000F0D8BB10BD000010484FF46D
:10C3F0007051420706D0C01D0D4920F00700411AB8
:10C40000C1F570510B4A00230144C2E90003083909
:10C41000103A21F0070111604B600B600B1AC0E964
:10C42000001393604FF000405360D06070470000ED
:10C43000080F002090000020144E154CA6F29C47D7
:10C440004FF08058DFF84C9012E000BF00F070FB16
:10C45000F068C568281D00F0FFFA2069401E2061C1
:10C46000E068401EE06000F083FB2846FFF7A3FF72
:10C47000E0680028EAD138680128F9D9C9F80080B5
:10C48000BFF34F8FBFF36F8FF2E70000100700205C
:10C490002C00002004ED00E0002807D000214160BE
:10C4A00001600B460A46C16001F02CB870470000DD
:10C4B00070B51D46049C51B1C4F80020C4E90F01B9
:10C4C0000121204600F0DAFF84F84C5070BD246052
:10C4D000F4E72DE9F0470E46DDE909841746824668
:10C4E00091009946089DA522206BFCF713F96FF087
:10C4F0000301206B01EB8701084420F00707780750
:10C5000007D0502080F31188BFF34F8FBFF36F8F98
:10C51000FEE72218315C82F83410315C11B1401C06
:10C520001028F6D3002684F84360382D00D3372531
:10C53000E562C4E91356201D00F0D3FA04F1180097
:10C5400000F0CFFA2461C5F138006462A06166652D
:10C5500084F858604A465146384600F051FA206047
:10C56000B8F1000F01D0C8F80040BDE8F087000026
:10C5700030B5114900E011460A688242FBD34B688E
:10C580005C18844203D140681844486008464368F8
:10C590001C18944209D1084C103C2468A24209D0CE
:10C5A00052681A4442600A6812680260814200D0F0
:10C5B000086030BD0460F9E79000002070B50024E9
:10C5C00041600B4D0061914206D8D11A82699142B7
:10C5D00006D2011D686807E09A4203D2994201D34E
:10C5E000012403E0011D286800F07EFA204670BD9A
:10C5F0006800002010B5044600F09AFAA06B28B13C
:10C600005FF0000400F0B4FA204610BD0124F9E701
:10C6100030B589B0304D55E00498002806DADDE9E0
:10C620000601059A9047049800284BDB069C606938
:10C6300010B1201D00F010FA02A800F0B9F802466F
:10C6400004980A283ED2DFE800F00505053D2637AC
:10C6500005053D260598A169034601442046FFF7DC
:10C66000ADFF00B3616A20468847E069012829D1FF
:10C67000002000900598A169002342181946204621
:10C6800001F08AFC78B9502080F31188BFF34F8FF6
:10C69000BFF36F8FFEE70598A06128B1811813469C
:10C6A0002046FFF78BFF0DE0502080F31188BFF389
:10C6B0004F8FBFF36F8FFEE794F82C0010B9204620
:10C6C00000F06AFA002204A9A86801F049F80028DD
:10C6D000A2D109B030BD0000680000202DE9FC4166
:10C6E0000F46054600F04CFC01A800F061F8044636
:10C6F000019818B101F0BEFBBDE8FC81224EAFB13C
:10C7000070680068A8B30027291B3A46B06800F09B
:10C71000C1FA01F0AFFB0028EED11C494FF0805068
:10C720000860BFF34F8FBFF36F8FE5E7A542EBD8EB
:10C7300001F0A0FB30682746C068C468201D00F0E7
:10C740008BF9E069012810D1A0692B4641193A46BE
:10C750002046FFF733FF40B100200346014600901A
:10C760002A46204601F018FC20B1616A204688471D
:10C77000C2E707E0502080F31188BFF34F8FBFF36B
:10C780006F8FFEE70127BFE76800002004ED00E09F
:10C7900006484168096829B14168C968C96849689B
:10C7A000016370474FF0FF31FAE700002C000020D2
:10C7B00070B5054601F040FA064E044630698442E1
:10C7C00003D200F009F8012000E000202860204694
:10C7D000346170BD68000020F8B5194D1FE0C068D5
:10C7E000C4680668201D00F037F9616A2046884752
:10C7F000E069012813D1A0693044B04206D9246110
:10C800006060211D286800F06FF908E000200346F1
:10C81000014600903246204601F0BEFB38B1286840
:10C8200001680029DBD16968C5E90010F8BD502016
:10C8300080F31188BFF34F8FBFF36F8FFEE70000C7
:10C840006800002008484068401C4FF0500080F30A
:10C85000118804D0BFF34F8FBFF36F8FFEE7BFF394
:10C860004F8FBFF36F8FFEE7980000200346002034
:10C8700012B1994302D070470B42FCD0012070479F
:10C88000074C2068016841B1C0680021D0F8000061
:10C89000FFF724FFFFF7BCFEF3E701210020F7E7D5
:10C8A000680000202DE9F041044600F041F994F9B8
:10C8B000455004F1240609E0606A48B1304601F0B1
:10C8C000A1FA08B100F036FA6D1E6DB2002DF3DC4E
:10C8D0004FF0FF3684F8456000F04AF900F028F97F
:10C8E00094F9445004F1100709E0206948B1384632
:10C8F00001F088FA08B100F01DFA6D1E6DB2002D2E
:10C90000F3DC84F84460BDE8F04100F031B9000088
:10C910002DE9F0410546002700F032FB314E30682A
:10C9200008B9FFF763FDF06805424BD1C5B3083580
:10C9300068070ED005F00700C0F10800054468073D
:10C9400007D0502080F31188BFF34F8FBFF36F8F54
:10C95000FEE72DB37068854234D822481030014676
:10C960000C6801E020460C466168A94202D22168A9
:10C970000029F7D131688C4224D007682168016012
:10C9800060680837411B10290FD96019420708D089
:10C99000502080F31188BFF34F8FBFF36F8FFEE7F6
:10C9A00010E041606560FFF7E3FD61687068401A60
:10C9B0007060B268904200D2B060F068014300201D
:10C9C000C4E9000101F056FA780707D0502080F33F
:10C9D0001188BFF34F8FBFF36F8FFEE73846BDE876
:10C9E000F0810000800000200449086818B1086840
:10C9F000026D521C02650868704700002C00002080
:10CA000010B5031F4FF080741C601B1F21F0010143
:10CA10001960191F044B0B6014390A60091F6FF06D
:10CA2000020244380A6010BD45C8000870B5050010
:10CA300010D0287870B12C462046FBF7D5FD41195F
:10CA4000491E05E020780A7804F8012B01F8010955
:10CA50008C42F7D3284670BDD0E9013201699A6053
:10CA6000D0E901235A604A68824201D182684A6053
:10CA7000002202610868401E0860086870470000D4
:10CA8000044908680A688069D26A0968C2F13802F4
:10CA90008A6170472C000020034B036003F15C00A7
:10CAA000086080201060704750080020044B03602D
:10CAB00003F15C0008604FF4807010607047000064
:10CAC000AC0A002000F0C4BA00F01BBB00F1080162
:10CAD0004FF0FF32C0E90112C16001610021016025
:10CAE000704700210161704730B50B685A1C02D0B5
:10CAF00000F1080202E0026904E022465468256859
:10CB00009D42FAD953684B6099608A605160086110
:10CB10000168491C016030BD42684A6093688B60BF
:10CB200093685960916008610168491C0160704711
:10CB3000502080F31188BFF34F8FBFF36F8F0A49E6
:10CB40004868401C486001280CD10848006810F073
:10CB5000FF0F07D0502080F31188BFF34F8FBFF332
:10CB60006F8FFEE7704700009800002004ED00E0A2
:10CB70000849486828B1401E486001D180F31188F7
:10CB80007047502080F31188BFF34F8FBFF36F8F32
:10CB9000FEE700009800002070B5002827D0144D53
:10CBA000A0F108046168E868014207D1502080F3D1
:10CBB0001188BFF34F8FBFF36F8FFEE722683AB142
:10CBC000502080F31188BFF34F8FBFF36F8FFEE7C4
:10CBD0008143616000F0D4F9606869680844686066
:10CBE0002046FFF7C5FCBDE8704001F043B970BDB9
:10CBF000800000204FF0E0200021016181610549A3
:10CC00004FF47A720968B1FBF2F1491E41610721C4
:10CC1000016170472800002010B5FBF7BFFB1149E8
:10CC200010280ED300F1E02090F8F0030A7890422B
:10CC300007D2502080F31188BFF34F8FBFF36F8F5F
:10CC4000FEE709480068896800F4E060884207D977
:10CC5000502080F31188BFF34F8FBFF36F8FFEE733
:10CC600010BD0000980000200CED00E010B5084B4E
:10CC7000002200BF53F832401CB1521C082AF9D3DD
:10CC800010BD43F8321003EBC201486010BD000034
:10CC90003402002070B515460E460446FFF748FFE3
:10CCA00094F944100020491C01D184F8440094F9FF
:10CCB0004510491C01D184F84500FFF759FFA06BCE
:10CCC00028B92A46314604F1240000F051F82046E4
:10CCD000BDE87040FFF7E6BD10B5020014D00F4864
:10CCE000806B38B1502080F31188BFF34F8FBFF3B2
:10CCF0006F8FFEE700F044F900211046FFF750FA6D
:10CD000001F0B8F8002807D105494FF080500860BD
:10CD1000BFF34F8FBFF36F8F10BD00002C000020BA
:10CD200004ED00E002498A6A026049694160704787
:10CD30002C00002001490120486270472C0000208F
:10CD400010B50C4650B1094909681831FFF7CCFEFF
:10CD50002046BDE810400121FFF722BA502080F3A1
:10CD60001188BFF34F8FBFF36F8FFEE72C000020B9
:10CD700070B514460D4668B10A4909681831FFF7C5
:10CD8000CBFE0CB14FF0FF3521462846BDE8704080
:10CD9000FFF706BA502080F31188BFF34F8FBFF31F
:10CDA0006F8FFEE72C00002010B51446030011D051
:10CDB0001048826BB2B1026841F000419161016894
:10CDC00018461831FFF7A8FE2046BDE810400121A3
:10CDD000FFF7E6B9502080F31188BFF34F8FBFF300
:10CDE0006F8FFEE7502080F31188BFF34F8FBFF3A2
:10CDF0006F8FFEE72C00002070B504003ED0226D3E
:10CE0000A2B1E06C884200D30146E06A884235D086
:10CE1000012A33D11A4D2A6894420FD1502080F351
:10CE20001188BFF34F8FBFF36F8FFEE7502080F361
:10CE30001188BFF34F8FBFF36F8FFEE7E162A269E6
:10CE4000002A02DBC1F13801A1610E4E00EB800027
:10CE5000616906EB8000814210D1201DFFF7FCFDC7
:10CE6000E06AA969884200D9A86100EB800006EB5E
:10CE70008000211DBDE87040FFF74EBE70BD000070
:10CE80002C0000207402002070B5194DAA6BF2B17D
:10CE900041F000410160C4680CB3FFF7DDFD201DC7
:10CEA000FFF7DAFDE06AA969884200D9A861114953
:10CEB00000EB800001EB8000211DFFF72DFEE06AF2
:10CEC0002968C96A884201D90120686270BD502072
:10CED00080F31188BFF34F8FBFF36F8FFEE75020B1
:10CEE00080F31188BFF34F8FBFF36F8FFEE7000011
:10CEF0002C0000207402002030B587B00024039479
:10CF000005AA04A903A80494FFF7C6FDDDE90301FF
:10CF10000094CDE90110002315A11748059A00F0EF
:10CF20004CFE164D002868631FD001F005F801285B
:10CF300009D0401C19D1502080F31188BFF34F8FC6
:10CF4000BFF36F8FFEE7502080F31188BFF34F8F40
:10CF5000BFF36F8F4FF0FF3028630120E8616C61F1
:10CF600007B0BDE8304000F09FB907B030BD000009
:10CF700049444C450000000039C400082C00002042
:10CF80000248816B491C8163704700002C0000201F
:10CF9000164810B5816B11B10121416210BD00210D
:10CFA00041628169124A01E0B9B1491E01EB810376
:10CFB00052F82330002BF7D001EB810302EB830200
:10CFC00002F1080453685B685360A34201D15B68B7
:10CFD0005360DA680260816110BD502080F31188CF
:10CFE000BFF34F8FBFF36F8FFEE700002C000020D0
:10CFF000740200202DE9F04188461449174645186F
:10D00000EFF3108672B6EFF3108472B6FDF7FEF9F7
:10D0100002210720FDF7DCF8FDF7B0F904B962B68C
:10D02000FDF7F4F9002408E058F8242000232946ED
:10D030000220FDF7ADF9641C2D1DBC42F4D3FDF7B1
:10D040009DF9002E00D162B6BDE8F081000006080F
:10D0500070B50E46040009D0300E0FD0502080F37A
:10D060001188BFF34F8FBFF36F8FFEE7502080F31F
:10D070001188BFF34F8FBFF36F8FFEE7FFF758FDA7
:10D08000256825EA06002060FFF772FD284670BD7E
:10D090000A4601460023014800F0B2BFC5CA000895
:10D0A00070B52020FFF734FC040005D00025201DBA
:10D0B0002560FFF70BFD2577204670BD38B558B1C8
:10D0C00020210446002000912060201DFFF7FEFC77
:10D0D00001202077204638BD502080F31188BFF30F
:10D0E0004F8FBFF36F8FFEE75022EFF3118182F372
:10D0F0001188BFF34F8FBFF36F8F006881F31188E2
:10D1000070472DE9F0410027884604000AD05FEA05
:10D1100018600FD0502080F31188BFF34F8FBFF3FA
:10D120006F8FFEE7502080F31188BFF34F8FBFF35E
:10D130006F8FFEE7261D04F10C05FFF721FF216824
:10D14000F06841EA0801216017E0D0E9001601F01B
:10D150007F425301236821F07F4102D40B4203D167
:10D160000AE031EA030307D1D20100D50F43216859
:10D1700041F00071FFF788FE3046A842E5D12068F3
:10D18000B843206000F076FE2068BDE8F081000022
:10D1900013460A460146014800F032BFC9CA0008DA
:10D1A0002DE9F0479A46DDF8209090460D460400A0
:10D1B0004FF0000709D0280E0FD0502080F31188BF
:10D1C000BFF34F8FBFF36F8FFEE7502080F31188BE
:10D1D000BFF34F8FBFF36F8FFEE71DB100F01EFD51
:10D1E00040B112E0502080F31188BFF34F8FBFF39E
:10D1F0006F8FFEE7B9F1000F07D0502080F3118840
:10D20000BFF34F8FBFF36F8FFEE7FFF7B9FE2668BE
:10D21000524629463046FFF729FB30B1B8F1000FDE
:10D220001AD02068A843206016E0B9F1000F13D08F
:10D23000B8F1000F01D04FF08077BAF1000F01D0A4
:10D2400047F0806745EA07014A46201DFFF7ACFD1D
:10D2500000F010FE18B10AE000F00CFE1FE01149CA
:10D260004FF080500860BFF34F8FBFF36F8FFFF711
:10D2700007FC0646800110D4FFF75AFC2668524688
:10D2800029463046FFF7F2FA28B1B8F1000F02D074
:10D290002068A8432060FFF76BFC26F07F463046ED
:10D2A000BDE8F08704ED00E01CB537480168374A57
:10D2B000914207D1502080F31188BFF34F8FBFF305
:10D2C0006F8FFEE700683149491E884207D1502020
:10D2D00080F31188BFF34F8FBFF36F8FFEE72C49A8
:10D2E00008780190FF20087008788DF800009DF8FC
:10D2F00000009DF8002000F0F000904207D0502080
:10D3000080F31188BFF34F8FBFF36F8FFEE79DF857
:10D310000000204B00F0500018700720986005E0D6
:10D320009DF8002052008DF80020401E9DF800203E
:10D330001206F5D49860032807D0502080F3118896
:10D34000BFF34F8FBFF36F8FFEE74FF440709860CD
:10D35000019808700C482030016841F470010160A8
:10D36000016841F070410160FFF744FC0020586003
:10D37000FAF7DCFF0848016841F040410160FAF724
:10D38000C1FF00201CBD000000ED00E071C20F4194
:10D3900000E400E09800002034EF00E010B5024601
:10D3A0000021012000F012F80446FFF775F820462E
:10D3B00010BD38B50B46002200901146012000F048
:10D3C00029F80446FFF768F8204638BDF8B5174637
:10D3D0000E46050014D0DEB105FB06F05030FFF715
:10D3E00097FA04000AD0002084F8460004F15002A5
:10D3F0003B46314628460094FFF75AF82046F8BDD0
:10D40000502080F31188BFF34F8FBFF36F8FFEE77B
:10D410000020E3E738B5049D18B153B1CAB181B11A
:10D4200020E0502080F31188BFF34F8FBFF36F8F40
:10D43000FEE7502080F31188BFF34F8FBFF36F8F4B
:10D44000FEE7502080F31188BFF34F8FBFF36F8F3B
:10D45000FEE739B1502080F31188BFF34F8FBFF33F
:10D460006F8FFEE750241C46012384F846302B467C
:10D470000094FFF71DF8204638BD000070B50D463A
:10D48000040025D0FFF754FBD4E90F20216802FBEC
:10D49000001161600021A1632168A1600A46D4E9FE
:10D4A0000F01401E00FB0121E16021464FF0FF30DB
:10D4B00001F8440F487004F110008DB1FFF706FB2E
:10D4C00004F12400FFF702FBFFF752FB012070BDBF
:10D4D000502080F31188BFF34F8FBFF36F8FFEE7AB
:10D4E00021690029F0D000F08DFC0028ECD004491F
:10D4F0004FF080500860BFF34F8FBFF36F8FE3E7AB
:10D5000004ED00E02DE9FF4782B01D468A464FF04A
:10D510000008040003D0BAF1000F08D011E0502039
:10D5200080F31188BFF34F8FBFF36F8FFEE7206C3E
:10D5300038B1502080F31188BFF34F8FBFF36F8F46
:10D54000FEE7022D0AD1E06B012807D0502080F3BE
:10D550001188BFF34F8FBFF36F8FFEE700F05EFBC4
:10D560003F4F4FF000094FF0805648B9049838B14A
:10D57000502080F31188BFF34F8FBFF36F8FFEE70A
:10D58000FFF7D6FAA06BE16B884207D3022D05D0D6
:10D590000498D0B1B8F1000F1AD01EE02A465146C7
:10D5A0002046FEF7D2FE616A19B104F1240000F0B2
:10D5B00029FC20B13E60BFF34F8FBFF36F8FFFF7A1
:10D5C000D7FA012006B0BDE8F087FFF7D1FA22E0D4
:10D5D0006846FFF7A7FB4FF00108FFF7C9FAFFF70E
:10D5E000CFFCFFF7A5FA94F94400401C01D184F860
:10D5F000449094F94500401C01D184F84590FFF710
:10D60000B7FA04A9684600F071FA30B12046FFF776
:10D6100049F900F02FFC0020D4E7FFF789FAA06B4E
:10D62000E16B884213D1FFF7A3FA04F110000499CB
:10D63000FFF786FB2046FFF735F900F01BFC0028BA
:10D640009ED13E60BFF34F8FBFF36F8F98E7FFF718
:10D650008FFA2046FFF726F900F00CFC90E7000057
:10D6600004ED00E02DE9F0471F469046894604008E
:10D6700003D0B9F1000F08D011E0502080F31188D9
:10D68000BFF34F8FBFF36F8FFEE7206C38B1502090
:10D6900080F31188BFF34F8FBFF36F8FFEE7022F28
:10D6A0000AD1E06B012807D0502080F31188BFF326
:10D6B0004F8FBFF36F8FFEE7FFF7AEFA5020EFF307
:10D6C000118680F31188BFF34F8FBFF36F8FA06B6C
:10D6D000E16B884206D3022F04D0002086F3118824
:10D6E000BDE8F08794F945503A4649462046FEF792
:10D6F0002CFE681C04D06D1C84F845500120EDE719
:10D70000606A0028FAD004F1240000F07BFB0028B6
:10D71000F4D0B8F1000FF1D00121C8F80010EDE706
:10D7200010B5040009D000F073FA6168884214D182
:10D73000E068401EE06008D00DE0502080F31188C2
:10D74000BFF34F8FBFF36F8FFEE700231A461946D2
:10D750002046FFF7D7FE012010BD002010BD0000BD
:10D760002DE9F747002683B08A46040003D0BAF1BA
:10D77000000F08D011E0502080F31188BFF34F8FC5
:10D78000BFF36F8FFEE7206C38B1502080F3118813
:10D79000BFF34F8FBFF36F8FFEE700F03FFADFF864
:10D7A000F4804FF000094FF0805748B9059838B120
:10D7B000502080F31188BFF34F8FBFF36F8FFEE7C8
:10D7C000FFF7B6F9A56BC5B151462046FEF7AAFD95
:10D7D0006D1EA563206950B104F1100000F012FB2A
:10D7E00028B1C8F80070BFF34F8FBFF36F8FFFF7FA
:10D7F000BFF9012006B0BDE8F087059808B11EB159
:10D8000006E0FFF7B5F927E06846FFF78BFA012637
:10D81000FFF7AEF9FFF7B4FBFFF78AF994F944007C
:10D82000401C01D184F8449094F94500401C01D17A
:10D8300084F84590FFF79CF905A9684600F056F971
:10D84000002820460AD0FFF72DF800F013FB2046F1
:10D85000FEF7D0FE0028B3D00020CBE7FEF7CAFECB
:10D8600090B104F124000599FFF76AFA2046FFF70A
:10D8700019F800F0FFFA0028A2D1C8F80070BFF331
:10D880004F8FBFF36F8F9BE72046FFF70BF800F039
:10D89000F1FA95E704ED00E02DE9F047904689465E
:10D8A000040003D0B9F1000F08D011E0502080F33C
:10D8B0001188BFF34F8FBFF36F8FFEE7206C38B135
:10D8C000502080F31188BFF34F8FBFF36F8FFEE7B7
:10D8D000FFF7A2F95020EFF3118680F31188BFF310
:10D8E0004F8FBFF36F8FA76BF7B194F94450494640
:10D8F0002046FEF717FD7F1EA763681C04D06D1C31
:10D9000084F84450012010E020690028FAD004F186
:10D91000100000F077FA0028F4D0B8F1000FF1D031
:10D920000121C8F80010EDE7002086F31188BDE85A
:10D93000F08700002DE9F343002683B0040035464C
:10D9400009D0206C78B1502080F31188BFF34F8F3D
:10D95000BFF36F8FFEE7502080F31188BFF34F8F26
:10D96000BFF36F8FFEE700F059F9DFF83C814FF00D
:10D9700000094FF0805748B9049838B1502080F31F
:10D980001188BFF34F8FBFF36F8FFEE7FFF7D0F81B
:10D99000A06BC8B1401EA063206810B9FFF724F83F
:10D9A0006060206950B104F1100000F02BFA28B13A
:10D9B000C8F80070BFF34F8FBFF36F8FFFF7D8F831
:10D9C000012005B0BDE8F083049808B166B10FE00E
:10D9D0003DB1502080F31188BFF34F8FBFF36F8F9D
:10D9E000FEE7FFF7C5F85DE06846FFF79BF9012603
:10D9F000FFF7BEF8FFF7C4FAFFF79AF894F944006E
:10DA0000401C01D184F8449094F94500401C01D198
:10DA100084F84590FFF7ACF804A9684600F066F872
:10DA20000028204612D0FEF73DFF00F023FA2046E2
:10DA3000FEF7E0FD0028A9D09DB3FFF779F8606AF2
:10DA400050B3206B0068C0F1380126E0FEF7D2FD2C
:10DA5000E0B1206838B9FFF76BF8606800F096F91C
:10DA60000546FFF785F804F124000499FFF768F9EB
:10DA70002046FEF717FF00F0FDF9002886D1C8F810
:10DA80000070BFF34F8FBFF36F8F7FE72046FEF725
:10DA900009FF00F0EFF979E700216068FFF7ACF9C2
:10DAA0009FE7FFE700208CE704ED00E070B50D462E
:10DAB000040009D000F0ACF8616888420CD1E0683D
:10DAC000401CE060012070BD502080F31188BFF33E
:10DAD0004F8FBFF36F8FFEE729462046FFF72AFFDF
