:020000040800F2
:10000000A84D00205D020008DB0C00085D0C000814
:10001000D90C00088D0300080D1100080000000035
:100020000000000000000000000000009D0100082A
:100030008F03000800000000F9010008850D00088A
:1000400077020008770200087702000877020008AC
:10005000770200087702000877020008770200089C
:10006000770200087702000877020008770200088C
:10007000770200087702000877020008770200087C
:10008000770200087702000877020008770200086C
:10009000770200087702000877020008770200085C
:1000A000770200087702000877020008770200084C
:1000B000770200087702000877020008770200083C
:1000C000770200087702000877020008770200082C
:1000D000770200087702000877020008770200081C
:1000E000770200087702000877020008770200080C
:1000F00077020008770200087702000877020008FC
:1001000077020008770200087702000877020008EB
:1001100077020008770200087702000877020008DB
:1001200077020008770200087702000877020008CB
:1001300077020008770200087702000877020008BB
:1001400077020008770200087702000877020008AB
:10015000770200087702000877020008770200089B
:10016000770200087702000877020008770200088B
:1001700077020008770200087702000800000000FC
:100180007702000877020008DFF80CD000F0ECF8E6
:10019000004800474D110008A84D00202C4B19685D
:1001A0000868B0E8F04F80F30988BFF36F8F4FF015
:1001B000000080F3118870470000000008480068C4
:1001C000006880F308884FF0000080F3148862B65E
:1001D00061B6BFF34F8FBFF36F8F00DF00BF00BF6B
:1001E00008ED00E0DFF80C00016841F470010160E7
:1001F000704700BF88ED00E0EFF30980BFF36F8F19
:10020000134B1A681EF0100F08BF20ED108A20E96A
:10021000F04F106009B44FF0500080F31188BFF325
:100220004F8FBFF36F8F01F091FF4FF0000080F30D
:10023000118809BC19680868B0E8F04F1EF0100F6B
:1002400008BFB0EC108A80F30988BFF36F8F704746
:100250001C000020EFF3058070470000064880472F
:1002600006480047FEE7FEE7FEE7FEE7FEE7FEE79B
:10027000FEE7FEE7FEE7FEE70D0E00088901000835
:100280002DE9F05F0546002092469B4688460646CB
:10029000814640241BE0284641464746224600F05E
:1002A00053F853465A46C01A914110D31146184686
:1002B000224600F03AF82D1A67EB01084F46224615
:1002C0000120002100F031F817EB00094E41201EFB
:1002D000A4F10104DFDC484631462A464346BDE826
:1002E000F09F40EA01039B0703D009E008C9121FF1
:1002F00008C0042AFAD203E011F8013B00F8013BE0
:10030000521EF9D27047D2B201E000F8012B491E0B
:10031000FBD270470022F6E710B513460A460446A2
:100320001946FFF7F0FF204610BD202A04DB203AD3
:1003300000FA02F1002070479140C2F1200320FA38
:1003400003F3194390407047202A04DB203A21FA36
:1003500002F00021704721FA02F3D040C2F12002DE
:100360009140084319467047064C074D06E0E06887
:1003700040F0010394E8070098471034AC42F6D3EC
:10038000FFF706FF2C2F00084C2F0008FEE77047F0
:100390002DE9F84FDFF87CB100224FF001084FF053
:1003A000030A4FF00F090BF1040E00BF0B6808FAA7
:1003B00002F42340A3426ED14D68022D01D0122DCC
:1003C0000ED1D50800EB850CDCF820505607F70E4F
:1003D00009FA07F6B5430E69BE402E43CCF82060FB
:1003E000066855000F790AFA05FC07F0030726EAAC
:1003F0000C06AF40374307604E68012E05D0022E31
:1004000003D0112E01D0122E0ED18668CF6826EAB5
:100410000C06AF40374387604668A6430C79C4F3A7
:100420000014944034434460C6688C6826EA0C0685
:10043000AC403443C4604C68E40065D5364C256854
:1004400045F480452560246822F0030504F48044C7
:100450000094324C2E19D6F8084895072F0F09FA48
:1004600007F5AC432E4DA84201D1002524E02D4DC7
:10047000A84201D101251FE02B4DA84201D1022540
:100480001AE02A4DA84201D1032515E0284DA842C3
:1004900002D1042510E037E0264DA84201D1052500
:1004A0000AE0254DA84201D1062505E0234DA842CA
:1004B00001D1072500E00825BD402543C6F80858AE
:1004C000DBF800405D464E689C43F60300D51C43B4
:1004D0002C60DEF8004075464E689C43B60300D59C
:1004E0001C432C600B4D08352C684E689C43F6026B
:1004F00000D51C432C60074D0C352C684E689C437E
:10050000B60200D51C432C60521C102AFFF44EAFDB
:10051000BDE8F88F003C0140443802400030014003
:10052000000002400004024000080240000C0240AB
:10053000001002400014024000180240001C02405B
:100540000AB1816170470904FBE700000148806837
:10055000704700000C0000200248816802781144B6
:10056000816070470C0000200B4810B5016841F411
:1005700000710160016841F480610160016841F42B
:1005800080710160032000F065F80F2000F006F88C
:1005900000F024F8002010BD003C024070B50D4D65
:1005A00004464FF47A712878B1FBF0F00A490968E3
:1005B000B1FBF0F000F0D8FA48B9102C07D20022B5
:1005C0002146501E00F026F800206C6070BD01200E
:1005D00070BD00000C000020180000200C4882B004
:1005E000016841F480410160006800F4804000909F
:1005F0000748001F016841F0805101600068002237
:1006000000F0805000900F21901E02B000F002B860
:1006100044380240F0B40E4B1B680C46C3F302236F
:10062000C3F10705042D00D90425191D072901D29E
:10063000002300E0DB1E012606FA05F1491E2140D9
:1006400099409E40761E16403143F0BC00F05FBDDD
:100650000CED00E0064900F0070208684FF6FF03C2
:10066000184040EA0220034A104308607047000027
:100670000CED00E00000FA052DE9F0470E460500FC
:1006800065D0DFF81481D8F80000F7B200F00F0051
:10069000B04207D288F80070D8F8000000F00F00D0
:1006A000B04254D128683D4C810712D5400703D58C
:1006B000206840F4E05020602878000703D52068C7
:1006C00040F4604020602068A96820F0F0000843F2
:1006D00020602878C0072DD0304968680839012883
:1006E00012D0022813D0032811D0096889070029E5
:1006F0002DDA216821F0030101432160FFF726FF75
:10070000814641F2883A0EE009688903EFE70968FB
:100710008901ECE7FFF71AFFA0EB0901514502D967
:100720000320BDE8F0872068696800F00C00B0EB9A
:10073000810FEFD1D8F80010404601F00F01B1420F
:1007400007D90770006800F00F00B04201D0012007
:10075000E7E72878400705D52068E96820F4E050ED
:10076000084320602878000706D52068296920F40E
:10077000604040EAC100206000F036F82168084A75
:10078000C1F30311515CC840064908600F20FFF710
:1007900005FF0020C5E70000003C02400838024089
:1007A000F02E000818000020044805490068096878
:1007B000044AC1F38221515CC840704718000020F0
:1007C00008380240002F00080448054900680968FD
:1007D000044AC1F34231515CC84070471800002000
:1007E00008380240002F0008154810B5006810F0C6
:1007F0000C02144813D01449042A0FD0082A0ED131
:100800000F4C241F2268236802F03F025B0207D5C9
:100810002068C0F38810A0FB010106E0084610BD67
:100820002168C1F38811A1FB00010023FFF728FD17
:100830002168C1F30141491C4900B0FBF1F010BD32
:10084000083802400024F40040787D012DE9F84F7B
:10085000050076D02878DFF8F8B2BE4CC00749D042
:10086000DBF800105846C1F38101012908D0006867
:10087000C0F3810002280AD1201D0068400206D57D
:100880002068800336D568680028E2D032E06868C6
:10089000B0F5803F10D0B0F5A02F206810D020F424
:1008A00080302060206820F4802020606868A0B13B
:1008B000FFF74CFE06460CE0206840F48030F4E779
:1008C00040F480202060F7E7FFF740FE801B64289B
:1008D00073D820688003F7D50CE0FFF737FE064693
:1008E00005E000BFFFF732FE801B6428F0D82068C7
:1008F0008003F7D42878DFF8608280074FF0000982
:100900003ED5DBF80010584611F00C0F09D00068F6
:10091000C0F3810002280BD18D48001F00684002FF
:1009200006D42068800715D5E868012809D111E0B0
:10093000E868B8B10120C8F80000FFF707FE0646D6
:1009400005E002E1FFF702FE801B0228C0D8206804
:100950008007F7D52068296920F0F80040EAC10037
:1009600020600DE0C8F80090FFF7F0FD064604E0B7
:10097000FFF7ECFD801B02281FD820688007F7D402
:100980002878000722D5724E744869696C3671B1B7
:1009900001210160FFF7DAFD074604E0FFF7D6FD0D
:1009A000C01B022809D830688007F7D50EE0C0F8D0
:1009B0000090FFF7CBFD074605E083E0FFF7C6FD9B
:1009C000C01B02287ED830688007F7D428784007FB
:1009D00068D5DFF87CA100270AF1380ADAF80000B0
:1009E000C0000BD4DAF8001041F08051CAF80010B2
:1009F000DAF80000012700F080500090584E30686F
:100A0000C00510D4306840F480703060FFF79EFD60
:100A1000009005E0FFF79AFD0099401A022851D88E
:100A20003068C005F6D54A4EA868683601280FD050
:100A30000528306810D020F001003060306820F0C8
:100A400004003060A868B8B1FFF780FD00900FE0A7
:100A5000306840F00100F4E740F004003060F7E750
:100A6000FFF774FD0099411A41F28830814264D841
:100A700030688007F4D50EE0FFF768FD009007E0CE
:100A8000FFF764FD0099411A41F28830814254D841
:100A900030688007F4D42FB1DAF8001021F08051CB
:100AA000CAF80010A869C0B3DBF80010C1F38101D7
:100AB00002294AD00228484607D0C8F86000FFF74C
:100AC00045FD00E039E005463AE04746C8F86000D9
:100AD000FFF73CFD064604E0FFF738FD801B0228C7
:100AE0002BD820688001F7D4D5E907010843A96A0B
:100AF0001C4A490802EB01416A6A41EA8211084333
:100B000095F82C1040EA01611148001F0160012096
:100B10003866FFF71BFD054605E014E0FFF716FDFC
:100B2000401B022809D820688001F7D50BE000BFE0
:100B3000FFF70CFD401B022802D90320BDE8F88F07
:100B400020688001F4D40020F8E70120F6E70000D7
:100B5000083802400038024000004742800E4742F9
:100B6000007000400000FFFF10B5401EB0F1807F14
:100B700001D3012010BD4FF0E02460610F21601708
:100B800000F0C5FA0020A06107202061002010BD00
:100B900070B5040004D094F83900002510B106E0C7
:100BA000012070BD84F83850204600F023F824203E
:100BB00084F839002068C16821F40051C1602046E2
:100BC00000F04EF92068016921F49041016120682C
:100BD000416921F02A0141612068C16841F4005156
:100BE000C160E563202084F8390084F83A000020D1
:100BF00070BD000010B586B0044614216846FFF7AA
:100C000089FB13492068884220D11248016841F4C9
:100C100000310160006800F4003005900D48103884
:100C2000016841F0010101600068694600F00100BF
:100C300005900C20009002200190012002900320DA
:100C40000390072004900448FFF7A2FB06B010BDF4
:100C5000004400404038024000000240FEE700002F
:100C6000F0B587B014216846FFF754FB16480024FE
:100C7000016841F001010160016801F00101059185
:100C8000016841F0080101600068104F00F00800A1
:100C90004FF470460590224631463846FFF750FC27
:100CA00001250B480095CDE9010469460948FFF785
:100CB0006FFB0096CDE90154694638460394FFF76F
:100CC00067FB07B0F0BD000030380240000C024066
:100CD0000000111000000240FEE770474FF48056FC
:100CE000114CDFF848804FF0FF3577004FF47A79E8
:100CF000A0680028FCD0294600F0CAFA4FF0010293
:100D000008B1394600E031464046FFF719FCA068BB
:100D100000F034FB20B1012239464046FFF710FCB9
:100D2000484600F05FFAE3E700000020000C0240B4
:100D30004FF48056114CDFF848804FF0FF357700B4
:100D40004FF4FA69A0680028FCD0294600F0A0FA08
:100D500010B10122394601E0002231464046FFF73A
:100D6000EFFBA06800F00AFB20B1012239464046A3
:100D7000FFF7E6FB484600F035FAE3E70000002005
:100D8000000C024010B5FFF7E7FB01F093FE0128CD
:100D900003D0BDE8104001F085BA10BD10B592B087
:100DA00030216846FFF7B6FA14210CA8FFF7B2FA13
:100DB00014480024016841F080510160006800F08F
:100DC000805011901048016841F480410160006832
:100DD000069400F4804011900220009001200390BE
:100DE000102004906846FFF731FD0F20CDE90C0478
:100DF0000E940F9400210CA81094FFF73DFC12B044
:100E000010BD0000403802400070004010480168EA
:100E100041F4700101600F48016841F00101016077
:100E20000C4A00210832116002680B4B1A40026024
:100E3000031D0A4A1A60026822F4802202600548F3
:100E40000C30016002495806803908607047000084
:100E500088ED00E000380240FFFFF6FE103000246D
:100E60002DE9F041044600680169E26821F440512F
:100E7000114301612169A068E26908436169114376
:100E800022680843D16849F20C6399430143D16059
:100E900020684169A26921F4407111434161E2690E
:100EA0006425B2F5004F9748974922684FF0320801
:100EB0003FD08A4201D082427CD1FFF785FC00EB13
:100EC000C00101EB001061688900B0FBF1F6FFF78B
:100ED0007BFC00EBC00101EB001061688900B0FBF6
:100EE000F1F0B0FBF5F06FF01801484306EB80011C
:100EF00008EB0110B0FBF5F000F0F006FFF764FC22
:100F000000EBC00101EB001061688900B0FBF1F05B
:100F1000B0FBF5F006EB0016FFF756FC00EBC00146
:100F200001EB001061688900B0FBF1F7FFF74CFCA2
:100F3000D2E08A4201D082423DD1FFF745FC00EB6E
:100F4000C00101EB001061684900B0FBF1F0B0FB9B
:100F5000F5F00601FFF738FC00EBC00101EB0010D3
:100F600061684900B0FBF1F7FFF72EFC00EBC00110
:100F700001EB001061684900B0FBF1F0B0FBF5F047
:100F80006FF01801484307EB800108EBC100B0FB8C
:100F9000F5F000F0F80006EB4006FFF715FC00EB5B
:100FA000C00101EB001061684900B0FBF1F7FFF7E9
:100FB0000BFC3CE055E0FFF7F7FB00EBC00101EB59
:100FC000001061684900B0FBF1F0B0FBF5F00601DC
:100FD000FFF7EAFB00EBC00101EB0010616849007C
:100FE000B0FBF1F7FFF7E0FB00EBC00101EB0010F5
:100FF00061684900B0FBF1F0B0FBF5F06FF018014B
:10100000484307EB800108EBC100B0FBF5F000F0AE
:10101000F80006EB4006FFF7C7FB00EBC00101EB51
:10102000001061684900B0FBF1F7FFF7BDFB00EB72
:10103000C00101EB001061684900B0FBF1F0B0FBAA
:10104000F5F06FF01801484307EB800108EBC10091
:10105000B0FBF5F000F00700216830448860BDE87F
:10106000F081FFF7A1FB00EBC00101EB001061680C
:101070008900B0FBF1F6FFF797FB00EBC00101EB35
:10108000001061688900B0FBF1F0B0FBF5F06FF083
:101090001801484306EB800108EB0110B0FBF5F0A6
:1010A00000F0F006FFF780FB00EBC00101EB001041
:1010B00061688900B0FBF1F0B0FBF5F006EB0016BB
:1010C000FFF772FB00EBC00101EB001061688900C3
:1010D000B0FBF1F7FFF768FB00EBC00101EB00107C
:1010E00061688900B0FBF1F0B0FBF5F06FF018011A
:1010F000484307EB800108EB0110B0FBF5F000F06E
:101100000F00A9E70014014000100140FEE70907A5
:10111000090E002804DB00F1E02080F8001470477D
:1011200000F00F0000F1E02080F8141D704702E08D
:1011300008C8121F08C1002AFAD170477047002062
:1011400001E001C1121F002AFBD1704796B0FFF7E2
:101150000BFAFFF723FEFFF783FD1D481B490C2206
:1011600001604FF4E131416000218160C160C0E95C
:1011700004128161C161FFF70BFD00F04DF8154BC2
:101180000DF1480C0FCB8CE80F0012A800F0B6F858
:10119000114C10492422A06010316846FFF7A1F8D5
:1011A0006A4600210D4800F017F90A492060242200
:1011B000343109A8FFF795F809AA0021084800F082
:1011C0000BF9606000F044F8FEE7000000440040C6
:1011D00094000020982E000800000020DD0C00087C
:1011E000310D000810B5EFF3058149B9EFF3108117
:1011F00031B908490968022905D1EFF3118111B10C
:101200006FF0050403E0002408B100F0A3FE2046BF
:1012100010BD00006C000020EFF3058058B9EFF31B
:10122000108040B909490868022801D030B109E0AE
:10123000EFF3118030B16FF00500704701200860B6
:10124000002070474FF0FF30704700006C00002016
:1012500010B5EFF3058060B9EFF3108048B90B4982
:101260000868022802D0012806D00BE0EFF31180B5
:1012700040B16FF0050010BD0220086000F01AFFB9
:10128000002010BD4FF0FF3010BD00006C000020AA
:101290002DE9F0410D46014621F0010001F0010168
:1012A0004FF00004EFF305824AB9EFF3108232B930
:1012B000114A1268022A05D1EFF3118212B16FF0C0
:1012C000050416E048B100296FF001066FF002072F
:1012D000294608D001F036FB07E06FF0030408E070
:1012E00035B1344605E001F071FA0128F8D100E08B
:1012F0003C462046BDE8F0816C00002070B50546F4
:101300004FF00004EFF30580A0BBEFF3108088BB23
:1013100019480068022802D1EFF3118050BB0DB1CB
:10132000686800E00020C10701D0012600E0002627
:1013300000071FD46DB1D5E9021021B1502819D38F
:101340001EB1042002E020B114E0012000F0CBFF28
:1013500005E00EB1042000E0012000F0B9FF040018
:1013600008D00DB1296800E0002100F0BDFD0EB1EC
:1013700044F00104204670BD6C00002070B50146A9
:1013800021F0010001F001014FF00004EFF30582AC
:101390004AB9EFF3108232B90E4A1268022A05D117
:1013A000EFF3118212B16FF0050411E028B16FF074
:1013B000020529B101F04EF907E06FF0030407E0E0
:1013C00000231A46194601F037F8012800D02C46B0
:1013D000204670BD6C000020F0B585B04FEA0103D7
:1013E0004FF00004EFF305810394A1BBEFF31081EC
:1013F00089BB21490968022902D1EFF3118151BB50
:1014000048B3802618218DF8104004AD42B3176808
:1014100007B13D4697691FB139467F1E382F02D26A
:101420001779FF0702D0002005B0F0BD576907B15A
:10143000BE08D2F808C0BCF1000F0DD0D4685C2CF7
:1014400018D312693AB137B18DE8061032462946F1
:1014500001F0FFFA03900DE0D7685FB912694AB94D
:1014600003AACDE90012B2B2294601F0C5FA01285B
:1014700000D003940398D7E76C0000202DE9F041D9
:10148000134C0F46054666692068001D00F032FCCB
:10149000681C07D137B12168BDE8F0410D48091D2E
:1014A00000F078BC20683544B5424560216805D21B
:1014B000A068BDE8F041091D00F054BC6068091D3A
:1014C00000F050FC206B854200D22563BDE8F0811E
:1014D0001C000020C40500202DE9F041054600F065
:1014E00065FC2D4C2069401C206120682B4F10B1F9
:1014F000E06930B32BE025602069012827D1002660
:1015000006EB860007EB800000F01EFC761C382EF0
:10151000F6D3234800F018FC2148143000F014FCE6
:101520001F48283000F010FC1D483C3000F00CFC37
:101530001B48503000F008FC194860601430A0606F
:1015400005E02068E96AC06A884200D82560E06A40
:10155000401CE0626864E86AA169884200D9A06121
:1015600000EB800007EB8000291D00F013FC00F069
:101570003DFCE06900280CD02068E96AC06A884216
:1015800007D208494FF080500860BFF34F8FBFF378
:101590006F8FBDE8F08100001C00002014010020C6
:1015A0007405002004ED00E038B500F0FFFB104C9E
:1015B000A068C8B90F4800F0C7FB0E48143000F00F
:1015C000C3FB0C482060143060600A4B00202833B5
:1015D000009003F1500210210A2000F0B5FEA06037
:1015E00010B105A100F080FCBDE8384000F0FEBB62
:1015F00058000020D8050020546D725100000000F2
:1016000030B4026C0B46002A0BD0C1681144C16093
:101610004468A14201D30168C16030BC1846FEF79E
:1016200060BE30BC70472DE9F041856B174604461B
:101630000026026C82B1C7B1E068FEF752FEE16895
:10164000206C091AE1602268914202D26168081A8E
:10165000E060022F16D017E02068A8B9606801F09A
:10166000A1FA0646002060600EE0A068FEF739FE91
:10167000216CA0680844A0606168884204D3206897
:10168000A06001E005B16D1E6D1CA5633046BDE88C
:10169000F08110B5044690F8590058B101280CD0DB
:1016A00002280FD0502080F31188BFF34F8FBFF373
:1016B0006F8FFEE7206B00F0ADFB2046BDE81040C9
:1016C00000F0A8BB10BD000010484FF47051420755
:1016D00006D0C01D0D4920F00700411AC1F5705118
:1016E0000B4A00230144C2E900030839103A21F0F3
:1016F000070111604B600B600B1AC0E90013936087
:101700004FF000405360D06070470000A80D0020EB
:1017100080000020144E154CA6F29C474FF08058D4
:10172000DFF84C9012E000BF00F040FBF068C568A5
:10173000281D00F0DFFA2069401E2061E068401E8D
:10174000E06000F053FB2846FFF7A3FFE0680028A5
:10175000EAD138680128F9D9C9F80080BFF34F8F62
:10176000BFF36F8FF2E70000B00500201C000020DF
:1017700004ED00E0002807D00021416001600B4625
:101780000A46C16000F058BE7047000070B51D46A3
:10179000049C51B1C4F80020C4E90F010121204686
:1017A00000F006FE84F84C5070BD2460F4E72DE98B
:1017B000F0470E46DDE909841746824691009946B6
:1017C000089DA522206BFEF79EFD6FF00301206BA4
:1017D00001EB8701084420F00707780707D0502065
:1017E00080F31188BFF34F8FBFF36F8FFEE722188E
:1017F000315C82F83410315C11B1401C1028F6D3F2
:10180000002684F84360382D00D33725E562C4E90B
:101810001356201D00F0A3FA04F1180000F09FFAFF
:101820002461C5F138006462A061666584F858607F
:101830004A465146384600F047FA2060B8F1000F9A
:1018400001D0C8F80040BDE8F087000030B511496C
:1018500000E011460A688242FBD34B685C18844260
:1018600003D1406818444860084643681C189442F5
:1018700009D1084C103C2468A24209D052681A448D
:1018800042600A6812680260814200D0086030BD80
:101890000460F9E78000002070B5002441600B4D22
:1018A0000061914206D8D11A8269914206D2011D87
:1018B000686807E09A4203D2994201D3012403E009
:1018C000011D286800F04EFA204670BD5800002027
:1018D00010B5044600F06AFAA06B28B15FF000046E
:1018E00000F084FA204610BD0124F9E730B589B034
:1018F000304D55E00498002806DADDE90601059A26
:101900009047049800284BDB069C606910B1201DAD
:1019100000F0F0F902A800F0B9F8024604980A288D
:101920003ED2DFE800F00505053D263705053D26DA
:101930000598A169034601442046FFF7ADFF00B3B7
:10194000616A20468847E069012829D1002000907B
:101950000598A169002342181946204601F068FA4B
:1019600078B9502080F31188BFF34F8FBFF36F8F8A
:10197000FEE70598A06128B1811813462046FFF7BD
:101980008BFF0DE0502080F31188BFF34F8FBFF322
:101990006F8FFEE794F82C0010B9204600F03AFA59
:1019A000002204A9A86800F075FE0028A2D109B0A1
:1019B00030BD0000580000202DE9FC410F460546CF
:1019C00000F0BCFB01A800F061F80446019818B1D2
:1019D00001F09CF9BDE8FC81224EAFB1706800684F
:1019E000A8B30027291B3A46B06800F091FA01F02D
:1019F0008DF90028EED11C494FF080500860BFF3EC
:101A00004F8FBFF36F8FE5E7A542EBD801F07EF96A
:101A100030682746C068C468201D00F06BF9E06993
:101A2000012810D1A0692B4641193A462046FFF7FC
:101A300033FF40B100200346014600902A4620466D
:101A400001F0F6F920B1616A20468847C2E707E055
:101A5000502080F31188BFF34F8FBFF36F8FFEE7E5
:101A60000127BFE75800002004ED00E00648416868
:101A7000096829B14168C968C96849680163704744
:101A80004FF0FF31FAE700001C00002070B505465A
:101A900001F01EF8064E04463069844203D200F07D
:101AA00009F8012000E0002028602046346170BD64
:101AB00058000020F8B5194D1FE0C068C4680668DA
:101AC000201D00F017F9616A20468847E069012867
:101AD00013D1A0693044B04206D924616060211D51
:101AE000286800F03FF908E0002003460146009016
:101AF0003246204601F09CF938B128680168002977
:101B0000DBD16968C5E90010F8BD502080F3118869
:101B1000BFF34F8FBFF36F8FFEE700005800002028
:101B200008484068401C4FF0500080F3118804D0F2
:101B3000BFF34F8FBFF36F8FFEE7BFF34F8FBFF33E
:101B40006F8FFEE788000020074C2068016841B1D4
:101B5000C0680021D0F80000FFF72EFFFFF7C6FE97
:101B6000F3E701210020F7E7580000202DE9F041BC
:101B7000044600F01BF994F9455004F1240609E0ED
:101B8000606A48B1304601F089F808B100F010FAF7
:101B90006D1E6DB2002DF3DC4FF0FF3684F845600A
:101BA00000F024F900F002F994F9445004F1100710
:101BB00009E0206948B1384601F070F808B100F03A
:101BC000F7F96D1E6DB2002DF3DC84F84460BDE8BA
:101BD000F04100F00BB900002DE9F0410546002767
:101BE00000F0ACFA314E306808B9FFF76DFDF068CF
:101BF00005424BD1C5B3083568070ED005F0070084
:101C0000C0F108000544680707D0502080F3118810
:101C1000BFF34F8FBFF36F8FFEE72DB37068854220
:101C200034D82248103001460C6801E020460C46AA
:101C30006168A94202D221680029F7D131688C423B
:101C400024D007682168016060680837411B1029AB
:101C50000FD96019420708D0502080F31188BFF3D4
:101C60004F8FBFF36F8FFEE710E041606560FFF7B5
:101C7000EDFD61687068401A7060B268904200D2F1
:101C8000B060F06801430020C4E9000101F03EF8B3
:101C9000780707D0502080F31188BFF34F8FBFF330
:101CA0006F8FFEE73846BDE8F0810000700000202D
:101CB0000449086818B10868026D521C026508687A
:101CC000704700001C00002010B5031F4FF0807407
:101CD0001C601B1F21F001011960191F044B0B60D0
:101CE00014390A60091F6FF0020244380A6010BDFF
:101CF000211B0008D0E9013201699A60D0E9012373
:101D00005A604A68824201D182684A6000220261B8
:101D10000868401E0860086870470000034B0360B5
:101D200003F15C000860802010607047F00600201E
:101D3000044B036003F15C0008604FF48070106096
:101D4000704700004C09002000F108014FF0FF32FD
:101D5000C0E90112C16001610021016070470021EA
:101D60000161704730B50B685A1C02D000F10802BF
:101D700002E0026904E02246546825689D42FAD9CF
:101D800053684B6099608A60516008610168491C22
:101D9000016030BD42684A6093688B609368596007
:101DA000916008610168491C01607047502080F310
:101DB0001188BFF34F8FBFF36F8F0A494868401CEB
:101DC000486001280CD10848006810F0FF0F07D0C8
:101DD000502080F31188BFF34F8FBFF36F8FFEE762
:101DE000704700008800002004ED00E008494868C2
:101DF00028B1401E486001D180F3118870475020FF
:101E000080F31188BFF34F8FBFF36F8FFEE70000A1
:101E10008800002070B5002827D0144DA0F10804D8
:101E20006168E868014207D1502080F31188BFF350
:101E30004F8FBFF36F8FFEE722683AB1502080F3D7
:101E40001188BFF34F8FBFF36F8FFEE7814361604F
:101E500000F074F960686968084468602046FFF71C
:101E6000F5FCBDE8704000F051BF70BD700000206F
:101E70004FF0E02000210161816105494FF47A7241
:101E80000968B1FBF2F1491E416107210161704708
:101E90001800002010B5FEF7DDF9114910280ED307
:101EA00000F1E02090F8F0030A78904207D2502029
:101EB00080F31188BFF34F8FBFF36F8FFEE70948A0
:101EC0000068896800F4E060884207D9502080F3F8
:101ED0001188BFF34F8FBFF36F8FFEE710BD000077
:101EE000880000200CED00E010B5084B002200BF78
:101EF00053F832401CB1521C082AF9D310BD43F8E4
:101F0000321003EBC201486010BD0000D400002075
:101F100070B515460E460446FFF748FF94F9441085
:101F20000020491C01D184F8440094F94510491C53
:101F300001D184F84500FFF759FFA06B28B92A4664
:101F4000314604F1240000F051F82046BDE870400D
:101F5000FFF70CBE10B5020014D00F48806B38B1EB
:101F6000502080F31188BFF34F8FBFF36F8FFEE7D0
:101F700000F0E4F800211046FFF780FA00F0C6FEFA
:101F8000002807D105494FF080500860BFF34F8FFC
:101F9000BFF36F8F10BD00001C00002004ED00E0B7
:101FA00002498A6A02604969416070471C0000204A
:101FB00001490120486270471C00002010B50C4602
:101FC00050B1094909681831FFF7CCFE2046BDE839
:101FD00010400121FFF752BA502080F31188BFF35F
:101FE0004F8FBFF36F8FFEE71C00002070B51446C3
:101FF0000D4668B10A4909681831FFF7CBFE0CB1EC
:102000004FF0FF3521462846BDE87040FFF736BA4D
:10201000502080F31188BFF34F8FBFF36F8FFEE71F
:102020001C00002070B504003ED0226DA2B1E06C0F
:10203000884200D30146E06A884235D0012A33D174
:102040001A4D2A6894420FD1502080F31188BFF3B3
:102050004F8FBFF36F8FFEE7502080F31188BFF3DF
:102060004F8FBFF36F8FFEE7E162A269002A02DBA8
:10207000C1F13801A1610E4E00EB8000616906EBF1
:102080008000814210D1201DFFF734FEE06AA9696B
:10209000884200D9A86100EB800006EB8000211D7A
:1020A000BDE87040FFF776BE70BD00001C00002048
:1020B0001401002030B587B00024039405AA04A9B8
:1020C00003A80494FFF72AFEDDE903010094CDE99B
:1020D0000110002315A11748059A00F0BAFC164D0F
:1020E000002868631FD000F073FE012809D0401C4F
:1020F00019D1502080F31188BFF34F8FBFF36F8F3A
:10210000FEE7502080F31188BFF34F8FBFF36F8F2E
:102110004FF0FF3028630120E8616C6107B0BDE833
:10212000304000F045B807B030BD000049444C4590
:1021300000000000151700081C0000200248816BF9
:10214000491C8163704700001C000020164810B530
:10215000816B11B10121416210BD00214162816991
:10216000124A01E0B9B1491E01EB810352F8233054
:10217000002BF7D001EB810302EB830202F108048C
:1021800053685B685360A34201D15B685360DA68AF
:102190000260816110BD502080F31188BFF34F8F22
:1021A000BFF36F8FFEE700001C0000201401002029
:1021B0001CB537480168374A914207D1502080F357
:1021C0001188BFF34F8FBFF36F8FFEE7006831496F
:1021D000491E884207D1502080F31188BFF34F8FEA
:1021E000BFF36F8FFEE72C4908780190FF2008703D
:1021F00008788DF800009DF800009DF8002000F0A0
:10220000F000904207D0502080F31188BFF34F8F29
:10221000BFF36F8FFEE79DF80000204B00F05000E9
:1022200018700720986005E09DF8002052008DF896
:102230000020401E9DF800201206F5D49860032867
:1022400007D0502080F31188BFF34F8FBFF36F8FFB
:10225000FEE74FF440709860019808700C482030F9
:10226000016841F470010160016841F07041016052
:10227000FFF7FEFD00205860FDF7B4FF0848016835
:1022800041F040410160FDF799FF00201CBD0000B6
:1022900000ED00E071C20F4100E400E08800002082
:1022A00034EF00E010B5502080F31188BFF34F8F5A
:1022B000BFF36F8F00F012FC18B104494FF080504B
:1022C0000860002080F3118810BD000004ED00E0DC
:1022D00010B502460021012000F012F80446FFF775
:1022E00049FA204610BD38B50B4600220090114631
:1022F000012000F029F80446FFF73CFA204638BDDB
:10230000F8B517460E46050014D0DEB105FB06F001
:102310005030FFF761FC04000AD0002084F846002A
:1023200004F150023B46314628460094FFF72EFA4E
:102330002046F8BD502080F31188BFF34F8FBFF3C4
:102340006F8FFEE70020E3E738B5049D18B153B165
:10235000CAB181B120E0502080F31188BFF34F8FC4
:10236000BFF36F8FFEE7502080F31188BFF34F8FCC
:10237000BFF36F8FFEE7502080F31188BFF34F8FBC
:10238000BFF36F8FFEE739B1502080F31188BFF3A0
:102390004F8FBFF36F8FFEE750241C46012384F854
:1023A00046302B460094FFF7F1F9204638BD000077
:1023B00070B50D46040025D0FFF7F8FCD4E90F20D6
:1023C000216802FB001161600021A1632168A16006
:1023D0000A46D4E90F01401E00FB0121E1602146BD
:1023E0004FF0FF3001F8440F487004F110008DB138
:1023F000FFF7AAFC04F12400FFF7A6FCFFF7F6FCA8
:10240000012070BD502080F31188BFF34F8FBFF3C0
:102410006F8FFEE721690029F0D000F03FFC002813
:10242000ECD004494FF080500860BFF34F8FBFF3EA
:102430006F8FE3E704ED00E02DE9FF4782B01D4612
:102440008A464FF00008040003D0BAF1000F08D00C
:1024500011E0502080F31188BFF34F8FBFF36F8FCF
:10246000FEE7206C38B1502080F31188BFF34F8F06
:10247000BFF36F8FFEE7022D0AD1E06B012807D072
:10248000502080F31188BFF34F8FBFF36F8FFEE7AB
:1024900000F010FB3F4F4FF000094FF0805648B955
:1024A000049838B1502080F31188BFF34F8FBFF3E9
:1024B0006F8FFEE7FFF77AFCA06BE16B884207D3D2
:1024C000022D05D00498D0B1B8F1000F1AD01EE04B
:1024D0002A4651462046FFF7A6F8616A19B104F171
:1024E000240000F0DBFB20B13E60BFF34F8FBFF351
:1024F0006F8FFFF77BFC012006B0BDE8F087FFF788
:1025000075FC22E06846FFF74BFD4FF00108FFF72E
:102510006DFCFFF713FEFFF749FC94F94400401CE3
:1025200001D184F8449094F94500401C01D184F80D
:102530004590FFF75BFC04A9684600F023FA30B130
:102540002046FFF713FB00F0E1FB0020D4E7FFF784
:102550002DFCA06BE16B884213D1FFF747FC04F11F
:1025600010000499FFF72AFD2046FFF7FFFA00F05C
:10257000CDFB00289ED13E60BFF34F8FBFF36F8F1E
:1025800098E7FFF733FC2046FFF7F0FA00F0BEFBB8
:1025900090E7000004ED00E02DE9F0471F4690466B
:1025A0008946040003D0B9F1000F08D011E0502093
:1025B00080F31188BFF34F8FBFF36F8FFEE7206C5E
:1025C00038B1502080F31188BFF34F8FBFF36F8F66
:1025D000FEE7022F0AD1E06B012807D0502080F3DC
:1025E0001188BFF34F8FBFF36F8FFEE7FFF752FCE9
:1025F0005020EFF3118680F31188BFF34F8FBFF3A4
:102600006F8FA06BE16B884206D3022F04D00020AD
:1026100086F31188BDE8F08794F945503A4649465B
:102620002046FFF700F8681C04D06D1C84F8455064
:102630000120EDE7606A0028FAD004F1240000F0E0
:102640002DFB0028F4D0B8F1000FF1D00121C8F81B
:102650000010EDE710B5040009D000F025FA61681C
:10266000884214D1E068401EE06008D00DE05020A0
:1026700080F31188BFF34F8FBFF36F8FFEE7002306
:102680001A4619462046FFF7D7FE012010BD00204C
:1026900010BD00002DE9F747002683B08A460400EC
:1026A00003D0BAF1000F08D011E0502080F3118858
:1026B000BFF34F8FBFF36F8FFEE7206C38B1502010
:1026C00080F31188BFF34F8FBFF36F8FFEE700F0E9
:1026D000F1F9DFF8F4804FF000094FF0805748B966
:1026E000059838B1502080F31188BFF34F8FBFF3A6
:1026F0006F8FFEE7FFF75AFBA56BC5B15146204629
:10270000FEF77EFF6D1EA563206950B104F1100035
:1027100000F0C4FA28B1C8F80070BFF34F8FBFF3C0
:102720006F8FFFF763FB012006B0BDE8F0870598C7
:1027300008B11EB106E0FFF759FB27E06846FFF736
:102740002FFC0126FFF752FBFFF7F8FCFFF72EFBEB
:1027500094F94400401C01D184F8449094F9450058
:10276000401C01D184F84590FFF740FB05A968465D
:1027700000F008F9002820460AD0FFF7F7F900F02A
:10278000C5FA2046FFF7A4F80028B3D00020CBE715
:10279000FFF79EF890B104F124000599FFF70EFCB5
:1027A0002046FFF7E3F900F0B1FA0028A2D1C8F8FB
:1027B0000070BFF34F8FBFF36F8F9BE72046FFF78B
:1027C000D5F900F0A3FA95E704ED00E02DE9F34315
:1027D000002683B00400354609D0206C78B1502023
:1027E00080F31188BFF34F8FBFF36F8FFEE7502048
:1027F00080F31188BFF34F8FBFF36F8FFEE700F0B8
:1028000059F9DFF83C814FF000094FF0805748B983
:10281000049838B1502080F31188BFF34F8FBFF375
:102820006F8FFEE7FFF7C2FAA06BC8B1401EA0632E
:10283000206810B9FFF73CFA6060206950B104F1DC
:10284000100000F02BFA28B1C8F80070BFF34F8FCA
:10285000BFF36F8FFFF7CAFA012005B0BDE8F08320
:10286000049808B166B10FE03DB1502080F31188A3
:10287000BFF34F8FBFF36F8FFEE7FFF7B7FA5DE04F
:102880006846FFF78DFB0126FFF7B0FAFFF756FC0D
:10289000FFF78CFA94F94400401C01D184F844906D
:1028A00094F94500401C01D184F84590FFF79EFA49
:1028B00004A9684600F066F80028204612D0FFF709
:1028C00055F900F023FA2046FFF702F80028A9D0B6
:1028D0009DB3FFF76BFA606A50B3206B0068C0F1DC
:1028E000380126E0FEF7F4FFE0B1206838B9FFF7C1
:1028F0005DFA606800F096F90546FFF777FA04F193
:1029000024000499FFF75AFB2046FFF72FF900F047
:10291000FDF9002886D1C8F80070BFF34F8FBFF3D0
:102920006F8F7FE72046FFF721F900F0EFF979E795
:1029300000216068FFF776FB9FE7FFE700208CE748
:1029400004ED00E070B50D46040009D000F0ACF8CD
:10295000616888420CD1E068401CE060012070BDD5
:10296000502080F31188BFF34F8FBFF36F8FFEE7C6
:1029700029462046FFF72AFF0028F0D0E168491CCD
:10298000E16070BD2DE9F0410C46050011D0C4B1E5
:10299000FFF70CFA174B5A696E682068911B471CA9
:1029A00017D02F689B6A9F4219D0964217D80124EE
:1029B00010E0502080F31188BFF34F8FBFF36F8F6B
:1029C000FEE7502080F31188BFF34F8FBFF36F8F66
:1029D000FEE70024FFF70AFA2046BDE8F0818842AE
:1029E00005D9401A20602846FFF7DAFAF1E70020FF
:1029F0002060DCE71C0000202DE9FF5F8346DDE955
:102A00000E87994616468A469000FFF7E5F80500BE
:102A10001CD05C20FFF7E0F8040014D000202563F0
:102A200084F85900CDE90240CDE900874B46324693
:102A300051465846FEF7BBFE2046FEF74DFD0120ED
:102A400004B0BDE8F09F2846FFF7E4F94FF0FF30EF
:102A5000F6E7F0B585B0DDE90B640A9DA6B1DCB1FF
:102A60005C2700972663022684F85960002604AF8D
:102A7000CDE90246CDE90057FEF799FE2046FEF764
:102A80002BFD049805B0F0BD502080F31188BFF3F2
:102A90004F8FBFF36F8FFEE7502080F31188BFF395
:102AA0004F8FBFF36F8FFEE701480068704700004B
:102AB0001C0000200548C16919B1806B18B10020C5
:102AC0007047012070470220704700001C00002062
:102AD00001484069704700001C0000202DE9F041CA
:102AE0002E4C0027A06B40B1206A401C2062606A17
:102AF00000B101273846BDE8F0816669761C666141
:102B000013D16068006838B1502080F31188BFF39A
:102B10004F8FBFF36F8FFEE76068A1686160A060B0
:102B2000A06A401CA062FEF7A1FF206BDFF8708056
:102B3000864209D36068006880B16068C068C56873
:102B4000686886420DD220632068C06A00EB80016D
:102B500058F821000128CAD90127C8E74FF0FF30F3
:102B6000F1E7281DFFF7C6F8A86A18B105F11800AB
:102B7000FFF7C0F8E86AA169884200D9A06100EBBC
:102B8000800108EB8100291DFFF704F9E86A21683C
:102B9000C96A8842CED30127CCE700001C00002080
:102BA0001401002070B504004FF0000133D01B4D1C
:102BB0002868844207D0502080F31188BFF34F8FDC
:102BC000BFF36F8FFEE7206D38B1401E2065E36CC8
:102BD000E26A9A421FD040B11DE0502080F3118874
:102BE000BFF34F8FBFF36F8FFEE7201DFFF782F813
:102BF000E06CE062C0F13800A061E06AA969884237
:102C000000D9A861064900EB800001EB8000211D7E
:102C1000FFF7C0F80121084670BD00001C0000202D
:102C20001401002070B504004FF000002BD0194DA6
:102C3000E16A2A68D26A914226D2A069002804DBA0
:102C40002868C06AC0F13800A061134E01EB810111
:102C5000606906EB8101884211D1201DFFF74AF817
:102C60002868C06AE062A969884200D9A86100EBBF
:102C7000800006EB8000211DFFF78CF802E0286839
:102C8000C06AE062012070BDE16C2A68D26A91429C
:102C9000F8D370BD1C0000201401002070B5C0687E
:102CA000C46854B104F118000646FFF723F8144D28
:102CB000A86B50B13146134815E0502080F31188BD
:102CC000BFF34F8FBFF36F8FFEE7201DFFF712F8A2
:102CD000E06AA969884200D9A8610B4900EB80002D
:102CE00001EB8000211DFFF755F8E06A2968C96AE9
:102CF000884202D90120686270BD002070BD0000CA
:102D00001C0000209C050020140100202DE9F04744
:102D10002C4D00242746A86B38B1FFF747F8A86B65
:102D2000401EA863A86B40B146E0502080F3118894
:102D3000BFF34F8FBFF36F8FFEE72969224E01204B
:102D4000D1B3A6F5916980463068E0B1F068C468F7
:102D500004F11800FEF7CEFF201DFEF7CBFFE06A5E
:102D6000A969884200D9A86100EB800109EB8100C4
:102D7000211DFFF70FF8E06A2968C96A8842E3D38A
:102D8000C5F82480E0E70CB1FEF770FE2C6A4CB168
:102D90004FEA0806FFF7A2FE00B16E62641EF9D189
:102DA00000202862686A38B108490127380708609E
:102DB000BFF34F8FBFF36F8FFFF718F83846BDE8AA
:102DC000F08700001C0000209C05002004ED00E0BE
:102DD00010B586B0FEF7E8FB114CA068B8B1002032
:102DE0000390049005AA04A903A8FEF7A1FFDDE95A
:102DF000032102208DE8070000230AA10B48059A51
:102E0000FFF727FEE06010B106B0012010BD502092
:102E100080F31188BFF34F8FBFF36F8FFEE7000081
:102E200058000020546D722053766300491B00083F
:102E30002DE9FF411E46134602000A9D4FF0000097
:102E400016D0144CA768002F0FD0CDE900130292C2
:102E5000062917DAFFF72EFE02284FF000030FD0E5
:102E600000226946A068FFF7E7FA04B0BDE8F081E8
:102E7000502080F31188BFF34F8FBFF36F8FFEE7B1
:102E80002A46EEE70023324669463846FFF784FBC0
:102E9000EBE7000058000020202F00080000000091
:102EA0000000000000000000142F000800000000D7
:102EB0000000000000000000000000008000000092
:102EC000180000000000000000000000082F0008AB
:102ED00000000000000000000000000000000000F2
:102EE000800000000800000000000000000000005A
:102EF00000000000000000000102030406070809AA
:102F000000000000010203046D795461736B3032DC
:102F10000000000064656661756C745461736B0039
:102F2000756172744D757465780000004C2F00084F
:102F300000000020940000002E110008E02F00087F
:102F400094000020144D00003E1100080000000015
:102F50000000000000000000010000001000000060
:102F6000000000000024F400000000000000000049
:102F70000000000000000000000000000000000051
:102F80000000000000000000000000000000000041
:102F90000000000000000000000000000000000031
:102FA0000000000000000000000000000000000021
:102FB0000000000000000000000000000000000011
:102FC0000000000000000000000000000000000001
:102FD0000000000000000000AAAAAAAA0000000049
:040000050800018965
:00000001FF
