:020000040800F2
:10000000180500209D0100082F120008ED100008BF
:100010002D120008A9020008E115000800000000E8
:100020000000000000000000000000005112000865
:10003000AB02000800000000311200085312000853
:10004000B7010008B7010008B7010008B7010008B0
:10005000B7010008B7010008AD020008B3020008AC
:10006000B7010008B7010008B7010008B701000890
:10007000B7010008B7010008B7010008B701000880
:10008000B7010008B7010008B7010008B701000870
:10009000B7010008B7010008B7010008B701000860
:1000A000B7010008B7010008B7010008B701000850
:1000B000B7010008B7010008B7010008B701000840
:1000C000B7010008B7010008B701000835120008A1
:1000D000B7010008B7010008B7010008B701000820
:1000E000B7010008B7010008B7010008B701000810
:1000F000B7010008B7010008B7010008B701000800
:10010000B7010008B7010008B7010008B7010008EF
:10011000B7010008B7010008B7010008B7010008DF
:10012000B7010008B7010008B7010008B7010008CF
:10013000B7010008B7010008B7010008B7010008BF
:10014000B7010008B7010008B7010008B7010008AF
:10015000B7010008B7010008B7010008B70100089F
:10016000B7010008B7010008B7010008B70100088F
:10017000B7010008B7010008B7010008000000003F
:10018000B7010008B7010008DFF80CD000F07AF8DA
:10019000004800472116000818050020064880473F
:1001A00006480047FEE7FEE7FEE7FEE7FEE7FEE75C
:1001B000FEE7FEE7FEE7FEE7E1120008890100081E
:1001C0002DE9F05F0546002092469B46884606468C
:1001D000814640241BE0284641464746224600F01F
:1001E00041F853465A46C01A914110D31146184659
:1001F000224600F028F82D1A67EB01084F462246E8
:100200000120002100F01FF817EB00094E41201ECD
:10021000A4F10104DFDC484631462A464346BDE8E6
:10022000F09FD2B201E000F8012B491EFBD27047CB
:100230000022F6E710B513460A4604461946FFF7B2
:10024000F0FF204610BD202A04DB203A00FA02F11C
:10025000002070479140C2F1200320FA03F31943B4
:1002600090407047202A04DB203A21FA02F0002156
:10027000704721FA02F3D040C2F1200291400843B6
:1002800019467047064C074D06E0E06840F0010350
:1002900094E8070098471034AC42F6D3FFF778FF94
:1002A0002417000844170008FEE77047012000F0FB
:1002B0007FB9022000F07CB9002229B101291AD0AF
:1002C00002291BD04FF440720E490B6823F440738F
:1002D0000B600B6813430B600A6822F0F8020A6097
:1002E0000A68022303EBC00002430A60086840F476
:1002F0008030086070474FF48072E5E74FF4007279
:10030000E2E70000103C0240064A136823F4407301
:10031000136013681360136843F0010313600170E6
:1003200070470000103C0240084910B50C6824F4E6
:1003300040740C600C6844F440740C600C6844F029
:1003400001040C600260436010BD0000103C0240DC
:10035000074A136823F440731360136843F48073EF
:100360001360136843F001031360018070470000BD
:10037000103C0240074A136823F44073136013686B
:1003800043F400731360136843F0010313600160CA
:1003900070470000103C024017490868C206174821
:1003A00005D5C26942F01002C26110220A600A68D3
:1003B000920605D5C26942F00802C26120220A6095
:1003C0000A68520605D5C26942F00402C2614022A1
:1003D0000A600A68120605D5C26942F00202C261CB
:1003E00080220A600A68920705D5C26942F020029D
:1003F000C2610220086070470C3C0240F8000020F7
:1004000070B5114904460020C86100F0C1F90646E4
:100410000E4D09E0601C07D024B100F0B9F9801B33
:10042000A04201D9032070BD2868C003F2D4286817
:10043000C00701D001202860286810F0F200F2D037
:10044000FFF7AAFF012070BDF80000200C3C02401D
:1004500090F83510022903D08021416501207047B2
:10046000052180F835100068016821F00101016064
:100470000020704770B5044600F08AF90546601CFC
:1004800002D004480078044400F082F9401BA042E6
:10049000FAD370BD040000200348016841F0004118
:1004A0000160002070470000103C02402DE9F04739
:1004B0001B4E05461446307E1F468946012808D04B
:1004C000012030764CF250384046FFF799FF18B1C2
:1004D00014E00220BDE8F0879DB1012D16D0022D59
:1004E00019D022463B464846FFF71EFF4046FFF71D
:1004F00087FF0C490A6822F001020A600021317668
:10050000E8E7E1B24846FFF7FFFEEFE7A1B2484651
:10051000FFF71EFFEAE721464846FFF72BFFE5E716
:10052000F8000020103C0240074900200A68002A19
:1005300009DA054A054B0C3A1360054B136009684C
:10054000002900DA01207047103C02402301674572
:10055000AB89EFCD70B51349134A144C01F1580320
:10056000012813D002281BD1D2E90002C1E91602EA
:100570000120986003225831002001F09BF80122ED
:1005800011032046BDE8704000F0FDB892E8290054
:100590005831012D81E8290002D101229103F0E7B1
:1005A00070BD00009400002000000E08000C024006
:1005B000044910B50A68024202D00860FFF7CAFF7A
:1005C00010BD0000143C01402DE9F84FDFF87CB16C
:1005D00000224FF001084FF0030A4FF00F090BF112
:1005E000040E00BF0B6808FA02F42340A3426ED148
:1005F0004D68022D01D0122D0ED1D50800EB850CCF
:10060000DCF820505607F70E09FA07F6B5430E69D5
:10061000BE402E43CCF82060066855000F790AFAD8
:1006200005FC07F0030726EA0C06AF4037430760D6
:100630004E68012E05D0022E03D0112E01D0122EAD
:100640000ED18668CF6826EA0C06AF403743876034
:100650004668A6430C79C4F30014944034434460C4
:10066000C6688C6826EA0C06AC403443C4604C680B
:10067000E40065D5364C256845F48045256024683E
:1006800022F0030504F480440094324C2E19D6F86D
:10069000084895072F0F09FA07F5AC432E4DA842DD
:1006A00001D1002524E02D4DA84201D101251FE0F4
:1006B0002B4DA84201D102251AE02A4DA84201D1B2
:1006C000032515E0284DA84202D1042510E037E0AB
:1006D000264DA84201D105250AE0254DA84201D1A9
:1006E000062505E0234DA84201D1072500E0082595
:1006F000BD402543C6F80858DBF800405D464E680B
:100700009C43F60300D51C432C60DEF80040754680
:100710004E689C43B60300D51C432C600B4D083536
:100720002C684E689C43F60200D51C432C60074D94
:100730000C352C684E689C43B60200D51C432C60D7
:10074000521C102AFFF44EAFBDE8F88F003C014068
:1007500044380240003001400000024000040240E2
:1007600000080240000C0240001002400014024049
:1007700000180240001C0240426931EA020200D126
:100780000904816170470AB1816170470904FBE780
:10079000014880687047000004000020024881681A
:1007A0000278114481607047040000200B4810B5A6
:1007B000016841F400710160016841F480610160E9
:1007C000016841F480710160032000F06FF800209F
:1007D00000F006F800F024F8002010BD003C0240B4
:1007E00070B50D4D04464FF47A712878B1FBF0F0E6
:1007F0000A490968B1FBF0F000F0DEFB48B9102CA3
:1008000007D200222146501E00F030F800206C6014
:1008100070BD012070BD0000040000201000002009
:100820000A4808B5016841F480410160006800F49D
:10083000804000900548001F016841F08051016030
:10084000006800F08050009008BD0000443802406D
:10085000002809DB00F01F020121914040098000BF
:1008600000F1E020C0F8001170470000F0B40E4B1A
:100870001B680C46C3F30223C3F10705042D00D9FE
:100880000425191D072901D2002300E0DB1E0126E3
:1008900006FA05F1491E214099409E40761E1640F9
:1008A0003143F0BC00F09DBE0CED00E0064900F0C5
:1008B000070208684FF6FF03184040EA0220034A87
:1008C00010430860704700000CED00E00000FA05DE
:1008D0002DE9F0470E46050065D0DFF81481D8F801
:1008E0000000F7B200F00F00B04207D288F80070A5
:1008F000D8F8000000F00F00B04254D128683D4CF9
:10090000810712D5400703D5206840F4E0502060ED
:100910002878000703D5206840F4604020602068F4
:10092000A96820F0F000084320602878C0072DD087
:10093000304968680839012812D0022813D00328EA
:1009400011D00968890700292DDA216821F00301F7
:1009500001432160FFF71CFF814641F2883A0EE017
:1009600009688903EFE709688901ECE7FFF710FFE1
:10097000A0EB0901514502D90320BDE8F0872068AA
:10098000696800F00C00B0EB810FEFD1D8F80010CF
:10099000404601F00F01B14207D90770006800F02E
:1009A0000F00B04201D00120E7E72878400705D5C5
:1009B0002068E96820F4E0500843206028780007A8
:1009C00006D52068296920F4604040EAC100206013
:1009D00000F036F82168084AC1F30311515CC840A1
:1009E000064908600020FFF7FBFE0020C5E7000075
:1009F000003C0240083802400C170008100000209C
:100A00000448054900680968044AC1F38221515C21
:100A1000C840704710000020083802401C1700082A
:100A20000448054900680968044AC1F34231515C31
:100A3000C840704710000020083802401C1700080A
:100A4000154810B5006810F00C02144813D0144972
:100A5000042A0FD0082A0ED10F4C241F22682368C5
:100A600002F03F025B0207D52068C0F38810A0FBAC
:100A7000010106E0084610BD2168C1F38811A1FB01
:100A800000010023FFF79CFB2168C1F30141491CD1
:100A90004900B0FBF1F010BD083802400024F4001A
:100AA00040787D012DE9F84F050076D02878DFF8F1
:100AB000F8B2BE4CC00749D0DBF800105846C1F36D
:100AC0008101012908D00068C0F3810002280AD101
:100AD000201D0068400206D52068800336D568686E
:100AE0000028E2D032E06868B0F5803F10D0B0F561
:100AF000A02F206810D020F480302060206820F4DF
:100B0000802020606868A0B1FFF742FE06460CE036
:100B1000206840F48030F4E740F480202060F7E75C
:100B2000FFF736FE801B642873D820688003F7D552
:100B30000CE0FFF72DFE064605E000BFFFF728FE9C
:100B4000801B6428F0D820688003F7D42878DFF869
:100B5000608280074FF000093ED5DBF80010584650
:100B600011F00C0F09D00068C0F3810002280BD1EE
:100B70008D48001F0068400206D42068800715D504
:100B8000E868012809D111E0E868B8B10120C8F887
:100B90000000FFF7FDFD064605E002E1FFF7F8FD66
:100BA000801B0228C0D820688007F7D520682969F3
:100BB00020F0F80040EAC10020600DE0C8F8009085
:100BC000FFF7E6FD064604E0FFF7E2FD801B022882
:100BD0001FD820688007F7D42878000722D5724EE6
:100BE000744869696C3671B101210160FFF7D0FD6D
:100BF000074604E0FFF7CCFDC01B022809D8306887
:100C00008007F7D50EE0C0F80090FFF7C1FD07465A
:100C100005E083E0FFF7BCFDC01B02287ED83068EA
:100C20008007F7D42878400768D5DFF87CA1002733
:100C30000AF1380ADAF80000C0000BD4DAF8001024
:100C400041F08051CAF80010DAF80000012700F0E6
:100C500080500090584E3068C00510D4306840F481
:100C600080703060FFF794FD009005E0FFF790FD85
:100C70000099401A022851D83068C005F6D54A4E6E
:100C8000A868683601280FD00528306810D020F0F9
:100C900001003060306820F004003060A868B8B10E
:100CA000FFF776FD00900FE0306840F00100F4E7B8
:100CB00040F004003060F7E7FFF76AFD0099411A41
:100CC00041F28830814264D830688007F4D50EE064
:100CD000FFF75EFD009007E0FFF75AFD0099411A0B
:100CE00041F28830814254D830688007F4D42FB163
:100CF000DAF8001021F08051CAF80010A869C0B3DA
:100D0000DBF80010C1F3810102294AD002284846CD
:100D100007D0C8F86000FFF73BFD00E039E005466A
:100D20003AE04746C8F86000FFF732FD064604E0A7
:100D3000FFF72EFD801B02282BD820688001F7D4F6
:100D4000D5E907010843A96A1C4A490802EB014199
:100D50006A6A41EA8211084395F82C1040EA016161
:100D60001148001F016001203866FFF711FD05469C
:100D700005E014E0FFF70CFD401B022809D82068AD
:100D80008001F7D50BE000BFFFF702FD401B0228F2
:100D900002D90320BDE8F88F20688001F4D4002038
:100DA000F8E70120F6E7000008380240003802406A
:100DB00000004742800E4742007000400000FFFFE5
:100DC0007047000038B5016804464A688868C04327
:100DD000430606D5C30704D1D3435B0601D4216C77
:100DE00005E0830708D4D3431B0605D4616C01B02A
:100DF0002046BDE830400847830603D5430601D5A9
:100E0000C30551D4D3439B064ED443060AD494F869
:100E10005130032B49D0636D43F004036365CB6805
:100E20008B680093830609D4636D43F00103636507
:100E30008B6800930B6823F040030B60C00506D459
:100E4000606D40F008006065206880680090606D0B
:100E5000002829D02068416821F0E001416001208C
:100E600084F85100900701D4D00722D0206841684F
:100E700021F003014160114DE06C40B10565E06C6B
:100E8000FFF7E6FA18B1606D40F040006065A06CB5
:100E9000002809D00565A06CFFF7DAFA002803D016
:100EA000606D40F04000606538BDC868886800909B
:100EB00038BD2046FFF784FF38BD0000411200080E
:100EC00070B5040005D00025A56294F8510010B15A
:100ED00006E0012070BD84F85050204600F030F844
:100EE000022084F851002068016821F0400101606F
:100EF000D4E901010843D4E90312114308436169AD
:100F00000843218B01F400710843E1690843216A19
:100F10000843A16A084321680860A069042101EA26
:100F20001040616A0843216848602068C16921F463
:100F30000061C1616565012084F85100002070BD29
:100F400010B586B0044614216846FFF771F91749B9
:100F50002068884228D116480021026842F4805255
:100F60000260006800F4805005901148143802684F
:100F700042F001020260006800F001000590E020EC
:100F800000900220CDE90101032003900520049088
:100F900069460848FFF718FB002211462320FFF797
:100FA00065FC2320FFF754FC06B010BD0030014063
:100FB000443802400000024010B5401EB0F1807F6E
:100FC00001D3012010BD4FF0E02460610F216017B4
:100FD00000F007FB0020A06107202061002010BD69
:100FE00070B5040004D094F83900002510B106E073
:100FF000012070BD84F83850204600F023F82420EA
:1010000084F839002068C16821F40051C16020468D
:1010100000F090F92068016921F490410161206895
:10102000416921F02A0141612068C16841F4005101
:10103000C160E563202084F8390084F83A0000207C
:1010400070BD000030B587B0044614216846FFF734
:10105000EFF8214D21682148022201230324A942EF
:1010600019D11E4910310D6845F400350D6009682D
:1010700001F400310591016841F00101016000684F
:10108000694600F0010005900C208DE81D00072046
:10109000049013481BE0134DA9421AD10F49143193
:1010A0000D6845F020050D60096801F020010591EB
:1010B000016841F0040101600068694600F0040025
:1010C0000590C0208DE81D00082004900648FFF719
:1010D0007BFA07B030BD00000044004030380240C9
:1010E000000002400014014000080240FEE700003A
:1010F0002DE9F04186B014216846FFF799F837488A
:101100000024016841F010010160016801F0100144
:101110000591016841F001010160016801F00101E0
:101120000591016841F002010160016801F00201CE
:101130000591016841F008010160016801F00801B2
:101140000591016841F0040101600068244E00F03F
:1011500004000590012208213046FFF714FBDFF858
:1011600084804FF47047002239464046FFF70BFB5E
:10117000082000900125CDE90154694630460394CA
:10118000FFF722FA184E0095CDE901646946174829
:10119000FFF71AFA0220CDE90006694602941448C6
:1011A000FFF712FA0097CDE90154694640460394CF
:1011B000FFF70AFA002211460620FFF757FB062028
:1011C000FFF746FB002211460720FFF74FFB0720E1
:1011D000FFF73EFB06B0BDE8F0810000303802406A
:1011E00000100240000C02400000111000000240FC
:1011F000000402400C480B494FF4007201604FF4A8
:101200008271416000218160C1600161C0E9051205
:101210001022C0E90721416281620A21C162FFF701
:101220004FBE00000030014014000020FEE7704770
:10123000704700000148FFF7C5BD00001400002002
:1012400010B5806B0021C187C186FFF7B9FD10BDC5
:101250007047FFF7A3BA000030B593B0302168465D
:10126000FEF7E6FF14210CA8FEF7E2FF1A4800255E
:10127000016841F080510160006800F080501190D9
:101280001648016841F4804101600068022400F4BE
:101290008040119001200390102004900094069447
:1012A0000820CDE907503220099004200A900B90C5
:1012B0006846FFF7F7FB0CA90F2081E831004FF4D7
:1012C000C0500F904FF4A050109000210CA8FFF7D1
:1012D000FFFA13B030BD00004038024000700040FB
:1012E0001048016841F4700101600F48016841F045
:1012F000010101600C4A00210832116002680B4BA9
:101300001A400260031D0A4A1A60026822F4802211
:10131000026005480C3001600249580680390860B7
:101320007047000088ED00E000380240FFFFF6FE45
:10133000103000242DE9F041044600680169E2689C
:1013400021F44051114301612169A068E269084319
:101350006169114322680843D16849F20C639943DB
:101360000143D16020684169A26921F440711143B1
:101370004161E2696425B2F5004F974897492268B8
:101380004FF032083FD08A4201D082427CD1FFF731
:1013900047FB00EBC00101EB001061688900B0FB66
:1013A000F1F6FFF73DFB00EBC00101EB00106168B7
:1013B0008900B0FBF1F0B0FBF5F06FF01801484385
:1013C00006EB800108EB0110B0FBF5F000F0F00631
:1013D000FFF726FB00EBC00101EB001061688900FC
:1013E000B0FBF1F0B0FBF5F006EB0016FFF718FBD1
:1013F00000EBC00101EB001061688900B0FBF1F760
:10140000FFF70EFBD2E08A4201D082423DD1FFF7C6
:1014100007FB00EBC00101EB001061684900B0FB65
:10142000F1F0B0FBF5F00601FFF7FAFA00EBC001AE
:1014300001EB001061684900B0FBF1F7FFF7F0FA2B
:1014400000EBC00101EB001061684900B0FBF1F056
:10145000B0FBF5F06FF01801484307EB800108EB93
:10146000C100B0FBF5F000F0F80006EB4006FFF716
:10147000D7FA00EBC00101EB001061684900B0FB36
:10148000F1F7FFF7CDFA3CE055E0FFF7B9FA00EBD2
:10149000C00101EB001061684900B0FBF1F0B0FB46
:1014A000F5F00601FFF7ACFA00EBC00101EB00100C
:1014B00061684900B0FBF1F7FFF7A2FA00EBC00149
:1014C00001EB001061684900B0FBF1F0B0FBF5F0F2
:1014D0006FF01801484307EB800108EBC100B0FB37
:1014E000F5F000F0F80006EB4006FFF789FA00EB94
:1014F000C00101EB001061684900B0FBF1F7FFF794
:101500007FFA00EBC00101EB001061684900B0FBFD
:10151000F1F0B0FBF5F06FF01801484307EB8001E4
:1015200008EBC100B0FBF5F000F007002168304483
:101530008860BDE8F081FFF763FA00EBC00101EBC2
:10154000001061688900B0FBF1F6FFF759FA00EB73
:10155000C00101EB001061688900B0FBF1F0B0FB45
:10156000F5F06FF01801484306EB800108EB01101D
:10157000B0FBF5F000F0F006FFF742FA00EBC00117
:1015800001EB001061688900B0FBF1F0B0FBF5F0F1
:1015900006EB0016FFF734FA00EBC00101EB001078
:1015A00061688900B0FBF1F7FFF72AFA00EBC00190
:1015B00001EB001061688900B0FBF1F0B0FBF5F0C1
:1015C0006FF01801484307EB800108EB0110B0FBF6
:1015D000F5F000F00F00A9E70014014000100140F1
:1015E000FEE70907090E002804DB00F1E02080F87F
:1015F0000014704700F00F0000F1E02080F8141D87
:10160000704702E008C8121F08C1002AFAD17047CB
:101610007047002001E001C1121F002AFBD1704772
:101620001F481E49002401601E49C0E901140146FB
:101630000322204600F03EF8FFF7B8F8FFF70CFE53
:10164000FFF756FDFFF7D6FD1548174980384FF4D0
:10165000E1350160C0E901540C26C460C0E90446CC
:101660008461C461FFF7BCFC0D481049403801603B
:10167000C0E90154C460C0E904468461C461FFF755
:10168000AFFC0B4D4FF400544FF4FA762146284638
:10169000FFF772F83046FEF7EDFEF7E7008000082E
:1016A000EC0000200000010800440040001401404C
:1016B000000C02402DE9F0410E461249174645182C
:1016C000FEF732FF02210B20FEF7F6FDFEF7E4FEE7
:1016D000FEF72AFF0024DFF830800CE056F82410D3
:1016E000C8F8001056F82420002329460220FEF7EF
:1016F000DDFE641C2D1DBC42F0D3BDE8F041FEF7B9
:10170000CBBE000000000E0800000020000000001A
:1017100000000000010203040607080900000000A1
:101720000102030444170008000000201400000018
:1017300002160008581700081400002004050000D5
:101740001216000800000000010000001000000058
:08175000000000000024F40079
:040000050800018965
:00000001FF
