:020000040800F2
:10000000604E00206D020008BF1400083114000883
:10001000BD1400089D030008951A000800000000A8
:10002000000000000000000000000000AD0100081A
:100030005104000800000000090200083115000802
:10004000870200088702000887020008870200086C
:10005000870200088702000853040008870200088E
:10006000870200088702000887020008870200084C
:10007000870200088702000887020008870200083C
:10008000A1030008870200088702000800000000A2
:1000900000000000000000000000000087020008CF
:1000A000870200082116000887020008870200085E
:1000B00087020008870200088702000887020008FC
:1000C00087020008870200088702000887020008EC
:1000D000870200088702000887020008000000006D
:1000E000870200088702000887020008000000005D
:1000F000000000000000000000000000870200086F
:10010000000000008702000887020008870200083C
:1001100000000000000000000000000000000000DF
:10012000870200088702000887020008870200088B
:10013000870200080000000000000000000000002E
:10014000000000000000000000000000870200081E
:10015000870200088702000887020008870200085B
:10016000870200088702000800000000000000006D
:10017000000000000000000000000000000000007F
:1001800000000000870200080000000000000000DE
:100190008702000887020008DFF80CD000F0ECF8B6
:1001A00000480047D51A0008604E00202C4B196803
:1001B0000868B0E8F04F80F30988BFF36F8F4FF005
:1001C000000080F3118870470000000008480068B4
:1001D000006880F308884FF0000080F3148862B64E
:1001E00061B6BFF34F8FBFF36F8F00DF00BF00BF5B
:1001F00008ED00E0DFF80C00016841F470010160D7
:10020000704700BF88ED00E0EFF30980BFF36F8F08
:10021000134B1A681EF0100F08BF20ED108A20E95A
:10022000F04F106009B44FF0500080F31188BFF315
:100230004F8FBFF36F8F02F06BFC4FF0000080F325
:10024000118809BC19680868B0E8F04F1EF0100F5B
:1002500008BFB0EC108A80F30988BFF36F8F704736
:1002600024000020EFF30580704700000648804717
:1002700006480047FEE7FEE7FEE7FEE7FEE7FEE78B
:10028000FEE7FEE7FEE7FEE7CD150008990100084E
:100290002DE9F05F0546002092469B4688460646BB
:1002A000814640241BE0284641464746224600F04E
:1002B00053F853465A46C01A914110D31146184676
:1002C000224600F03AF82D1A67EB01084F46224605
:1002D0000120002100F031F817EB00094E41201EEB
:1002E000A4F10104DFDC484631462A464346BDE816
:1002F000F09F40EA01039B0703D009E008C9121FE1
:1003000008C0042AFAD203E011F8013B00F8013BCF
:10031000521EF9D27047D2B201E000F8012B491EFB
:10032000FBD270470022F6E710B513460A46044692
:100330001946FFF7F0FF204610BD202A04DB203AC3
:1003400000FA02F1002070479140C2F1200320FA28
:1003500003F3194390407047202A04DB203A21FA26
:1003600002F00021704721FA02F3D040C2F12002CE
:100370009140084319467047064C074D06E0E06877
:1003800040F0010394E8070098471034AC42F6D3DC
:10039000FFF706FFD0370008F0370008FEE700003F
:1003A000014800F05BB80000E80000200168182355
:1003B000CAB2103AB2FBF3F2054B6FF30901032AFC
:1003C0009B5CC36500D9091D816508467047000024
:1003D0009837000810B5014600208B698A6A4FF0F3
:1003E000C07453B1B3F5005F15D072B1012A0CD0BF
:1003F000022A0AD0032A09D104E01AB1012A06D040
:10040000022A03D1C96AC90100D5012010BDC96AF9
:10041000A142FAD010BD002AF7D0012AF2D0022A58
:10042000F3D0032AF3D010BD30B50468256825F455
:1004300080252560046863608368402B036803D0CF
:1004400099600068C26030BD9A600068C16030BDCC
:100450007047012000F090B9704700002DE9F84383
:1004600004464FF00009CDF8009063484FF4165150
:10047000A56D0068B0FBF1F72E6894F85C100820B9
:1004800000FA01F131420FD021680A6852070BD5FA
:100490000A6822F004020A6094F85C108840A860A0
:1004A000606D40F00100606594F85C104FF0010849
:1004B00008FA01F0304208D021684969090604D5DC
:1004C000A860606D40F00200606594F85C10042044
:1004D0008840304208D021680968890704D5A8609F
:1004E000606D40F00400606594F85C101020884056
:1004F000304218D021680968090714D5A86020681F
:100500000168490304D50068000308D5A16C07E021
:100510000168C90503D4016821F008010160216C5C
:1005200009B12046884794F85C102020884030426A
:1005300031D021680968C9062DD5A86094F8350026
:1005400005282068016806D0490347D500680003E4
:100550001DD4616C1CE021F0160101602068416926
:1005600021F080014161206C08B9A06C20B12068A5
:10057000016821F00801016094F85C103F20884078
:10058000A86084F8349084F83580216D1FE0E16B19
:1005900009B120468847606D00282BD0606DC007E8
:1005A00014D0052084F835002068016821F001018D
:1005B00001600098401C0090B84203D82068006891
:1005C000C007F6D184F8349084F83580E16C0029B6
:1005D00010D001B02046BDE8F04308470168C905C6
:1005E000D5D4016821F01001016084F8349084F8BA
:1005F0003580CCE7BDE8F883200000202DE9F041EC
:10060000044600F095F906465CB1002584F83450A4
:10061000022084F835002068016821F001010160A2
:100620000DE00120BDE8F08100F082F9801B052873
:1006300005D920206065032084F83500F2E72068A2
:100640000068C007F0D12268116820480140D4E951
:1006500001031843D4E9033633431843636918434D
:10066000A3691843E3691843236A18430843616A7E
:10067000042903D1D4E90B131943084310602068FF
:100680004069666A20F0070130460E4301270428BE
:100690000CD1A06A0643E06A40B12046FFF79AFEFB
:1006A00020B14020606584F83570BAE72068466163
:1006B0002046FFF77BFE94F85C203F21914081604B
:1006C000656584F835700020ACE700003F8010F0CD
:1006D0002DE9F0410446866D90F83400002501288C
:1006E0000DD0012084F8340094F835700020012FDB
:1006F00007D084F8340002252846BDE8F0810220A6
:10070000FBE7022784F8357060652046FFF78CFE12
:1007100094F85C103F208840B0602068016841F088
:10072000160101602068416941F080014161206C3F
:1007300020B12068016841F008010160206801686B
:1007400041F001010160D7E700210220401C64282C
:10075000FCDB491C6429F8DB06490A780846C068B6
:1007600022B100220A70022101F050BA01220A705F
:100770001146F9E700000020044910B50A6802425A
:1007800002D00860FFF7E0FF10BD0000143C0140FC
:100790002DE9F84FDFF860B100224FF001084FF06B
:1007A000030A4FF00F090BF1040E00BF0B6808FAA3
:1007B00002F42340A3426ED14D68022D01D0122DC8
:1007C0000ED1D50800EB850CDCF820505607F70E4B
:1007D00009FA07F6B5430E69BE402E43CCF82060F7
:1007E000066855000F790AFA05FC07F0030726EAA8
:1007F0000C06AF40374307604E68012E05D0022E2D
:1008000003D0112E01D0122E0ED18668CF6826EAB1
:100810000C06AF40374387604668A6430C79C4F3A3
:100820000014944034434460C6688C6826EA0C0681
:10083000AC403443C4604C68E40056D52F4C256866
:1008400045F480452560246822F0030504F48044C3
:1008500000942B4C2E19D6F8084895072F0F09FA4B
:1008600007F5AC43274DA84201D1002515E0264DE0
:10087000A84201D1012510E0244DA84201D1022552
:100880000BE0234DA84201D1032506E0214DA842EB
:1008900002D1042501E028E00725BD402543C6F824
:1008A0000858DBF800405D464E689C43F60300D5CF
:1008B0001C432C60DEF8004075464E689C43B6032E
:1008C00000D51C432C600C4D08352C684E689C43A9
:1008D000F60200D51C432C60074D0C352C684E6881
:1008E0009C43B60200D51C432C60521C102AFFF416
:1008F0005DAFBDE8F88F0000003C01404438024085
:1009000000300140000002400004024000080240A4
:10091000000C024000100240426931EA020200D19C
:100920000904816170470AB1816170470904FBE7DE
:100930000148806870470000140000200248816868
:100940000278114481607047140000200B4810B5F4
:10095000016841F400710160016841F48061016047
:10096000016841F480710160032000F08DF80020DF
:1009700000F006F800F03EF8002010BD003C0240F8
:1009800010B5014688B00022192000F05DF819204A
:1009900000F04CF813480024016841F001010160A7
:1009A000006805A900F001000690684600F016F9FD
:1009B00000F044F90C490D4AB0FBF1F10C48491E16
:1009C000026040F2E732C0E90324C0E9011400F0FC
:1009D00007FB10B1012008B010BD054800F01CFB5A
:1009E000F9E700004438024040420F000000014097
:1009F000480100200C4882B0016841F48041016048
:100A0000006800F4804000900748001F016841F032
:100A1000805101600068002200F0805000900F219A
:100A2000901E02B000F010B844380240002809DBE4
:100A300000F01F02012191404009800000F1E020F8
:100A4000C0F8001170470000F0B40E4B1B680C4654
:100A5000C3F30223C3F10705042D00D90425191D92
:100A6000072901D2002300E0DB1E012606FA05F16A
:100A7000491E214099409E40761E16403143F0BCED
:100A800001F009B80CED00E0064900F00702086823
:100A90004FF6FF03184040EA0220034A1043086063
:100AA000704700000CED00E00000FA052DE9F0476A
:100AB0000E46050065D0DFF81481D8F80000F7B2C3
:100AC00000F00F00B04207D288F80070D8F800009C
:100AD00000F00F00B04254D128683D4C810712D578
:100AE000400703D5206840F4E050206028780007D4
:100AF00003D5206840F4604020602068A96820F099
:100B0000F000084320602878C0072DD0304968687D
:100B10000839012812D0022813D0032811D00968FF
:100B2000890700292DDA216821F0030101432160A2
:100B3000FFF7FEFE814641F2883A0EE0096889031C
:100B4000EFE709688901ECE7FFF7F2FEA0EB090186
:100B5000514502D90320BDE8F0872068696800F09C
:100B60000C00B0EB810FEFD1D8F80010404601F037
:100B70000F01B14207D90770006800F00F00B042C2
:100B800001D00120E7E72878400705D52068E9680B
:100B900020F4E050084320602878000706D520683C
:100BA000296920F4604040EAC100206000F056F856
:100BB0002168084AC1F30311515CC8400649086026
:100BC0000020FFF7DDFE0020C5E70000003C0240EA
:100BD00008380240A0370008200000200F220260E1
:100BE0000C4A136803F003034360136803F0F00337
:100BF0008360136803F4E053C36012684FF4E0535A
:100C000003EAD20202610448006800F00F000860A5
:100C10007047000008380240003C02400448054983
:100C200000680968044AC1F38221515CC8407047DA
:100C30002000002008380240B03700080448054969
:100C400000680968044AC1F34231515CC8407047EA
:100C50002000002008380240B0370008154810B5C1
:100C6000006810F00C02144813D01449042A0FD065
:100C7000082A0ED10F4C241F2268236802F03F027D
:100C80005B0207D52068C0F38810A0FB010106E0D5
:100C9000084610BD2168C1F38811A1FB00010023A3
:100CA000FFF7F6FA2168C1F30141491C4900B0FB86
:100CB000F1F010BD083802400024F40040787D01B6
:100CC0002DE9F84F050076D02878DFF8F8B2BE4C51
:100CD000C00749D0DBF800105846C1F38101012953
:100CE00008D00068C0F3810002280AD1201D0068E6
:100CF000400206D52068800336D568680028E2D017
:100D000032E06868B0F5803F10D0B0F5A02F2068C1
:100D100010D020F480302060206820F480202060F3
:100D20006868A0B1FFF704FE06460CE0206840F4B6
:100D30008030F4E740F480202060F7E7FFF7F8FD0B
:100D4000801B642873D820688003F7D50CE0FFF778
:100D5000EFFD064605E000BFFFF7EAFD801B6428B3
:100D6000F0D820688003F7D42878DFF86082800705
:100D70004FF000093ED5DBF80010584611F00C0F7B
:100D800009D00068C0F3810002280BD18D48001FF4
:100D90000068400206D42068800715D5E86801285D
:100DA00009D111E0E868B8B10120C8F80000FFF7E8
:100DB000BFFD064605E002E1FFF7BAFD801B0228F1
:100DC000C0D820688007F7D52068296920F0F8008E
:100DD00040EAC10020600DE0C8F80090FFF7A8FDD0
:100DE000064604E0FFF7A4FD801B02281FD82068F8
:100DF0008007F7D42878000722D5724E74486969B5
:100E00006C3671B101210160FFF792FD074604E0E5
:100E1000FFF78EFDC01B022809D830688007F7D580
:100E20000EE0C0F80090FFF783FD074605E083E081
:100E3000FFF77EFDC01B02287ED830688007F7D4FC
:100E40002878400768D5DFF87CA100270AF1380A26
:100E5000DAF80000C0000BD4DAF8001041F080513D
:100E6000CAF80010DAF80000012700F08050009066
:100E7000584E3068C00510D4306840F4807030603F
:100E8000FFF756FD009005E0FFF752FD0099401A6C
:100E9000022851D83068C005F6D54A4EA868683691
:100EA00001280FD00528306810D020F001003060F4
:100EB000306820F004003060A868B8B1FFF738FD52
:100EC00000900FE0306840F00100F4E740F00400CB
:100ED0003060F7E7FFF72CFD0099411A41F28830A6
:100EE000814264D830688007F4D50EE0FFF720FD1A
:100EF000009007E0FFF71CFD0099411A41F288308D
:100F0000814254D830688007F4D42FB1DAF8001049
:100F100021F08051CAF80010A869C0B3DBF80010B6
:100F2000C1F3810102294AD00228484607D0C8F8F7
:100F30006000FFF7FDFC00E039E005463AE0474677
:100F4000C8F86000FFF7F4FC064604E0FFF7F0FC89
:100F5000801B02282BD820688001F7D4D5E907012F
:100F60000843A96A1C4A490802EB01416A6A41EA3E
:100F70008211084395F82C1040EA01611148001FC6
:100F8000016001203866FFF7D3FC054605E014E058
:100F9000FFF7CEFC401B022809D820688001F7D556
:100FA0000BE000BFFFF7C4FC401B022802D903205E
:100FB000BDE8F88F20688001F4D40020F8E7012014
:100FC000F6E70000083802400038024000004742BF
:100FD000800E4742007000400000FFFF70477047DE
:100FE00010B5040003D094F83D0010B107E00120D3
:100FF00010BD002084F83C00204600F00CF80220D0
:1010000084F83D00211D206800F010FB012084F8C9
:101010003D00002010BD70470168CA6842F001021F
:10102000CA600068816801F00701062903D00168E1
:1010300041F00101016000207047704770B504461F
:10104000006801694FF00005C943890715D4C168DC
:10105000C943890711D4E91E016101202077206866
:1010600080698007204602D0FFF7E7FF04E000F028
:1010700098F8204600F096F8257720680169C94362
:10108000490717D4C168C943490713D46FF0040155
:101090000161022020772068806910F4407F20469B
:1010A00002D0FFF7CAFF04E000F07BF8204600F012
:1010B00079F8257720680169C943090716D4C16802
:1010C000C943090712D46FF0080101610420207799
:1010D0002068C0698007204602D0FFF7AEFF04E019
:1010E00000F05FF8204600F05DF825772068016980
:1010F000C943C90617D4C168C943C90613D46FF0E0
:1011000010010161082020772068C06910F4407F39
:10111000204602D0FFF791FF04E000F042F820469D
:1011200000F040F8257720680169C943C90708D154
:10113000C168C943C90704D1891E0161204600F076
:1011400033F820680169C943090609D4C168C94355
:10115000090605D46FF0800101612046FFF73EFFCC
:1011600020680169C943490609D4C168C9434906D1
:1011700005D46FF040010161204600F01FF820689F
:101180000169C94389060BD4C168C943890607D4DC
:101190006FF0200101612046BDE87040FFF71FBFDE
:1011A00070BD70477047000000680349884201D154
:1011B000FFF7C4BB70470000000001407047704754
:1011C00070B5040004D094F83900002510B106E091
:1011D000012070BD84F83850204600F023F8242008
:1011E00084F839002068C16821F40051C1602046AC
:1011F00000F0C8FA2068016921F49041016120687B
:10120000416921F02A0141612068C16841F400511F
:10121000C160E563202084F8390084F83A0000209A
:1012200070BD000070B586B0064614216846FFF711
:1012300079F820493068884239D11F480025016873
:1012400041F400310160006800F4003005901A4854
:101250001038016841F0010101600068694600F042
:10126000010005900C2000900220019001200290C6
:1012700003200390072004901048FFF789FA114CCF
:101280000F4820604FF00060C4E901054014C4E934
:10129000035080106561C4E90650256220466562EE
:1012A000FFF7ACF908B1FFF7D7F87463A66306B08F
:1012B00070BD000000440040403802400000024081
:1012C00088600240E8000020F8B5044690F83A0033
:1012D00020283CD1C1B3BAB394F83800012836D0E5
:1012E000012084F83800A162A2850025E563222050
:1012F00084F83A00636B1748D863636B1648186428
:10130000636B1648D864606B134605650846666BC8
:10131000216802463046091DFFF7DAF920680168A6
:101320004168009184F83850C16841F48071C1600F
:101330002068416941F0010141612068416941F043
:10134000400141610020F8BDFFE70120FBE70220DA
:10135000F9E700000F1700084B170008C516000832
:1013600003490A230122A1F1400000F004B8000063
:10137000DC00002070472DE9F843044690F839005E
:101380001F4616460D46202850D1A5B19EB194F8AF
:10139000380001284AD0012084F838004FF00008B6
:1013A000C4F83C80212084F83900FFF7C1FAA684F4
:1013B0008146E68426E00120BDE8F883E08C401EEB
:1013C000E084A0684B46B0F5805F4FF000024FF01C
:1013D00080012046009703D000F02AFBE8B90DE019
:1013E00000F026FBC8B928882168C0F308004860CF
:1013F000206908B16D1C05E0AD1C03E0216815F8FB
:10140000010B4860E08C0028D8D14B4600224021D7
:101410002046009700F00CFB08B10320CCE7202009
:1014200084F8390084F838800020C5E70220C3E73B
:10143000FEE70000F0B587B014216846FEF772FFA2
:101440001A480024016841F001010160016801F0BF
:1014500001010591016841F0080101600068144F25
:1014600000F008004FF47046059022463146384699
:10147000FFF759FA01250F480095CDE901046946A7
:101480000D48FFF785F90096CDE9015469463846C5
:101490000394FFF77DF9002205210620FFF7D4FA17
:1014A0000620FFF7C3FA07B0F0BD00003038024055
:1014B000000C02400000111000000240FEE77047DF
:1014C000064D4FF480544FF47A7621462846FFF7B4
:1014D00023FA304600F05EFBF7E70000000C024004
:1014E000DFF84480114C4FF0FF364FF400574FF4B3
:1014F000804900252561334600220321E06800F081
:10150000BBFB2061C11CF5D0011DF3D0012802D026
:10151000022802D005E0394600E049464046FFF780
:10152000FBF92561E6E70000000C02400000002006
:1015300010B5502080F31188BFF34F8FBFF36F8F2A
:1015400001F050FF18B104494FF0805008600020AE
:1015500080F3118810BD000004ED00E010B592B0DA
:1015600030216846FEF7DEFE14210CA8FEF7DAFEF5
:1015700014480024016841F080510160006800F0C7
:10158000805011901048016841F4404101600068AA
:10159000069400F440401190022000900120039036
:1015A000102004906846FFF78BFB0F20CDE90C0458
:1015B0000E940F9400210CA81094FFF777FA12B044
:1015C00010BD000040380240007000401048016823
:1015D00041F4700101600F48016841F001010160B0
:1015E0000C4A00210832116002680B4B1A4002605D
:1015F000031D0A4A1A60026822F48022026005482C
:101600000C300160024958068039086070470000BC
:1016100088ED00E000380240FFFFF6FE10300024A5
:101620000148FFF70BBD000048010020F0B502683B
:101630001D4B1E4C9F031E4D1E4E984207D0B842B4
:1016400005D0A04203D0A84201D0B04204D122F07C
:10165000700C4A6842EA0C02984210D0B8420ED090
:10166000A0420CD0A8420AD0B04208D0124CA042EE
:1016700005D0124CA04202D0114CA04203D122F45A
:101680004074CA6822434C6922F0800222430260FF
:101690008A68C2620A688262984201D1096901635C
:1016A00001214161F0BD0000000001400004004044
:1016B00000080040000C0040004001400044014090
:1016C0000048014070B5846B2068406994F8391077
:1016D000C0F3C0100025212904D118B1E5842046AB
:1016E00000F046F82068406994F83A10C0F3801082
:1016F000222904D118B1E585204600F02BF8E06BD3
:1017000040F01000E0632046FFF759FD70BD10B5B2
:101710000146806B09680968C90513D40021C18599
:101720000168CA6822F48072CA6001684A6922F0BE
:1017300001024A6101684A6922F040024A6120219F
:1017400080F83A10FFF70CFE10BD10B5806BFFF764
:1017500011FE10BD0168CA6822F49072CA60016867
:101760004A6922F001024A61202180F83A1070474C
:101770000168CA6822F0C002CA60202180F83910CE
:10178000704700002DE9F041044600680169E268F5
:1017900021F44051114301612169A068E2690843C5
:1017A0006169114322680843D16849F20C63994387
:1017B0000143D16020684169A26921F4407111435D
:1017C0004161E2696425B2F5004F97489749226864
:1017D0004FF032083FD08A4201D082427CD1FFF7DD
:1017E0002DFA00EBC00101EB001061688900B0FB2D
:1017F000F1F6FFF723FA00EBC00101EB001061687E
:101800008900B0FBF1F0B0FBF5F06FF01801484330
:1018100006EB800108EB0110B0FBF5F000F0F006DC
:10182000FFF70CFA00EBC00101EB001061688900C2
:10183000B0FBF1F0B0FBF5F006EB0016FFF7FEF998
:1018400000EBC00101EB001061688900B0FBF1F70B
:10185000FFF7F4F9D2E08A4201D082423DD1FFF78E
:10186000EDF900EBC00101EB001061684900B0FB2D
:10187000F1F0B0FBF5F00601FFF7E0F900EBC00175
:1018800001EB001061684900B0FBF1F7FFF7D6F9F2
:1018900000EBC00101EB001061684900B0FBF1F002
:1018A000B0FBF5F06FF01801484307EB800108EB3F
:1018B000C100B0FBF5F000F0F80006EB4006FFF7C2
:1018C000BDF900EBC00101EB001061684900B0FBFD
:1018D000F1F7FFF7B3F93CE055E0FFF79FF900EBB4
:1018E000C00101EB001061684900B0FBF1F0B0FBF2
:1018F000F5F00601FFF792F900EBC00101EB0010D3
:1019000061684900B0FBF1F7FFF788F900EBC0010F
:1019100001EB001061684900B0FBF1F0B0FBF5F09D
:101920006FF01801484307EB800108EBC100B0FBE2
:10193000F5F000F0F80006EB4006FFF76FF900EB5A
:10194000C00101EB001061684900B0FBF1F7FFF73F
:1019500065F900EBC00101EB001061684900B0FBC4
:10196000F1F0B0FBF5F06FF01801484307EB800190
:1019700008EBC100B0FBF5F000F00700216830442F
:101980008860BDE8F081FFF749F900EBC00101EB89
:10199000001061688900B0FBF1F6FFF73FF900EB3A
:1019A000C00101EB001061688900B0FBF1F0B0FBF1
:1019B000F5F06FF01801484306EB800108EB0110C9
:1019C000B0FBF5F000F0F006FFF728F900EBC001DE
:1019D00001EB001061688900B0FBF1F0B0FBF5F09D
:1019E00006EB0016FFF71AF900EBC00101EB00103F
:1019F00061688900B0FBF1F7FFF710F900EBC00157
:101A000001EB001061688900B0FBF1F0B0FBF5F06C
:101A10006FF01801484307EB800108EB0110B0FBA1
:101A2000F5F000F00F00A9E700140140001001409C
:101A30002DE9F041984617460E460446069D1DE0E6
:101A4000681C1BD02DB1FEF773FFA0EB0800A84265
:101A500014D92068C16821F4D071C160206841693F
:101A600021F001014161202084F8390084F83A0016
:101A7000002084F838000320BDE8F0812068006869
:101A800036EA000004D00020B842D9D00020F3E7A5
:101A90000120F9E7FEE70907090E002804DB00F141
:101AA000E02080F80014704700F00F0000F1E02003
:101AB00080F8141D704702E008C8121F08C1002AF0
:101AC000FAD170477047002001E001C1121F002ABF
:101AD000FBD1704794B0FEF739FFFFF73FFDFFF7EA
:101AE000A9FC25480024016841F400110160006848
:101AF000224600F40010129005211020FEF7A4FFEA
:101B00001020FEF793FF1E481C4901604FF4E1319D
:101B1000C0E901140C21C460C0E904418461C461BE
:101B2000FFF74EFB1649012240311548FFF7CCFB69
:101B300000F0E0F8242213496846FEF7DAFB6A4613
:101B40000021114800F012F9104C0E492422606067
:101B5000243109A8FEF7CDFB09AA00210C4800F0AA
:101B600005F9A060002000F02FF8E06010B100F04F
:101B7000DDF8FEE7FEE70000303802400044004098
:101B80009C00002050370008C1140008000000200D
:101B9000E114000810B5EFF3058149B9EFF31081A6
:101BA00031B908490968022905D1EFF3118111B152
:101BB0006FF0050403E0002408B100F095FE204614
:101BC00010BD00007400002010B54FF00001EFF3CD
:101BD0000582BAB9EFF31082A2B90B4A1268022A41
:101BE00002D1EFF311826AB948B1D0E902202AB1DB
:101BF000202807D3104600F0CBFF02E010B900F018
:101C0000B9FF0146084610BD7400002038B50C46E7
:101C100010B1210E002902D06FF0030038BDEFF3A0
:101C2000058149B9EFF3108131B9114909680229D9
:101C300019D1EFF31181B1B1002100916A4621461B
:101C400001F002F810B16FF0020038BD0099204693
:101C50000029FAD0074A4FF080511160BFF34F8F2F
:101C6000BFF36F8F38BD214600F0A8FF38BD0000DC
:101C70007400002004ED00E0F8B51D4616460C4641
:101C800010B1210E002902D06FF00300F8BDEFF370
:101C9000058149B9EFF3108131B915490968022965
:101CA00005D1EFF3118111B16FF00500F8BDF10717
:101CB00001D0012300E00023B10701D5002200E09C
:101CC00001222146009500F0C7FFF3076FF00101E4
:101CD0006FF0020206D0844206D1F8BD0846F8BD76
:101CE0001046F8BD0442FCD1002DF9D0F6E7000003
:101CF00074000020EFF3058058B9EFF3108040B96D
:101D000009490868022801D030B109E0EFF31180D9
:101D100030B16FF005007047012008600020704767
:101D20004FF0FF30704700007400002010B5EFF353
:101D3000058060B9EFF3108048B90B4908680228A4
:101D400002D0012806D00BE0EFF3118040B16FF014
:101D5000050010BD0220086000F08EFE002010BDBE
:101D60004FF0FF3010BD000074000020F0B585B0CA
:101D70004FEA01034FF00004EFF305810394A1BB88
:101D8000EFF3108189BB21490968022902D1EFF3E1
:101D9000118151BB48B3802618218DF8104004AD45
:101DA00042B3176807B13D4697691FB139467F1E98
:101DB000382F02D21779FF0702D0002005B0F0BDFE
:101DC000576907B1BE08D2F808C0BCF1000F0DD0AA
:101DD000D4685C2C18D312693AB137B18DE806107B
:101DE0003246294601F0BFFA03900DE0D7685FB98B
:101DF00012694AB903AACDE90012B2B2294601F02C
:101E000085FA012800D003940398D7E774000020D6
:101E10002DE9F041134C0F46054666692068001D08
:101E200000F024FC681C07D137B12168BDE8F041FF
:101E30000D48091D00F078BC20683544B542456066
:101E4000216805D2A068BDE8F041091D00F054BC2E
:101E50006068091D00F050FC206B854200D22563AC
:101E6000BDE8F08124000020780600202DE9F04133
:101E7000054600F065FC2D4C2069401C206120685F
:101E80002B4F10B1E06930B32BE0256020690128A9
:101E900027D1002606EB860007EB800000F01EFC31
:101EA000761C382EF6D3234800F018FC2148143055
:101EB00000F014FC1F48283000F010FC1D483C3096
:101EC00000F00CFC1B48503000F008FC1948606022
:101ED0001430A06005E02068E96AC06A884200D832
:101EE0002560E06A401CE0626864E86AA169884293
:101EF00000D9A06100EB800007EB8000291D00F0F5
:101F000013FC00F03DFCE06900280CD02068E96A71
:101F1000C06A884207D208494FF080500860BFF37A
:101F20004F8FBFF36F8FBDE8F081000024000020C9
:101F3000C80100202806002004ED00E038B500F0BC
:101F4000FFFB104CA068C8B90F4800F0C7FB0E4853
:101F5000143000F0C3FB0C482060143060600A4B62
:101F600000202833009003F1500210210A2000F0D5
:101F700071FFA06010B105A100F080FCBDE8384001
:101F800000F0FEBB600000208C060020546D7251F2
:101F90000000000030B4026C0B46002A0BD0C16870
:101FA0001144C1604468A14201D30168C16030BCE2
:101FB0001846FEF79EB930BC70472DE9F041856B9D
:101FC000174604460026026C82B1C7B1E068FEF7EE
:101FD00090F9E168206C091AE1602268914202D20E
:101FE0006168081AE060022F16D017E02068A8B9CF
:101FF000606801F05BFA0646002060600EE0A068B1
:10200000FEF777F9216CA0680844A06061688842F7
:1020100004D32068A06001E005B16D1E6D1CA563AE
:102020003046BDE8F08110B5044690F8590058B12B
:1020300001280CD002280FD0502080F31188BFF364
:102040004F8FBFF36F8FFEE7206B00F0ADFB204694
:10205000BDE8104000F0A8BB10BD000010484FF4D0
:102060007051420706D0C01D0D4920F00700411AEB
:10207000C1F570510B4A00230144C2E9000308393D
:10208000103A21F0070111604B600B600B1AC0E998
:10209000001393604FF000405360D0607047000021
:1020A0005C0E002088000020144E154CA6F29C47C0
:1020B0004FF08058DFF84C9012E000BF00F040FB7A
:1020C000F068C568281D00F0D1FA2069401E206123
:1020D000E068401EE06000F053FB2846FFF7A3FFD6
:1020E000E0680028EAD138680128F9D9C9F80080E9
:1020F000BFF34F8FBFF36F8FF2E70000640600203D
:102100002400002004ED00E070B51D46049C51B190
:10211000C4F80020C4E90F010121204600F0CEFEE2
:1021200084F84C5070BD2460F4E72DE9F0470E466A
:10213000DDE909841746824691009946089DA5224B
:10214000206BFEF7E8F86FF00301206B01EB8701CD
:10215000084420F00707780707D0502080F3118843
:10216000BFF34F8FBFF36F8FFEE72218315C82F809
:102170003410315C11B1401C1028F6D3002684F8CD
:102180004360382D00D33725E562C4E91356201D7E
:1021900000F0AFFA04F1180000F0ABFA2461C5F1C9
:1021A00038006462A061666584F858604A4651460A
:1021B000384600F045FA2060B8F1000F01D0C8F8A9
:1021C0000040BDE8F087000030B5114900E011463D
:1021D0000A688242FBD34B685C18844203D1406892
:1021E00018444860084643681C18944209D1084CBA
:1021F000103C2468A24209D052681A4442600A681E
:1022000012680260814200D0086030BD0460F9E7C6
:102210008800002070B5002441600B4D00619142A0
:1022200006D8D11A8269914206D2011D686807E07A
:102230009A4203D2994201D3012403E0011D286888
:1022400000F05AFA204670BD6000002010B5044628
:1022500000F076FAA06B28B15FF0000400F090FA6D
:10226000204610BD0124F9E730B589B0304D55E066
:102270000498002806DADDE90601059A90470498DB
:1022800000284BDB069C606910B1201D00F0EEF9C0
:1022900002A800F0B9F8024604980A283ED2DFE806
:1022A00000F00505053D263705053D260598A16981
:1022B000034601442046FFF7ADFF00B3616A2046A4
:1022C0008847E069012829D1002000900598A1697C
:1022D000002342181946204601F0F2F978B950203F
:1022E00080F31188BFF34F8FBFF36F8FFEE7059820
:1022F000A06128B1811813462046FFF78BFF0DE03F
:10230000502080F31188BFF34F8FBFF36F8FFEE72C
:1023100094F82C0010B9204600F046FA002204A9D7
:10232000A86800F01DFF0028A2D109B030BD000050
:10233000600000202DE9FC410F46054600F0E0FB5F
:1023400001A800F061F80446019818B101F026F9DF
:10235000BDE8FC81224EAFB170680068A8B30027C9
:10236000291B3A46B06800F09DFA01F017F90028E1
:10237000EED11C494FF080500860BFF34F8FBFF380
:102380006F8FE5E7A542EBD801F008F930682746E2
:10239000C068C468201D00F069F9E069012810D107
:1023A000A0692B4641193A462046FFF733FF40B15A
:1023B00000200346014600902A46204601F080F99D
:1023C00020B1616A20468847C2E707E0502080F3C9
:1023D0001188BFF34F8FBFF36F8FFEE70127BFE771
:1023E0006000002004ED00E006484168096829B15A
:1023F0004168C968C9684968016370474FF0FF3197
:10240000FAE700002400002070B5054600F0E4FF64
:10241000064E04463069844203D200F009F80120D8
:1024200000E0002028602046346170BD600000207C
:10243000F8B5194D1FE0C068C4680668201D00F09B
:1024400015F9616A20468847E069012813D1A0691F
:102450003044B04206D924616060211D286800F034
:102460004BF908E000200346014600903246204622
:1024700001F026F938B1286801680029DBD16968C4
:10248000C5E90010F8BD502080F31188BFF34F8FCD
:10249000BFF36F8FFEE7000060000020084840682F
:1024A000401C4FF0500080F3118804D0BFF34F8FD1
:1024B000BFF36F8FFEE7BFF34F8FBFF36F8FFEE762
:1024C000900000200346002012B1994302D07047CB
:1024D0000B42FCD001207047074C2068016841B1D5
:1024E000C0680021D0F80000FFF724FFFFF7BCFE12
:1024F000F3E701210020F7E7600000202DE9F0411B
:10250000044600F01DF994F9455004F1240609E051
:10251000606A48B1304601F009F808B100F012FADB
:102520006D1E6DB2002DF3DC4FF0FF3684F8456070
:1025300000F026F900F004F994F9445004F1100772
:1025400009E0206948B1384600F0F0FF08B100F01A
:10255000F9F96D1E6DB2002DF3DC84F84460BDE81E
:10256000F04100F00DB900002DE9F04105460027CB
:1025700000F0C6FA314E306808B9FFF76FFDF06819
:1025800005424BD1C5B3083568070ED005F00700EA
:10259000C0F108000544680707D0502080F3118877
:1025A000BFF34F8FBFF36F8FFEE72DB37068854287
:1025B00034D82248103001460C6801E020460C4611
:1025C0006168A94202D221680029F7D131688C42A2
:1025D00024D007682168016060680837411B102912
:1025E0000FD96019420708D0502080F31188BFF33B
:1025F0004F8FBFF36F8FFEE710E041606560FFF71C
:10260000E3FD61687068401A7060B268904200D261
:10261000B060F06801430020C4E9000100F0BEFF93
:10262000780707D0502080F31188BFF34F8FBFF396
:102630006F8FFEE73846BDE8F0810000780000208B
:1026400010B5031F4FF080741C601B1F21F00101A7
:102650001960191F044B0B6014390A60091F6FF0D1
:10266000020244380A6010BD9D240008D0E90132FE
:1026700001699A60D0E901235A604A68824201D117
:1026800082684A60002202610868401E086008688B
:1026900070470000044908680A688069D26A0968BE
:1026A000C2F138028A61704724000020034B0360A6
:1026B00003F15C000860802010607047A4070020D0
:1026C000044B036003F15C0008604FF480701060FD
:1026D00070470000000A002000F070BA00F1080105
:1026E0004FF0FF32C0E90112C160016100210160B9
:1026F000704700210161704730B50B685A1C02D049
:1027000000F1080202E0026904E0224654682568EC
:102710009D42FAD953684B6099608A6051600861A4
:102720000168491C016030BD42684A6093688B6053
:1027300093685960916008610168491C01607047A5
:10274000502080F31188BFF34F8FBFF36F8F0A497A
:102750004868401C486001280CD10848006810F007
:10276000FF0F07D0502080F31188BFF34F8FBFF3C6
:102770006F8FFEE7704700009000002004ED00E03E
:102780000849486828B1401E486001D180F311888B
:102790007047502080F31188BFF34F8FBFF36F8FC6
:1027A000FEE700009000002070B5002827D0144DEF
:1027B000A0F108046168E868014207D1502080F365
:1027C0001188BFF34F8FBFF36F8FFEE722683AB1D6
:1027D000502080F31188BFF34F8FBFF36F8FFEE758
:1027E0008143616000F08CF9606869680844686042
:1027F0002046FFF7E9FCBDE8704000F0CFBE70BD99
:10280000780000204FF0E02000210161816105493E
:102810004FF47A720968B1FBF2F1491E4161072158
:10282000016170472000002010B5FDF71BFD114924
:1028300010280ED300F1E02090F8F0030A789042BF
:1028400007D2502080F31188BFF34F8FBFF36F8FF3
:10285000FEE709480068896800F4E060884207D90B
:10286000502080F31188BFF34F8FBFF36F8FFEE7C7
:1028700010BD0000900000200CED00E010B5084BEA
:10288000002200BF53F832401CB1521C082AF9D371
:1028900010BD43F8321003EBC201486010BD0000C8
:1028A0008801002070B515460E460446FFF748FF24
:1028B00094F944100020491C01D184F8440094F993
:1028C0004510491C01D184F84500FFF759FFA06B62
:1028D00028B92A46314604F1240000F051F8204678
:1028E000BDE87040FFF70ABE10B5020014D00F48D3
:1028F000806B38B1502080F31188BFF34F8FBFF346
:102900006F8FFEE700F0FCF800211046FFF780FA19
:1029100000F044FE002807D105494FF080500860C0
:10292000BFF34F8FBFF36F8F10BD00002400002056
:1029300004ED00E002498A6A02604969416070471B
:102940002400002001490120486270472400002033
:1029500010B50C4650B1094909681831FFF7CCFE93
:102960002046BDE810400121FFF752BA502080F305
:102970001188BFF34F8FBFF36F8FFEE72400002055
:1029800070B514460D4668B10A4909681831FFF759
:10299000CBFE0CB14FF0FF3521462846BDE8704014
:1029A000FFF736BA502080F31188BFF34F8FBFF383
:1029B0006F8FFEE72400002010B51446030011D0ED
:1029C0001048826BB2B1026841F000419161016828
:1029D00018461831FFF7A8FE2046BDE81040012137
:1029E000FFF716BA502080F31188BFF34F8FBFF363
:1029F0006F8FFEE7502080F31188BFF34F8FBFF336
:102A00006F8FFEE72400002070B5194DAA6BF2B15C
:102A100041F000410160C4680CB3FFF727FE201DA0
:102A2000FFF724FEE06AA969884200D9A86111492C
:102A300000EB800001EB8000211DFFF775FEE06ACE
:102A40002968C96A884201D90120686270BD502096
:102A500080F31188BFF34F8FBFF36F8FFEE75020D5
:102A600080F31188BFF34F8FBFF36F8FFEE7000035
:102A700024000020C801002030B587B00024039452
:102A800005AA04A903A80494FFF710FEDDE90301D9
:102A90000094CDE90110002315A11748059A00F014
:102AA00062FC164D002868631FD000F0D9FD012894
:102AB00009D0401C19D1502080F31188BFF34F8FEB
:102AC000BFF36F8FFEE7502080F31188BFF34F8F65
:102AD000BFF36F8F4FF0FF3028630120E8616C6116
:102AE00007B0BDE8304000F03BB907B030BD000092
:102AF00049444C4500000000A920000824000020A3
:102B00000248816B491C816370470000240000204B
:102B1000164810B5816B11B10121416210BD002131
:102B200041628169124A01E0B9B1491E01EB81039A
:102B300052F82330002BF7D001EB810302EB830224
:102B400002F1080453685B685360A34201D15B68DB
:102B50005360DA680260816110BD502080F31188F3
:102B6000BFF34F8FBFF36F8FFEE7000024000020FC
:102B7000C801002070B52020FFF7F6FC040005D046
:102B80000025201D2560FFF7A9FD2577204670BD93
:102B900038B558B120210446002000912060201D46
:102BA000FFF79CFD01202077204638BD502080F3A0
:102BB0001188BFF34F8FBFF36F8FFEE72DE9F04110
:102BC0000027884604000AD05FEA18600FD0502022
:102BD00080F31188BFF34F8FBFF36F8FFEE7502054
:102BE00080F31188BFF34F8FBFF36F8FFEE7261D71
:102BF00004F10C05FFF784FF2168F06841EA080141
:102C0000216017E0D0E9001601F07F4253012368EC
:102C100021F07F4102D40B4203D10AE031EA0303E1
:102C200007D1D20100D50F43216841F00071FFF7B1
:102C3000EBFE3046A842E5D12068B843206000F0A2
:102C4000ADFC2068BDE8F08113460A460146014804
:102C500000F06ABDD92600082DE9F0479A46DDF854
:102C6000209090460D4604004FF0000709D0280E32
:102C70000FD0502080F31188BFF34F8FBFF36F8FB9
:102C8000FEE7502080F31188BFF34F8FBFF36F8FA3
:102C9000FEE71DB100F092FB40B112E0502080F33E
:102CA0001188BFF34F8FBFF36F8FFEE7B9F1000FAD
:102CB00007D0502080F31188BFF34F8FBFF36F8F81
:102CC000FEE7FFF71DFF2668524629463046FFF70C
:102CD000F9FB30B1B8F1000F1AD02068A84320608A
:102CE00016E0B9F1000F13D0B8F1000F01D04FF08A
:102CF0008077BAF1000F01D047F0806745EA0701FD
:102D00004A46201DFFF758FE00F048FC18B10AE0C3
:102D100000F044FC1FE011494FF080500860BFF301
:102D20004F8FBFF36F8FFFF7B5FC0646800110D4BD
:102D3000FFF706FD2668524629463046FFF7C2FBDC
:102D400028B1B8F1000F02D02068A8432060FFF737
:102D500017FD26F07F463046BDE8F08704ED00E021
:102D60001CB537480168374A914207D1502080F39B
:102D70001188BFF34F8FBFF36F8FFEE700683149B3
:102D8000491E884207D1502080F31188BFF34F8F2E
:102D9000BFF36F8FFEE72C4908780190FF20087081
:102DA00008788DF800009DF800009DF8002000F0E4
:102DB000F000904207D0502080F31188BFF34F8F6E
:102DC000BFF36F8FFEE79DF80000204B00F050002E
:102DD00018700720986005E09DF8002052008DF8DB
:102DE0000020401E9DF800201206F5D498600328AC
:102DF00007D0502080F31188BFF34F8FBFF36F8F40
:102E0000FEE74FF440709860019808700C4820303D
:102E1000016841F470010160016841F07041016096
:102E2000FFF7F0FC00205860FDF7E4F9084801685E
:102E300041F040410160FDF7C9F900201CBD0000D0
:102E400000ED00E071C20F4100E400E090000020BE
:102E500034EF00E038B5049D18B153B1CAB181B167
:102E600020E0502080F31188BFF34F8FBFF36F8FA6
:102E7000FEE7502080F31188BFF34F8FBFF36F8FB1
:102E8000FEE7502080F31188BFF34F8FBFF36F8FA1
:102E9000FEE739B1502080F31188BFF34F8FBFF3A5
:102EA0006F8FFEE750241C46012384F846302B46E2
:102EB0000094FFF729F9204638BD000070B50D4693
:102EC000040025D0FFF73CFCD4E90F20216802FB69
:102ED000001161600021A1632168A1600A46D4E964
:102EE0000F01401E00FB0121E16021464FF0FF3041
:102EF00001F8440F487004F110008DB1FFF7EEFBAC
:102F000004F12400FFF7EAFBFFF73AFC012070BD53
:102F1000502080F31188BFF34F8FBFF36F8FFEE710
:102F200021690029F0D000F001FB0028ECD0044911
:102F30004FF080500860BFF34F8FBFF36F8FE3E710
:102F400004ED00E02DE9FF4782B01D468A464FF0B0
:102F50000008040003D0BAF1000F08D011E050209F
:102F600080F31188BFF34F8FBFF36F8FFEE7206CA4
:102F700038B1502080F31188BFF34F8FBFF36F8FAC
:102F8000FEE7022D0AD1E06B012807D0502080F324
:102F90001188BFF34F8FBFF36F8FFEE700F00EFA7B
:102FA0003F4F4FF000094FF0805648B9049838B1B0
:102FB000502080F31188BFF34F8FBFF36F8FFEE770
:102FC000FFF7BEFBA06BE16B884207D3022D05D053
:102FD0000498D0B1B8F1000F1AD01EE02A4651462D
:102FE0002046FEF7EAFF616A19B104F1240000F0FF
:102FF0009DFA20B13E60BFF34F8FBFF36F8FFFF795
:10300000BFFB012006B0BDE8F087FFF7B9FB22E067
:103010006846FFF78FFC4FF00108FFF7B1FBFFF7A1
:103020006FFDFFF78DFB94F94400401C01D184F83B
:10303000449094F94500401C01D184F84590FFF775
:103040009FFB04A9684600F027F930B12046FFF73E
:1030500055FA00F0A3FA0020D4E7FFF771FBA06B4C
:10306000E16B884213D1FFF78BFB04F11000049948
:10307000FFF76EFC2046FFF741FA00F08FFA0028B8
:103080009ED13E60BFF34F8FBFF36F8F98E7FFF77E
:1030900077FB2046FFF732FA00F080FA90E7000055
:1030A00004ED00E02DE9F0471F46904689460400F4
:1030B00003D0B9F1000F08D011E0502080F311883F
:1030C000BFF34F8FBFF36F8FFEE7206C38B15020F6
:1030D00080F31188BFF34F8FBFF36F8FFEE7022F8E
:1030E0000AD1E06B012807D0502080F31188BFF38C
:1030F0004F8FBFF36F8FFEE7FFF796FB5020EFF384
:10310000118680F31188BFF34F8FBFF36F8FA06BD1
:10311000E16B884206D3022F04D0002086F3118889
:10312000BDE8F08794F945503A4649462046FEF7F7
:1031300044FF681C04D06D1C84F845500120EDE765
:10314000606A0028FAD004F1240000F0EFF90028AA
:10315000F4D0B8F1000FF1D00121C8F80010EDE76C
:103160002DE9F747002683B08A46040003D0BAF160
:10317000000F08D011E0502080F31188BFF34F8F6B
:10318000BFF36F8FFEE7206C38B1502080F31188B9
:10319000BFF34F8FBFF36F8FFEE700F00FF9DFF83B
:1031A000F4804FF000094FF0805748B9059838B1C6
:1031B000502080F31188BFF34F8FBFF36F8FFEE76E
:1031C000FFF7BEFAA56BC5B151462046FEF7E2FEF9
:1031D0006D1EA563206950B104F1100000F0A6F93E
:1031E00028B1C8F80070BFF34F8FBFF36F8FFFF7A0
:1031F000C7FA012006B0BDE8F087059808B11EB1F6
:1032000006E0FFF7BDFA27E06846FFF793FB0126CB
:10321000FFF7B6FAFFF774FCFFF792FA94F944004F
:10322000401C01D184F8449094F94500401C01D120
:1032300084F84590FFF7A4FA05A9684600F02CF839
:10324000002820460AD0FFF759F900F0A7F92046D8
:10325000FEF7FCFF0028B3D00020CBE7FEF7F6FF17
:1032600090B104F124000599FFF772FB2046FFF7A7
:1032700045F900F093F90028A2D1C8F80070BFF317
:103280004F8FBFF36F8F9BE72046FFF737F900F0B2
:1032900085F995E704ED00E02DE9F0410C460500C5
:1032A00011D0C4B1FFF74CFA174B5A696E68206809
:1032B000911B471C17D02F689B6A9F4219D09642DA
:1032C00017D8012410E0502080F31188BFF34F8FEE
:1032D000BFF36F8FFEE7502080F31188BFF34F8F4D
:1032E000BFF36F8FFEE70024FFF74AFA2046BDE8E0
:1032F000F081884205D9401A20602846FFF71AFB62
:10330000F1E700202060DCE7240000202DE9FF5FCA
:103310008346DDE90E87994616468A469000FFF7F8
:1033200023F905001CD05C20FFF71EF9040014D01F
:103330000020256384F85900CDE90240CDE90087DB
:103340004B46324651465846FEF7EFFE2046FEF702
:103350008DFD012004B0BDE8F09F2846FFF724FA58
:103360004FF0FF30F6E7F0B585B0DDE90B640A9D5C
:10337000A6B1DCB15C2700972663022684F8596069
:10338000002604AFCDE90246CDE90057FEF7CDFE99
:103390002046FEF76BFD049805B0F0BD502080F389
:1033A0001188BFF34F8FBFF36F8FFEE7502080F37C
:1033B0001188BFF34F8FBFF36F8FFEE70548C169D8
:1033C00019B1806B18B100207047012070470220AE
:1033D0007047000024000020014840697047000049
:1033E000240000202DE9F0412E4C0027A06B40B1B5
:1033F000206A401C2062606A00B101273846BDE89F
:10340000F0816669761C666113D16068006838B126
:10341000502080F31188BFF34F8FBFF36F8FFEE70B
:103420006068A1686160A060A06A401CA062FEF7AD
:10343000DBFF206BDFF87080864209D3606800688C
:1034400080B16068C068C568686886420DD2206334
:103450002068C06A00EB800158F821000128CAD911
:103460000127C8E74FF0FF30F1E7281DFFF7FEF80E
:10347000A86A18B105F11800FFF7F8F8E86AA16921
:10348000884200D9A06100EB800108EB8100291D72
:10349000FFF74AF9E86A2168C96A8842CED3012752
:1034A000CCE7000024000020C801002070B5040013
:1034B0004FF0000133D01B4D2868844207D05020C4
:1034C00080F31188BFF34F8FBFF36F8FFEE7206D3E
:1034D00038B1401E2065E36CE26A9A421FD040B1C9
:1034E0001DE0502080F31188BFF34F8FBFF36F8F23
:1034F000FEE7201DFFF7BAF8E06CE062C0F138008B
:10350000A061E06AA969884200D9A861064900EB78
:10351000800001EB8000211DFFF706F9012108461C
:1035200070BD000024000020C801002070B5C068F4
:10353000C46854B104F118000646FFF797F8144D1B
:10354000A86B50B13146134815E0502080F3118824
:10355000BFF34F8FBFF36F8FFEE7201DFFF786F895
:10356000E06AA969884200D9A8610B4900EB800094
:1035700001EB8000211DFFF7D7F8E06A2968C96ACE
:10358000884202D90120686270BD002070BD000031
:103590002400002050060020C80100202DE9F0473B
:1035A0002C4D00242746A86B38B1FFF7C9F8A86B4B
:1035B000401EA863A86B40B146E0502080F31188FC
:1035C000BFF34F8FBFF36F8FFEE72969224E0120B3
:1035D000D1B3A6F5916980463068E0B1F068C4685F
:1035E00004F11800FFF742F8201DFFF73FF8E06AEA
:1035F000A969884200D9A86100EB800109EB81002C
:10360000211DFFF791F8E06A2968C96A8842E3D36F
:10361000C5F82480E0E70CB1FEF7E6FE2C6A4CB159
:103620004FEA0806FFF7DEFE00B16E62641EF9D1B4
:1036300000202862686A38B1084901273807086005
:10364000BFF34F8FBFF36F8FFFF79AF83846BDE88F
:10365000F0870000240000205006002004ED00E068
:1036600010B586B0FEF76AFC114CA068B8B1002016
:103670000390049005AA04A903A8FFF721F8DDE947
:10368000032102208DE8070000230AA10B48059AB8
:10369000FFF769FEE06010B106B0012010BD5020B8
:1036A00080F31188BFF34F8FBFF36F8FFEE70000E9
:1036B00060000020546D722053766300D924000806
:1036C0002DE9FF411E46134602000A9D4FF00000FF
:1036D00016D0144CA768002F0FD0CDE9001302922A
:1036E000062917DAFFF76AFE02284FF000030FD011
:1036F00000226946A068FFF725FC04B0BDE8F08110
:10370000502080F31188BFF34F8FBFF36F8FFEE718
:103710002A46EEE70023324669463846FFF7C2FCE8
:10372000EBE70000600000201FB51C466FF00103AE
:10373000CDE90030CDE90212044800232246694653
:103740008068FFF7AFFC04B010BD000060000020EF
:10375000C437000800000000000000000000000066
:1037600000000000800000000800000000000000D1
:1037700000000000B8370008000000000000000052
:1037800000000000000000008000000018000000A1
:1037900000000000000000000006101600061016D1
:1037A00000000000000000000102030406070809F1
:1037B00000000000010203046D795461736B303224
:1037C0000000000064656661756C745461736B0081
:1037D000F0370008000000209C000000B61A000826
:1037E0008C3800089C000020C44D0000C61A000858
:1037F00000000000000000000000000000000000C9
:1038000000000000010000001000000000000000A7
:103810000024F40000000000000000000000000090
:103820000000000000000000000000000000000098
:103830000000000000000000000000000000000088
:103840000000000000000000000000000000000078
:103850000000000000000000000000000000000068
:103860000000000000000000000000000000000058
:103870000000000000000000000000000000000048
:0C38800000000000AAAAAAAA0000000094
:040000050800019955
:00000001FF
