:020000040800F2
:1080000050040020AD810008338D0008978C0008D3
:10801000318D0008DD820008159100080000000085
:10802000000000000000000000000000378D000884
:10803000DF82000800000000358D0008398D00083F
:10804000C7810008C7810008C7810008C7810008F0
:10805000C7810008C7810008E1820008C7810008C5
:10806000C7810008C7810008C7810008C7810008D0
:10807000C7810008C7810008C7810008C7810008C0
:10808000C7810008C7810008C78100080000000000
:10809000000000000000000000000000C781000890
:1080A000C7810008C7810008C7810008C781000890
:1080B000C7810008C7810008C7810008C781000880
:1080C000C7810008C7810008C7810008C781000870
:1080D000C7810008C7810008C781000800000000B0
:1080E000C7810008C7810008C781000800000000A0
:1080F000000000000000000000000000C781000830
:1081000000000000C7810008C7810008C78100087F
:10811000000000000000000000000000000000005F
:10812000C7810008C7810008C7810008C78100080F
:10813000C7810008000000000000000000000000EF
:10814000000000000000000000000000C7810008DF
:10815000C7810008C7810008C7810008C7810008DF
:10816000C7810008C781000800000000000000006F
:1081700000000000000000000000000000000000FF
:1081800000000000C781000800000000000000009F
:10819000C7810008C7810008DFF80CD000F08CF818
:1081A00000480047559100085004002006488047C9
:1081B00006480047FEE7FEE7FEE7FEE7FEE7FEE7CC
:1081C000FEE7FEE7FEE7FEE7AD8D000899810008B7
:1081D0002DE9F05F0546002092469B4688460646FC
:1081E000814640241BE0284641464746224600F08F
:1081F00053F853465A46C01A914110D311461846B7
:10820000224600F03AF82D1A67EB01084F46224645
:108210000120002100F031F817EB00094E41201E2B
:10822000A4F10104DFDC484631462A464346BDE856
:10823000F09F40EA01039B0703D009E008C9121F21
:1082400008C0042AFAD203E011F8013B00F8013B10
:10825000521EF9D27047D2B201E000F8012B491E3C
:10826000FBD270470022F6E710B513460A460446D3
:108270001946FFF7F0FF204610BD202A04DB203A04
:1082800000FA02F1002070479140C2F1200320FA69
:1082900003F3194390407047202A04DB203A21FA67
:1082A00002F00021704721FA02F3D040C2F120020F
:1082B0009140084319467047064C074D06E0E068B8
:1082C00040F0010394E8070098471034AC42F6D31D
:1082D000FFF766FFFC9100081C920008FEE770475C
:1082E00010B54FF44051044800F0DAF8BDE81040F2
:1082F000012000F005B80000000C024070470000AB
:10830000044910B50A68024202D00860FFF7F6FF80
:1083100010BD0000143C01402DE9F84FDFF860B1BA
:1083200000224FF001084FF0030A4FF00F090BF144
:10833000040E00BF0B6808FA02F42340A3426ED17A
:108340004D68022D01D0122D0ED1D50800EB850C01
:10835000DCF820505607F70E09FA07F6B5430E6908
:10836000BE402E43CCF82060066855000F790AFA0B
:1083700005FC07F0030726EA0C06AF403743076009
:108380004E68012E05D0022E03D0112E01D0122EE0
:108390000ED18668CF6826EA0C06AF403743876067
:1083A0004668A6430C79C4F30014944034434460F7
:1083B000C6688C6826EA0C06AC403443C4604C683E
:1083C000E40056D52F4C256845F480452560246887
:1083D00022F0030504F4804400942B4C2E19D6F8A7
:1083E000084895072F0F09FA07F5AC43274DA84217
:1083F00001D1002515E0264DA84201D1012510E04C
:10840000244DA84201D102250BE0234DA84201D101
:10841000032506E0214DA84202D1042501E028E011
:108420000725BD402543C6F80858DBF800405D46E7
:108430004E689C43F60300D51C432C60DEF80040D8
:1084400075464E689C43B60300D51C432C600C4D0A
:1084500008352C684E689C43F60200D51C432C60FE
:10846000074D0C352C684E689C43B60200D51C4362
:108470002C60521C102AFFF45DAFBDE8F88F00009D
:10848000003C0140443802400030014000000240FE
:108490000004024000080240000C024000100240AC
:1084A000426931EA020200D10904816170470AB1D0
:1084B000816170470904FBE701488068704700004C
:1084C00000000020024881680278114481607047F2
:1084D000000000200B4810B5016841F400710160F4
:1084E000016841F480610160016841F480710160BC
:1084F000032000F06FF8002000F006F800F024F8E8
:10850000002010BD003C024070B50D4D04464FF4F4
:108510007A712878B1FBF0F00A490968B1FBF0F0F4
:1085200000F0E2FA48B9102C07D200222146501E72
:1085300000F030F800206C6070BD012070BD0000BC
:10854000000000200C0000200A4808B5016841F432
:1085500080410160006800F4804000900548001FE1
:10856000016841F080510160006800F08050009087
:1085700008BD000044380240002809DB00F01F025B
:10858000012191404009800000F1E020C0F8001175
:1085900070470000F0B40E4B1B680C46C3F3022377
:1085A000C3F10705042D00D90425191D072901D29F
:1085B000002300E0DB1E012606FA05F1491E2140DA
:1085C00099409E40761E16403143F0BC00F0A3BD9A
:1085D0000CED00E0064900F0070208684FF6FF03C3
:1085E000184040EA0220034A104308607047000028
:1085F0000CED00E00000FA052DE9F0470E460500FD
:1086000065D0DFF81481D8F80000F7B200F00F0051
:10861000B04207D288F80070D8F8000000F00F00D0
:10862000B04254D128683D4C810712D5400703D58C
:10863000206840F4E05020602878000703D52068C7
:1086400040F4604020602068A96820F0F0000843F2
:1086500020602878C0072DD0304968680839012883
:1086600012D0022813D0032811D0096889070029E5
:108670002DDA216821F0030101432160FFF71CFF7F
:10868000814641F2883A0EE009688903EFE70968FC
:108690008901ECE7FFF710FFA0EB0901514502D972
:1086A0000320BDE8F0872068696800F00C00B0EB9B
:1086B000810FEFD1D8F80010404601F00F01B14210
:1086C00007D90770006800F00F00B04201D0012008
:1086D000E7E72878400705D52068E96820F4E050EE
:1086E000084320602878000706D52068296920F40F
:1086F000604040EAC100206000F036F82168084A76
:10870000C1F30311515CC840064908600020FFF71F
:10871000FBFE0020C5E70000003C02400838024094
:10872000E49100080C00002004480549006809682D
:10873000044AC1F38221515CC84070470C000020FC
:1087400008380240F49100080448054900680968A7
:10875000044AC1F34231515CC84070470C0000200C
:1087600008380240F4910008154810B5006810F070
:108770000C02144813D01449042A0FD0082A0ED131
:108780000F4C241F2268236802F03F025B0207D5CA
:108790002068C0F38810A0FB010106E0084610BD68
:1087A0002168C1F38811A1FB00010023FFF710FD30
:1087B0002168C1F30141491C4900B0FBF1F010BD33
:1087C000083802400024F40040787D012DE9F84F7C
:1087D000050076D02878DFF8F8B2BE4CC00749D043
:1087E000DBF800105846C1F38101012908D0006868
:1087F000C0F3810002280AD1201D0068400206D57E
:108800002068800336D568680028E2D032E06868C6
:10881000B0F5803F10D0B0F5A02F206810D020F424
:1088200080302060206820F4802020606868A0B13B
:10883000FFF742FE06460CE0206840F48030F4E783
:1088400040F480202060F7E7FFF736FE801B6428A5
:1088500073D820688003F7D50CE0FFF72DFE06469D
:1088600005E000BFFFF728FE801B6428F0D82068D1
:108870008003F7D42878DFF8608280074FF0000982
:108880003ED5DBF80010584611F00C0F09D00068F7
:10889000C0F3810002280BD18D48001F0068400200
:1088A00006D42068800715D5E868012809D111E0B1
:1088B000E868B8B10120C8F80000FFF7FDFD0646E2
:1088C00005E002E1FFF7F8FD801B0228C0D8206810
:1088D0008007F7D52068296920F0F80040EAC10038
:1088E00020600DE0C8F80090FFF7E6FD064604E0C2
:1088F000FFF7E2FD801B02281FD820688007F7D40D
:108900002878000722D5724E744869696C3671B1B7
:1089100001210160FFF7D0FD074604E0FFF7CCFD21
:10892000C01B022809D830688007F7D50EE0C0F8D0
:108930000090FFF7C1FD074605E083E0FFF7BCFDAF
:10894000C01B02287ED830688007F7D428784007FB
:1089500068D5DFF87CA100270AF1380ADAF80000B0
:10896000C0000BD4DAF8001041F08051CAF80010B2
:10897000DAF80000012700F080500090584E30686F
:10898000C00510D4306840F480703060FFF794FD6B
:10899000009005E0FFF790FD0099401A022851D899
:1089A0003068C005F6D54A4EA868683601280FD051
:1089B0000528306810D020F001003060306820F0C9
:1089C00004003060A868B8B1FFF776FD00900FE0B2
:1089D000306840F00100F4E740F004003060F7E751
:1089E000FFF76AFD0099411A41F28830814264D84C
:1089F00030688007F4D50EE0FFF75EFD009007E0D9
:108A0000FFF75AFD0099411A41F28830814254D84B
:108A100030688007F4D42FB1DAF8001021F08051CB
:108A2000CAF80010A869C0B3DBF80010C1F38101D7
:108A300002294AD00228484607D0C8F86000FFF74C
:108A40003BFD00E039E005463AE04746C8F86000E3
:108A5000FFF732FD064604E0FFF72EFD801B0228DB
:108A60002BD820688001F7D4D5E907010843A96A0B
:108A70001C4A490802EB01416A6A41EA8211084333
:108A800095F82C1040EA01611148001F0160012097
:108A90003866FFF711FD054605E014E0FFF70CFD11
:108AA000401B022809D820688001F7D50BE000BFE1
:108AB000FFF702FD401B022802D90320BDE8F88F12
:108AC00020688001F4D40020F8E70120F6E70000D8
:108AD000083802400038024000004742800E4742FA
:108AE000007000400000FFFF10B5401EB0F1807F15
:108AF00001D3012010BD4FF0E02460610F21601709
:108B000000F009FB0020A06107202061002010BDBB
:108B100070B5040004D094F83900002510B106E0C7
:108B2000012070BD84F83850204600F023F824203E
:108B300084F839002068C16821F40051C1602046E2
:108B400000F060F92068016921F49041016120681A
:108B5000416921F02A0141612068C16841F4005156
:108B6000C160E563202084F8390084F83A000020D1
:108B700070BD000010B586B0044614216846FFF7AA
:108B800071FB13492068884220D11248016841F0E6
:108B900020010160006800F0200005900D481438A5
:108BA000016841F0040101600068694600F00400BA
:108BB0000590C02000900220019001200290032027
:108BC0000390082004900448FFF7A6FB06B010BDF0
:108BD0000014014044380240000802402DE9F843E7
:108BE000044690F839001F4616460D46202850D1FD
:108BF000A5B19EB194F8380001284AD0012084F82C
:108C000038004FF00008C4F83C80212084F8390077
:108C1000FFF752FCA6848146E68426E00120BDE8E9
:108C2000F883E08C401EE084A0684B46B0F5805F7E
:108C30004FF000024FF080012046009703D000F073
:108C400037FAE8B90DE000F033FAC8B9288821688E
:108C5000C0F308004860206908B16D1C05E0AD1C38
:108C600003E0216815F8010B4860E08C0028D8D19A
:108C70004B46002240212046009700F019FA08B127
:108C80000320CCE7202084F8390084F838800020C5
:108C9000C5E70220C3E7FEE7F0B587B014216846B8
:108CA000FFF7E0FA1E480024016841F0010101606D
:108CB000016801F001010591016841F008010160BE
:108CC000016801F008010591016841F004010160AB
:108CD0000068144F00F004004FF470460590002225
:108CE00031463846FFF7E3FB01250F480095CDE9F3
:108CF000010469460D48FFF70FFB0096CDE90154CA
:108D0000694638460394FFF707FB00221146062008
:108D1000FFF740FC0620FFF72FFC07B0F0BD000076
:108D200030380240000C02400000111000000240E8
:108D3000FEE7704770477047FFF7C4BB10B592B0AD
:108D400030216846FFF78EFA14210CA8FFF78AFA43
:108D500014480024016841F080510160006800F06F
:108D6000805011901048016841F440410160006852
:108D7000069400F4404011900220009001200390DE
:108D8000102004906846FFF721FD0F20CDE90C0468
:108D90000E940F9400210CA81094FFF72DFC12B034
:108DA00010BD0000403802400070004010480168CB
:108DB00041F4700101600F48016841F00101016058
:108DC0000C4A00210832116002680B4B1A40026005
:108DD000031D0A4A1A60026822F4802202600548D4
:108DE0000C30016002490648803908607047000075
:108DF00088ED00E000380240FFFFF6FE103000244E
:108E0000008000082DE9F041044600680169E2682D
:108E100021F44051114301612169A068E2690843CE
:108E20006169114322680843D16849F20C63994390
:108E30000143D16020684169A26921F44071114366
:108E40004161E2696425B2F5004F9748974922686D
:108E50004FF032083FD08A4201D082427CD1FFF7E6
:108E600073FC00EBC00101EB001061688900B0FBEE
:108E7000F1F6FFF769FC00EBC00101EB001061683F
:108E80008900B0FBF1F0B0FBF5F06FF0180148433A
:108E900006EB800108EB0110B0FBF5F000F0F006E6
:108EA000FFF752FC00EBC00101EB00106168890084
:108EB000B0FBF1F0B0FBF5F006EB0016FFF744FC59
:108EC00000EBC00101EB001061688900B0FBF1F715
:108ED000FFF73AFCD2E08A4201D082423DD1FFF74F
:108EE00033FC00EBC00101EB001061684900B0FBEE
:108EF000F1F0B0FBF5F00601FFF726FC00EBC00136
:108F000001EB001061684900B0FBF1F7FFF71CFCB2
:108F100000EBC00101EB001061684900B0FBF1F00B
:108F2000B0FBF5F06FF01801484307EB800108EB48
:108F3000C100B0FBF5F000F0F80006EB4006FFF7CB
:108F400003FC00EBC00101EB001061684900B0FBBD
:108F5000F1F7FFF7F9FB3CE055E0FFF7E5FB00EB2D
:108F6000C00101EB001061684900B0FBF1F0B0FBFB
:108F7000F5F00601FFF7D8FB00EBC00101EB001094
:108F800061684900B0FBF1F7FFF7CEFB00EBC001D1
:108F900001EB001061684900B0FBF1F0B0FBF5F0A7
:108FA0006FF01801484307EB800108EBC100B0FBEC
:108FB000F5F000F0F80006EB4006FFF7B5FB00EB1C
:108FC000C00101EB001061684900B0FBF1F7FFF749
:108FD000ABFB00EBC00101EB001061684900B0FB86
:108FE000F1F0B0FBF5F06FF01801484307EB80019A
:108FF00008EBC100B0FBF5F000F007002168304439
:109000008860BDE8F081FFF78FFB00EBC00101EB4A
:10901000001061688900B0FBF1F6FFF785FB00EBFB
:10902000C00101EB001061688900B0FBF1F0B0FBFA
:10903000F5F06FF01801484306EB800108EB0110D2
:10904000B0FBF5F000F0F006FFF76EFB00EBC0019F
:1090500001EB001061688900B0FBF1F0B0FBF5F0A6
:1090600006EB0016FFF760FB00EBC00101EB001000
:1090700061688900B0FBF1F7FFF756FB00EBC00118
:1090800001EB001061688900B0FBF1F0B0FBF5F076
:109090006FF01801484307EB800108EB0110B0FBAB
:1090A000F5F000F00F00A9E70014014000100140A6
:1090B0002DE9F041984617460E460446069D1DE0F0
:1090C000681C1BD02DB1FFF7F7F9A0EB0800A842F0
:1090D00014D92068C16821F4D071C1602068416949
:1090E00021F001014161202084F8390084F83A0020
:1090F000002084F838000320BDE8F0812068006873
:1091000036EA000004D00020B842D9D00020F3E7AE
:109110000120F9E7FEE70907090E002804DB00F14A
:10912000E02080F80014704700F00F0000F1E0200C
:1091300080F8141D704702E008C8121F08C1002AF9
:10914000FAD170477047002001E001C1121F002AC8
:10915000FBD1704786B0FFF7BDF9FFF7EFFDFFF7D2
:109160009BFD184816490C2201604FF4E131416023
:1091700000218160C160C0E904128161C161FFF713
:10918000C7FC182210A16846FFF753F8144E4FF0A1
:10919000FF344FF400452346162269460948FFF77D
:1091A0001DFDFFF789F900F5FA7700BFFFF784F995
:1091B000B842FBD929463046FFF772F9EBE70000C9
:1091C000001401401000002048656C6C6F2066722E
:1091D0006F6D2055534552204150500D0A0000003C
:1091E000000C024000000000000000000102030427
:1091F0000607080900000000010203041C92000891
:109200000000002010000000369100082C92000899
:1092100010000020400400004691000801000000FA
:0C92200010000000000000000024F4001A
:0400000508008199D5
:00000001FF
