:020000040800F2
:10000000484F00205D0200087F2100083F200008C3
:100010007D210008590B0008712A0008000000002B
:100020000000000000000000000000009D0100082A
:100030005B0B000800000000F9010008C92200085D
:1000400077020008770200087702000877020008AC
:1000500077020008770200085D0B0008630B0008B8
:10006000770200087702000877020008770200088C
:10007000770200087702000877020008770200087C
:10008000770200087702000877020008770200086C
:10009000770200087702000877020008770200085C
:1000A000770200087702000877020008770200084C
:1000B000770200087702000877020008770200083C
:1000C000770200087702000877020008770200082C
:1000D000770200087702000877020008770200081C
:1000E000770200087702000877020008770200080C
:1000F00077020008770200087702000877020008FC
:100100007702000877020008D12300087702000870
:1001100077020008770200087702000877020008DB
:1001200077020008770200087702000877020008CB
:1001300077020008770200087702000877020008BB
:1001400077020008770200087702000877020008AB
:10015000770200087702000877020008770200089B
:10016000770200087702000877020008770200088B
:1001700077020008770200087702000800000000FC
:100180007702000877020008DFF80CD000F05CFC72
:1001900000480047C1340008484F00202C4B196824
:1001A0000868B0E8F04F80F30988BFF36F8F4FF015
:1001B000000080F3118870470000000008480068C4
:1001C000006880F308884FF0000080F3148862B65E
:1001D00061B6BFF34F8FBFF36F8F00DF00BF00BF6B
:1001E00008ED00E0DFF80C00016841F470010160E7
:1001F000704700BF88ED00E0EFF30980BFF36F8F19
:10020000134B1A681EF0100F08BF20ED108A20E96A
:10021000F04F106009B44FF0500080F31188BFF325
:100220004F8FBFF36F8F04F0E5FB4FF0000080F3BA
:10023000118809BC19680868B0E8F04F1EF0100F6B
:1002400008BFB0EC108A80F30988BFF36F8F704746
:1002500038000020EFF30580704700000648804713
:1002600006480047FEE7FEE7FEE7FEE7FEE7FEE79B
:10027000FEE7FEE7FEE7FEE77D23000889010008B0
:100280002DE9F05F0546002092469B4688460646CB
:10029000814640241BE0284641464746224600F05E
:1002A00094F953465A46C01A914110D31146184644
:1002B000224600F07BF92D1A67EB01084F462246D3
:1002C0000120002100F072F917EB00094E41201EB9
:1002D000A4F10104DFDC484631462A464346BDE826
:1002E000F09F40EA01039B0703D009E008C9121FF1
:1002F00008C0042AFAD203E011F8013B00F8013BE0
:10030000521EF9D27047D2B201E000F8012B491E0B
:10031000FBD270470022F6E710B513460A460446A2
:100320001946FFF7F0FF204610BD421C10F8011BD4
:100330000029FBD1801A704710B5002200E0521C42
:10034000835C8C5CA34201D1002BF8D1D8B2E1B21E
:10035000401A10BD034611F8012B00F8012B002AAA
:10036000F9D118467047000070B50F4D00B92868E4
:10037000002412E00A4602E09E4203D0521C137889
:10038000002BF9D1DAB2224305D02BB124B10021E0
:1003900000F8011B04E00446401C0678002EE9D159
:1003A0002860204670BD0000B00000202DE9F04715
:1003B00091460F4680460446002614F8015B2DB195
:1003C00000F014F90068405DC007F6D12B2D02D073
:1003D0002D2D18D0641E4A463946204600F00AF9F1
:1003E00027B13968A14201D1C7F8008071054FF0EB
:1003F00002040BD54042002803DD02F071FB0460CB
:10040000A007BDE8F08746F48066E4E70028F8DA44
:1004100002F066FB04606FF00040F2E72DE9FE4F4A
:1004200081EA030404F0004421F0004100944FF0FD
:10043000000B23F0004350EA01045ED052EA0304AB
:100440005BD0C3F30A54C1F30A552C44A4F2F3342D
:100450000194A0FB0254C1F3130141F48011C3F3D2
:10046000130343F4801301FB024400FB034E840A90
:10047000970A44EA815447EA8357A4FB0768029528
:100480008D0A05FB07854FEA932C04FB0C542705C6
:10049000029D4FEA065847EA1637B5EB08056EEBA2
:1004A000070C870E920E47EA811742EA8312A7FBD8
:1004B0000201B6EB0B0164EB00042B0D43EA0C3395
:1004C0005E1844EB1C50DA465146E7FB0201C5F3C7
:1004D00013044FEA0B3343EA14534FEA0432019CEE
:1004E00043EA0603A4F10C040294009CCDE900B495
:1004F00000F015F903B0BDE8F08F00200146F9E7E0
:100500000EB5C10F80EAE0700844CA07002140F22E
:1005100033438DE80E000A460B4600F000F903B0A5
:1005200000BD00F0004230F000400AD0C10D01F5DE
:100530006071C0F3160042EA0151C208400711433E
:10054000704700200146704701F0004330B421F0AD
:10055000004150EA010206D00A0DA2F56072C1F313
:100560001301002A02DC30BC00207047440F44EA2B
:10057000C104C100E01830BC00EBC25000F089B8E3
:1005800030B50B46014600202022012409E021FA63
:1005900002F59D4205D303FA02F5491B04FA02F560
:1005A0002844151EA2F10102F1DC30BD202A04DB33
:1005B000203A00FA02F1002070479140C2F1200376
:1005C00020FA03F3194390407047202A04DB203AB5
:1005D00021FA02F00021704721FA02F3D040C2F163
:1005E00020029140084319467047000000487047B8
:1005F000E85B00082DE9F05F824600780027154689
:100600008B460AF10104B946302801D09DB113E0B0
:1006100014F8010B0127782803D0582801D045B1E0
:100620000AE00DB1102D07D10027102514F8010B99
:1006300002E0082500E00A250026B0460EE005FB92
:10064000080005FB06F1012701EB10461FFA80F8B0
:10065000B6F5803F00D3B94614F8010B294600F0E7
:1006600017FA0028EBDABBF1000F05D00FB1641EBA
:1006700000E05446CBF80040B9F1000F06D002F07C
:100680002FFA02210160C81EBDE8F09F48EA06402B
:10069000FAE70029A8BF7047401C490008BF20F0B6
:1006A0000100704710B4B0FA80FC00FA0CF050EA78
:1006B000010404BF10BC704749B1CCF1200421FAF9
:1006C00004F411FA0CF118BF012121430843A3EBF4
:1006D0000C01CB1D4FEA00614FEA102042BF002001
:1006E00010BC704700EBC35010440029A4BF10BCDD
:1006F0007047401C490008BF20F0010010BC704743
:1007000010B5141E73F1000408DA401C41F1000119
:1007100092185B411A4301D120F0010010BD2DE970
:10072000F04D92469B4611B1B1FA81F202E0B0FA67
:1007300080F220329046FFF739FF04460F4640EA28
:100740000A0041EA0B0153465A46084313D01146AA
:1007500053EA010019D0C8F140025046FFF735FFB7
:1007600005460E46504659464246FFF71FFF0843CE
:1007700005D0012004E020463946BDE8F08D002078
:10078000054346EAE0762C4337430A986305E40ABA
:10079000A0EB08000022FD0A44EA47540A3002D5C3
:1007A00000200146E9E7010510196941DDE9084526
:1007B00000196941BDE8F04DA2E72DE9FE4F8046E2
:1007C00081EA0300C00F0C46009021F0004123F0A5
:1007D0000045B8EB0200A94105D2404621469046AB
:1007E0001C460B46024623F00040104347D0270D1D
:1007F000C7F30A00C3F30A510290401A019040283F
:100800006BDAC3F3130040F4801B0098924620B1CA
:100810000023D2EB030A63EB0B0B01985946C0F19E
:1008200040025046FFF7C2FE06460D465046594666
:10083000019A00F01BF910EB08006141002487EADF
:10084000115284EAE7731A4340D0009A62B3019AC6
:10085000012A4FEA075215DC001B61EB02014FF041
:10086000004202EA0752CDE90042001C41F5801126
:1008700032462B46FFF753FF03B0BDE8F08F4046EA
:100880002146F9E7001B61EB0201001C41F58013D2
:1008900000185B412018A2F5001747EB030140EA5E
:1008A000D570B6196D4111E06D084FEA360645EA7C
:1008B000C0754FEA0752001B61EB0201001C41F5B5
:1008C000801149084FEA30000019514132462B4649
:1008D00003B0BDE8F04FFFF713BF009801224000BE
:1008E0000023D0EB020263EBE073009821464FEA4D
:1008F000E074B8EB000061EB0401E9E783F000432A
:100900005BE781F0004158E72DE9F04D81EA0304EF
:1009100004F0004B21F0004514464FF0000A23F08C
:10092000004150EA050220D054EA01021DD0C5F36F
:100930000A570246C5F31303C1F31300C1F30A5665
:1009400040F4801543F48013A7EB0608101BD6462D
:1009500008F2FD3873EB050002D308F1010801E04D
:1009600092185B41B8F1000F03DA00200146BDE8A0
:10097000F08D00204FF48011064684460EE0171BD0
:1009800073EB050705D3121B63EB050306434CEA23
:10099000010C49084FEA300092185B4150EA010708
:1009A000EDD152EA030012D082EA040083EA050185
:1009B000084305D0101BAB4106D20122002306E0FC
:1009C00000224FF0004302E06FF0010253101AEBD7
:1009D00006004CEB085110EB0A0041EB0B01BDE89F
:1009E000F04DFFF78DBEC1F30A52C1F3130140F27F
:1009F000FF3341F480119A4202DA00200146704729
:100A000040F233439A42A2F2334202DC5242FFF7F1
:100A1000DCBDFFF7CBBD000030B5041E71F1000452
:100A200004DB4FF00044404264EB0101141E73F1FB
:100A3000000405DB1C464FF00043524263EB040305
:100A4000994208BF904230BD064C074D06E0E06871
:100A500040F0010394E8070098471034AC42F6D305
:100A6000FFF796FB2C5C00084C5C0008202A06DB94
:100A7000CB17203A41FA02F043EAE07306E041FA6C
:100A800002F3D040C2F1200291400843194670475A
:100A90003A2800D2303820F02002412A01D3A2F1B6
:100AA0003700884201D34FF0FF3070478CB0DFF839
:100AB0008490DFF884A04FF4FA7B00BF02F0C6FCFC
:100AC00089ED060AC9ED070A10EE108A10EE904A69
:100AD00089ED081A11EE100AFFF723FD06460F46AE
:100AE0002046FFF71EFD04460D464046FFF719FD60
:100AF00041EC100B8DE8F0000E4853EC102B0FA1C9
:100B0000243001F0B7FF0B4904A82431FFF722FC81
:100B100000231A4604A9DAF8140002F0E5FE20B119
:100B2000012291030B4800F047FA584602F04CFDB1
:100B3000C4E70000B8010020000000202530342E5A
:100B400033662C2530342E33662C2530342E336614
:100B500024000000000C0240FEE77047012000F076
:100B600047B9022000F044B9002229B101291AD066
:100B700002291BD04FF440720E490B6823F44073D6
:100B80000B600B6813430B600A6822F0F8020A60DE
:100B90000A68022303EBC00002430A60086840F4BD
:100BA0008030086070474FF48072E5E74FF40072C0
:100BB000E2E70000103C0240064A136823F4407349
:100BC000136013681360136843F00103136001702E
:100BD00070470000103C0240084910B50C6824F42E
:100BE00040740C600C6844F440740C600C6844F071
:100BF00001040C600260436010BD0000103C024024
:100C0000074A136823F440731360136843F4807336
:100C10001360136843F00103136001807047000004
:100C2000103C0240074A136823F4407313601368B2
:100C300043F400731360136843F001031360016011
:100C400070470000103C024017490868C206174868
:100C500005D5C26942F01002C26110220A600A681A
:100C6000920605D5C26942F00802C26120220A60DC
:100C70000A68520605D5C26942F00402C2614022E8
:100C80000A600A68120605D5C26942F00202C26112
:100C900080220A600A68920705D5C26942F02002E4
:100CA000C2610220086070470C3C024050020020E4
:100CB00070B5114904460020C86100F083F906466A
:100CC0000E4D09E0601C07D024B100F07BF9801BB9
:100CD000A04201D9032070BD2868C003F2D428685F
:100CE000C00701D001202860286810F0F200F2D07F
:100CF000FFF7AAFF012070BD500200200C3C02400B
:100D00000348016841F00041016000207047000085
:100D1000103C02402DE9F0471B4E05461446307E3C
:100D20001F468946012808D0012030764CF2503801
:100D30004046FFF7BDFF18B114E00220BDE8F08780
:100D40009DB1012D16D0022D19D022463B464846B2
:100D5000FFF742FF4046FFF7ABFF0C490A6822F05D
:100D600001020A6000213176E8E7E1B24846FFF768
:100D700023FFEFE7A1B24846FFF742FFEAE721462B
:100D80004846FFF74FFFE5E750020020103C0240C5
:100D9000074900200A68002A09DA054A054B0C3A7F
:100DA0001360054B13600968002900DA01207047C1
:100DB000103C024023016745AB89EFCD10B51422EA
:100DC00008490948FFF78DFA074841680748012993
:100DD000C06904D00121BDE8104002F05DBC0221D1
:100DE000F9E7000000000E08FC01002000000020D0
:100DF000044910B50A68024202D00860FFF7DEFF1E
:100E000010BD0000143C01402DE9F84FDFF87CB123
:100E100000224FF001084FF0030A4FF00F090BF1C9
:100E2000040E00BF0B6808FA02F42340A3426ED1FF
:100E30004D68022D01D0122D0ED1D50800EB850C86
:100E4000DCF820505607F70E09FA07F6B5430E698D
:100E5000BE402E43CCF82060066855000F790AFA90
:100E600005FC07F0030726EA0C06AF40374307608E
:100E70004E68012E05D0022E03D0112E01D0122E65
:100E80000ED18668CF6826EA0C06AF4037438760EC
:100E90004668A6430C79C4F300149440344344607C
:100EA000C6688C6826EA0C06AC403443C4604C68C3
:100EB000E40065D5364C256845F4804525602468F6
:100EC00022F0030504F480440094324C2E19D6F825
:100ED000084895072F0F09FA07F5AC432E4DA84295
:100EE00001D1002524E02D4DA84201D101251FE0AC
:100EF0002B4DA84201D102251AE02A4DA84201D16A
:100F0000032515E0284DA84202D1042510E037E062
:100F1000264DA84201D105250AE0254DA84201D160
:100F2000062505E0234DA84201D1072500E008254C
:100F3000BD402543C6F80858DBF800405D464E68C2
:100F40009C43F60300D51C432C60DEF80040754638
:100F50004E689C43B60300D51C432C600B4D0835EE
:100F60002C684E689C43F60200D51C432C60074D4C
:100F70000C352C684E689C43B60200D51C432C608F
:100F8000521C102AFFF44EAFBDE8F88F003C014020
:100F9000443802400030014000000240000402409A
:100FA00000080240000C0240001002400014024001
:100FB00000180240001C02400AB181617047090418
:100FC000FBE700000148806870470000280000200F
:100FD000024881680278114481607047280000202F
:100FE0000B4810B5016841F400710160016841F4DB
:100FF00080610160016841F480710160032000F0AC
:101000008DF8002000F006F800F03EF8002010BD3A
:10101000003C024010B5014688B00022322000F0AA
:101020005DF8322000F04CF813480024016841F0CC
:1010300008010160006805A900F0080006906846F4
:1010400000F016F900F034F90C494000B0FBF1F162
:101050000C480B4A491E026040F2E732C0E9032403
:10106000C0E9011400F0BFFD10B1012008B010BDAF
:10107000044800F0D4FDF9E74038024040420F0038
:10108000000C0040100200200C4882B0016841F4BE
:1010900080410160006800F4804000900748001F14
:1010A000016841F0805101600068002200F080502A
:1010B00000900F21901E02B000F010B8443802409A
:1010C000002809DB00F01F02012191404009800047
:1010D00000F1E020C0F8001170470000F0B40E4BA2
:1010E0001B680C46C3F30223C3F10705042D00D986
:1010F0000425191D072901D2002300E0DB1E01266B
:1011000006FA05F1491E214099409E40761E164080
:101110003143F0BC01F0D4BC0CED00E0064900F016
:10112000070208684FF6FF03184040EA0220034A0E
:1011300010430860704700000CED00E00000FA0565
:101140002DE9F0470E46050065D0DFF81481D8F888
:101150000000F7B200F00F00B04207D288F800702C
:10116000D8F8000000F00F00B04254D128683D4C80
:10117000810712D5400703D5206840F4E050206075
:101180002878000703D5206840F46040206020687C
:10119000A96820F0F000084320602878C0072DD00F
:1011A000304968680839012812D0022813D0032872
:1011B00011D00968890700292DDA216821F003017F
:1011C00001432160FFF7FEFE814641F2883A0EE0BE
:1011D00009688903EFE709688901ECE7FFF7F2FE88
:1011E000A0EB0901514502D90320BDE8F087206832
:1011F000696800F00C00B0EB810FEFD1D8F8001057
:10120000404601F00F01B14207D90770006800F0B5
:101210000F00B04201D00120E7E72878400705D54C
:101220002068E96820F4E05008432060287800072F
:1012300006D52068296920F4604040EAC10020609A
:1012400000F056F82168084AC1F30311515CC84008
:10125000064908600020FFF7DDFE0020C5E700001A
:10126000003C0240083802404C5B0008340000207B
:101270000F2202600C4A136803F0030343601368F3
:1012800003F0F0038360136803F4E053C360126853
:101290004FF4E05303EAD20202610448006800F010
:1012A0000F0008607047000008380240003C024010
:1012B0000448054900680968044AC1F38221515C69
:1012C000C840704734000020083802405C5B0008CA
:1012D0000448054900680968044AC1F34231515C79
:1012E000C840704734000020083802405C5B0008AA
:1012F000154810B5006810F00C02144813D04110C6
:10130000042A0FD0082A0ED10F4C241F226823680C
:1013100002F03F025B0207D52068C0F38810A0FBF3
:10132000010106E0084610BD2168C1F38811A1FB48
:1013300000010023FEF7A4FF2168C1F30141491C0D
:101340004900B0FBF1F010BD083802400024F40061
:101350002DE9F84F050076D02878DFF8F8B2BE4CBA
:10136000C00749D0DBF800105846C1F381010129BC
:1013700008D00068C0F3810002280AD1201D00684F
:10138000400206D52068800336D568680028E2D080
:1013900032E06868B0F5803F10D0B0F5A02F20682B
:1013A00010D020F480302060206820F4802020605D
:1013B0006868A0B1FFF706FE06460CE0206840F41E
:1013C0008030F4E740F480202060F7E7FFF7FAFD73
:1013D000801B642873D820688003F7D50CE0FFF7E2
:1013E000F1FD064605E000BFFFF7ECFD801B642819
:1013F000F0D820688003F7D42878DFF8608280076F
:101400004FF000093ED5DBF80010584611F00C0FE4
:1014100009D00068C0F3810002280BD18D48001F5D
:101420000068400206D42068800715D5E8680128C6
:1014300009D111E0E868B8B10120C8F80000FFF751
:10144000C1FD064605E002E1FFF7BCFD801B022856
:10145000C0D820688007F7D52068296920F0F800F7
:1014600040EAC10020600DE0C8F80090FFF7AAFD37
:10147000064604E0FFF7A6FD801B02281FD820685F
:101480008007F7D42878000722D5724E744869691E
:101490006C3671B101210160FFF794FD074604E04D
:1014A000FFF790FDC01B022809D830688007F7D5E8
:1014B0000EE0C0F80090FFF785FD074605E083E0E9
:1014C000FFF780FDC01B02287ED830688007F7D464
:1014D0002878400768D5DFF87CA100270AF1380A90
:1014E000DAF80000C0000BD4DAF8001041F08051A7
:1014F000CAF80010DAF80000012700F080500090D0
:10150000584E3068C00510D4306840F480703060A8
:10151000FFF758FD009005E0FFF754FD0099401AD1
:10152000022851D83068C005F6D54A4EA8686836FA
:1015300001280FD00528306810D020F0010030605D
:10154000306820F004003060A868B8B1FFF73AFDB9
:1015500000900FE0306840F00100F4E740F0040034
:101560003060F7E7FFF72EFD0099411A41F288300D
:10157000814264D830688007F4D50EE0FFF722FD81
:10158000009007E0FFF71EFD0099411A41F28830F4
:10159000814254D830688007F4D42FB1DAF80010B3
:1015A00021F08051CAF80010A869C0B3DBF8001020
:1015B000C1F3810102294AD00228484607D0C8F861
:1015C0006000FFF7FFFC00E039E005463AE04746DF
:1015D000C8F86000FFF7F6FC064604E0FFF7F2FCEF
:1015E000801B02282BD820688001F7D4D5E9070199
:1015F0000843A96A1C4A490802EB01416A6A41EAA8
:101600008211084395F82C1040EA01611148001F2F
:10161000016001203866FFF7D5FC054605E014E0BF
:10162000FFF7D0FC401B022809D820688001F7D5BD
:101630000BE000BFFFF7C6FC401B022802D90320C5
:10164000BDE8F88F20688001F4D40020F8E701207D
:10165000F6E7000008380240003802400000474228
:10166000800E4742007000400000FFFF70B504008C
:1016700005D00025A56294F8510010B106E00120C4
:1016800070BD84F85050204600F030F8022084F8F5
:1016900051002068016821F040010160D4E9010196
:1016A0000843D4E903121143084361690843218BBD
:1016B00001F400710843E1690843216A0843A16A03
:1016C000084321680860A069042101EA1040616AAA
:1016D0000843216848602068C16921F40061C16144
:1016E0006565012084F85100002070BD10B586B0FA
:1016F000044614216846FEF70DFE1349206888420F
:1017000020D112480021026842F480520260006831
:1017100000F4805005900D481438026842F0010230
:101720000260006800F001000590E02000900220B7
:10173000CDE9010103200390052004906946044887
:10174000FFF762FB06B010BD003001404438024094
:10175000000002402DE9F84F0446406800259846F5
:1017600016460F464FF0040BB0F5827F01D1A068FA
:1017700088B194F85000012818D0012084F8500056
:10178000FFF720FC814694F851004FF0000A012831
:101790000ED002257DE084F851B013460A4620465B
:1017A000CDF8008000F02CF9BDE8F88F0220FBE7AF
:1017B000002F6DD0002E6BD084F851B0C4F854A027
:1017C000A763A687E687C4F830A0A4F834A0A4F8DD
:1017D00036A0C4F840A0C4F844A0A068B0F5004FFB
:1017E00004D12068016821F480410160206801680B
:1017F000490603D4016841F040010160E068D8B1B6
:1018000039E020688168C90709D0007BA16B0870A6
:10181000A06B401CA063E08F401EE0870CE0FFF748
:10182000D1FBA0EB0901414503D3B8F1FF3F03D041
:1018300036E0B8F1000F33D0E08F0028E1D11DE091
:1018400020688168C90709D0C068A16B0880A06BB7
:10185000801CA063E08F401EE0870CE0FFF7B2FB26
:10186000A0EB0901414503D3B8F1FF3F03D017E0D6
:10187000B8F1000F14D0E08F0028E1D14A4641466C
:10188000204600F07DFC08B120206065606D00B14D
:101890000125012084F8510084F850A0284683E7F0
:1018A0000325F6E72DE9F84F044690F8500000278D
:1018B0001D461646894601280DD04FF0010B84F8CD
:1018C00050B0FFF77FFB804694F85100BA460128DC
:1018D00004D002278EE00220BDE8F88FB9F1000F96
:1018E0007DD0002E7BD0032084F85100C4F854A092
:1018F000C4F83090A686E686C4F838A0A4F83CA0C8
:10190000A4F83EA0C4F844A0C4F840A0A068B0F574
:10191000004F04D12068016841F4804101602068D3
:101920000168490603D4016841F040010160E068A4
:10193000B0F5006F606803D030B3012E24D040E0D2
:1019400008B1012E1CD1206B21680088C86006E018
:1019500020688168890709D5216B0988C160206BDF
:10196000801C2063E08E401EE08609E0FFF72AFB22
:10197000A0EB0800A84202D3681C01D031E07DB37F
:10198000E08E0028E4D11FE0206B21680078087306
:1019900006E020688168890709D5216B0978017301
:1019A000206B401C2063E08E401EE08609E0FFF7BC
:1019B00009FBA0EB0800A84202D3681C01D010E08C
:1019C00075B1E08E0028E4D142462946204600F059
:1019D00005FC08B120206065A06820B107E008E0A0
:1019E000FFE7032706E02068C16880680090606D0B
:1019F00000B1012784F851B084F850A038466BE755
:101A00002DE9F84F044690F8500000270A9E1D4625
:101A100092468B464FF0010901280ED0012084F830
:101A20005000FFF7CFFA804694F851006168012812
:101A30000CD0B1F5827F07D102E00220BDE8F88F1B
:101A4000A16809B9042801D00227C2E0BBF1000F48
:101A500027D0BAF1000F24D01DB394F85100042808
:101A600002D0052084F8510000206065C4F838A039
:101A7000E587A587C4F830B0E586A5862064606454
:101A800020680168490603D4016841F04001016003
:101A9000E068B0F5006F606805D0E8B3012D46D06E
:101AA0007FE0012795E008B1012D39D1206B216835
:101AB0000088C860206B801C2063E08E401EE0869A
:101AC0002EE02068816889070FD5E18E69B1B9F1F0
:101AD000010F0AD1216B0988C160206B801C206333
:101AE000E08E401EE0864FF0000920688168C9073B
:101AF0000CD0E18F51B1C068A16B0880A06B801C35
:101B0000A063E08F401EE0874FF00109FFF75AFA0B
:101B1000A0EB0800B04200E009E001D3701C50D1F6
:101B2000E08E0028CDD1E08F0028CAD13FE0206BA5
:101B3000216800780873206B401C2063E08E401EF3
:101B4000E0862EE02068816889070FD5E18E69B1B3
:101B5000B9F1010F0AD1216B09780173206B401C88
:101B60002063E08E401EE0864FF000092068816807
:101B7000C9070CD0E18F51B1C068A16B0870A06B90
:101B8000401CA063E08F401EE0874FF00109FFF783
:101B900019FAA0EB0800B04202D3701C01D010E08B
:101BA0007EB1E08E0028CDD1E08F0028CAD1424618
:101BB0003146204600F012FB28B101272020606545
:101BC00007E0032705E0A06818B92068C1688068AD
:101BD0000090012084F85100002084F8500038461D
:101BE0002CE77047704710B5040003D094F83D000F
:101BF00010B107E0012010BD002084F83C00204611
:101C000000F00CF8022084F83D00211D206800F04F
:101C1000E5FB012084F83D00002010BD70470168FD
:101C2000CA6842F00102CA600068816801F00701D9
:101C3000062903D0016841F00101016000207047CE
:101C4000704770B50446006801694FF00005C9434C
:101C5000890715D4C168C943890711D4E91E0161F8
:101C600001202077206880698007204602D0FFF796
:101C7000E7FF04E000F098F8204600F096F825779A
:101C800020680169C943490717D4C168C943490796
:101C900013D46FF00401016102202077206880696D
:101CA00010F4407F204602D0FFF7CAFF04E000F0A6
:101CB0007BF8204600F079F8257720680169C94350
:101CC000090716D4C168C943090712D46FF0080187
:101CD0000161042020772068C0698007204602D077
:101CE000FFF7AEFF04E000F05FF8204600F05DF87B
:101CF000257720680169C943C90617D4C168C9435B
:101D0000C90613D46FF01001016108202077206804
:101D1000C06910F4407F204602D0FFF791FF04E035
:101D200000F042F8204600F040F82577206801696D
:101D3000C943C90708D1C168C943C90704D1891E6D
:101D40000161204600F032F820680169C9430906A4
:101D500009D4C168C943090605D46FF08001016147
:101D60002046FFF73EFF20680169C943490609D4B0
:101D7000C168C943490605D46FF04001016120469E
:101D800000F01EF820680169C94389060BD4C168B8
:101D9000C943890607D46FF0200101612046BDE8E0
:101DA0007040FFF71FBF70BD704770470068034960
:101DB000884201D1FFF70CB970470000000C0040C9
:101DC000704770B5040004D094F83900002510B1B4
:101DD00006E0012070BD84F83850204600F022F85B
:101DE000242084F839002068C16821F40051C160C2
:101DF000204600F09BFB2068016921F490410161BD
:101E00002068416921F02A0141612068C16841F4DC
:101E10000051C160E563202084F8390084F83A005D
:101E2000002070BD30B587B0044614216846FEF727
:101E300071FA214D21682148022201230324A9427D
:101E400019D11E4910310D6845F400350D6009683F
:101E500001F400310591016841F001010160006861
:101E6000694600F0010005900C208DE81D00072058
:101E7000049013481BE0134DA9421AD10F491431A5
:101E80000D6845F020050D60096801F020010591FD
:101E9000016841F0040101600068694600F0040037
:101EA0000590C0208DE81D00082004900648FEF72C
:101EB000ABFF07B030BD00000044004030380240A6
:101EC0000000024000140140000802402DE9F843E0
:101ED000044690F83A00994616460D4620284FD100
:101EE00095B18EB194F83800012849D0012084F8CA
:101EF00038000027E763222084F83A00FFF762F8F1
:101F0000A6858046E68531E00120BDE8F883E08DB6
:101F1000401EE085A0684346B0F5805F4FF00002A8
:101F20004FF020012046CDF8009004D000F054FC82
:101F300098B10320E9E700F04FFC0028F9D12069AF
:101F400000282068406803D0C1B225F8011B0DE0CD
:101F5000C0F3080125F8021B08E02069002820686A
:101F6000406801D000F07F0005F8010BE08D0028EB
:101F7000CDD1202084F83A0084F838700020C4E7DE
:101F80000220C2E72DE9F843044690F839001F46C5
:101F900016460D46202850D1A5B19EB194F83800C0
:101FA00001284AD0012084F838004FF00008C4F816
:101FB0003C80212084F83900FFF704F8A68481468C
:101FC000E68426E00120BDE8F883E08C401EE08432
:101FD000A0684B46B0F5805F4FF000024FF08001E3
:101FE0002046009703D000F0F7FBE8B90DE000F0C1
:101FF000F3FBC8B928882168C0F30800486020694D
:1020000008B16D1C05E0AD1C03E0216815F8010B5B
:102010004860E08C0028D8D14B4600224021204661
:10202000009700F0D9FB08B10320CCE7202084F80A
:10203000390084F838800020C5E70220C3E7FEE7B6
:102040002DE9F04186B014216846FEF763F9374860
:102050000024016841F010010160016801F01001E5
:102060000591016841F001010160016801F0010181
:102070000591016841F002010160016801F002016F
:102080000591016841F008010160016801F0080153
:102090000591016841F0040101600068244E00F0E0
:1020A00004000590012208213046FEF785FFDFF885
:1020B00084804FF47047002239464046FEF77CFF8B
:1020C00001250820CDE90005CDE9025469463046D6
:1020D000FEF79AFE184E0095CDE90164694617484F
:1020E000FEF792FE0220CDE90006029069461448F0
:1020F000FEF78AFE0097CDE90154694640460394F5
:10210000FEF782FE002205210620FEF7E7FF0620EB
:10211000FEF7D6FF002205210720FEF7DFFF07208C
:10212000FEF7CEFF06B0BDE8F08100003038024077
:1021300000100240000C024000001110000002409C
:10214000000402400C480B494FF4007201604FF448
:102150008271416000218160C1600161C0E90512A6
:102160001022C0E90721416281620A21C162FFF7A2
:102170007DBA000000300140F8000020FEE7704703
:10218000F8B5044640684FF48273984221D1A068A4
:102190004FF48065B0F5004F01D0A8420AD1206805
:1021A000066826F0400606606068984211D1A06873
:1021B000A8420ED000920B4600228021204600F05B
:1021C00039F8002804D0606D40F0200060650320DD
:1021D000F8BD00920B4600220121EFE738B5044616
:1021E0001248134B0068B0FBF3F04FF47A73584376
:1021F00000906068B0F5827F0DD10B4600920022FE
:102200008021204600F016F870B1606D40F020008B
:102210006065032038BD009830B1401E00902068F2
:102220008068C0430006F6D5002038BD3400002089
:1022300000366E012DE9F0411D4617460E46044654
:10224000DDF8188008E0681C06D0FEF7BBFEA0EBA6
:102250000800A8420BD255B12068806836EA000019
:1022600030D00020B842EED10020BDE8F0812068D7
:10227000416821F0E00141606068B0F5827F0BD1D8
:10228000A068B0F5004F02D0B0F5806F04D120688F
:10229000016821F040010160A06AB0F5005F09D13A
:1022A0002068016821F4005101602068016841F450
:1022B00000510160012084F85100002084F8500092
:1022C0000320D2E70120CDE710B5502080F311881C
:1022D000BFF34F8FBFF36F8F03F0FCF918B10449C0
:1022E0004FF080500860002080F3118810BD00007E
:1022F00004ED00E030B593B030216846FEF70AF8EF
:1023000014210CA8FEF706F81A480025016841F0D0
:1023100080510160006800F08050119016480168FB
:1023200041F4804101600068022400F48040119073
:102330000120039010200490009406940820CDE919
:1023400007503220099004200A9007200B9068461D
:10235000FEF7FEFF0CA90F2081E831004FF4C050BA
:102360000F904FF4A050109000210CA8FEF7E8FE4B
:1023700013B030BD40380240007000401048016882
:1023800041F4700101600F48016841F001010160F2
:102390000C4A00210832116002680B4B1A4002609F
:1023A000031D0A4A1A60026822F48022026005486E
:1023B0000C300160024958068039086070470000FF
:1023C00088ED00E000380240FFFFF6FE10300024E8
:1023D0000148FFF736BC000010020020F0B502688B
:1023E000254C264D264E274F274B4FF0804CA042C0
:1023F00009D0604507D0A84205D0B04203D0B8420A
:1024000001D0984204D122F0700E4A6842EA0E02CE
:10241000A0421BD0604519D0A84217D0B04215D0B9
:10242000B84213D0984211D0184DA8420ED0184D82
:10243000A8420BD0174DA84208D0174DA84205D08E
:10244000164DA84202D0164DA84203D122F4407581
:10245000CA682A434D6922F080022A4302608A68D2
:10246000C2620A688262A04201D0984201D1096921
:10247000016301214161F0BD000001400004004002
:1024800000080040000C00400004014000400140F2
:10249000004401400048014000180040001C00407A
:1024A000002000401E4C1F4F88B04FF0FF354FF406
:1024B00080462B4600226946606901F09DF9606202
:1024C00040B1012231463846FEF776FD012001F089
:1024D0007BF8EEE7A069E8B1294601F045FA6062B1
:1024E00028B1012231463846FEF766FD08E068460D
:1024F000FDF71BFF82B22B4669460B48FFF742FDF2
:10250000A06901F0A7FA606220B101223146384685
:10251000FEF752FD20216846FDF7FCFED6E70000DD
:1025200000000020000C0240500100202DE9F04185
:10253000044600680169E26821F4405111430161D9
:102540002169A068E2690843616911432268084370
:10255000D16849F20C6399430143D1602068416915
:10256000A26921F4407111434161E2696425B2F529
:10257000004F9748974922684FF032083FD08A426F
:1025800001D082427CD1FEF7A3FE00EBC00101EB3B
:10259000001061688900B0FBF1F6FEF799FE00EBD0
:1025A000C00101EB001061688900B0FBF1F0B0FBE5
:1025B000F5F06FF01801484306EB800108EB0110BD
:1025C000B0FBF5F000F0F006FEF782FE00EBC00174
:1025D00001EB001061688900B0FBF1F0B0FBF5F091
:1025E00006EB0016FEF774FE00EBC00101EB0010D5
:1025F00061688900B0FBF1F7FEF76AFED2E08A421B
:1026000001D082423DD1FEF763FE00EBC00101EB39
:10261000001061684900B0FBF1F0B0FBF5F0060175
:10262000FEF756FE00EBC00101EB001061684900A7
:10263000B0FBF1F7FEF74CFE00EBC00101EB001020
:1026400061684900B0FBF1F0B0FBF5F06FF01801E4
:10265000484307EB800108EBC100B0FBF5F000F048
:10266000F80006EB4006FEF733FE00EBC00101EB7D
:10267000001061684900B0FBF1F7FEF729FE3CE06D
:1026800055E0FEF715FE00EBC00101EB001061689C
:102690004900B0FBF1F0B0FBF5F00601FEF708FED3
:1026A00000EBC00101EB001061684900B0FBF1F7DD
:1026B000FEF7FEFD00EBC00101EB00106168490070
:1026C000B0FBF1F0B0FBF5F06FF01801484307EBF9
:1026D000800108EBC100B0FBF5F000F0F80006EB5C
:1026E0004006FEF7E5FD00EBC00101EB001061685C
:1026F0004900B0FBF1F7FEF7DBFD00EBC00101EB99
:10270000001061684900B0FBF1F0B0FBF5F06FF02C
:102710001801484307EB800108EBC100B0FBF5F05E
:1027200000F00700216830448860BDE8F081FEF7C2
:10273000BFFD00EBC00101EB001061688900B0FB38
:10274000F1F6FEF7B5FD00EBC00101EB001061688A
:102750008900B0FBF1F0B0FBF5F06FF018014843D1
:1027600006EB800108EB0110B0FBF5F000F0F0067D
:10277000FEF79EFD00EBC00101EB001061688900CF
:10278000B0FBF1F0B0FBF5F006EB0016FEF790FDA4
:1027900000EBC00101EB001061688900B0FBF1F7AC
:1027A000FEF786FD00EBC00101EB001061688900B7
:1027B000B0FBF1F0B0FBF5F06FF01801484307EB08
:1027C000800108EB0110B0FBF5F000F00F00A9E765
:1027D00000140140001001402DE9F04198461746D1
:1027E0000E460446069D1DE0681C1BD02DB1FEF769
:1027F000E9FBA0EB0800A84214D92068C16821F4C5
:10280000D071C1602068416921F00101416120203F
:1028100084F8390084F83A00002084F83800032056
:10282000BDE8F0812068006836EA000004D000208E
:10283000B842D9D00020F3E70120F9E72DE9F043B1
:10284000A3B00026DFF8D091744C751E4FF4804879
:102850001DAF202172482662FDF75CFD71A1704812
:10286000FDF778FD2B4600220321E06900F04AFFC6
:102870002062C11C7DD0011DFCD0C1077AD0A069A7
:1028800010B3294601F070F8606228B10122414678
:102890004846FEF791FB0DE061492B462022A1F14D
:1028A0008C00FFF76FFB63492B46402201F1980033
:1028B000FFF70CFBA06901F0CDF8606220B10122A6
:1028C00041464846FEF778FB5A4914A801F042F900
:1028D00014A959A0FDF730FD20B939465AA0FDF7DB
:1028E0002BFD68B1A069002843D0294601F03CF8CF
:1028F0006062E8B3012241464846FEF75DFB57E0BF
:10290000474820992030052281602199C1601C9997
:102910000161012141600146002002F0BDF8384606
:1029200001F0B6FDA06930B3294601F01DF86062E0
:1029300028B1012241464846FEF73EFB10E03846EA
:10294000FDF7F3FC82B236482B4639468C38FFF748
:1029500019FB33482B46012230498C38FFF712FB14
:10296000A06901F077F8606228B10122414603E0D6
:102970000DE04CE027E002E04846FEF71DFB012297
:1029800011034846FEF718FB23B0BDE8F083384634
:10299000FDF7CBFC82B222482B4639468C38FFF734
:1029A000F1FA1F482B4601221C498C38FFF7EAFA3E
:1029B000A06901F04FF8606248B3012241464846E1
:1029C000FEF7FAFA23E0800721D50122D103484619
:1029D000FEF7F2FA1FA123AA6846229100F05EF8E2
:1029E0006846FDF7A2FC82B20D482B4669464C387A
:1029F000FFF7C8FABFF34F8F1B4801681B4A01F469
:102A0000E06111430160BFF34F8F00BFFDE701207C
:102A100000F0DAFD1DE70000000C0240000000207D
:102A2000DC010020636865636B5F757064617465C9
:102A300000000000B800002053544D3332463430BB
:102A40003756475436000000413142324333443454
:102A500000000000426F6F746C6F61646572204A01
:102A6000554D500D0A0000000CED00E00400FA0581
:102A7000FEE700000FB4084B10B504A902AA0398A2
:102A800000F004F9044602A9002000F096FC20465C
:102A900010BC5DF814FB0000BB33000837B51446CA
:102AA0000846064B6A46214600F0F0F8044669469F
:102AB000002000F082FC20463EBD0000BB33000831
:102AC0000907090E002804DB00F1E02080F800145B
:102AD000704700F00F0000F1E02080F8141D7047EF
:102AE00000487047B400002002E008C8121F08C167
:102AF000002AFAD170477047002001E001C1121F7F
:102B0000002AFBD1704700002DE9FF5F82B0002151
:102B1000DDE90430020DDDF840B0034318D044F67F
:102B20001050A2F2FF3242431514119801281FD011
:102B3000A5EB0B00401C5FEA000A4FF000064E4F69
:102B4000DFF83891B046504615D5CAF1000413E0BD
:102B5000119801244AA3012801D16FEA0B010298C0
:102B6000119AC0E90031C0E9024206B0BDE8F09F09
:102B7000CBF10000DFE704460021404A491842EB50
:102B80000450CDE9001012E0E00707D032463B4682
:102B900040464946FDF742FC8046894632463B4660
:102BA00010461946FDF73AFC06460F466410002C05
:102BB000EAD1DDE90401DDE90023BAF1000F06DA0C
:102BC000FDF72CFC42464B46FDF728FC05E0FDF7DF
:102BD0009BFE42464B46FDF797FE04460E460022FA
:102BE000284BFDF719FF03D84FF0FF30014607E0EF
:102BF0000022254B20463146FDF7DFFDFDF7F3FEB1
:102C0000102409E0002C0ADB0A220023FDF738FB20
:102C1000039B30321A55641E50EA0102F2D1641C43
:102C2000039AC4F111031444119A012A03D001221A
:102C300008430DD10AE0084304D000204FF0110BE7
:102C4000119072E7A3EB0B056D1E0DE05B4504DDF3
:102C50004FF0000205F1010504E003DA4FF0000235
:102C6000A5F10105002AECD002981199C0E90231C2
:102C7000C0E9004579E70000000014400000F03F83
:102C8000300000000000F0430000E03F2DE9FF4F5E
:102C900095B09B468946064600250FE2252877D148
:102CA00000242746F84A0121059400E0044316F861
:102CB000013F203B01FA03F01042F7D130782A2877
:102CC00011D06FF02F033078A0F13002092A16D806
:102CD000059A44F0020402EB820203EB4202104424
:102CE000761C0590EFE759F8042B0592002A03DAC9
:102CF000504244F40054059044F00204761C3078AD
:102D00002E2816D116F8010F44F004042A280DD0FD
:102D10006FF02F023078A0F13003092B09D807EBB0
:102D2000870302EB4303C718761CF3E759F8047BCB
:102D3000761C30786C280FD006DC4C2817D0682819
:102D40000DD06A2814D104E0742810D07A280FD14D
:102D50000DE044F400140AE044F4801401E044F46B
:102D600040147278824202D104F58014761C761CDD
:102D7000307866280BD013DC582877D009DC00287F
:102D800075D04528F6D04628F4D047281AD19DE1C1
:102D900018E0632835D0642879D0652812D195E1F0
:102DA000702873D008DC6728F1D069286FD06E28AE
:102DB0000DD06F2806D1B5E073282CD0752875D0BA
:102DC000782874D05A46179990476D1C75E1C4F362
:102DD0000250022809D003280DD0D9F80010042889
:102DE0000DD00D6009F1040967E1D9F80010EA1768
:102DF000C1E90052F6E7D9F800100D80F2E70D7036
:102E0000F0E719F8041B8DF8001000208DF8010080
:102E1000EA46012003E059F804AB4FF0FF306107A8
:102E20004FF0000102D40DE008F101018846B942DB
:102E30000FDA8045F8DB1AF808100029F4D108E011
:102E400008F1010188468142FADB1AF808100029CE
:102E5000F6D105985B46A0EB080721463846179A3D
:102E600000F094FA284400EB080507E04DE029E162
:102E70000DE01AF8010B5A4617999047B8F101086E
:102E8000F7D25B4621463846179A13E142E00A2200
:102E90000092C4F302524FF0000A022A08D059F8F7
:102EA00004CB032A4FEAEC710AD00DE029E02AE0B6
:102EB00009F1070121F00702F2E802C1914609E099
:102EC0000FFA8CFC4FEAEC71042A03D14FFA8CFC08
:102ED0004FEAEC71002907DA0A460021DCF1000C08
:102EE00061EB02012D2202E0220504D52B228DF890
:102EF0000420012203E0E20701D02022F7E79046F8
:102F000059E00A2102E010220DE010214FF0000AE2
:102F100000910BE010224FF0000A44F0040408274F
:102F2000009203E008224FF0000A0092C4F302521C
:102F3000022A05D059F804CB0021032A08D009E061
:102F400009F1070121F00702F2E802C1914605E00C
:102F50001FFA8CFC042A01D10CF0FF0C4FF0000882
:102F6000220728D5702806D0009B83F0100353EA6F
:102F70000A0305D00EE040228DF80420012208E06B
:102F80005CEA010206D030228DF804208DF805009D
:102F900002229046009B83F0080353EA0A030AD1F9
:102FA0005CEA010201D1620705D530228DF80420C8
:102FB0004FF001087F1E582804D034A003900EA8BB
:102FC00002900DE036A0F9E753466046009AFDF7FF
:102FD00057F984460398825C0298401E0290027062
:102FE0005CEA0100F0D1029806A9081A00F1200A53
:102FF000600702D524F4803400E00127574502DD44
:10300000A7EB0A0000E0002000EB0A010090059801
:103010004144401A0590E00306D45B462146179AC6
:10302000059800F0B3F90544002706E001A85A46C8
:10303000C05D179990476D1C7F1C4745F6DBE00388
:103040000CD55B462146179A059800F09FF9054478
:1030500004E030205A46179990476D1C0099481E8D
:1030600000900029F5DC08E0029802995A460078A1
:10307000491C0291179990476D1CBAF10001AAF101
:10308000010AF1DC65E1000009280100303132332A
:103090003435363738396162636465660000000094
:1030A000303132333435363738394142434445467E
:1030B0000000000000F058F90544761C3078002824
:1030C0007FF4ECAD19B02846BDE8F08F620700D45C
:1030D000062709F1070222F0070CFCE80223E1466B
:1030E00003F000485FEA080C02D00FF2702C0DE0EC
:1030F0005FEA045C02D50FF2682C07E05FEAC47C4B
:1031000002D00FF2602C01E0AFF2700C4FF0FF38EC
:1031100023F00043CDF850C065280CD006DC4528CC
:1031200009D046281DD047283DD13DE0662818D05B
:1031300067287ED138E00021112F01DB112000E04B
:10314000781CCDE9000106A90EA8FFF7DDFCDDE93A
:103150000F010E9A03910021009207F1010A0491D8
:103160004DE04FF000400097CDE9011006A90EA8F0
:10317000FFF7CAFCDDE90F0203920E9B11990022B2
:10318000DDF80CA00093049211B9791C00EB010A40
:10319000B7EB0A0004D4C0F1FF3007F1010A049034
:1031A000AAEB0700019044E0012F00DA012700217B
:1031B000112F01DD112000E03846CDE9000106A9FC
:1031C0000EA8FFF7A1FCDDE90F010E9A0391002183
:1031D00004910092BA4621070CD40399514500DAB4
:1031E0008A46BAF1010F05DD009AAAF10101515C8E
:1031F000302908D0B84202DA10F1040F06DA0121B2
:10320000CDE9011015E0AAF10101E9E7002805DC8C
:10321000049901440491AAEB000102E0411C5145CC
:1032200000DD8A460499401A401C01904FF000408E
:103230000290200704D40198504501DBCDF80480AA
:1032400000208DF84F0002980DF14F07B0F1004FAC
:1032500025D02B200E9002984FF0020800280CDA9F
:10326000404202902D200E9007E00A210298FDF7BF
:1032700087F93031029007F8011DB8F10001A8F17B
:103280000108F2DC02980028EFD1791E0E98087030
:10329000307800F0200040F0450007F8020D12A839
:1032A000C01B00F107081498007800B1012000EB62
:1032B0000A01019801EBE07105984144401A401E53
:1032C0000590E00306D45B462146179A059800F066
:1032D0005DF805441498007818B15A46179990473C
:1032E0006D1CE00324D55B462146179A059800F033
:1032F0004DF805441CE00498002807DBDDE90301D4
:10330000884203DD0098405C179901E0179930204E
:103310005A469047049805F10105401C0490019815
:10332000401E019004D12E205A46179990476D1CDB
:10333000BAF10001AAF1010ADDDC05E017F8010B82
:103340005A46179990476D1CB8F10001A8F1010881
:10335000F4DC5B462146179A0598ABE62D00000089
:103360002B000000200000002DE9F041044600255C
:103370001E461746880404D405E039462020B0478D
:103380006D1C641EF9D52846BDE8F0812DE9F04199
:10339000044600251E469046C80301D5302700E0AC
:1033A0002027880404D505E041463846B0476D1C07
:1033B000641EF9D52846BDE8F0810A68531C0B60ED
:1033C000107070477CB5054602221349282001F091
:1033D0003BF8114C02222078617800EB0120ADF817
:1033E000000021462A2001F02FF82078617802227F
:1033F00000EB0120ADF8020021462C2001F024F85A
:103400002078617800EB0120ADF804000098286076
:10341000BDF80400A8807CBD0400002070B50A4CF3
:103420002020A51C6070172129700122A11C01F029
:1034300013FB25206070102129700122A11CBDE81A
:10344000704001F009BB00000000002000B52DED28
:10345000048B83B06846FFF7B5FFBDF90000FDF7A8
:103460004FF89FED159B53EC192BFCF7D7FFFDF799
:103470006BF808EE900ABDF90200FDF741F853EC35
:10348000192BFCF7CBFFFDF75FF808EE100ABDF92A
:103490000400FDF735F853EC192BFCF7BFFFFDF7DF
:1034A00053F803B0B0EE680AF0EE480ABDEC048BA6
:1034B00001EE100A00BD0000B81E85EB51B8AE3F0A
:1034C000A6B0FDF78DFDFEF715FFFEF7B9FDFEF77F
:1034D00039FE364834494FF4E13500240160C0E933
:1034E00001540C26C460C0E904468461C461FEF73F
:1034F00068FC2E482E4940300160C0E90154C46088
:10350000C0E904468461C461FEF75BFC2748583873
:10351000FFF784FF00F034F9264B0DF1840C0FCB3C
:103520008CE80F0021A800F055FA234C21491822FD
:10353000A06110311BA8FCF7D4FE1BAA2021042097
:1035400000F098F91B496061242228316846FCF795
:10355000C8FE6A460021194800F0AAFA1549A06081
:1035600024224C3109A8FCF7BCFE09AA002114480A
:1035700000F09EFA0F49E0602422703112A8FCF797
:10358000B0FE12AA00210F4800F092FA206100203C
:1035900000F060F8E06128B1032100F02FF800F09E
:1035A0000BF9FEE7FEE70000004400405001002058
:1035B00000140140B85A000800000020AD0A0008BD
:1035C000A52400083D28000810B5EFF3058149B98E
:1035D000EFF3108131B908490968022905D1EFF3E9
:1035E000118111B16FF0050403E0002408B101F06E
:1035F000A5F8204610BD00008800002070B50E46DA
:10360000050002D0300E002802D06FF003041CE049
:10361000EFF3058048B9EFF3108030B90C4800682B
:1036200002280ED1EFF3118058B1284601F0A4FA18
:1036300004463146284601F073FA30B96FF00204AF
:1036400003E0284601F04CFA0446204670BD000015
:103650008800002010B54FF00001EFF30582BAB9E1
:10366000EFF31082A2B90B4A1268022A02D1EFF3DB
:1036700011826AB948B1D0E902202AB1202807D3C3
:10368000104601F063FA02E010B901F051FA014668
:10369000084610BD8800002038B50C4610B1210E38
:1036A000002902D06FF0030038BDEFF3058149B95E
:1036B000EFF3108131B911490968022919D1EFF3EB
:1036C0001181B1B1002100916A46214601F0A8FAAA
:1036D00010B16FF0020038BD009920460029FAD0E1
:1036E000074A4FF080511160BFF34F8FBFF36F8FC8
:1036F00038BD214601F04DFA38BD00008800002099
:1037000004ED00E0F8B51D4616460C4610B1210E3A
:10371000002902D06FF00300F8BDEFF3058149B92D
:10372000EFF3108131B915490968022905D1EFF38A
:10373000118111B16FF00500F8BDF10701D001232F
:1037400000E00023B10701D5002200E0012221465C
:10375000009501F06DFAF3076FF001016FF00202BE
:1037600006D0844206D1F8BD0846F8BD1046F8BD23
:103770000442FCD1002DF9D0F6E7000088000020BB
:10378000EFF3058058B9EFF3108040B90949086894
:10379000022801D030B109E0EFF3118030B16FF0B1
:1037A0000500704701200860002070474FF0FF308F
:1037B000704700008800002010B5EFF3058060B965
:1037C000EFF3108048B90B490868022802D001289D
:1037D00006D00BE0EFF3118040B16FF0050010BD93
:1037E0000220086001F0BAF8002010BD4FF0FF3051
:1037F00010BD000088000020F8B51D466FF00302E0
:103800006FF002064FF00004EFF305834BB9EFF3BE
:10381000108333B9154B1B68022B17D1EFF31183BB
:10382000A3B1F0B1E9B1E5B9002200926A4601F016
:103830007BFD012817D10098B0B10D494FF08050A1
:103840000860BFF34F8FBFF36F8F0DE048B141B1F8
:103850002A4601F0CDFC012806D025B16FF0010405
:1038600002E0144600E034462046F8BD88000020FF
:1038700004ED00E0F8B514464FF00005EFF30582C3
:103880006ABBEFF3108252BB164A1268022A02D1B9
:10389000EFF311821ABB10B309B3ACB1D4E9023211
:1038A0006BB1502A1BD32269CAB1676900FB01F6CC
:1038B000B74214D30025009501F0F4FA07E072B97D
:1038C000226962B9626952B9002201F0C7FA0500A3
:1038D00005D00CB1216800E0002100F0F9FE284677
:1038E000F8BD000088000020F8B51D466FF0030207
:1038F0006FF002064FF00004EFF305834BB9EFF3CE
:10390000108333B9164B1B68022B18D1EFF31183C8
:10391000ABB100B3F9B1F5B90022134600926A4683
:1039200001F0E8FB012818D10098B8B10D494FF01B
:1039300080500860BFF34F8FBFF36F8F0EE050B120
:1039400049B100232A4601F025FB012806D025B104
:103950006FF0010402E0144600E034462046F8BD52
:103960008800002004ED00E02DE9F0410D460146FD
:1039700021F0010001F001014FF00004EFF3058296
:103980004AB9EFF3108232B9114A1268022A05D1FE
:10399000EFF3118212B16FF0050416E048B100296F
:1039A0006FF001066FF00207294608D001F0C6FD4E
:1039B00007E06FF0030408E035B1344605E001F09C
:1039C00001FD0128F8D100E03C462046BDE8F08129
:1039D0008800002070B505464FF00004EFF3058025
:1039E000A0BBEFF3108088BB19480068022802D101
:1039F000EFF3118050BB0DB1686800E00020C107F3
:103A000001D0012600E0002600071FD46DB1D5E9E2
:103A1000021021B1502819D31EB1042002E020B1B8
:103A200014E0012001F00DFA05E00EB1042000E0E1
:103A3000012001F0FBF9040008D00DB1296800E075
:103A4000002100F045FE0EB144F00104204670BD97
:103A50008800002070B5014621F0010001F001014D
:103A60004FF00004EFF305824AB9EFF3108232B948
:103A70000E4A1268022A05D1EFF3118212B16FF0DB
:103A8000050411E028B16FF0020529B101F090FBA7
:103A900007E06FF0030407E000231A46194601F01F
:103AA00079FA012800D02C46204670BD88000020FD
:103AB000F0B585B04FEA01034FF00004EFF3058144
:103AC0000394A1BBEFF3108189BB21490968022946
:103AD00002D1EFF3118151BB48B3802618218DF834
:103AE000104004AD42B3176807B13D4697691FB156
:103AF00039467F1E382F02D21779FF0702D00020E7
:103B000005B0F0BD576907B1BE08D2F808C0BCF1D6
:103B1000000F0DD0D4685C2C18D312693AB137B1BC
:103B20008DE806103246294601F08FFD03900DE026
:103B3000D7685FB912694AB903AACDE90012B2B2D7
:103B4000294601F055FD012800D003940398D7E7DA
:103B50008800002010B50A46044617A11046FCF75D
:103B600003FC01462046FCF7F5FB13A10020FCF7FF
:103B7000FBFB0A220021FCF719FC20620EA10020A9
:103B8000FCF7F2FB014604F12400FCF7E3FB0AA179
:103B90000020FCF7E9FB0A220021FCF707FC206368
:103BA00005A10020FCF7E0FB10220021FCF7FEFB42
:103BB0006063204610BD0000240000002DE9F041A4
:103BC000134C0F46054666692068001D00F076FC20
:103BD000681C07D137B12168BDE8F0410D48091DC7
:103BE00000F0CCBC20683544B5424560216805D260
:103BF000A068BDE8F041091D00F0A8BC6068091D7F
:103C000000F0A4FC206B854200D22563BDE8F08162
:103C100038000020600700202DE9F041054600F043
:103C2000B9FC2D4C2069401C206120682B4F10B13D
:103C3000E06930B32BE025602069012827D10026F8
:103C400006EB860007EB800000F072FC761C382E35
:103C5000F6D3234800F06CFC2148143000F068FCD7
:103C60001F48283000F064FC1D483C3000F060FC28
:103C70001B48503000F05CFC194860601430A060B4
:103C800005E02068E96AC06A884200D82560E06AD9
:103C9000401CE0626864E86AA169884200D9A061BA
:103CA00000EB800007EB8000291D00F067FC00F0AE
:103CB00091FCE06900280CD02068E96AC06A88425B
:103CC00007D208494FF080500860BFF34F8FBFF311
:103CD0006F8FBDE8F081000038000020B0020020A6
:103CE0001007002004ED00E038B500F053FC104C44
:103CF000A068C8B90F4800F01BFC0E48143000F053
:103D000017FC0C482060143060600A4B00202833F8
:103D1000009003F1500210210A2001F0C3F8A060C6
:103D200010B105A100F0D4FCBDE8384000F052BC51
:103D30007400002074070020546D725100000000D0
:103D400030B4026C0B46002A0BD0C1681144C1602C
:103D50004468A14201D30168C16030BC1846FCF739
:103D6000C0BA30BC70472DE9F041856B1746044658
:103D70000026026C82B1C7B1E068FCF7B2FAE168D4
:103D8000206C091AE1602268914202D26168081A27
:103D9000E060022F16D017E02068A8B9606801F033
:103DA000FDFC0646002060600EE0A068FCF799FA72
:103DB000216CA0680844A0606168884204D3206830
:103DC000A06001E005B16D1E6D1CA5633046BDE825
:103DD000F08110B5044690F8590058B101280CD074
:103DE00002280FD0502080F31188BFF34F8FBFF30C
:103DF0006F8FFEE7206B00F001FC2046BDE810400D
:103E000000F0FCBB10BD000010484FF47051420799
:103E100006D0C01D0D4920F00700411AC1F57051B0
:103E20000B4A00230144C2E900030839103A21F08B
:103E3000070111604B600B600B1AC0E9001393601F
:103E40004FF000405360D06070470000440F0020E6
:103E50009C000020144E154CA6F29C474FF0805851
:103E6000DFF84C9012E000BF00F094FBF068C568EA
:103E7000281D00F023FB2069401E2061E068401EE1
:103E8000E06000F0A7FB2846FFF7A3FFE0680028EA
:103E9000EAD138680128F9D9C9F80080BFF34F8FFB
:103EA000BFF36F8FF2E700004C07002038000020BE
:103EB00004ED00E0002807D00021416001600B46BE
:103EC0000A46C16001F066B87047000070B51D4633
:103ED000049C51B1C4F80020C4E90F01012120461F
:103EE00001F014F884F84C5070BD2460F4E72DE91B
:103EF000F0470E46DDE9098417468246910099464F
:103F0000089DA522206BFCF7FEF96FF00301206BE2
:103F100001EB8701084420F00707780707D05020FD
:103F200080F31188BFF34F8FBFF36F8FFEE7221826
:103F3000315C82F83410315C11B1401C1028F6D38A
:103F4000002684F84360382D00D33725E562C4E9A4
:103F50001356201D00F0F7FA04F1180000F0F3FAF0
:103F60002461C5F138006462A061666584F8586018
:103F70004A465146384600F051FA2060B8F1000F29
:103F800001D0C8F80040BDE8F087000030B5114905
:103F900000E011460A688242FBD34B685C188442F9
:103FA00003D1406818444860084643681C1894428E
:103FB00009D1084C103C2468A24209D052681A4426
:103FC00042600A6812680260814200D0086030BD19
:103FD0000460F9E79C00002070B5002441600B4D9F
:103FE0000061914206D8D11A8269914206D2011D20
:103FF000686807E09A4203D2994201D3012403E0A2
:10400000011D286800F0A2FA204670BD740000204F
:1040100010B5044600F0BEFAA06B28B15FF00004B2
:1040200000F0D8FA204610BD0124F9E730B589B078
:10403000304D55E00498002806DADDE90601059ABE
:104040009047049800284BDB069C606910B1201D46
:1040500000F034FA02A800F0B9F8024604980A28E1
:104060003ED2DFE800F00505053D263705053D2673
:104070000598A169034601442046FFF7ADFF00B350
:10408000616A20468847E069012829D10020009014
:104090000598A169002342181946204601F0C4FC86
:1040A00078B9502080F31188BFF34F8FBFF36F8F23
:1040B000FEE70598A06128B1811813462046FFF756
:1040C0008BFF0DE0502080F31188BFF34F8FBFF3BB
:1040D0006F8FFEE794F82C0010B9204600F08EFA9E
:1040E000002204A9A86801F083F80028A2D109B031
:1040F00030BD0000740000202DE9FC410F4605464C
:1041000000F070FC01A800F061F80446019818B1B5
:1041100001F0F8FBBDE8FC81224EAFB17068006889
:10412000A8B30027291B3A46B06800F0E5FA01F071
:10413000E9FB0028EED11C494FF080500860BFF326
:104140004F8FBFF36F8FE5E7A542EBD801F0DAFBA5
:1041500030682746C068C468201D00F0AFF9E069E8
:10416000012810D1A0692B4641193A462046FFF795
:1041700033FF40B100200346014600902A46204606
:1041800001F052FC20B1616A20468847C2E707E08F
:10419000502080F31188BFF34F8FBFF36F8FFEE77E
:1041A0000127BFE77400002004ED00E006484168E5
:1041B000096829B14168C968C968496801637047DD
:1041C0004FF0FF31FAE700003800002070B50546D7
:1041D00001F07AFA064E04463069844203D200F0B8
:1041E00009F8012000E0002028602046346170BDFD
:1041F00074000020F8B5194D1FE0C068C468066857
:10420000201D00F05BF9616A20468847E0690128BB
:1042100013D1A0693044B04206D924616060211DE9
:10422000286800F093F908E000200346014600905A
:104230003246204601F0F8FB38B1286801680029B1
:10424000DBD16968C5E90010F8BD502080F3118802
:10425000BFF34F8FBFF36F8FFEE7000074000020A5
:1042600008484068401C4FF0500080F3118804D08B
:10427000BFF34F8FBFF36F8FFEE7BFF34F8FBFF3D7
:104280006F8FFEE7A40000200346002012B199437F
:1042900002D070470B42FCD001207047074C2068C9
:1042A000016841B1C0680021D0F80000FFF724FF89
:1042B000FFF7BCFEF3E701210020F7E774000020C0
:1042C0002DE9F041044600F065F994F9455004F1F8
:1042D000240609E0606A48B1304601F0DBFA08B113
:1042E00000F05AFA6D1E6DB2002DF3DC4FF0FF3670
:1042F00084F8456000F06EF900F04CF994F94450F0
:1043000004F1100709E0206948B1384601F0C2FA0B
:1043100008B100F041FA6D1E6DB2002DF3DC84F897
:104320004460BDE8F04100F055B900002DE9F041CE
:104330000546002700F056FB314E306808B9FFF7FC
:1043400063FDF06805424BD1C5B3083568070ED050
:1043500005F00700C0F108000544680707D05020A9
:1043600080F31188BFF34F8FBFF36F8FFEE72DB33C
:104370007068854234D82248103001460C6801E04C
:1043800020460C466168A94202D221680029F7D173
:1043900031688C4224D00768216801606068083762
:1043A000411B10290FD96019420708D0502080F313
:1043B0001188BFF34F8FBFF36F8FFEE710E04160AE
:1043C0006560FFF7E3FD61687068401A7060B2686D
:1043D000904200D2B060F06801430020C4E90001BF
:1043E00001F090FA780707D0502080F31188BFF3CE
:1043F0004F8FBFF36F8FFEE73846BDE8F0810000B6
:104400008C0000200449086818B10868026D521C2D
:1044100002650868704700003800002010B5031FCF
:104420004FF080741C601B1F21F001011960191FDF
:10443000044B0B6014390A60091F6FF00202443804
:104440000A6010BD61420008F8B540F080000E4ED1
:1044500014460D468DF80000002208213046FCF776
:10446000ABFD0A23012269460848FDF71BFA0A231F
:10447000224629460548FDF76DF9012208213046FC
:10448000FCF79AFDF8BD000000100240F800002083
:1044900070B5050010D0287870B12C462046FBF787
:1044A00044FF4119491E05E020780A7804F8012BE1
:1044B00001F801098C42F7D3284670BDD0E90132DA
:1044C00001699A60D0E901235A604A68824201D1A9
:1044D00082684A60002202610868401E086008681D
:1044E00070470000044908680A688069D26A096850
:1044F000C2F138028A61704738000020034B036024
:1045000003F15C0008608020106070478C08002078
:10451000044B036003F15C0008604FF4807010608E
:1045200070470000E80A002000F0DABA00F031BB62
:1045300000F108014FF0FF32C0E90112C1600161D2
:1045400000210160704700210161704730B50B68A0
:104550005A1C02D000F1080202E0026904E022467F
:10456000546825689D42FAD953684B6099608A6007
:10457000516008610168491C016030BD42684A60B1
:1045800093688B6093685960916008610168491C69
:1045900001607047502080F31188BFF34F8FBFF345
:1045A0006F8F0A494868401C486001280CD10848B0
:1045B000006810F0FF0F07D0502080F31188BFF380
:1045C0004F8FBFF36F8FFEE770470000A4000020FD
:1045D00004ED00E00849486828B1401E486001D158
:1045E00080F311887047502080F31188BFF34F8FFC
:1045F000BFF36F8FFEE70000A400002070B5002815
:1046000027D0144DA0F108046168E868014207D181
:10461000502080F31188BFF34F8FBFF36F8FFEE7F9
:1046200022683AB1502080F31188BFF34F8FBFF357
:104630006F8FFEE78143616000F0D4F960686968BC
:10464000084468602046FFF7A1FCBDE8704001F017
:1046500059B970BD8C0000204FF0E02000210161AD
:10466000816105494FF47A720968B1FBF2F1491E84
:1046700041610721016170473400002010B5FBF74C
:10468000E9FD114910280ED300F1E02090F8F00365
:104690000A78904207D2502080F31188BFF34F8FE1
:1046A000BFF36F8FFEE709480068896800F4E06097
:1046B000884207D9502080F31188BFF34F8FBFF392
:1046C0006F8FFEE710BD0000A40000200CED00E09D
:1046D00010B5084B002200BF53F832401CB1521CE9
:1046E000082AF9D310BD43F8321003EBC201486029
:1046F00010BD00007002002070B515460E4604463D
:10470000FFF748FF94F944100020491C01D184F8B8
:10471000440094F94510491C01D184F84500FFF785
:1047200059FFA06B28B92A46314604F1240000F055
:1047300051F82046BDE87040FFF7C2BD10B5020039
:1047400014D00F48806B38B1502080F31188BFF32C
:104750004F8FBFF36F8FFEE700F044F90021104642
:10476000FFF72CFA01F0CEF8002807D105494FF0E9
:1047700080500860BFF34F8FBFF36F8F10BD0000F4
:104780003800002004ED00E002498A6A02604969AD
:10479000416070473800002001490120486270479D
:1047A0003800002010B50C4650B10949096818318D
:1047B000FFF7CCFE2046BDE810400121FFF7FEB90F
:1047C000502080F31188BFF34F8FBFF36F8FFEE748
:1047D0003800002070B514460D4668B10A490968D2
:1047E0001831FFF7CBFE0CB14FF0FF3521462846BC
:1047F000BDE87040FFF7E2B9502080F31188BFF3A5
:104800004F8FBFF36F8FFEE73800002010B51446BE
:10481000030011D01048826BB2B1026841F0004130
:104820009161016818461831FFF7A8FE2046BDE8DF
:1048300010400121FFF7C2B9502080F31188BFF367
:104840004F8FBFF36F8FFEE7502080F31188BFF3C7
:104850004F8FBFF36F8FFEE73800002070B5040064
:104860003ED0226DA2B1E06C884200D30146E06ADE
:10487000884235D0012A33D11A4D2A6894420FD18B
:10488000502080F31188BFF34F8FBFF36F8FFEE787
:10489000502080F31188BFF34F8FBFF36F8FFEE777
:1048A000E162A269002A02DBC1F13801A1610E4E6A
:1048B00000EB8000616906EB8000814210D1201D71
:1048C000FFF7FCFDE06AA969884200D9A86100EB06
:1048D000800006EB8000211DBDE87040FFF74EBE52
:1048E00070BD000038000020B002002070B5194DE6
:1048F000AA6BF2B141F000410160C4680CB3FFF74C
:10490000DDFD201DFFF7DAFDE06AA969884200D9C4
:10491000A861114900EB800001EB8000211DFFF729
:104920002DFEE06A2968C96A884201D901206862BF
:1049300070BD502080F31188BFF34F8FBFF36F8F8E
:10494000FEE7502080F31188BFF34F8FBFF36F8FC6
:10495000FEE7000038000020B002002030B587B02C
:104960000024039405AA04A903A80494FFF7C6FD34
:10497000DDE903010094CDE90110002315A11748DA
:10498000059A00F062FE164D002868631FD001F002
:104990001BF8012809D0401C19D1502080F3118840
:1049A000BFF34F8FBFF36F8FFEE7502080F3118866
:1049B000BFF34F8FBFF36F8F4FF0FF30286301209D
:1049C000E8616C6107B0BDE8304000F0B5B907B0F0
:1049D00030BD000049444C4500000000553E000831
:1049E000380000200248816B491C81637047000039
:1049F00038000020164810B5816B11B101214162C9
:104A000010BD002141628169124A01E0B9B1491E1D
:104A100001EB810352F82330002BF7D001EB810327
:104A200002EB830202F1080453685B685360A342FF
:104A300001D15B685360DA680260816110BD50206B
:104A400080F31188BFF34F8FBFF36F8FFEE7000035
:104A500038000020B0020020F7B50D4C15460E4678
:104A6000002208212046FCF7A7FA0A230122694602
:104A70000848FCF717FF0A232A4631460548FCF789
:104A800011FF012208212046FCF796FAFEBD000026
:104A900000100240F80000202DE9F0410F460F49B8
:104AA00016464518FCF774F902210B20FCF75CF858
:104AB000FCF726F9FCF76CF9002408E057F82420ED
:104AC000002329460220FCF725F9641C2D1DB44261
:104AD000F4D3BDE8F041FCF713B9000000000E0864
:104AE00070B50E46040009D0300E0FD0502080F370
:104AF0001188BFF34F8FBFF36F8FFEE7502080F315
:104B00001188BFF34F8FBFF36F8FFEE7FFF742FDB2
:104B1000256825EA06002060FFF75CFD284670BD89
:104B20000A4601460023014800F0B2BF29450008AB
:104B300070B52020FFF7FAFB040005D00025201DEA
:104B40002560FFF7F5FC2577204670BD38B558B1D4
:104B500020210446002000912060201DFFF7E8FC82
:104B600001202077204638BD502080F31188BFF304
:104B70004F8FBFF36F8FFEE75022EFF3118182F367
:104B80001188BFF34F8FBFF36F8F006881F31188D7
:104B900070472DE9F0410027884604000AD05FEAFB
:104BA00018600FD0502080F31188BFF34F8FBFF3F0
:104BB0006F8FFEE7502080F31188BFF34F8FBFF354
:104BC0006F8FFEE7261D04F10C05FFF70BFF216830
:104BD000F06841EA0801216017E0D0E9001601F011
:104BE0007F425301236821F07F4102D40B4203D15D
:104BF0000AE031EA030307D1D20100D50F4321684F
:104C000041F00071FFF772FE3046A842E5D12068FE
:104C1000B843206000F076FE2068BDE8F081000017
:104C200013460A460146014800F032BF2D450008F0
:104C30002DE9F0479A46DDF8209090460D46040095
:104C40004FF0000709D0280E0FD0502080F31188B4
:104C5000BFF34F8FBFF36F8FFEE7502080F31188B3
:104C6000BFF34F8FBFF36F8FFEE71DB100F01EFD46
:104C700040B112E0502080F31188BFF34F8FBFF393
:104C80006F8FFEE7B9F1000F07D0502080F3118835
:104C9000BFF34F8FBFF36F8FFEE7FFF7A3FE2668CA
:104CA000524629463046FFF7EFFA30B1B8F1000F0F
:104CB0001AD02068A843206016E0B9F1000F13D085
:104CC000B8F1000F01D04FF08077BAF1000F01D09A
:104CD00047F0806745EA07014A46201DFFF796FD29
:104CE00000F010FE18B10AE000F00CFE1FE01149C0
:104CF0004FF080500860BFF34F8FBFF36F8FFFF707
:104D0000F1FB0646800110D4FFF744FC26685246AA
:104D100029463046FFF7B8FA28B1B8F1000F02D0A3
:104D20002068A8432060FFF755FC26F07F463046F8
:104D3000BDE8F08704ED00E01CB537480168374A4C
:104D4000914207D1502080F31188BFF34F8FBFF3FA
:104D50006F8FFEE700683149491E884207D1502015
:104D600080F31188BFF34F8FBFF36F8FFEE72C499D
:104D700008780190FF20087008788DF800009DF8F1
:104D800000009DF8002000F0F000904207D0502075
:104D900080F31188BFF34F8FBFF36F8FFEE79DF84D
:104DA0000000204B00F0500018700720986005E0CC
:104DB0009DF8002052008DF80020401E9DF8002034
:104DC0001206F5D49860032807D0502080F311888C
:104DD000BFF34F8FBFF36F8FFEE74FF440709860C3
:104DE000019808700C482030016841F4700101609E
:104DF000016841F070410160FFF72EFC002058600F
:104E0000FBF7F0F90848016841F040410160FBF709
:104E1000D5F900201CBD000000ED00E071C20F417B
:104E200000E400E0A400002034EF00E010B50246EA
:104E30000021012000F012F80446FFF73BF820465D
:104E400010BD38B50B46002200901146012000F03D
:104E500029F80446FFF72EF8204638BDF8B5174666
:104E60000E46050014D0DEB105FB06F05030FFF70A
:104E70005DFA04000AD0002084F8460004F15002D4
:104E80003B46314628460094FFF720F82046F8BDFF
:104E9000502080F31188BFF34F8FBFF36F8FFEE771
:104EA0000020E3E738B5049D18B153B1CAB181B110
:104EB00020E0502080F31188BFF34F8FBFF36F8F36
:104EC000FEE7502080F31188BFF34F8FBFF36F8F41
:104ED000FEE7502080F31188BFF34F8FBFF36F8F31
:104EE000FEE739B1502080F31188BFF34F8FBFF335
:104EF0006F8FFEE750241C46012384F846302B4672
:104F00000094FEF7E3FF204638BD000070B50D4663
:104F1000040025D0FFF73EFBD4E90F20216802FBF7
:104F2000001161600021A1632168A1600A46D4E9F3
:104F30000F01401E00FB0121E16021464FF0FF30D0
:104F400001F8440F487004F110008DB1FFF7F0FA3A
:104F500004F12400FFF7ECFAFFF73CFB012070BDE1
:104F6000502080F31188BFF34F8FBFF36F8FFEE7A0
:104F700021690029F0D000F08DFC0028ECD0044914
:104F80004FF080500860BFF34F8FBFF36F8FE3E7A0
:104F900004ED00E02DE9FF4782B01D468A464FF040
:104FA0000008040003D0BAF1000F08D011E050202F
:104FB00080F31188BFF34F8FBFF36F8FFEE7206C34
:104FC00038B1502080F31188BFF34F8FBFF36F8F3C
:104FD000FEE7022D0AD1E06B012807D0502080F3B4
:104FE0001188BFF34F8FBFF36F8FFEE700F05EFBBA
:104FF0003F4F4FF000094FF0805648B9049838B140
:10500000502080F31188BFF34F8FBFF36F8FFEE7FF
:10501000FFF7C0FAA06BE16B884207D3022D05D0E1
:105020000498D0B1B8F1000F1AD01EE02A465146BC
:105030002046FEF798FE616A19B104F1240000F0E1
:1050400029FC20B13E60BFF34F8FBFF36F8FFFF796
:10505000C1FA012006B0BDE8F087FFF7BBFA22E0F5
:105060006846FFF791FB4FF00108FFF7B3FAFFF72F
:10507000B9FCFFF78FFA94F94400401C01D184F881
:10508000449094F94500401C01D184F84590FFF705
:10509000A1FA04A9684600F071FA30B12046FFF782
:1050A0000FF900F02FFC0020D4E7FFF773FAA06B94
:1050B000E16B884213D1FFF78DFA04F110000499D7
:1050C000FFF770FB2046FFF7FBF800F01BFC002801
:1050D0009ED13E60BFF34F8FBFF36F8F98E7FFF70E
:1050E00079FA2046FFF7ECF800F00CFC90E700009E
:1050F00004ED00E02DE9F0471F4690468946040084
:1051000003D0B9F1000F08D011E0502080F31188CE
:10511000BFF34F8FBFF36F8FFEE7206C38B1502085
:1051200080F31188BFF34F8FBFF36F8FFEE7022F1D
:105130000AD1E06B012807D0502080F31188BFF31B
:105140004F8FBFF36F8FFEE7FFF798FA5020EFF312
:10515000118680F31188BFF34F8FBFF36F8FA06B61
:10516000E16B884206D3022F04D0002086F3118819
:10517000BDE8F08794F945503A4649462046FEF787
:10518000F2FD681C04D06D1C84F845500120EDE749
:10519000606A0028FAD004F1240000F07BFB0028AC
:1051A000F4D0B8F1000FF1D00121C8F80010EDE7FC
:1051B00010B5040009D000F073FA6168884214D178
:1051C000E068401EE06008D00DE0502080F31188B8
:1051D000BFF34F8FBFF36F8FFEE700231A461946C8
:1051E0002046FFF7D7FE012010BD002010BD0000B3
:1051F0002DE9F747002683B08A46040003D0BAF1B0
:10520000000F08D011E0502080F31188BFF34F8FBA
:10521000BFF36F8FFEE7206C38B1502080F3118808
:10522000BFF34F8FBFF36F8FFEE700F03FFADFF859
:10523000F4804FF000094FF0805748B9059838B115
:10524000502080F31188BFF34F8FBFF36F8FFEE7BD
:10525000FFF7A0F9A56BC5B151462046FEF770FDDA
:105260006D1EA563206950B104F1100000F012FB1F
:1052700028B1C8F80070BFF34F8FBFF36F8FFFF7EF
:10528000A9F9012006B0BDE8F087059808B11EB164
:1052900006E0FFF79FF927E06846FFF775FA012659
:1052A000FFF798F9FFF79EFBFFF774F994F94400B4
:1052B000401C01D184F8449094F94500401C01D170
:1052C00084F84590FFF786F905A9684600F056F97D
:1052D000002820460AD0FEF7F3FF00F013FB20461B
:1052E000FEF796FE0028B3D00020CBE7FEF790FE35
:1052F00090B104F124000599FFF754FA2046FEF717
:10530000DFFF00F0FFFA0028A2D1C8F80070BFF359
:105310004F8FBFF36F8F9BE72046FEF7D1FF00F062
:10532000F1FA95E704ED00E02DE9F0479046894653
:10533000040003D0B9F1000F08D011E0502080F331
:105340001188BFF34F8FBFF36F8FFEE7206C38B12A
:10535000502080F31188BFF34F8FBFF36F8FFEE7AC
:10536000FFF78CF95020EFF3118680F31188BFF31B
:105370004F8FBFF36F8FA76BF7B194F94450494635
:105380002046FEF7DDFC7F1EA763681C04D06D1C61
:1053900084F84450012010E020690028FAD004F17C
:1053A000100000F077FA0028F4D0B8F1000FF1D027
:1053B0000121C8F80010EDE7002086F31188BDE850
:1053C000F08700002DE9F343002683B00400354642
:1053D00009D0206C78B1502080F31188BFF34F8F33
:1053E000BFF36F8FFEE7502080F31188BFF34F8F1C
:1053F000BFF36F8FFEE700F059F9DFF83C814FF003
:1054000000094FF0805748B9049838B1502080F314
:105410001188BFF34F8FBFF36F8FFEE7FFF7BAF826
:10542000A06BC8B1401EA063206810B9FEF7EAFF68
:105430006060206950B104F1100000F02BFA28B12F
:10544000C8F80070BFF34F8FBFF36F8FFFF7C2F83C
:10545000012005B0BDE8F083049808B166B10FE003
:105460003DB1502080F31188BFF34F8FBFF36F8F92
:10547000FEE7FFF7AFF85DE06846FFF785F9012624
:10548000FFF7A8F8FFF7AEFAFFF784F894F94400A5
:10549000401C01D184F8449094F94500401C01D18E
:1054A00084F84590FFF796F804A9684600F066F87E
:1054B0000028204612D0FEF703FF00F023FA204612
:1054C000FEF7A6FD0028A9D09DB3FFF763F8606A38
:1054D00050B3206B0068C0F1380126E0FEF798FD5C
:1054E000E0B1206838B9FFF755F8606800F096F928
:1054F0000546FFF76FF804F124000499FFF752F90D
:105500002046FEF7DDFE00F0FDF9002886D1C8F840
:105510000070BFF34F8FBFF36F8F7FE72046FEF71A
:10552000CFFE00F0EFF979E700216068FFF796F908
:105530009FE7FFE700208CE704ED00E070B50D4623
:10554000040009D000F0ACF8616888420CD1E06832
:10555000401CE060012070BD502080F31188BFF333
:105560004F8FBFF36F8FFEE729462046FFF72AFFD4
:105570000028F0D0E168491CE16070BD2DE9F041E0
:105580000C46050011D0C4B1FFF704F8174B5A6957
:105590006E682068911B471C17D02F689B6A9F423A
:1055A00019D0964217D8012410E0502080F31188BA
:1055B000BFF34F8FBFF36F8FFEE7502080F311884A
:1055C000BFF34F8FBFF36F8FFEE70024FFF702F8A2
:1055D0002046BDE8F081884205D9401A206028465F
:1055E000FFF7D2F8F1E700202060DCE73800002068
:1055F0002DE9FF5F8346DDE90E87994616468A4608
:105600009000FEF793FE05001CD05C20FEF78EFE96
:10561000040014D00020256384F85900CDE902402D
:10562000CDE900874B46324651465846FEF75FFCAF
:105630002046FEF7F1FA012004B0BDE8F09F2846AD
:10564000FEF7DCFF4FF0FF30F6E7F0B585B0DDE99F
:105650000B640A9DA6B1DCB15C2700972663022685
:1056600084F85960002604AFCDE90246CDE9005721
:10567000FEF73DFC2046FEF7CFFA049805B0F0BDDA
:10568000502080F31188BFF34F8FBFF36F8FFEE779
:10569000502080F31188BFF34F8FBFF36F8FFEE769
:1056A0000148006870470000380000200548C169C3
:1056B00019B1806B18B1002070470120704702209B
:1056C0007047000038000020014840697047000022
:1056D000380000202DE9F0412E4C0027A06B40B18E
:1056E000206A401C2062606A00B101273846BDE88C
:1056F000F0816669761C666113D16068006838B114
:10570000502080F31188BFF34F8FBFF36F8FFEE7F8
:105710006068A1686160A060A06A401CA062FEF79A
:1057200045FD206BDFF87080864209D36068006811
:1057300080B16068C068C568686886420DD2206321
:105740002068C06A00EB800158F821000128CAD9FE
:105750000127C8E74FF0FF30F1E7281DFEF7AEFE46
:10576000A86A18B105F11800FEF7A8FEE86AA16959
:10577000884200D9A06100EB800108EB8100291D5F
:10578000FEF7FCFEE86A2168C96A8842CED3012789
:10579000CCE7000038000020B002002070B5040003
:1057A0004FF0000133D01B4D2868844207D05020B1
:1057B00080F31188BFF34F8FBFF36F8FFEE7206D2B
:1057C00038B1401E2065E36CE26A9A421FD040B1B6
:1057D0001DE0502080F31188BFF34F8FBFF36F8F10
:1057E000FEE7201DFEF76AFEE06CE062C0F13800C3
:1057F000A061E06AA969884200D9A861064900EB66
:10580000800001EB8000211DFEF7B8FE0121084653
:1058100070BD000038000020B002002070B5040008
:105820004FF000002BD0194DE16A2A68D26A9142EC
:1058300026D2A069002804DB2868C06AC0F13800BD
:10584000A061134E01EB8101606906EB8101884282
:1058500011D1201DFEF732FE2868C06AE062A969F6
:10586000884200D9A86100EB800006EB8000211D72
:10587000FEF784FE02E02868C06AE062012070BD85
:10588000E16C2A68D26A9142F8D370BD38000020DA
:10589000B002002070B5C068C46854B104F11800AB
:1058A0000646FEF70BFE144DA86B50B13146134867
:1058B00015E0502080F31188BFF34F8FBFF36F8F37
:1058C000FEE7201DFEF7FAFDE06AA969884200D9CB
:1058D000A8610B4900EB800001EB8000211DFEF761
:1058E0004DFEE06A2968C96A884202D901206862CF
:1058F00070BD002070BD0000380000203807002077
:10590000B00200202DE9F0472C4D00242746A86B5B
:1059100038B1FEF73FFEA86B401EA863A86B40B1EC
:1059200046E0502080F31188BFF34F8FBFF36F8F95
:10593000FEE72969224E0120D1B3A6F59169804680
:105940003068E0B1F068C46804F11800FEF7B6FDF5
:10595000201DFEF7B3FDE06AA969884200D9A8615D
:1059600000EB800109EB8100211DFEF707FEE06AD4
:105970002968C96A8842E3D3C5F82480E0E70CB1FE
:10598000FEF714FC2C6A4CB14FEA0806FFF7A2FEA2
:1059900000B16E62641EF9D100202862686A38B1D5
:1059A0000849012738070860BFF34F8FBFF36F8F97
:1059B000FEF710FE3846BDE8F087000038000020F2
:1059C0003807002004ED00E010B586B0FEF78CF932
:1059D000114CA068B8B100200390049005AA04A956
:1059E00003A8FEF795FDDDE9032102208DE80700FD
:1059F00000230AA10B48059AFFF727FEE06010B1CB
:105A000006B0012010BD502080F31188BFF34F8FE6
:105A1000BFF36F8FFEE7000074000020546D72200A
:105A2000537663009D4200082DE9FF411E46134650
:105A300002000A9D4FF0000016D0144CA768002FFA
:105A40000FD0CDE900130292062917DAFFF72EFED8
:105A500002284FF000030FD000226946A068FFF72C
:105A600099FA04B0BDE8F081502080F31188BFF3AB
:105A70004F8FBFF36F8FFEE72A46EEE700233246D3
:105A800069463846FFF736FBEBE70000740000205C
:105A90001FB51C466FF00103CDE90030CDE90212BD
:105AA00004480023224669468068FFF723FB04B0C0
:105AB00010BD000074000020205C00080000000001
:105AC0000000000000000000EC5B00080000000087
:105AD00000000000000000000000000000000000C6
